{
	"data": {
		"bytecode": {
			"linkReferences": {},
			"object": "6080604052348015600e575f5ffd5b506120098061001c5f395ff3fe608060405234801561000f575f5ffd5b5060043610610091575f3560e01c8063609e1e6011610064578063609e1e60146101315780636d25a3d11461014f5780637454a9f61461016b57806379c66a041461019b5780639af76a90146101b957610091565b80630e366cbe146100955780630f53f667146100b157806328b968ba146100e3578063338ad5c214610115575b5f5ffd5b6100af60048036038101906100aa919061137e565b6101f4565b005b6100cb60048036038101906100c691906114f7565b610496565b6040516100da939291906115a4565b60405180910390f35b6100fd60048036038101906100f891906114f7565b6105e2565b60405161010c939291906115e7565b60405180910390f35b61012f600480360381019061012a9190611631565b6107b4565b005b61013961090d565b60405161014691906116e9565b60405180910390f35b61016960048036038101906101649190611702565b610912565b005b6101856004803603810190610180919061179e565b610a3d565b60405161019291906116e9565b60405180910390f35b6101a3610d81565b6040516101b091906116e9565b60405180910390f35b6101d360048036038101906101ce919061179e565b610dbf565b6040516101eb9c9b9a99989796959493929190611891565b60405180910390f35b5f6101fe89611058565b90505f5f845111610244576040518060400160405280601381526020017f4e6f206164646974696f6e616c206e6f74657300000000000000000000000000815250610246565b835b90505f5f84511161028c576040518060400160405280600381526020017f4e2f41000000000000000000000000000000000000000000000000000000000081525061028e565b835b90506040518061018001604052805f5481526020018f81526020018e81526020018d81526020018460028111156102c8576102c76117c9565b5b81526020018b81526020018a151581526020018960028111156102ee576102ed6117c9565b5b81526020018881526020018781526020018381526020018281525060015f5f5481526020019081526020015f205f820151815f015560208201518160010190816103389190611b62565b5060408201518160020155606082015181600301556080820151816004015f6101000a81548160ff02191690836002811115610377576103766117c9565b5b021790555060a08201518160050190816103919190611b62565b5060c0820151816006015f6101000a81548160ff02191690831515021790555060e08201518160060160016101000a81548160ff021916908360028111156103dc576103db6117c9565b5b02179055506101008201518160070155610120820151816008015561014082015181600901908161040d9190611b62565b5061016082015181600a0190816104249190611b62565b509050505f5f81548092919061043990611c5e565b91905055507f7efab20ab4c4d8c33ecd03458d6147bf7ccc1faa40dfeedd6f2d7a7cf28a12d73a60014361046d9190611ca5565b404360405161047e93929190611cf0565b60405180910390a15050505050505050505050505050565b6003602052815f5260405f2081815481106104af575f80fd5b905f5260205f2090600302015f9150915050805f0180546104cf90611992565b80601f01602080910402602001604051908101604052809291908181526020018280546104fb90611992565b80156105465780601f1061051d57610100808354040283529160200191610546565b820191905f5260205f20905b81548152906001019060200180831161052957829003601f168201915b50505050509080600101549080600201805461056190611992565b80601f016020809104026020016040519081016040528092919081815260200182805461058d90611992565b80156105d85780601f106105af576101008083540402835291602001916105d8565b820191905f5260205f20905b8154815290600101906020018083116105bb57829003601f168201915b5050505050905083565b6002602052815f5260405f2081815481106105fb575f80fd5b905f5260205f2090600302015f9150915050805f01805461061b90611992565b80601f016020809104026020016040519081016040528092919081815260200182805461064790611992565b80156106925780601f1061066957610100808354040283529160200191610692565b820191905f5260205f20905b81548152906001019060200180831161067557829003601f168201915b5050505050908060010180546106a790611992565b80601f01602080910402602001604051908101604052809291908181526020018280546106d390611992565b801561071e5780601f106106f55761010080835404028352916020019161071e565b820191905f5260205f20905b81548152906001019060200180831161070157829003601f168201915b50505050509080600201805461073390611992565b80601f016020809104026020016040519081016040528092919081815260200182805461075f90611992565b80156107aa5780601f10610781576101008083540402835291602001916107aa565b820191905f5260205f20905b81548152906001019060200180831161078d57829003601f168201915b5050505050905083565b8360015f8681526020019081526020015f205f015414610809576040517f08c379a000000000000000000000000000000000000000000000000000000000815260040161080090611d6f565b60405180910390fd5b60025f8581526020019081526020015f20604051806060016040528085815260200184815260200183815250908060018154018082558091505060019003905f5260205f2090600302015f909190919091505f820151815f01908161086e9190611b62565b5060208201518160010190816108849190611b62565b50604082015181600201908161089a9190611b62565b5050508160015f8681526020019081526020015f2060050190816108be9190611b62565b507f7efab20ab4c4d8c33ecd03458d6147bf7ccc1faa40dfeedd6f2d7a7cf28a12d73a6001436108ee9190611ca5565b40436040516108ff93929190611cf0565b60405180910390a150505050565b5f5481565b8360015f8681526020019081526020015f205f015414610967576040517f08c379a000000000000000000000000000000000000000000000000000000000815260040161095e90611d6f565b60405180910390fd5b60035f8581526020019081526020015f20604051806060016040528085815260200184815260200183815250908060018154018082558091505060019003905f5260205f2090600302015f909190919091505f820151815f0190816109cc9190611b62565b506020820151816001015560408201518160020190816109ec9190611b62565b5050507f7efab20ab4c4d8c33ecd03458d6147bf7ccc1faa40dfeedd6f2d7a7cf28a12d73a600143610a1e9190611ca5565b4043604051610a2f93929190611cf0565b60405180910390a150505050565b5f5f60015f8481526020019081526020015f20604051806101800160405290815f8201548152602001600182018054610a7590611992565b80601f0160208091040260200160405190810160405280929190818152602001828054610aa190611992565b8015610aec5780601f10610ac357610100808354040283529160200191610aec565b820191905f5260205f20905b815481529060010190602001808311610acf57829003601f168201915b505050505081526020016002820154815260200160038201548152602001600482015f9054906101000a900460ff166002811115610b2d57610b2c6117c9565b5b6002811115610b3f57610b3e6117c9565b5b8152602001600582018054610b5390611992565b80601f0160208091040260200160405190810160405280929190818152602001828054610b7f90611992565b8015610bca5780601f10610ba157610100808354040283529160200191610bca565b820191905f5260205f20905b815481529060010190602001808311610bad57829003601f168201915b50505050508152602001600682015f9054906101000a900460ff161515151581526020016006820160019054906101000a900460ff166002811115610c1257610c116117c9565b5b6002811115610c2457610c236117c9565b5b81526020016007820154815260200160088201548152602001600982018054610c4c90611992565b80601f0160208091040260200160405190810160405280929190818152602001828054610c7890611992565b8015610cc35780601f10610c9a57610100808354040283529160200191610cc3565b820191905f5260205f20905b815481529060010190602001808311610ca657829003601f168201915b50505050508152602001600a82018054610cdc90611992565b80601f0160208091040260200160405190810160405280929190818152602001828054610d0890611992565b8015610d535780601f10610d2a57610100808354040283529160200191610d53565b820191905f5260205f20905b815481529060010190602001808311610d3657829003601f168201915b50505050508152505090505f600590505f818360600151610d749190611d8d565b9050809350505050919050565b5f5f5f90505f5f90505b5f54811015610db757610d9d81610a3d565b82610da89190611dce565b91508080600101915050610d8b565b508091505090565b6001602052805f5260405f205f91509050805f015490806001018054610de490611992565b80601f0160208091040260200160405190810160405280929190818152602001828054610e1090611992565b8015610e5b5780601f10610e3257610100808354040283529160200191610e5b565b820191905f5260205f20905b815481529060010190602001808311610e3e57829003601f168201915b505050505090806002015490806003015490806004015f9054906101000a900460ff1690806005018054610e8e90611992565b80601f0160208091040260200160405190810160405280929190818152602001828054610eba90611992565b8015610f055780601f10610edc57610100808354040283529160200191610f05565b820191905f5260205f20905b815481529060010190602001808311610ee857829003601f168201915b505050505090806006015f9054906101000a900460ff16908060060160019054906101000a900460ff1690806007015490806008015490806009018054610f4b90611992565b80601f0160208091040260200160405190810160405280929190818152602001828054610f7790611992565b8015610fc25780601f10610f9957610100808354040283529160200191610fc2565b820191905f5260205f20905b815481529060010190602001808311610fa557829003601f168201915b50505050509080600a018054610fd790611992565b80601f016020809104026020016040519081016040528092919081815260200182805461100390611992565b801561104e5780601f106110255761010080835404028352916020019161104e565b820191905f5260205f20905b81548152906001019060200180831161103157829003601f168201915b505050505090508c565b5f60405160200161106890611e55565b604051602081830303815290604052805190602001208260405160200161108f9190611e99565b60405160208183030381529060405280519060200120036110b2575f90506111a1565b6040516020016110c190611ef9565b60405160208183030381529060405280519060200120826040516020016110e89190611e99565b604051602081830303815290604052805190602001200361110c57600190506111a1565b60405160200161111b90611f57565b60405160208183030381529060405280519060200120826040516020016111429190611e99565b604051602081830303815290604052805190602001200361116657600290506111a1565b6040517f08c379a000000000000000000000000000000000000000000000000000000000815260040161119890611fb5565b60405180910390fd5b919050565b5f604051905090565b5f5ffd5b5f5ffd5b5f5ffd5b5f5ffd5b5f601f19601f8301169050919050565b7f4e487b71000000000000000000000000000000000000000000000000000000005f52604160045260245ffd5b611205826111bf565b810181811067ffffffffffffffff82111715611224576112236111cf565b5b80604052505050565b5f6112366111a6565b905061124282826111fc565b919050565b5f67ffffffffffffffff821115611261576112606111cf565b5b61126a826111bf565b9050602081019050919050565b828183375f83830152505050565b5f61129761129284611247565b61122d565b9050828152602081018484840111156112b3576112b26111bb565b5b6112be848285611277565b509392505050565b5f82601f8301126112da576112d96111b7565b5b81356112ea848260208601611285565b91505092915050565b5f819050919050565b611305816112f3565b811461130f575f5ffd5b50565b5f81359050611320816112fc565b92915050565b5f8115159050919050565b61133a81611326565b8114611344575f5ffd5b50565b5f8135905061135581611331565b92915050565b60038110611367575f5ffd5b50565b5f813590506113788161135b565b92915050565b5f5f5f5f5f5f5f5f5f5f5f6101608c8e03121561139e5761139d6111af565b5b5f8c013567ffffffffffffffff8111156113bb576113ba6111b3565b5b6113c78e828f016112c6565b9b505060206113d88e828f01611312565b9a505060406113e98e828f01611312565b99505060608c013567ffffffffffffffff81111561140a576114096111b3565b5b6114168e828f016112c6565b98505060808c013567ffffffffffffffff811115611437576114366111b3565b5b6114438e828f016112c6565b97505060a06114548e828f01611347565b96505060c06114658e828f0161136a565b95505060e06114768e828f01611312565b9450506101006114888e828f01611312565b9350506101208c013567ffffffffffffffff8111156114aa576114a96111b3565b5b6114b68e828f016112c6565b9250506101408c013567ffffffffffffffff8111156114d8576114d76111b3565b5b6114e48e828f016112c6565b9150509295989b509295989b9093969950565b5f5f6040838503121561150d5761150c6111af565b5b5f61151a85828601611312565b925050602061152b85828601611312565b9150509250929050565b5f81519050919050565b5f82825260208201905092915050565b8281835e5f83830152505050565b5f61156782611535565b611571818561153f565b935061158181856020860161154f565b61158a816111bf565b840191505092915050565b61159e816112f3565b82525050565b5f6060820190508181035f8301526115bc818661155d565b90506115cb6020830185611595565b81810360408301526115dd818461155d565b9050949350505050565b5f6060820190508181035f8301526115ff818661155d565b90508181036020830152611613818561155d565b90508181036040830152611627818461155d565b9050949350505050565b5f5f5f5f60808587031215611649576116486111af565b5b5f61165687828801611312565b945050602085013567ffffffffffffffff811115611677576116766111b3565b5b611683878288016112c6565b935050604085013567ffffffffffffffff8111156116a4576116a36111b3565b5b6116b0878288016112c6565b925050606085013567ffffffffffffffff8111156116d1576116d06111b3565b5b6116dd878288016112c6565b91505092959194509250565b5f6020820190506116fc5f830184611595565b92915050565b5f5f5f5f6080858703121561171a576117196111af565b5b5f61172787828801611312565b945050602085013567ffffffffffffffff811115611748576117476111b3565b5b611754878288016112c6565b935050604061176587828801611312565b925050606085013567ffffffffffffffff811115611786576117856111b3565b5b611792878288016112c6565b91505092959194509250565b5f602082840312156117b3576117b26111af565b5b5f6117c084828501611312565b91505092915050565b7f4e487b71000000000000000000000000000000000000000000000000000000005f52602160045260245ffd5b60038110611807576118066117c9565b5b50565b5f819050611817826117f6565b919050565b5f6118268261180a565b9050919050565b6118368161181c565b82525050565b61184581611326565b82525050565b6003811061185c5761185b6117c9565b5b50565b5f81905061186c8261184b565b919050565b5f61187b8261185f565b9050919050565b61188b81611871565b82525050565b5f610180820190506118a55f83018f611595565b81810360208301526118b7818e61155d565b90506118c6604083018d611595565b6118d3606083018c611595565b6118e0608083018b61182d565b81810360a08301526118f2818a61155d565b905061190160c083018961183c565b61190e60e0830188611882565b61191c610100830187611595565b61192a610120830186611595565b81810361014083015261193d818561155d565b9050818103610160830152611952818461155d565b90509d9c50505050505050505050505050565b7f4e487b71000000000000000000000000000000000000000000000000000000005f52602260045260245ffd5b5f60028204905060018216806119a957607f821691505b6020821081036119bc576119bb611965565b5b50919050565b5f819050815f5260205f209050919050565b5f6020601f8301049050919050565b5f82821b905092915050565b5f60088302611a1e7fffffffffffffffffffffffffffffffffffffffffffffffffffffffffffffffff826119e3565b611a2886836119e3565b95508019841693508086168417925050509392505050565b5f819050919050565b5f611a63611a5e611a59846112f3565b611a40565b6112f3565b9050919050565b5f819050919050565b611a7c83611a49565b611a90611a8882611a6a565b8484546119ef565b825550505050565b5f5f905090565b611aa7611a98565b611ab2818484611a73565b505050565b5b81811015611ad557611aca5f82611a9f565b600181019050611ab8565b5050565b601f821115611b1a57611aeb816119c2565b611af4846119d4565b81016020851015611b03578190505b611b17611b0f856119d4565b830182611ab7565b50505b505050565b5f82821c905092915050565b5f611b3a5f1984600802611b1f565b1980831691505092915050565b5f611b528383611b2b565b9150826002028217905092915050565b611b6b82611535565b67ffffffffffffffff811115611b8457611b836111cf565b5b611b8e8254611992565b611b99828285611ad9565b5f60209050601f831160018114611bca575f8415611bb8578287015190505b611bc28582611b47565b865550611c29565b601f198416611bd8866119c2565b5f5b82811015611bff57848901518255600182019150602085019450602081019050611bda565b86831015611c1c5784890151611c18601f891682611b2b565b8355505b6001600288020188555050505b505050505050565b7f4e487b71000000000000000000000000000000000000000000000000000000005f52601160045260245ffd5b5f611c68826112f3565b91507fffffffffffffffffffffffffffffffffffffffffffffffffffffffffffffffff8203611c9a57611c99611c31565b5b600182019050919050565b5f611caf826112f3565b9150611cba836112f3565b9250828203905081811115611cd257611cd1611c31565b5b92915050565b5f819050919050565b611cea81611cd8565b82525050565b5f606082019050611d035f830186611595565b611d106020830185611ce1565b611d1d6040830184611595565b949350505050565b7f476f617420646f6573206e6f74206578697374000000000000000000000000005f82015250565b5f611d5960138361153f565b9150611d6482611d25565b602082019050919050565b5f6020820190508181035f830152611d8681611d4d565b9050919050565b5f611d97826112f3565b9150611da2836112f3565b9250828202611db0816112f3565b91508282048414831517611dc757611dc6611c31565b5b5092915050565b5f611dd8826112f3565b9150611de3836112f3565b9250828201905080821115611dfb57611dfa611c31565b5b92915050565b5f81905092915050565b7f4c6f63616c0000000000000000000000000000000000000000000000000000005f82015250565b5f611e3f600583611e01565b9150611e4a82611e0b565b600582019050919050565b5f611e5f82611e33565b9150819050919050565b5f611e7382611535565b611e7d8185611e01565b9350611e8d81856020860161154f565b80840191505092915050565b5f611ea48284611e69565b915081905092915050565b7f426163685468616f0000000000000000000000000000000000000000000000005f82015250565b5f611ee3600883611e01565b9150611eee82611eaf565b600882019050919050565b5f611f0382611ed7565b9150819050919050565b7f426f6572000000000000000000000000000000000000000000000000000000005f82015250565b5f611f41600483611e01565b9150611f4c82611f0d565b600482019050919050565b5f611f6182611f35565b9150819050919050565b7f496e76616c6964206272656564207479706500000000000000000000000000005f82015250565b5f611f9f60128361153f565b9150611faa82611f6b565b602082019050919050565b5f6020820190508181035f830152611fcc81611f93565b905091905056fea264697066735822122015b1d6a306ddcd389310984f2a43458e66a9354b59979975f71106f6b668cccb64736f6c634300081c0033",
			"opcodes": "PUSH1 0x80 PUSH1 0x40 MSTORE CALLVALUE DUP1 ISZERO PUSH1 0xE JUMPI PUSH0 PUSH0 REVERT JUMPDEST POP PUSH2 0x2009 DUP1 PUSH2 0x1C PUSH0 CODECOPY PUSH0 RETURN INVALID PUSH1 0x80 PUSH1 0x40 MSTORE CALLVALUE DUP1 ISZERO PUSH2 0xF JUMPI PUSH0 PUSH0 REVERT JUMPDEST POP PUSH1 0x4 CALLDATASIZE LT PUSH2 0x91 JUMPI PUSH0 CALLDATALOAD PUSH1 0xE0 SHR DUP1 PUSH4 0x609E1E60 GT PUSH2 0x64 JUMPI DUP1 PUSH4 0x609E1E60 EQ PUSH2 0x131 JUMPI DUP1 PUSH4 0x6D25A3D1 EQ PUSH2 0x14F JUMPI DUP1 PUSH4 0x7454A9F6 EQ PUSH2 0x16B JUMPI DUP1 PUSH4 0x79C66A04 EQ PUSH2 0x19B JUMPI DUP1 PUSH4 0x9AF76A90 EQ PUSH2 0x1B9 JUMPI PUSH2 0x91 JUMP JUMPDEST DUP1 PUSH4 0xE366CBE EQ PUSH2 0x95 JUMPI DUP1 PUSH4 0xF53F667 EQ PUSH2 0xB1 JUMPI DUP1 PUSH4 0x28B968BA EQ PUSH2 0xE3 JUMPI DUP1 PUSH4 0x338AD5C2 EQ PUSH2 0x115 JUMPI JUMPDEST PUSH0 PUSH0 REVERT JUMPDEST PUSH2 0xAF PUSH1 0x4 DUP1 CALLDATASIZE SUB DUP2 ADD SWAP1 PUSH2 0xAA SWAP2 SWAP1 PUSH2 0x137E JUMP JUMPDEST PUSH2 0x1F4 JUMP JUMPDEST STOP JUMPDEST PUSH2 0xCB PUSH1 0x4 DUP1 CALLDATASIZE SUB DUP2 ADD SWAP1 PUSH2 0xC6 SWAP2 SWAP1 PUSH2 0x14F7 JUMP JUMPDEST PUSH2 0x496 JUMP JUMPDEST PUSH1 0x40 MLOAD PUSH2 0xDA SWAP4 SWAP3 SWAP2 SWAP1 PUSH2 0x15A4 JUMP JUMPDEST PUSH1 0x40 MLOAD DUP1 SWAP2 SUB SWAP1 RETURN JUMPDEST PUSH2 0xFD PUSH1 0x4 DUP1 CALLDATASIZE SUB DUP2 ADD SWAP1 PUSH2 0xF8 SWAP2 SWAP1 PUSH2 0x14F7 JUMP JUMPDEST PUSH2 0x5E2 JUMP JUMPDEST PUSH1 0x40 MLOAD PUSH2 0x10C SWAP4 SWAP3 SWAP2 SWAP1 PUSH2 0x15E7 JUMP JUMPDEST PUSH1 0x40 MLOAD DUP1 SWAP2 SUB SWAP1 RETURN JUMPDEST PUSH2 0x12F PUSH1 0x4 DUP1 CALLDATASIZE SUB DUP2 ADD SWAP1 PUSH2 0x12A SWAP2 SWAP1 PUSH2 0x1631 JUMP JUMPDEST PUSH2 0x7B4 JUMP JUMPDEST STOP JUMPDEST PUSH2 0x139 PUSH2 0x90D JUMP JUMPDEST PUSH1 0x40 MLOAD PUSH2 0x146 SWAP2 SWAP1 PUSH2 0x16E9 JUMP JUMPDEST PUSH1 0x40 MLOAD DUP1 SWAP2 SUB SWAP1 RETURN JUMPDEST PUSH2 0x169 PUSH1 0x4 DUP1 CALLDATASIZE SUB DUP2 ADD SWAP1 PUSH2 0x164 SWAP2 SWAP1 PUSH2 0x1702 JUMP JUMPDEST PUSH2 0x912 JUMP JUMPDEST STOP JUMPDEST PUSH2 0x185 PUSH1 0x4 DUP1 CALLDATASIZE SUB DUP2 ADD SWAP1 PUSH2 0x180 SWAP2 SWAP1 PUSH2 0x179E JUMP JUMPDEST PUSH2 0xA3D JUMP JUMPDEST PUSH1 0x40 MLOAD PUSH2 0x192 SWAP2 SWAP1 PUSH2 0x16E9 JUMP JUMPDEST PUSH1 0x40 MLOAD DUP1 SWAP2 SUB SWAP1 RETURN JUMPDEST PUSH2 0x1A3 PUSH2 0xD81 JUMP JUMPDEST PUSH1 0x40 MLOAD PUSH2 0x1B0 SWAP2 SWAP1 PUSH2 0x16E9 JUMP JUMPDEST PUSH1 0x40 MLOAD DUP1 SWAP2 SUB SWAP1 RETURN JUMPDEST PUSH2 0x1D3 PUSH1 0x4 DUP1 CALLDATASIZE SUB DUP2 ADD SWAP1 PUSH2 0x1CE SWAP2 SWAP1 PUSH2 0x179E JUMP JUMPDEST PUSH2 0xDBF JUMP JUMPDEST PUSH1 0x40 MLOAD PUSH2 0x1EB SWAP13 SWAP12 SWAP11 SWAP10 SWAP9 SWAP8 SWAP7 SWAP6 SWAP5 SWAP4 SWAP3 SWAP2 SWAP1 PUSH2 0x1891 JUMP JUMPDEST PUSH1 0x40 MLOAD DUP1 SWAP2 SUB SWAP1 RETURN JUMPDEST PUSH0 PUSH2 0x1FE DUP10 PUSH2 0x1058 JUMP JUMPDEST SWAP1 POP PUSH0 PUSH0 DUP5 MLOAD GT PUSH2 0x244 JUMPI PUSH1 0x40 MLOAD DUP1 PUSH1 0x40 ADD PUSH1 0x40 MSTORE DUP1 PUSH1 0x13 DUP2 MSTORE PUSH1 0x20 ADD PUSH32 0x4E6F206164646974696F6E616C206E6F74657300000000000000000000000000 DUP2 MSTORE POP PUSH2 0x246 JUMP JUMPDEST DUP4 JUMPDEST SWAP1 POP PUSH0 PUSH0 DUP5 MLOAD GT PUSH2 0x28C JUMPI PUSH1 0x40 MLOAD DUP1 PUSH1 0x40 ADD PUSH1 0x40 MSTORE DUP1 PUSH1 0x3 DUP2 MSTORE PUSH1 0x20 ADD PUSH32 0x4E2F410000000000000000000000000000000000000000000000000000000000 DUP2 MSTORE POP PUSH2 0x28E JUMP JUMPDEST DUP4 JUMPDEST SWAP1 POP PUSH1 0x40 MLOAD DUP1 PUSH2 0x180 ADD PUSH1 0x40 MSTORE DUP1 PUSH0 SLOAD DUP2 MSTORE PUSH1 0x20 ADD DUP16 DUP2 MSTORE PUSH1 0x20 ADD DUP15 DUP2 MSTORE PUSH1 0x20 ADD DUP14 DUP2 MSTORE PUSH1 0x20 ADD DUP5 PUSH1 0x2 DUP2 GT ISZERO PUSH2 0x2C8 JUMPI PUSH2 0x2C7 PUSH2 0x17C9 JUMP JUMPDEST JUMPDEST DUP2 MSTORE PUSH1 0x20 ADD DUP12 DUP2 MSTORE PUSH1 0x20 ADD DUP11 ISZERO ISZERO DUP2 MSTORE PUSH1 0x20 ADD DUP10 PUSH1 0x2 DUP2 GT ISZERO PUSH2 0x2EE JUMPI PUSH2 0x2ED PUSH2 0x17C9 JUMP JUMPDEST JUMPDEST DUP2 MSTORE PUSH1 0x20 ADD DUP9 DUP2 MSTORE PUSH1 0x20 ADD DUP8 DUP2 MSTORE PUSH1 0x20 ADD DUP4 DUP2 MSTORE PUSH1 0x20 ADD DUP3 DUP2 MSTORE POP PUSH1 0x1 PUSH0 PUSH0 SLOAD DUP2 MSTORE PUSH1 0x20 ADD SWAP1 DUP2 MSTORE PUSH1 0x20 ADD PUSH0 KECCAK256 PUSH0 DUP3 ADD MLOAD DUP2 PUSH0 ADD SSTORE PUSH1 0x20 DUP3 ADD MLOAD DUP2 PUSH1 0x1 ADD SWAP1 DUP2 PUSH2 0x338 SWAP2 SWAP1 PUSH2 0x1B62 JUMP JUMPDEST POP PUSH1 0x40 DUP3 ADD MLOAD DUP2 PUSH1 0x2 ADD SSTORE PUSH1 0x60 DUP3 ADD MLOAD DUP2 PUSH1 0x3 ADD SSTORE PUSH1 0x80 DUP3 ADD MLOAD DUP2 PUSH1 0x4 ADD PUSH0 PUSH2 0x100 EXP DUP2 SLOAD DUP2 PUSH1 0xFF MUL NOT AND SWAP1 DUP4 PUSH1 0x2 DUP2 GT ISZERO PUSH2 0x377 JUMPI PUSH2 0x376 PUSH2 0x17C9 JUMP JUMPDEST JUMPDEST MUL OR SWAP1 SSTORE POP PUSH1 0xA0 DUP3 ADD MLOAD DUP2 PUSH1 0x5 ADD SWAP1 DUP2 PUSH2 0x391 SWAP2 SWAP1 PUSH2 0x1B62 JUMP JUMPDEST POP PUSH1 0xC0 DUP3 ADD MLOAD DUP2 PUSH1 0x6 ADD PUSH0 PUSH2 0x100 EXP DUP2 SLOAD DUP2 PUSH1 0xFF MUL NOT AND SWAP1 DUP4 ISZERO ISZERO MUL OR SWAP1 SSTORE POP PUSH1 0xE0 DUP3 ADD MLOAD DUP2 PUSH1 0x6 ADD PUSH1 0x1 PUSH2 0x100 EXP DUP2 SLOAD DUP2 PUSH1 0xFF MUL NOT AND SWAP1 DUP4 PUSH1 0x2 DUP2 GT ISZERO PUSH2 0x3DC JUMPI PUSH2 0x3DB PUSH2 0x17C9 JUMP JUMPDEST JUMPDEST MUL OR SWAP1 SSTORE POP PUSH2 0x100 DUP3 ADD MLOAD DUP2 PUSH1 0x7 ADD SSTORE PUSH2 0x120 DUP3 ADD MLOAD DUP2 PUSH1 0x8 ADD SSTORE PUSH2 0x140 DUP3 ADD MLOAD DUP2 PUSH1 0x9 ADD SWAP1 DUP2 PUSH2 0x40D SWAP2 SWAP1 PUSH2 0x1B62 JUMP JUMPDEST POP PUSH2 0x160 DUP3 ADD MLOAD DUP2 PUSH1 0xA ADD SWAP1 DUP2 PUSH2 0x424 SWAP2 SWAP1 PUSH2 0x1B62 JUMP JUMPDEST POP SWAP1 POP POP PUSH0 PUSH0 DUP2 SLOAD DUP1 SWAP3 SWAP2 SWAP1 PUSH2 0x439 SWAP1 PUSH2 0x1C5E JUMP JUMPDEST SWAP2 SWAP1 POP SSTORE POP PUSH32 0x7EFAB20AB4C4D8C33ECD03458D6147BF7CCC1FAA40DFEEDD6F2D7A7CF28A12D7 GASPRICE PUSH1 0x1 NUMBER PUSH2 0x46D SWAP2 SWAP1 PUSH2 0x1CA5 JUMP JUMPDEST BLOCKHASH NUMBER PUSH1 0x40 MLOAD PUSH2 0x47E SWAP4 SWAP3 SWAP2 SWAP1 PUSH2 0x1CF0 JUMP JUMPDEST PUSH1 0x40 MLOAD DUP1 SWAP2 SUB SWAP1 LOG1 POP POP POP POP POP POP POP POP POP POP POP POP POP POP JUMP JUMPDEST PUSH1 0x3 PUSH1 0x20 MSTORE DUP2 PUSH0 MSTORE PUSH1 0x40 PUSH0 KECCAK256 DUP2 DUP2 SLOAD DUP2 LT PUSH2 0x4AF JUMPI PUSH0 DUP1 REVERT JUMPDEST SWAP1 PUSH0 MSTORE PUSH1 0x20 PUSH0 KECCAK256 SWAP1 PUSH1 0x3 MUL ADD PUSH0 SWAP2 POP SWAP2 POP POP DUP1 PUSH0 ADD DUP1 SLOAD PUSH2 0x4CF SWAP1 PUSH2 0x1992 JUMP JUMPDEST DUP1 PUSH1 0x1F ADD PUSH1 0x20 DUP1 SWAP2 DIV MUL PUSH1 0x20 ADD PUSH1 0x40 MLOAD SWAP1 DUP2 ADD PUSH1 0x40 MSTORE DUP1 SWAP3 SWAP2 SWAP1 DUP2 DUP2 MSTORE PUSH1 0x20 ADD DUP3 DUP1 SLOAD PUSH2 0x4FB SWAP1 PUSH2 0x1992 JUMP JUMPDEST DUP1 ISZERO PUSH2 0x546 JUMPI DUP1 PUSH1 0x1F LT PUSH2 0x51D JUMPI PUSH2 0x100 DUP1 DUP4 SLOAD DIV MUL DUP4 MSTORE SWAP2 PUSH1 0x20 ADD SWAP2 PUSH2 0x546 JUMP JUMPDEST DUP3 ADD SWAP2 SWAP1 PUSH0 MSTORE PUSH1 0x20 PUSH0 KECCAK256 SWAP1 JUMPDEST DUP2 SLOAD DUP2 MSTORE SWAP1 PUSH1 0x1 ADD SWAP1 PUSH1 0x20 ADD DUP1 DUP4 GT PUSH2 0x529 JUMPI DUP3 SWAP1 SUB PUSH1 0x1F AND DUP3 ADD SWAP2 JUMPDEST POP POP POP POP POP SWAP1 DUP1 PUSH1 0x1 ADD SLOAD SWAP1 DUP1 PUSH1 0x2 ADD DUP1 SLOAD PUSH2 0x561 SWAP1 PUSH2 0x1992 JUMP JUMPDEST DUP1 PUSH1 0x1F ADD PUSH1 0x20 DUP1 SWAP2 DIV MUL PUSH1 0x20 ADD PUSH1 0x40 MLOAD SWAP1 DUP2 ADD PUSH1 0x40 MSTORE DUP1 SWAP3 SWAP2 SWAP1 DUP2 DUP2 MSTORE PUSH1 0x20 ADD DUP3 DUP1 SLOAD PUSH2 0x58D SWAP1 PUSH2 0x1992 JUMP JUMPDEST DUP1 ISZERO PUSH2 0x5D8 JUMPI DUP1 PUSH1 0x1F LT PUSH2 0x5AF JUMPI PUSH2 0x100 DUP1 DUP4 SLOAD DIV MUL DUP4 MSTORE SWAP2 PUSH1 0x20 ADD SWAP2 PUSH2 0x5D8 JUMP JUMPDEST DUP3 ADD SWAP2 SWAP1 PUSH0 MSTORE PUSH1 0x20 PUSH0 KECCAK256 SWAP1 JUMPDEST DUP2 SLOAD DUP2 MSTORE SWAP1 PUSH1 0x1 ADD SWAP1 PUSH1 0x20 ADD DUP1 DUP4 GT PUSH2 0x5BB JUMPI DUP3 SWAP1 SUB PUSH1 0x1F AND DUP3 ADD SWAP2 JUMPDEST POP POP POP POP POP SWAP1 POP DUP4 JUMP JUMPDEST PUSH1 0x2 PUSH1 0x20 MSTORE DUP2 PUSH0 MSTORE PUSH1 0x40 PUSH0 KECCAK256 DUP2 DUP2 SLOAD DUP2 LT PUSH2 0x5FB JUMPI PUSH0 DUP1 REVERT JUMPDEST SWAP1 PUSH0 MSTORE PUSH1 0x20 PUSH0 KECCAK256 SWAP1 PUSH1 0x3 MUL ADD PUSH0 SWAP2 POP SWAP2 POP POP DUP1 PUSH0 ADD DUP1 SLOAD PUSH2 0x61B SWAP1 PUSH2 0x1992 JUMP JUMPDEST DUP1 PUSH1 0x1F ADD PUSH1 0x20 DUP1 SWAP2 DIV MUL PUSH1 0x20 ADD PUSH1 0x40 MLOAD SWAP1 DUP2 ADD PUSH1 0x40 MSTORE DUP1 SWAP3 SWAP2 SWAP1 DUP2 DUP2 MSTORE PUSH1 0x20 ADD DUP3 DUP1 SLOAD PUSH2 0x647 SWAP1 PUSH2 0x1992 JUMP JUMPDEST DUP1 ISZERO PUSH2 0x692 JUMPI DUP1 PUSH1 0x1F LT PUSH2 0x669 JUMPI PUSH2 0x100 DUP1 DUP4 SLOAD DIV MUL DUP4 MSTORE SWAP2 PUSH1 0x20 ADD SWAP2 PUSH2 0x692 JUMP JUMPDEST DUP3 ADD SWAP2 SWAP1 PUSH0 MSTORE PUSH1 0x20 PUSH0 KECCAK256 SWAP1 JUMPDEST DUP2 SLOAD DUP2 MSTORE SWAP1 PUSH1 0x1 ADD SWAP1 PUSH1 0x20 ADD DUP1 DUP4 GT PUSH2 0x675 JUMPI DUP3 SWAP1 SUB PUSH1 0x1F AND DUP3 ADD SWAP2 JUMPDEST POP POP POP POP POP SWAP1 DUP1 PUSH1 0x1 ADD DUP1 SLOAD PUSH2 0x6A7 SWAP1 PUSH2 0x1992 JUMP JUMPDEST DUP1 PUSH1 0x1F ADD PUSH1 0x20 DUP1 SWAP2 DIV MUL PUSH1 0x20 ADD PUSH1 0x40 MLOAD SWAP1 DUP2 ADD PUSH1 0x40 MSTORE DUP1 SWAP3 SWAP2 SWAP1 DUP2 DUP2 MSTORE PUSH1 0x20 ADD DUP3 DUP1 SLOAD PUSH2 0x6D3 SWAP1 PUSH2 0x1992 JUMP JUMPDEST DUP1 ISZERO PUSH2 0x71E JUMPI DUP1 PUSH1 0x1F LT PUSH2 0x6F5 JUMPI PUSH2 0x100 DUP1 DUP4 SLOAD DIV MUL DUP4 MSTORE SWAP2 PUSH1 0x20 ADD SWAP2 PUSH2 0x71E JUMP JUMPDEST DUP3 ADD SWAP2 SWAP1 PUSH0 MSTORE PUSH1 0x20 PUSH0 KECCAK256 SWAP1 JUMPDEST DUP2 SLOAD DUP2 MSTORE SWAP1 PUSH1 0x1 ADD SWAP1 PUSH1 0x20 ADD DUP1 DUP4 GT PUSH2 0x701 JUMPI DUP3 SWAP1 SUB PUSH1 0x1F AND DUP3 ADD SWAP2 JUMPDEST POP POP POP POP POP SWAP1 DUP1 PUSH1 0x2 ADD DUP1 SLOAD PUSH2 0x733 SWAP1 PUSH2 0x1992 JUMP JUMPDEST DUP1 PUSH1 0x1F ADD PUSH1 0x20 DUP1 SWAP2 DIV MUL PUSH1 0x20 ADD PUSH1 0x40 MLOAD SWAP1 DUP2 ADD PUSH1 0x40 MSTORE DUP1 SWAP3 SWAP2 SWAP1 DUP2 DUP2 MSTORE PUSH1 0x20 ADD DUP3 DUP1 SLOAD PUSH2 0x75F SWAP1 PUSH2 0x1992 JUMP JUMPDEST DUP1 ISZERO PUSH2 0x7AA JUMPI DUP1 PUSH1 0x1F LT PUSH2 0x781 JUMPI PUSH2 0x100 DUP1 DUP4 SLOAD DIV MUL DUP4 MSTORE SWAP2 PUSH1 0x20 ADD SWAP2 PUSH2 0x7AA JUMP JUMPDEST DUP3 ADD SWAP2 SWAP1 PUSH0 MSTORE PUSH1 0x20 PUSH0 KECCAK256 SWAP1 JUMPDEST DUP2 SLOAD DUP2 MSTORE SWAP1 PUSH1 0x1 ADD SWAP1 PUSH1 0x20 ADD DUP1 DUP4 GT PUSH2 0x78D JUMPI DUP3 SWAP1 SUB PUSH1 0x1F AND DUP3 ADD SWAP2 JUMPDEST POP POP POP POP POP SWAP1 POP DUP4 JUMP JUMPDEST DUP4 PUSH1 0x1 PUSH0 DUP7 DUP2 MSTORE PUSH1 0x20 ADD SWAP1 DUP2 MSTORE PUSH1 0x20 ADD PUSH0 KECCAK256 PUSH0 ADD SLOAD EQ PUSH2 0x809 JUMPI PUSH1 0x40 MLOAD PUSH32 0x8C379A000000000000000000000000000000000000000000000000000000000 DUP2 MSTORE PUSH1 0x4 ADD PUSH2 0x800 SWAP1 PUSH2 0x1D6F JUMP JUMPDEST PUSH1 0x40 MLOAD DUP1 SWAP2 SUB SWAP1 REVERT JUMPDEST PUSH1 0x2 PUSH0 DUP6 DUP2 MSTORE PUSH1 0x20 ADD SWAP1 DUP2 MSTORE PUSH1 0x20 ADD PUSH0 KECCAK256 PUSH1 0x40 MLOAD DUP1 PUSH1 0x60 ADD PUSH1 0x40 MSTORE DUP1 DUP6 DUP2 MSTORE PUSH1 0x20 ADD DUP5 DUP2 MSTORE PUSH1 0x20 ADD DUP4 DUP2 MSTORE POP SWAP1 DUP1 PUSH1 0x1 DUP2 SLOAD ADD DUP1 DUP3 SSTORE DUP1 SWAP2 POP POP PUSH1 0x1 SWAP1 SUB SWAP1 PUSH0 MSTORE PUSH1 0x20 PUSH0 KECCAK256 SWAP1 PUSH1 0x3 MUL ADD PUSH0 SWAP1 SWAP2 SWAP1 SWAP2 SWAP1 SWAP2 POP PUSH0 DUP3 ADD MLOAD DUP2 PUSH0 ADD SWAP1 DUP2 PUSH2 0x86E SWAP2 SWAP1 PUSH2 0x1B62 JUMP JUMPDEST POP PUSH1 0x20 DUP3 ADD MLOAD DUP2 PUSH1 0x1 ADD SWAP1 DUP2 PUSH2 0x884 SWAP2 SWAP1 PUSH2 0x1B62 JUMP JUMPDEST POP PUSH1 0x40 DUP3 ADD MLOAD DUP2 PUSH1 0x2 ADD SWAP1 DUP2 PUSH2 0x89A SWAP2 SWAP1 PUSH2 0x1B62 JUMP JUMPDEST POP POP POP DUP2 PUSH1 0x1 PUSH0 DUP7 DUP2 MSTORE PUSH1 0x20 ADD SWAP1 DUP2 MSTORE PUSH1 0x20 ADD PUSH0 KECCAK256 PUSH1 0x5 ADD SWAP1 DUP2 PUSH2 0x8BE SWAP2 SWAP1 PUSH2 0x1B62 JUMP JUMPDEST POP PUSH32 0x7EFAB20AB4C4D8C33ECD03458D6147BF7CCC1FAA40DFEEDD6F2D7A7CF28A12D7 GASPRICE PUSH1 0x1 NUMBER PUSH2 0x8EE SWAP2 SWAP1 PUSH2 0x1CA5 JUMP JUMPDEST BLOCKHASH NUMBER PUSH1 0x40 MLOAD PUSH2 0x8FF SWAP4 SWAP3 SWAP2 SWAP1 PUSH2 0x1CF0 JUMP JUMPDEST PUSH1 0x40 MLOAD DUP1 SWAP2 SUB SWAP1 LOG1 POP POP POP POP JUMP JUMPDEST PUSH0 SLOAD DUP2 JUMP JUMPDEST DUP4 PUSH1 0x1 PUSH0 DUP7 DUP2 MSTORE PUSH1 0x20 ADD SWAP1 DUP2 MSTORE PUSH1 0x20 ADD PUSH0 KECCAK256 PUSH0 ADD SLOAD EQ PUSH2 0x967 JUMPI PUSH1 0x40 MLOAD PUSH32 0x8C379A000000000000000000000000000000000000000000000000000000000 DUP2 MSTORE PUSH1 0x4 ADD PUSH2 0x95E SWAP1 PUSH2 0x1D6F JUMP JUMPDEST PUSH1 0x40 MLOAD DUP1 SWAP2 SUB SWAP1 REVERT JUMPDEST PUSH1 0x3 PUSH0 DUP6 DUP2 MSTORE PUSH1 0x20 ADD SWAP1 DUP2 MSTORE PUSH1 0x20 ADD PUSH0 KECCAK256 PUSH1 0x40 MLOAD DUP1 PUSH1 0x60 ADD PUSH1 0x40 MSTORE DUP1 DUP6 DUP2 MSTORE PUSH1 0x20 ADD DUP5 DUP2 MSTORE PUSH1 0x20 ADD DUP4 DUP2 MSTORE POP SWAP1 DUP1 PUSH1 0x1 DUP2 SLOAD ADD DUP1 DUP3 SSTORE DUP1 SWAP2 POP POP PUSH1 0x1 SWAP1 SUB SWAP1 PUSH0 MSTORE PUSH1 0x20 PUSH0 KECCAK256 SWAP1 PUSH1 0x3 MUL ADD PUSH0 SWAP1 SWAP2 SWAP1 SWAP2 SWAP1 SWAP2 POP PUSH0 DUP3 ADD MLOAD DUP2 PUSH0 ADD SWAP1 DUP2 PUSH2 0x9CC SWAP2 SWAP1 PUSH2 0x1B62 JUMP JUMPDEST POP PUSH1 0x20 DUP3 ADD MLOAD DUP2 PUSH1 0x1 ADD SSTORE PUSH1 0x40 DUP3 ADD MLOAD DUP2 PUSH1 0x2 ADD SWAP1 DUP2 PUSH2 0x9EC SWAP2 SWAP1 PUSH2 0x1B62 JUMP JUMPDEST POP POP POP PUSH32 0x7EFAB20AB4C4D8C33ECD03458D6147BF7CCC1FAA40DFEEDD6F2D7A7CF28A12D7 GASPRICE PUSH1 0x1 NUMBER PUSH2 0xA1E SWAP2 SWAP1 PUSH2 0x1CA5 JUMP JUMPDEST BLOCKHASH NUMBER PUSH1 0x40 MLOAD PUSH2 0xA2F SWAP4 SWAP3 SWAP2 SWAP1 PUSH2 0x1CF0 JUMP JUMPDEST PUSH1 0x40 MLOAD DUP1 SWAP2 SUB SWAP1 LOG1 POP POP POP POP JUMP JUMPDEST PUSH0 PUSH0 PUSH1 0x1 PUSH0 DUP5 DUP2 MSTORE PUSH1 0x20 ADD SWAP1 DUP2 MSTORE PUSH1 0x20 ADD PUSH0 KECCAK256 PUSH1 0x40 MLOAD DUP1 PUSH2 0x180 ADD PUSH1 0x40 MSTORE SWAP1 DUP2 PUSH0 DUP3 ADD SLOAD DUP2 MSTORE PUSH1 0x20 ADD PUSH1 0x1 DUP3 ADD DUP1 SLOAD PUSH2 0xA75 SWAP1 PUSH2 0x1992 JUMP JUMPDEST DUP1 PUSH1 0x1F ADD PUSH1 0x20 DUP1 SWAP2 DIV MUL PUSH1 0x20 ADD PUSH1 0x40 MLOAD SWAP1 DUP2 ADD PUSH1 0x40 MSTORE DUP1 SWAP3 SWAP2 SWAP1 DUP2 DUP2 MSTORE PUSH1 0x20 ADD DUP3 DUP1 SLOAD PUSH2 0xAA1 SWAP1 PUSH2 0x1992 JUMP JUMPDEST DUP1 ISZERO PUSH2 0xAEC JUMPI DUP1 PUSH1 0x1F LT PUSH2 0xAC3 JUMPI PUSH2 0x100 DUP1 DUP4 SLOAD DIV MUL DUP4 MSTORE SWAP2 PUSH1 0x20 ADD SWAP2 PUSH2 0xAEC JUMP JUMPDEST DUP3 ADD SWAP2 SWAP1 PUSH0 MSTORE PUSH1 0x20 PUSH0 KECCAK256 SWAP1 JUMPDEST DUP2 SLOAD DUP2 MSTORE SWAP1 PUSH1 0x1 ADD SWAP1 PUSH1 0x20 ADD DUP1 DUP4 GT PUSH2 0xACF JUMPI DUP3 SWAP1 SUB PUSH1 0x1F AND DUP3 ADD SWAP2 JUMPDEST POP POP POP POP POP DUP2 MSTORE PUSH1 0x20 ADD PUSH1 0x2 DUP3 ADD SLOAD DUP2 MSTORE PUSH1 0x20 ADD PUSH1 0x3 DUP3 ADD SLOAD DUP2 MSTORE PUSH1 0x20 ADD PUSH1 0x4 DUP3 ADD PUSH0 SWAP1 SLOAD SWAP1 PUSH2 0x100 EXP SWAP1 DIV PUSH1 0xFF AND PUSH1 0x2 DUP2 GT ISZERO PUSH2 0xB2D JUMPI PUSH2 0xB2C PUSH2 0x17C9 JUMP JUMPDEST JUMPDEST PUSH1 0x2 DUP2 GT ISZERO PUSH2 0xB3F JUMPI PUSH2 0xB3E PUSH2 0x17C9 JUMP JUMPDEST JUMPDEST DUP2 MSTORE PUSH1 0x20 ADD PUSH1 0x5 DUP3 ADD DUP1 SLOAD PUSH2 0xB53 SWAP1 PUSH2 0x1992 JUMP JUMPDEST DUP1 PUSH1 0x1F ADD PUSH1 0x20 DUP1 SWAP2 DIV MUL PUSH1 0x20 ADD PUSH1 0x40 MLOAD SWAP1 DUP2 ADD PUSH1 0x40 MSTORE DUP1 SWAP3 SWAP2 SWAP1 DUP2 DUP2 MSTORE PUSH1 0x20 ADD DUP3 DUP1 SLOAD PUSH2 0xB7F SWAP1 PUSH2 0x1992 JUMP JUMPDEST DUP1 ISZERO PUSH2 0xBCA JUMPI DUP1 PUSH1 0x1F LT PUSH2 0xBA1 JUMPI PUSH2 0x100 DUP1 DUP4 SLOAD DIV MUL DUP4 MSTORE SWAP2 PUSH1 0x20 ADD SWAP2 PUSH2 0xBCA JUMP JUMPDEST DUP3 ADD SWAP2 SWAP1 PUSH0 MSTORE PUSH1 0x20 PUSH0 KECCAK256 SWAP1 JUMPDEST DUP2 SLOAD DUP2 MSTORE SWAP1 PUSH1 0x1 ADD SWAP1 PUSH1 0x20 ADD DUP1 DUP4 GT PUSH2 0xBAD JUMPI DUP3 SWAP1 SUB PUSH1 0x1F AND DUP3 ADD SWAP2 JUMPDEST POP POP POP POP POP DUP2 MSTORE PUSH1 0x20 ADD PUSH1 0x6 DUP3 ADD PUSH0 SWAP1 SLOAD SWAP1 PUSH2 0x100 EXP SWAP1 DIV PUSH1 0xFF AND ISZERO ISZERO ISZERO ISZERO DUP2 MSTORE PUSH1 0x20 ADD PUSH1 0x6 DUP3 ADD PUSH1 0x1 SWAP1 SLOAD SWAP1 PUSH2 0x100 EXP SWAP1 DIV PUSH1 0xFF AND PUSH1 0x2 DUP2 GT ISZERO PUSH2 0xC12 JUMPI PUSH2 0xC11 PUSH2 0x17C9 JUMP JUMPDEST JUMPDEST PUSH1 0x2 DUP2 GT ISZERO PUSH2 0xC24 JUMPI PUSH2 0xC23 PUSH2 0x17C9 JUMP JUMPDEST JUMPDEST DUP2 MSTORE PUSH1 0x20 ADD PUSH1 0x7 DUP3 ADD SLOAD DUP2 MSTORE PUSH1 0x20 ADD PUSH1 0x8 DUP3 ADD SLOAD DUP2 MSTORE PUSH1 0x20 ADD PUSH1 0x9 DUP3 ADD DUP1 SLOAD PUSH2 0xC4C SWAP1 PUSH2 0x1992 JUMP JUMPDEST DUP1 PUSH1 0x1F ADD PUSH1 0x20 DUP1 SWAP2 DIV MUL PUSH1 0x20 ADD PUSH1 0x40 MLOAD SWAP1 DUP2 ADD PUSH1 0x40 MSTORE DUP1 SWAP3 SWAP2 SWAP1 DUP2 DUP2 MSTORE PUSH1 0x20 ADD DUP3 DUP1 SLOAD PUSH2 0xC78 SWAP1 PUSH2 0x1992 JUMP JUMPDEST DUP1 ISZERO PUSH2 0xCC3 JUMPI DUP1 PUSH1 0x1F LT PUSH2 0xC9A JUMPI PUSH2 0x100 DUP1 DUP4 SLOAD DIV MUL DUP4 MSTORE SWAP2 PUSH1 0x20 ADD SWAP2 PUSH2 0xCC3 JUMP JUMPDEST DUP3 ADD SWAP2 SWAP1 PUSH0 MSTORE PUSH1 0x20 PUSH0 KECCAK256 SWAP1 JUMPDEST DUP2 SLOAD DUP2 MSTORE SWAP1 PUSH1 0x1 ADD SWAP1 PUSH1 0x20 ADD DUP1 DUP4 GT PUSH2 0xCA6 JUMPI DUP3 SWAP1 SUB PUSH1 0x1F AND DUP3 ADD SWAP2 JUMPDEST POP POP POP POP POP DUP2 MSTORE PUSH1 0x20 ADD PUSH1 0xA DUP3 ADD DUP1 SLOAD PUSH2 0xCDC SWAP1 PUSH2 0x1992 JUMP JUMPDEST DUP1 PUSH1 0x1F ADD PUSH1 0x20 DUP1 SWAP2 DIV MUL PUSH1 0x20 ADD PUSH1 0x40 MLOAD SWAP1 DUP2 ADD PUSH1 0x40 MSTORE DUP1 SWAP3 SWAP2 SWAP1 DUP2 DUP2 MSTORE PUSH1 0x20 ADD DUP3 DUP1 SLOAD PUSH2 0xD08 SWAP1 PUSH2 0x1992 JUMP JUMPDEST DUP1 ISZERO PUSH2 0xD53 JUMPI DUP1 PUSH1 0x1F LT PUSH2 0xD2A JUMPI PUSH2 0x100 DUP1 DUP4 SLOAD DIV MUL DUP4 MSTORE SWAP2 PUSH1 0x20 ADD SWAP2 PUSH2 0xD53 JUMP JUMPDEST DUP3 ADD SWAP2 SWAP1 PUSH0 MSTORE PUSH1 0x20 PUSH0 KECCAK256 SWAP1 JUMPDEST DUP2 SLOAD DUP2 MSTORE SWAP1 PUSH1 0x1 ADD SWAP1 PUSH1 0x20 ADD DUP1 DUP4 GT PUSH2 0xD36 JUMPI DUP3 SWAP1 SUB PUSH1 0x1F AND DUP3 ADD SWAP2 JUMPDEST POP POP POP POP POP DUP2 MSTORE POP POP SWAP1 POP PUSH0 PUSH1 0x5 SWAP1 POP PUSH0 DUP2 DUP4 PUSH1 0x60 ADD MLOAD PUSH2 0xD74 SWAP2 SWAP1 PUSH2 0x1D8D JUMP JUMPDEST SWAP1 POP DUP1 SWAP4 POP POP POP POP SWAP2 SWAP1 POP JUMP JUMPDEST PUSH0 PUSH0 PUSH0 SWAP1 POP PUSH0 PUSH0 SWAP1 POP JUMPDEST PUSH0 SLOAD DUP2 LT ISZERO PUSH2 0xDB7 JUMPI PUSH2 0xD9D DUP2 PUSH2 0xA3D JUMP JUMPDEST DUP3 PUSH2 0xDA8 SWAP2 SWAP1 PUSH2 0x1DCE JUMP JUMPDEST SWAP2 POP DUP1 DUP1 PUSH1 0x1 ADD SWAP2 POP POP PUSH2 0xD8B JUMP JUMPDEST POP DUP1 SWAP2 POP POP SWAP1 JUMP JUMPDEST PUSH1 0x1 PUSH1 0x20 MSTORE DUP1 PUSH0 MSTORE PUSH1 0x40 PUSH0 KECCAK256 PUSH0 SWAP2 POP SWAP1 POP DUP1 PUSH0 ADD SLOAD SWAP1 DUP1 PUSH1 0x1 ADD DUP1 SLOAD PUSH2 0xDE4 SWAP1 PUSH2 0x1992 JUMP JUMPDEST DUP1 PUSH1 0x1F ADD PUSH1 0x20 DUP1 SWAP2 DIV MUL PUSH1 0x20 ADD PUSH1 0x40 MLOAD SWAP1 DUP2 ADD PUSH1 0x40 MSTORE DUP1 SWAP3 SWAP2 SWAP1 DUP2 DUP2 MSTORE PUSH1 0x20 ADD DUP3 DUP1 SLOAD PUSH2 0xE10 SWAP1 PUSH2 0x1992 JUMP JUMPDEST DUP1 ISZERO PUSH2 0xE5B JUMPI DUP1 PUSH1 0x1F LT PUSH2 0xE32 JUMPI PUSH2 0x100 DUP1 DUP4 SLOAD DIV MUL DUP4 MSTORE SWAP2 PUSH1 0x20 ADD SWAP2 PUSH2 0xE5B JUMP JUMPDEST DUP3 ADD SWAP2 SWAP1 PUSH0 MSTORE PUSH1 0x20 PUSH0 KECCAK256 SWAP1 JUMPDEST DUP2 SLOAD DUP2 MSTORE SWAP1 PUSH1 0x1 ADD SWAP1 PUSH1 0x20 ADD DUP1 DUP4 GT PUSH2 0xE3E JUMPI DUP3 SWAP1 SUB PUSH1 0x1F AND DUP3 ADD SWAP2 JUMPDEST POP POP POP POP POP SWAP1 DUP1 PUSH1 0x2 ADD SLOAD SWAP1 DUP1 PUSH1 0x3 ADD SLOAD SWAP1 DUP1 PUSH1 0x4 ADD PUSH0 SWAP1 SLOAD SWAP1 PUSH2 0x100 EXP SWAP1 DIV PUSH1 0xFF AND SWAP1 DUP1 PUSH1 0x5 ADD DUP1 SLOAD PUSH2 0xE8E SWAP1 PUSH2 0x1992 JUMP JUMPDEST DUP1 PUSH1 0x1F ADD PUSH1 0x20 DUP1 SWAP2 DIV MUL PUSH1 0x20 ADD PUSH1 0x40 MLOAD SWAP1 DUP2 ADD PUSH1 0x40 MSTORE DUP1 SWAP3 SWAP2 SWAP1 DUP2 DUP2 MSTORE PUSH1 0x20 ADD DUP3 DUP1 SLOAD PUSH2 0xEBA SWAP1 PUSH2 0x1992 JUMP JUMPDEST DUP1 ISZERO PUSH2 0xF05 JUMPI DUP1 PUSH1 0x1F LT PUSH2 0xEDC JUMPI PUSH2 0x100 DUP1 DUP4 SLOAD DIV MUL DUP4 MSTORE SWAP2 PUSH1 0x20 ADD SWAP2 PUSH2 0xF05 JUMP JUMPDEST DUP3 ADD SWAP2 SWAP1 PUSH0 MSTORE PUSH1 0x20 PUSH0 KECCAK256 SWAP1 JUMPDEST DUP2 SLOAD DUP2 MSTORE SWAP1 PUSH1 0x1 ADD SWAP1 PUSH1 0x20 ADD DUP1 DUP4 GT PUSH2 0xEE8 JUMPI DUP3 SWAP1 SUB PUSH1 0x1F AND DUP3 ADD SWAP2 JUMPDEST POP POP POP POP POP SWAP1 DUP1 PUSH1 0x6 ADD PUSH0 SWAP1 SLOAD SWAP1 PUSH2 0x100 EXP SWAP1 DIV PUSH1 0xFF AND SWAP1 DUP1 PUSH1 0x6 ADD PUSH1 0x1 SWAP1 SLOAD SWAP1 PUSH2 0x100 EXP SWAP1 DIV PUSH1 0xFF AND SWAP1 DUP1 PUSH1 0x7 ADD SLOAD SWAP1 DUP1 PUSH1 0x8 ADD SLOAD SWAP1 DUP1 PUSH1 0x9 ADD DUP1 SLOAD PUSH2 0xF4B SWAP1 PUSH2 0x1992 JUMP JUMPDEST DUP1 PUSH1 0x1F ADD PUSH1 0x20 DUP1 SWAP2 DIV MUL PUSH1 0x20 ADD PUSH1 0x40 MLOAD SWAP1 DUP2 ADD PUSH1 0x40 MSTORE DUP1 SWAP3 SWAP2 SWAP1 DUP2 DUP2 MSTORE PUSH1 0x20 ADD DUP3 DUP1 SLOAD PUSH2 0xF77 SWAP1 PUSH2 0x1992 JUMP JUMPDEST DUP1 ISZERO PUSH2 0xFC2 JUMPI DUP1 PUSH1 0x1F LT PUSH2 0xF99 JUMPI PUSH2 0x100 DUP1 DUP4 SLOAD DIV MUL DUP4 MSTORE SWAP2 PUSH1 0x20 ADD SWAP2 PUSH2 0xFC2 JUMP JUMPDEST DUP3 ADD SWAP2 SWAP1 PUSH0 MSTORE PUSH1 0x20 PUSH0 KECCAK256 SWAP1 JUMPDEST DUP2 SLOAD DUP2 MSTORE SWAP1 PUSH1 0x1 ADD SWAP1 PUSH1 0x20 ADD DUP1 DUP4 GT PUSH2 0xFA5 JUMPI DUP3 SWAP1 SUB PUSH1 0x1F AND DUP3 ADD SWAP2 JUMPDEST POP POP POP POP POP SWAP1 DUP1 PUSH1 0xA ADD DUP1 SLOAD PUSH2 0xFD7 SWAP1 PUSH2 0x1992 JUMP JUMPDEST DUP1 PUSH1 0x1F ADD PUSH1 0x20 DUP1 SWAP2 DIV MUL PUSH1 0x20 ADD PUSH1 0x40 MLOAD SWAP1 DUP2 ADD PUSH1 0x40 MSTORE DUP1 SWAP3 SWAP2 SWAP1 DUP2 DUP2 MSTORE PUSH1 0x20 ADD DUP3 DUP1 SLOAD PUSH2 0x1003 SWAP1 PUSH2 0x1992 JUMP JUMPDEST DUP1 ISZERO PUSH2 0x104E JUMPI DUP1 PUSH1 0x1F LT PUSH2 0x1025 JUMPI PUSH2 0x100 DUP1 DUP4 SLOAD DIV MUL DUP4 MSTORE SWAP2 PUSH1 0x20 ADD SWAP2 PUSH2 0x104E JUMP JUMPDEST DUP3 ADD SWAP2 SWAP1 PUSH0 MSTORE PUSH1 0x20 PUSH0 KECCAK256 SWAP1 JUMPDEST DUP2 SLOAD DUP2 MSTORE SWAP1 PUSH1 0x1 ADD SWAP1 PUSH1 0x20 ADD DUP1 DUP4 GT PUSH2 0x1031 JUMPI DUP3 SWAP1 SUB PUSH1 0x1F AND DUP3 ADD SWAP2 JUMPDEST POP POP POP POP POP SWAP1 POP DUP13 JUMP JUMPDEST PUSH0 PUSH1 0x40 MLOAD PUSH1 0x20 ADD PUSH2 0x1068 SWAP1 PUSH2 0x1E55 JUMP JUMPDEST PUSH1 0x40 MLOAD PUSH1 0x20 DUP2 DUP4 SUB SUB DUP2 MSTORE SWAP1 PUSH1 0x40 MSTORE DUP1 MLOAD SWAP1 PUSH1 0x20 ADD KECCAK256 DUP3 PUSH1 0x40 MLOAD PUSH1 0x20 ADD PUSH2 0x108F SWAP2 SWAP1 PUSH2 0x1E99 JUMP JUMPDEST PUSH1 0x40 MLOAD PUSH1 0x20 DUP2 DUP4 SUB SUB DUP2 MSTORE SWAP1 PUSH1 0x40 MSTORE DUP1 MLOAD SWAP1 PUSH1 0x20 ADD KECCAK256 SUB PUSH2 0x10B2 JUMPI PUSH0 SWAP1 POP PUSH2 0x11A1 JUMP JUMPDEST PUSH1 0x40 MLOAD PUSH1 0x20 ADD PUSH2 0x10C1 SWAP1 PUSH2 0x1EF9 JUMP JUMPDEST PUSH1 0x40 MLOAD PUSH1 0x20 DUP2 DUP4 SUB SUB DUP2 MSTORE SWAP1 PUSH1 0x40 MSTORE DUP1 MLOAD SWAP1 PUSH1 0x20 ADD KECCAK256 DUP3 PUSH1 0x40 MLOAD PUSH1 0x20 ADD PUSH2 0x10E8 SWAP2 SWAP1 PUSH2 0x1E99 JUMP JUMPDEST PUSH1 0x40 MLOAD PUSH1 0x20 DUP2 DUP4 SUB SUB DUP2 MSTORE SWAP1 PUSH1 0x40 MSTORE DUP1 MLOAD SWAP1 PUSH1 0x20 ADD KECCAK256 SUB PUSH2 0x110C JUMPI PUSH1 0x1 SWAP1 POP PUSH2 0x11A1 JUMP JUMPDEST PUSH1 0x40 MLOAD PUSH1 0x20 ADD PUSH2 0x111B SWAP1 PUSH2 0x1F57 JUMP JUMPDEST PUSH1 0x40 MLOAD PUSH1 0x20 DUP2 DUP4 SUB SUB DUP2 MSTORE SWAP1 PUSH1 0x40 MSTORE DUP1 MLOAD SWAP1 PUSH1 0x20 ADD KECCAK256 DUP3 PUSH1 0x40 MLOAD PUSH1 0x20 ADD PUSH2 0x1142 SWAP2 SWAP1 PUSH2 0x1E99 JUMP JUMPDEST PUSH1 0x40 MLOAD PUSH1 0x20 DUP2 DUP4 SUB SUB DUP2 MSTORE SWAP1 PUSH1 0x40 MSTORE DUP1 MLOAD SWAP1 PUSH1 0x20 ADD KECCAK256 SUB PUSH2 0x1166 JUMPI PUSH1 0x2 SWAP1 POP PUSH2 0x11A1 JUMP JUMPDEST PUSH1 0x40 MLOAD PUSH32 0x8C379A000000000000000000000000000000000000000000000000000000000 DUP2 MSTORE PUSH1 0x4 ADD PUSH2 0x1198 SWAP1 PUSH2 0x1FB5 JUMP JUMPDEST PUSH1 0x40 MLOAD DUP1 SWAP2 SUB SWAP1 REVERT JUMPDEST SWAP2 SWAP1 POP JUMP JUMPDEST PUSH0 PUSH1 0x40 MLOAD SWAP1 POP SWAP1 JUMP JUMPDEST PUSH0 PUSH0 REVERT JUMPDEST PUSH0 PUSH0 REVERT JUMPDEST PUSH0 PUSH0 REVERT JUMPDEST PUSH0 PUSH0 REVERT JUMPDEST PUSH0 PUSH1 0x1F NOT PUSH1 0x1F DUP4 ADD AND SWAP1 POP SWAP2 SWAP1 POP JUMP JUMPDEST PUSH32 0x4E487B7100000000000000000000000000000000000000000000000000000000 PUSH0 MSTORE PUSH1 0x41 PUSH1 0x4 MSTORE PUSH1 0x24 PUSH0 REVERT JUMPDEST PUSH2 0x1205 DUP3 PUSH2 0x11BF JUMP JUMPDEST DUP2 ADD DUP2 DUP2 LT PUSH8 0xFFFFFFFFFFFFFFFF DUP3 GT OR ISZERO PUSH2 0x1224 JUMPI PUSH2 0x1223 PUSH2 0x11CF JUMP JUMPDEST JUMPDEST DUP1 PUSH1 0x40 MSTORE POP POP POP JUMP JUMPDEST PUSH0 PUSH2 0x1236 PUSH2 0x11A6 JUMP JUMPDEST SWAP1 POP PUSH2 0x1242 DUP3 DUP3 PUSH2 0x11FC JUMP JUMPDEST SWAP2 SWAP1 POP JUMP JUMPDEST PUSH0 PUSH8 0xFFFFFFFFFFFFFFFF DUP3 GT ISZERO PUSH2 0x1261 JUMPI PUSH2 0x1260 PUSH2 0x11CF JUMP JUMPDEST JUMPDEST PUSH2 0x126A DUP3 PUSH2 0x11BF JUMP JUMPDEST SWAP1 POP PUSH1 0x20 DUP2 ADD SWAP1 POP SWAP2 SWAP1 POP JUMP JUMPDEST DUP3 DUP2 DUP4 CALLDATACOPY PUSH0 DUP4 DUP4 ADD MSTORE POP POP POP JUMP JUMPDEST PUSH0 PUSH2 0x1297 PUSH2 0x1292 DUP5 PUSH2 0x1247 JUMP JUMPDEST PUSH2 0x122D JUMP JUMPDEST SWAP1 POP DUP3 DUP2 MSTORE PUSH1 0x20 DUP2 ADD DUP5 DUP5 DUP5 ADD GT ISZERO PUSH2 0x12B3 JUMPI PUSH2 0x12B2 PUSH2 0x11BB JUMP JUMPDEST JUMPDEST PUSH2 0x12BE DUP5 DUP3 DUP6 PUSH2 0x1277 JUMP JUMPDEST POP SWAP4 SWAP3 POP POP POP JUMP JUMPDEST PUSH0 DUP3 PUSH1 0x1F DUP4 ADD SLT PUSH2 0x12DA JUMPI PUSH2 0x12D9 PUSH2 0x11B7 JUMP JUMPDEST JUMPDEST DUP2 CALLDATALOAD PUSH2 0x12EA DUP5 DUP3 PUSH1 0x20 DUP7 ADD PUSH2 0x1285 JUMP JUMPDEST SWAP2 POP POP SWAP3 SWAP2 POP POP JUMP JUMPDEST PUSH0 DUP2 SWAP1 POP SWAP2 SWAP1 POP JUMP JUMPDEST PUSH2 0x1305 DUP2 PUSH2 0x12F3 JUMP JUMPDEST DUP2 EQ PUSH2 0x130F JUMPI PUSH0 PUSH0 REVERT JUMPDEST POP JUMP JUMPDEST PUSH0 DUP2 CALLDATALOAD SWAP1 POP PUSH2 0x1320 DUP2 PUSH2 0x12FC JUMP JUMPDEST SWAP3 SWAP2 POP POP JUMP JUMPDEST PUSH0 DUP2 ISZERO ISZERO SWAP1 POP SWAP2 SWAP1 POP JUMP JUMPDEST PUSH2 0x133A DUP2 PUSH2 0x1326 JUMP JUMPDEST DUP2 EQ PUSH2 0x1344 JUMPI PUSH0 PUSH0 REVERT JUMPDEST POP JUMP JUMPDEST PUSH0 DUP2 CALLDATALOAD SWAP1 POP PUSH2 0x1355 DUP2 PUSH2 0x1331 JUMP JUMPDEST SWAP3 SWAP2 POP POP JUMP JUMPDEST PUSH1 0x3 DUP2 LT PUSH2 0x1367 JUMPI PUSH0 PUSH0 REVERT JUMPDEST POP JUMP JUMPDEST PUSH0 DUP2 CALLDATALOAD SWAP1 POP PUSH2 0x1378 DUP2 PUSH2 0x135B JUMP JUMPDEST SWAP3 SWAP2 POP POP JUMP JUMPDEST PUSH0 PUSH0 PUSH0 PUSH0 PUSH0 PUSH0 PUSH0 PUSH0 PUSH0 PUSH0 PUSH0 PUSH2 0x160 DUP13 DUP15 SUB SLT ISZERO PUSH2 0x139E JUMPI PUSH2 0x139D PUSH2 0x11AF JUMP JUMPDEST JUMPDEST PUSH0 DUP13 ADD CALLDATALOAD PUSH8 0xFFFFFFFFFFFFFFFF DUP2 GT ISZERO PUSH2 0x13BB JUMPI PUSH2 0x13BA PUSH2 0x11B3 JUMP JUMPDEST JUMPDEST PUSH2 0x13C7 DUP15 DUP3 DUP16 ADD PUSH2 0x12C6 JUMP JUMPDEST SWAP12 POP POP PUSH1 0x20 PUSH2 0x13D8 DUP15 DUP3 DUP16 ADD PUSH2 0x1312 JUMP JUMPDEST SWAP11 POP POP PUSH1 0x40 PUSH2 0x13E9 DUP15 DUP3 DUP16 ADD PUSH2 0x1312 JUMP JUMPDEST SWAP10 POP POP PUSH1 0x60 DUP13 ADD CALLDATALOAD PUSH8 0xFFFFFFFFFFFFFFFF DUP2 GT ISZERO PUSH2 0x140A JUMPI PUSH2 0x1409 PUSH2 0x11B3 JUMP JUMPDEST JUMPDEST PUSH2 0x1416 DUP15 DUP3 DUP16 ADD PUSH2 0x12C6 JUMP JUMPDEST SWAP9 POP POP PUSH1 0x80 DUP13 ADD CALLDATALOAD PUSH8 0xFFFFFFFFFFFFFFFF DUP2 GT ISZERO PUSH2 0x1437 JUMPI PUSH2 0x1436 PUSH2 0x11B3 JUMP JUMPDEST JUMPDEST PUSH2 0x1443 DUP15 DUP3 DUP16 ADD PUSH2 0x12C6 JUMP JUMPDEST SWAP8 POP POP PUSH1 0xA0 PUSH2 0x1454 DUP15 DUP3 DUP16 ADD PUSH2 0x1347 JUMP JUMPDEST SWAP7 POP POP PUSH1 0xC0 PUSH2 0x1465 DUP15 DUP3 DUP16 ADD PUSH2 0x136A JUMP JUMPDEST SWAP6 POP POP PUSH1 0xE0 PUSH2 0x1476 DUP15 DUP3 DUP16 ADD PUSH2 0x1312 JUMP JUMPDEST SWAP5 POP POP PUSH2 0x100 PUSH2 0x1488 DUP15 DUP3 DUP16 ADD PUSH2 0x1312 JUMP JUMPDEST SWAP4 POP POP PUSH2 0x120 DUP13 ADD CALLDATALOAD PUSH8 0xFFFFFFFFFFFFFFFF DUP2 GT ISZERO PUSH2 0x14AA JUMPI PUSH2 0x14A9 PUSH2 0x11B3 JUMP JUMPDEST JUMPDEST PUSH2 0x14B6 DUP15 DUP3 DUP16 ADD PUSH2 0x12C6 JUMP JUMPDEST SWAP3 POP POP PUSH2 0x140 DUP13 ADD CALLDATALOAD PUSH8 0xFFFFFFFFFFFFFFFF DUP2 GT ISZERO PUSH2 0x14D8 JUMPI PUSH2 0x14D7 PUSH2 0x11B3 JUMP JUMPDEST JUMPDEST PUSH2 0x14E4 DUP15 DUP3 DUP16 ADD PUSH2 0x12C6 JUMP JUMPDEST SWAP2 POP POP SWAP3 SWAP6 SWAP9 SWAP12 POP SWAP3 SWAP6 SWAP9 SWAP12 SWAP1 SWAP4 SWAP7 SWAP10 POP JUMP JUMPDEST PUSH0 PUSH0 PUSH1 0x40 DUP4 DUP6 SUB SLT ISZERO PUSH2 0x150D JUMPI PUSH2 0x150C PUSH2 0x11AF JUMP JUMPDEST JUMPDEST PUSH0 PUSH2 0x151A DUP6 DUP3 DUP7 ADD PUSH2 0x1312 JUMP JUMPDEST SWAP3 POP POP PUSH1 0x20 PUSH2 0x152B DUP6 DUP3 DUP7 ADD PUSH2 0x1312 JUMP JUMPDEST SWAP2 POP POP SWAP3 POP SWAP3 SWAP1 POP JUMP JUMPDEST PUSH0 DUP2 MLOAD SWAP1 POP SWAP2 SWAP1 POP JUMP JUMPDEST PUSH0 DUP3 DUP3 MSTORE PUSH1 0x20 DUP3 ADD SWAP1 POP SWAP3 SWAP2 POP POP JUMP JUMPDEST DUP3 DUP2 DUP4 MCOPY PUSH0 DUP4 DUP4 ADD MSTORE POP POP POP JUMP JUMPDEST PUSH0 PUSH2 0x1567 DUP3 PUSH2 0x1535 JUMP JUMPDEST PUSH2 0x1571 DUP2 DUP6 PUSH2 0x153F JUMP JUMPDEST SWAP4 POP PUSH2 0x1581 DUP2 DUP6 PUSH1 0x20 DUP7 ADD PUSH2 0x154F JUMP JUMPDEST PUSH2 0x158A DUP2 PUSH2 0x11BF JUMP JUMPDEST DUP5 ADD SWAP2 POP POP SWAP3 SWAP2 POP POP JUMP JUMPDEST PUSH2 0x159E DUP2 PUSH2 0x12F3 JUMP JUMPDEST DUP3 MSTORE POP POP JUMP JUMPDEST PUSH0 PUSH1 0x60 DUP3 ADD SWAP1 POP DUP2 DUP2 SUB PUSH0 DUP4 ADD MSTORE PUSH2 0x15BC DUP2 DUP7 PUSH2 0x155D JUMP JUMPDEST SWAP1 POP PUSH2 0x15CB PUSH1 0x20 DUP4 ADD DUP6 PUSH2 0x1595 JUMP JUMPDEST DUP2 DUP2 SUB PUSH1 0x40 DUP4 ADD MSTORE PUSH2 0x15DD DUP2 DUP5 PUSH2 0x155D JUMP JUMPDEST SWAP1 POP SWAP5 SWAP4 POP POP POP POP JUMP JUMPDEST PUSH0 PUSH1 0x60 DUP3 ADD SWAP1 POP DUP2 DUP2 SUB PUSH0 DUP4 ADD MSTORE PUSH2 0x15FF DUP2 DUP7 PUSH2 0x155D JUMP JUMPDEST SWAP1 POP DUP2 DUP2 SUB PUSH1 0x20 DUP4 ADD MSTORE PUSH2 0x1613 DUP2 DUP6 PUSH2 0x155D JUMP JUMPDEST SWAP1 POP DUP2 DUP2 SUB PUSH1 0x40 DUP4 ADD MSTORE PUSH2 0x1627 DUP2 DUP5 PUSH2 0x155D JUMP JUMPDEST SWAP1 POP SWAP5 SWAP4 POP POP POP POP JUMP JUMPDEST PUSH0 PUSH0 PUSH0 PUSH0 PUSH1 0x80 DUP6 DUP8 SUB SLT ISZERO PUSH2 0x1649 JUMPI PUSH2 0x1648 PUSH2 0x11AF JUMP JUMPDEST JUMPDEST PUSH0 PUSH2 0x1656 DUP8 DUP3 DUP9 ADD PUSH2 0x1312 JUMP JUMPDEST SWAP5 POP POP PUSH1 0x20 DUP6 ADD CALLDATALOAD PUSH8 0xFFFFFFFFFFFFFFFF DUP2 GT ISZERO PUSH2 0x1677 JUMPI PUSH2 0x1676 PUSH2 0x11B3 JUMP JUMPDEST JUMPDEST PUSH2 0x1683 DUP8 DUP3 DUP9 ADD PUSH2 0x12C6 JUMP JUMPDEST SWAP4 POP POP PUSH1 0x40 DUP6 ADD CALLDATALOAD PUSH8 0xFFFFFFFFFFFFFFFF DUP2 GT ISZERO PUSH2 0x16A4 JUMPI PUSH2 0x16A3 PUSH2 0x11B3 JUMP JUMPDEST JUMPDEST PUSH2 0x16B0 DUP8 DUP3 DUP9 ADD PUSH2 0x12C6 JUMP JUMPDEST SWAP3 POP POP PUSH1 0x60 DUP6 ADD CALLDATALOAD PUSH8 0xFFFFFFFFFFFFFFFF DUP2 GT ISZERO PUSH2 0x16D1 JUMPI PUSH2 0x16D0 PUSH2 0x11B3 JUMP JUMPDEST JUMPDEST PUSH2 0x16DD DUP8 DUP3 DUP9 ADD PUSH2 0x12C6 JUMP JUMPDEST SWAP2 POP POP SWAP3 SWAP6 SWAP2 SWAP5 POP SWAP3 POP JUMP JUMPDEST PUSH0 PUSH1 0x20 DUP3 ADD SWAP1 POP PUSH2 0x16FC PUSH0 DUP4 ADD DUP5 PUSH2 0x1595 JUMP JUMPDEST SWAP3 SWAP2 POP POP JUMP JUMPDEST PUSH0 PUSH0 PUSH0 PUSH0 PUSH1 0x80 DUP6 DUP8 SUB SLT ISZERO PUSH2 0x171A JUMPI PUSH2 0x1719 PUSH2 0x11AF JUMP JUMPDEST JUMPDEST PUSH0 PUSH2 0x1727 DUP8 DUP3 DUP9 ADD PUSH2 0x1312 JUMP JUMPDEST SWAP5 POP POP PUSH1 0x20 DUP6 ADD CALLDATALOAD PUSH8 0xFFFFFFFFFFFFFFFF DUP2 GT ISZERO PUSH2 0x1748 JUMPI PUSH2 0x1747 PUSH2 0x11B3 JUMP JUMPDEST JUMPDEST PUSH2 0x1754 DUP8 DUP3 DUP9 ADD PUSH2 0x12C6 JUMP JUMPDEST SWAP4 POP POP PUSH1 0x40 PUSH2 0x1765 DUP8 DUP3 DUP9 ADD PUSH2 0x1312 JUMP JUMPDEST SWAP3 POP POP PUSH1 0x60 DUP6 ADD CALLDATALOAD PUSH8 0xFFFFFFFFFFFFFFFF DUP2 GT ISZERO PUSH2 0x1786 JUMPI PUSH2 0x1785 PUSH2 0x11B3 JUMP JUMPDEST JUMPDEST PUSH2 0x1792 DUP8 DUP3 DUP9 ADD PUSH2 0x12C6 JUMP JUMPDEST SWAP2 POP POP SWAP3 SWAP6 SWAP2 SWAP5 POP SWAP3 POP JUMP JUMPDEST PUSH0 PUSH1 0x20 DUP3 DUP5 SUB SLT ISZERO PUSH2 0x17B3 JUMPI PUSH2 0x17B2 PUSH2 0x11AF JUMP JUMPDEST JUMPDEST PUSH0 PUSH2 0x17C0 DUP5 DUP3 DUP6 ADD PUSH2 0x1312 JUMP JUMPDEST SWAP2 POP POP SWAP3 SWAP2 POP POP JUMP JUMPDEST PUSH32 0x4E487B7100000000000000000000000000000000000000000000000000000000 PUSH0 MSTORE PUSH1 0x21 PUSH1 0x4 MSTORE PUSH1 0x24 PUSH0 REVERT JUMPDEST PUSH1 0x3 DUP2 LT PUSH2 0x1807 JUMPI PUSH2 0x1806 PUSH2 0x17C9 JUMP JUMPDEST JUMPDEST POP JUMP JUMPDEST PUSH0 DUP2 SWAP1 POP PUSH2 0x1817 DUP3 PUSH2 0x17F6 JUMP JUMPDEST SWAP2 SWAP1 POP JUMP JUMPDEST PUSH0 PUSH2 0x1826 DUP3 PUSH2 0x180A JUMP JUMPDEST SWAP1 POP SWAP2 SWAP1 POP JUMP JUMPDEST PUSH2 0x1836 DUP2 PUSH2 0x181C JUMP JUMPDEST DUP3 MSTORE POP POP JUMP JUMPDEST PUSH2 0x1845 DUP2 PUSH2 0x1326 JUMP JUMPDEST DUP3 MSTORE POP POP JUMP JUMPDEST PUSH1 0x3 DUP2 LT PUSH2 0x185C JUMPI PUSH2 0x185B PUSH2 0x17C9 JUMP JUMPDEST JUMPDEST POP JUMP JUMPDEST PUSH0 DUP2 SWAP1 POP PUSH2 0x186C DUP3 PUSH2 0x184B JUMP JUMPDEST SWAP2 SWAP1 POP JUMP JUMPDEST PUSH0 PUSH2 0x187B DUP3 PUSH2 0x185F JUMP JUMPDEST SWAP1 POP SWAP2 SWAP1 POP JUMP JUMPDEST PUSH2 0x188B DUP2 PUSH2 0x1871 JUMP JUMPDEST DUP3 MSTORE POP POP JUMP JUMPDEST PUSH0 PUSH2 0x180 DUP3 ADD SWAP1 POP PUSH2 0x18A5 PUSH0 DUP4 ADD DUP16 PUSH2 0x1595 JUMP JUMPDEST DUP2 DUP2 SUB PUSH1 0x20 DUP4 ADD MSTORE PUSH2 0x18B7 DUP2 DUP15 PUSH2 0x155D JUMP JUMPDEST SWAP1 POP PUSH2 0x18C6 PUSH1 0x40 DUP4 ADD DUP14 PUSH2 0x1595 JUMP JUMPDEST PUSH2 0x18D3 PUSH1 0x60 DUP4 ADD DUP13 PUSH2 0x1595 JUMP JUMPDEST PUSH2 0x18E0 PUSH1 0x80 DUP4 ADD DUP12 PUSH2 0x182D JUMP JUMPDEST DUP2 DUP2 SUB PUSH1 0xA0 DUP4 ADD MSTORE PUSH2 0x18F2 DUP2 DUP11 PUSH2 0x155D JUMP JUMPDEST SWAP1 POP PUSH2 0x1901 PUSH1 0xC0 DUP4 ADD DUP10 PUSH2 0x183C JUMP JUMPDEST PUSH2 0x190E PUSH1 0xE0 DUP4 ADD DUP9 PUSH2 0x1882 JUMP JUMPDEST PUSH2 0x191C PUSH2 0x100 DUP4 ADD DUP8 PUSH2 0x1595 JUMP JUMPDEST PUSH2 0x192A PUSH2 0x120 DUP4 ADD DUP7 PUSH2 0x1595 JUMP JUMPDEST DUP2 DUP2 SUB PUSH2 0x140 DUP4 ADD MSTORE PUSH2 0x193D DUP2 DUP6 PUSH2 0x155D JUMP JUMPDEST SWAP1 POP DUP2 DUP2 SUB PUSH2 0x160 DUP4 ADD MSTORE PUSH2 0x1952 DUP2 DUP5 PUSH2 0x155D JUMP JUMPDEST SWAP1 POP SWAP14 SWAP13 POP POP POP POP POP POP POP POP POP POP POP POP POP JUMP JUMPDEST PUSH32 0x4E487B7100000000000000000000000000000000000000000000000000000000 PUSH0 MSTORE PUSH1 0x22 PUSH1 0x4 MSTORE PUSH1 0x24 PUSH0 REVERT JUMPDEST PUSH0 PUSH1 0x2 DUP3 DIV SWAP1 POP PUSH1 0x1 DUP3 AND DUP1 PUSH2 0x19A9 JUMPI PUSH1 0x7F DUP3 AND SWAP2 POP JUMPDEST PUSH1 0x20 DUP3 LT DUP2 SUB PUSH2 0x19BC JUMPI PUSH2 0x19BB PUSH2 0x1965 JUMP JUMPDEST JUMPDEST POP SWAP2 SWAP1 POP JUMP JUMPDEST PUSH0 DUP2 SWAP1 POP DUP2 PUSH0 MSTORE PUSH1 0x20 PUSH0 KECCAK256 SWAP1 POP SWAP2 SWAP1 POP JUMP JUMPDEST PUSH0 PUSH1 0x20 PUSH1 0x1F DUP4 ADD DIV SWAP1 POP SWAP2 SWAP1 POP JUMP JUMPDEST PUSH0 DUP3 DUP3 SHL SWAP1 POP SWAP3 SWAP2 POP POP JUMP JUMPDEST PUSH0 PUSH1 0x8 DUP4 MUL PUSH2 0x1A1E PUSH32 0xFFFFFFFFFFFFFFFFFFFFFFFFFFFFFFFFFFFFFFFFFFFFFFFFFFFFFFFFFFFFFFFF DUP3 PUSH2 0x19E3 JUMP JUMPDEST PUSH2 0x1A28 DUP7 DUP4 PUSH2 0x19E3 JUMP JUMPDEST SWAP6 POP DUP1 NOT DUP5 AND SWAP4 POP DUP1 DUP7 AND DUP5 OR SWAP3 POP POP POP SWAP4 SWAP3 POP POP POP JUMP JUMPDEST PUSH0 DUP2 SWAP1 POP SWAP2 SWAP1 POP JUMP JUMPDEST PUSH0 PUSH2 0x1A63 PUSH2 0x1A5E PUSH2 0x1A59 DUP5 PUSH2 0x12F3 JUMP JUMPDEST PUSH2 0x1A40 JUMP JUMPDEST PUSH2 0x12F3 JUMP JUMPDEST SWAP1 POP SWAP2 SWAP1 POP JUMP JUMPDEST PUSH0 DUP2 SWAP1 POP SWAP2 SWAP1 POP JUMP JUMPDEST PUSH2 0x1A7C DUP4 PUSH2 0x1A49 JUMP JUMPDEST PUSH2 0x1A90 PUSH2 0x1A88 DUP3 PUSH2 0x1A6A JUMP JUMPDEST DUP5 DUP5 SLOAD PUSH2 0x19EF JUMP JUMPDEST DUP3 SSTORE POP POP POP POP JUMP JUMPDEST PUSH0 PUSH0 SWAP1 POP SWAP1 JUMP JUMPDEST PUSH2 0x1AA7 PUSH2 0x1A98 JUMP JUMPDEST PUSH2 0x1AB2 DUP2 DUP5 DUP5 PUSH2 0x1A73 JUMP JUMPDEST POP POP POP JUMP JUMPDEST JUMPDEST DUP2 DUP2 LT ISZERO PUSH2 0x1AD5 JUMPI PUSH2 0x1ACA PUSH0 DUP3 PUSH2 0x1A9F JUMP JUMPDEST PUSH1 0x1 DUP2 ADD SWAP1 POP PUSH2 0x1AB8 JUMP JUMPDEST POP POP JUMP JUMPDEST PUSH1 0x1F DUP3 GT ISZERO PUSH2 0x1B1A JUMPI PUSH2 0x1AEB DUP2 PUSH2 0x19C2 JUMP JUMPDEST PUSH2 0x1AF4 DUP5 PUSH2 0x19D4 JUMP JUMPDEST DUP2 ADD PUSH1 0x20 DUP6 LT ISZERO PUSH2 0x1B03 JUMPI DUP2 SWAP1 POP JUMPDEST PUSH2 0x1B17 PUSH2 0x1B0F DUP6 PUSH2 0x19D4 JUMP JUMPDEST DUP4 ADD DUP3 PUSH2 0x1AB7 JUMP JUMPDEST POP POP JUMPDEST POP POP POP JUMP JUMPDEST PUSH0 DUP3 DUP3 SHR SWAP1 POP SWAP3 SWAP2 POP POP JUMP JUMPDEST PUSH0 PUSH2 0x1B3A PUSH0 NOT DUP5 PUSH1 0x8 MUL PUSH2 0x1B1F JUMP JUMPDEST NOT DUP1 DUP4 AND SWAP2 POP POP SWAP3 SWAP2 POP POP JUMP JUMPDEST PUSH0 PUSH2 0x1B52 DUP4 DUP4 PUSH2 0x1B2B JUMP JUMPDEST SWAP2 POP DUP3 PUSH1 0x2 MUL DUP3 OR SWAP1 POP SWAP3 SWAP2 POP POP JUMP JUMPDEST PUSH2 0x1B6B DUP3 PUSH2 0x1535 JUMP JUMPDEST PUSH8 0xFFFFFFFFFFFFFFFF DUP2 GT ISZERO PUSH2 0x1B84 JUMPI PUSH2 0x1B83 PUSH2 0x11CF JUMP JUMPDEST JUMPDEST PUSH2 0x1B8E DUP3 SLOAD PUSH2 0x1992 JUMP JUMPDEST PUSH2 0x1B99 DUP3 DUP3 DUP6 PUSH2 0x1AD9 JUMP JUMPDEST PUSH0 PUSH1 0x20 SWAP1 POP PUSH1 0x1F DUP4 GT PUSH1 0x1 DUP2 EQ PUSH2 0x1BCA JUMPI PUSH0 DUP5 ISZERO PUSH2 0x1BB8 JUMPI DUP3 DUP8 ADD MLOAD SWAP1 POP JUMPDEST PUSH2 0x1BC2 DUP6 DUP3 PUSH2 0x1B47 JUMP JUMPDEST DUP7 SSTORE POP PUSH2 0x1C29 JUMP JUMPDEST PUSH1 0x1F NOT DUP5 AND PUSH2 0x1BD8 DUP7 PUSH2 0x19C2 JUMP JUMPDEST PUSH0 JUMPDEST DUP3 DUP2 LT ISZERO PUSH2 0x1BFF JUMPI DUP5 DUP10 ADD MLOAD DUP3 SSTORE PUSH1 0x1 DUP3 ADD SWAP2 POP PUSH1 0x20 DUP6 ADD SWAP5 POP PUSH1 0x20 DUP2 ADD SWAP1 POP PUSH2 0x1BDA JUMP JUMPDEST DUP7 DUP4 LT ISZERO PUSH2 0x1C1C JUMPI DUP5 DUP10 ADD MLOAD PUSH2 0x1C18 PUSH1 0x1F DUP10 AND DUP3 PUSH2 0x1B2B JUMP JUMPDEST DUP4 SSTORE POP JUMPDEST PUSH1 0x1 PUSH1 0x2 DUP9 MUL ADD DUP9 SSTORE POP POP POP JUMPDEST POP POP POP POP POP POP JUMP JUMPDEST PUSH32 0x4E487B7100000000000000000000000000000000000000000000000000000000 PUSH0 MSTORE PUSH1 0x11 PUSH1 0x4 MSTORE PUSH1 0x24 PUSH0 REVERT JUMPDEST PUSH0 PUSH2 0x1C68 DUP3 PUSH2 0x12F3 JUMP JUMPDEST SWAP2 POP PUSH32 0xFFFFFFFFFFFFFFFFFFFFFFFFFFFFFFFFFFFFFFFFFFFFFFFFFFFFFFFFFFFFFFFF DUP3 SUB PUSH2 0x1C9A JUMPI PUSH2 0x1C99 PUSH2 0x1C31 JUMP JUMPDEST JUMPDEST PUSH1 0x1 DUP3 ADD SWAP1 POP SWAP2 SWAP1 POP JUMP JUMPDEST PUSH0 PUSH2 0x1CAF DUP3 PUSH2 0x12F3 JUMP JUMPDEST SWAP2 POP PUSH2 0x1CBA DUP4 PUSH2 0x12F3 JUMP JUMPDEST SWAP3 POP DUP3 DUP3 SUB SWAP1 POP DUP2 DUP2 GT ISZERO PUSH2 0x1CD2 JUMPI PUSH2 0x1CD1 PUSH2 0x1C31 JUMP JUMPDEST JUMPDEST SWAP3 SWAP2 POP POP JUMP JUMPDEST PUSH0 DUP2 SWAP1 POP SWAP2 SWAP1 POP JUMP JUMPDEST PUSH2 0x1CEA DUP2 PUSH2 0x1CD8 JUMP JUMPDEST DUP3 MSTORE POP POP JUMP JUMPDEST PUSH0 PUSH1 0x60 DUP3 ADD SWAP1 POP PUSH2 0x1D03 PUSH0 DUP4 ADD DUP7 PUSH2 0x1595 JUMP JUMPDEST PUSH2 0x1D10 PUSH1 0x20 DUP4 ADD DUP6 PUSH2 0x1CE1 JUMP JUMPDEST PUSH2 0x1D1D PUSH1 0x40 DUP4 ADD DUP5 PUSH2 0x1595 JUMP JUMPDEST SWAP5 SWAP4 POP POP POP POP JUMP JUMPDEST PUSH32 0x476F617420646F6573206E6F7420657869737400000000000000000000000000 PUSH0 DUP3 ADD MSTORE POP JUMP JUMPDEST PUSH0 PUSH2 0x1D59 PUSH1 0x13 DUP4 PUSH2 0x153F JUMP JUMPDEST SWAP2 POP PUSH2 0x1D64 DUP3 PUSH2 0x1D25 JUMP JUMPDEST PUSH1 0x20 DUP3 ADD SWAP1 POP SWAP2 SWAP1 POP JUMP JUMPDEST PUSH0 PUSH1 0x20 DUP3 ADD SWAP1 POP DUP2 DUP2 SUB PUSH0 DUP4 ADD MSTORE PUSH2 0x1D86 DUP2 PUSH2 0x1D4D JUMP JUMPDEST SWAP1 POP SWAP2 SWAP1 POP JUMP JUMPDEST PUSH0 PUSH2 0x1D97 DUP3 PUSH2 0x12F3 JUMP JUMPDEST SWAP2 POP PUSH2 0x1DA2 DUP4 PUSH2 0x12F3 JUMP JUMPDEST SWAP3 POP DUP3 DUP3 MUL PUSH2 0x1DB0 DUP2 PUSH2 0x12F3 JUMP JUMPDEST SWAP2 POP DUP3 DUP3 DIV DUP5 EQ DUP4 ISZERO OR PUSH2 0x1DC7 JUMPI PUSH2 0x1DC6 PUSH2 0x1C31 JUMP JUMPDEST JUMPDEST POP SWAP3 SWAP2 POP POP JUMP JUMPDEST PUSH0 PUSH2 0x1DD8 DUP3 PUSH2 0x12F3 JUMP JUMPDEST SWAP2 POP PUSH2 0x1DE3 DUP4 PUSH2 0x12F3 JUMP JUMPDEST SWAP3 POP DUP3 DUP3 ADD SWAP1 POP DUP1 DUP3 GT ISZERO PUSH2 0x1DFB JUMPI PUSH2 0x1DFA PUSH2 0x1C31 JUMP JUMPDEST JUMPDEST SWAP3 SWAP2 POP POP JUMP JUMPDEST PUSH0 DUP2 SWAP1 POP SWAP3 SWAP2 POP POP JUMP JUMPDEST PUSH32 0x4C6F63616C000000000000000000000000000000000000000000000000000000 PUSH0 DUP3 ADD MSTORE POP JUMP JUMPDEST PUSH0 PUSH2 0x1E3F PUSH1 0x5 DUP4 PUSH2 0x1E01 JUMP JUMPDEST SWAP2 POP PUSH2 0x1E4A DUP3 PUSH2 0x1E0B JUMP JUMPDEST PUSH1 0x5 DUP3 ADD SWAP1 POP SWAP2 SWAP1 POP JUMP JUMPDEST PUSH0 PUSH2 0x1E5F DUP3 PUSH2 0x1E33 JUMP JUMPDEST SWAP2 POP DUP2 SWAP1 POP SWAP2 SWAP1 POP JUMP JUMPDEST PUSH0 PUSH2 0x1E73 DUP3 PUSH2 0x1535 JUMP JUMPDEST PUSH2 0x1E7D DUP2 DUP6 PUSH2 0x1E01 JUMP JUMPDEST SWAP4 POP PUSH2 0x1E8D DUP2 DUP6 PUSH1 0x20 DUP7 ADD PUSH2 0x154F JUMP JUMPDEST DUP1 DUP5 ADD SWAP2 POP POP SWAP3 SWAP2 POP POP JUMP JUMPDEST PUSH0 PUSH2 0x1EA4 DUP3 DUP5 PUSH2 0x1E69 JUMP JUMPDEST SWAP2 POP DUP2 SWAP1 POP SWAP3 SWAP2 POP POP JUMP JUMPDEST PUSH32 0x426163685468616F000000000000000000000000000000000000000000000000 PUSH0 DUP3 ADD MSTORE POP JUMP JUMPDEST PUSH0 PUSH2 0x1EE3 PUSH1 0x8 DUP4 PUSH2 0x1E01 JUMP JUMPDEST SWAP2 POP PUSH2 0x1EEE DUP3 PUSH2 0x1EAF JUMP JUMPDEST PUSH1 0x8 DUP3 ADD SWAP1 POP SWAP2 SWAP1 POP JUMP JUMPDEST PUSH0 PUSH2 0x1F03 DUP3 PUSH2 0x1ED7 JUMP JUMPDEST SWAP2 POP DUP2 SWAP1 POP SWAP2 SWAP1 POP JUMP JUMPDEST PUSH32 0x426F657200000000000000000000000000000000000000000000000000000000 PUSH0 DUP3 ADD MSTORE POP JUMP JUMPDEST PUSH0 PUSH2 0x1F41 PUSH1 0x4 DUP4 PUSH2 0x1E01 JUMP JUMPDEST SWAP2 POP PUSH2 0x1F4C DUP3 PUSH2 0x1F0D JUMP JUMPDEST PUSH1 0x4 DUP3 ADD SWAP1 POP SWAP2 SWAP1 POP JUMP JUMPDEST PUSH0 PUSH2 0x1F61 DUP3 PUSH2 0x1F35 JUMP JUMPDEST SWAP2 POP DUP2 SWAP1 POP SWAP2 SWAP1 POP JUMP JUMPDEST PUSH32 0x496E76616C696420627265656420747970650000000000000000000000000000 PUSH0 DUP3 ADD MSTORE POP JUMP JUMPDEST PUSH0 PUSH2 0x1F9F PUSH1 0x12 DUP4 PUSH2 0x153F JUMP JUMPDEST SWAP2 POP PUSH2 0x1FAA DUP3 PUSH2 0x1F6B JUMP JUMPDEST PUSH1 0x20 DUP3 ADD SWAP1 POP SWAP2 SWAP1 POP JUMP JUMPDEST PUSH0 PUSH1 0x20 DUP3 ADD SWAP1 POP DUP2 DUP2 SUB PUSH0 DUP4 ADD MSTORE PUSH2 0x1FCC DUP2 PUSH2 0x1F93 JUMP JUMPDEST SWAP1 POP SWAP2 SWAP1 POP JUMP INVALID LOG2 PUSH5 0x6970667358 0x22 SLT KECCAK256 ISZERO 0xB1 0xD6 LOG3 MOD 0xDD 0xCD CODESIZE SWAP4 LT SWAP9 0x4F 0x2A NUMBER GASLIMIT DUP15 PUSH7 0xA9354B59979975 0xF7 GT MOD 0xF6 0xB6 PUSH9 0xCCCB64736F6C634300 ADDMOD SHR STOP CALLER "
		},
		"gasEstimates": {
			"creation": {
				"codeDepositCost": "1640200",
				"executionCost": "1720",
				"totalCost": "1641920"
			},
			"external": {
				"addGoat(string,uint256,uint256,string,string,bool,uint8,uint256,uint256,string,string)": "infinite",
				"addProduct(uint256,string,uint256,string)": "infinite",
				"calculateFeedCost(uint256)": "infinite",
				"goatProducts(uint256,uint256)": "infinite",
				"goats(uint256)": "infinite",
				"healthHistory(uint256,uint256)": "infinite",
				"nextGoatId()": "2424",
				"totalMonthlyFeedCost()": "infinite",
				"updateHealth(uint256,string,string,string)": "infinite"
			},
			"internal": {
				"getEnumValue(string memory)": "infinite"
			}
		},
		"methodIdentifiers": {
			"addGoat(string,uint256,uint256,string,string,bool,uint8,uint256,uint256,string,string)": "0e366cbe",
			"addProduct(uint256,string,uint256,string)": "6d25a3d1",
			"calculateFeedCost(uint256)": "7454a9f6",
			"goatProducts(uint256,uint256)": "0f53f667",
			"goats(uint256)": "9af76a90",
			"healthHistory(uint256,uint256)": "28b968ba",
			"nextGoatId()": "609e1e60",
			"totalMonthlyFeedCost()": "79c66a04",
			"updateHealth(uint256,string,string,string)": "338ad5c2"
		}
	},
	"abi": [
		{
			"anonymous": false,
			"inputs": [
				{
					"indexed": false,
					"internalType": "uint256",
					"name": "gasUsed",
					"type": "uint256"
				},
				{
					"indexed": false,
					"internalType": "bytes32",
					"name": "txHash",
					"type": "bytes32"
				},
				{
					"indexed": false,
					"internalType": "uint256",
					"name": "blockNumber",
					"type": "uint256"
				}
			],
			"name": "TransactionDetails",
			"type": "event"
		},
		{
			"inputs": [
				{
					"internalType": "string",
					"name": "_code",
					"type": "string"
				},
				{
					"internalType": "uint256",
					"name": "_age",
					"type": "uint256"
				},
				{
					"internalType": "uint256",
					"name": "_weight",
					"type": "uint256"
				},
				{
					"internalType": "string",
					"name": "_breed",
					"type": "string"
				},
				{
					"internalType": "string",
					"name": "_healthStatus",
					"type": "string"
				},
				{
					"internalType": "bool",
					"name": "isBornInFarm",
					"type": "bool"
				},
				{
					"internalType": "enum GoatManagement.MatingType",
					"name": "_matingType",
					"type": "uint8"
				},
				{
					"internalType": "uint256",
					"name": "_parent1Id",
					"type": "uint256"
				},
				{
					"internalType": "uint256",
					"name": "_parent2Id",
					"type": "uint256"
				},
				{
					"internalType": "string",
					"name": "_note",
					"type": "string"
				},
				{
					"internalType": "string",
					"name": "_artificialBreed",
					"type": "string"
				}
			],
			"name": "addGoat",
			"outputs": [],
			"stateMutability": "nonpayable",
			"type": "function"
		},
		{
			"inputs": [
				{
					"internalType": "uint256",
					"name": "_goatId",
					"type": "uint256"
				},
				{
					"internalType": "string",
					"name": "_productType",
					"type": "string"
				},
				{
					"internalType": "uint256",
					"name": "_quantity",
					"type": "uint256"
				},
				{
					"internalType": "string",
					"name": "_harvresDate",
					"type": "string"
				}
			],
			"name": "addProduct",
			"outputs": [],
			"stateMutability": "nonpayable",
			"type": "function"
		},
		{
			"inputs": [
				{
					"internalType": "uint256",
					"name": "_goatId",
					"type": "uint256"
				}
			],
			"name": "calculateFeedCost",
			"outputs": [
				{
					"internalType": "uint256",
					"name": "",
					"type": "uint256"
				}
			],
			"stateMutability": "view",
			"type": "function"
		},
		{
			"inputs": [
				{
					"internalType": "uint256",
					"name": "",
					"type": "uint256"
				},
				{
					"internalType": "uint256",
					"name": "",
					"type": "uint256"
				}
			],
			"name": "goatProducts",
			"outputs": [
				{
					"internalType": "string",
					"name": "productType",
					"type": "string"
				},
				{
					"internalType": "uint256",
					"name": "quantity",
					"type": "uint256"
				},
				{
					"internalType": "string",
					"name": "harvestDate",
					"type": "string"
				}
			],
			"stateMutability": "view",
			"type": "function"
		},
		{
			"inputs": [
				{
					"internalType": "uint256",
					"name": "",
					"type": "uint256"
				}
			],
			"name": "goats",
			"outputs": [
				{
					"internalType": "uint256",
					"name": "id",
					"type": "uint256"
				},
				{
					"internalType": "string",
					"name": "code",
					"type": "string"
				},
				{
					"internalType": "uint256",
					"name": "age",
					"type": "uint256"
				},
				{
					"internalType": "uint256",
					"name": "weight",
					"type": "uint256"
				},
				{
					"internalType": "enum GoatManagement.Breed",
					"name": "breed",
					"type": "uint8"
				},
				{
					"internalType": "string",
					"name": "healthStatus",
					"type": "string"
				},
				{
					"internalType": "bool",
					"name": "isBornInFarm",
					"type": "bool"
				},
				{
					"internalType": "enum GoatManagement.MatingType",
					"name": "mattingType",
					"type": "uint8"
				},
				{
					"internalType": "uint256",
					"name": "parent1Id",
					"type": "uint256"
				},
				{
					"internalType": "uint256",
					"name": "parent2Id",
					"type": "uint256"
				},
				{
					"internalType": "string",
					"name": "note",
					"type": "string"
				},
				{
					"internalType": "string",
					"name": "artificialBreed",
					"type": "string"
				}
			],
			"stateMutability": "view",
			"type": "function"
		},
		{
			"inputs": [
				{
					"internalType": "uint256",
					"name": "",
					"type": "uint256"
				},
				{
					"internalType": "uint256",
					"name": "",
					"type": "uint256"
				}
			],
			"name": "healthHistory",
			"outputs": [
				{
					"internalType": "string",
					"name": "date",
					"type": "string"
				},
				{
					"internalType": "string",
					"name": "healthStatus",
					"type": "string"
				},
				{
					"internalType": "string",
					"name": "treatment",
					"type": "string"
				}
			],
			"stateMutability": "view",
			"type": "function"
		},
		{
			"inputs": [],
			"name": "nextGoatId",
			"outputs": [
				{
					"internalType": "uint256",
					"name": "",
					"type": "uint256"
				}
			],
			"stateMutability": "view",
			"type": "function"
		},
		{
			"inputs": [],
			"name": "totalMonthlyFeedCost",
			"outputs": [
				{
					"internalType": "uint256",
					"name": "",
					"type": "uint256"
				}
			],
			"stateMutability": "view",
			"type": "function"
		},
		{
			"inputs": [
				{
					"internalType": "uint256",
					"name": "_goatId",
					"type": "uint256"
				},
				{
					"internalType": "string",
					"name": "_date",
					"type": "string"
				},
				{
					"internalType": "string",
					"name": "_healthStatus",
					"type": "string"
				},
				{
					"internalType": "string",
					"name": "_treatment",
					"type": "string"
				}
			],
			"name": "updateHealth",
			"outputs": [],
			"stateMutability": "nonpayable",
			"type": "function"
		}
	]
}