{
	"data": {
		"bytecode": {
			"linkReferences": {},
			"object": "6080604052348015600e575f5ffd5b50610e5c8061001c5f395ff3fe608060405234801561000f575f5ffd5b506004361061007b575f3560e01c80639874f5d7116100595780639874f5d7146100e9578063b7c763b514610105578063be1c766b14610135578063d772f549146101535761007b565b8063284609801461007f57806376a48c711461009d5780638b3c8a65146100b9575b5f5ffd5b61008761015d565b6040516100949190610568565b60405180910390f35b6100b760048036038101906100b291906105cc565b6101d5565b005b6100d360048036038101906100ce91906105cc565b61029d565b6040516100e09190610568565b60405180910390f35b61010360048036038101906100fe9190610723565b610342565b005b61011f600480360381019061011a91906105cc565b610376565b60405161012c9190610568565b60405180910390f35b61013d610421565b60405161014a9190610779565b60405180910390f35b61015b61042c565b005b60605f60405180602001604052805f81525090505f5f90505b5f805490508110156101cd57815f828154811061019657610195610792565b5b905f5260205f20016040516020016101af929190610932565b60405160208183030381529060405291508080600101915050610176565b508091505090565b5f80549050811061021b576040517f08c379a0000000000000000000000000000000000000000000000000000000008152600401610212906109aa565b60405180910390fd5b5f60015f8054905061022d91906109f5565b8154811061023e5761023d610792565b5b905f5260205f20015f828154811061025957610258610792565b5b905f5260205f2001908161026d9190610bdd565b505f80548061027f5761027e610cc2565b5b600190038181905f5260205f20015f61029891906104a0565b905550565b5f81815481106102ab575f80fd5b905f5260205f20015f9150905080546102c390610826565b80601f01602080910402602001604051908101604052809291908181526020018280546102ef90610826565b801561033a5780601f106103115761010080835404028352916020019161033a565b820191905f5260205f20905b81548152906001019060200180831161031d57829003601f168201915b505050505081565b5f81908060018154018082558091505060019003905f5260205f20015f9091909190915090816103729190610cef565b5050565b60605f828154811061038b5761038a610792565b5b905f5260205f2001805461039e90610826565b80601f01602080910402602001604051908101604052809291908181526020018280546103ca90610826565b80156104155780601f106103ec57610100808354040283529160200191610415565b820191905f5260205f20905b8154815290600101906020018083116103f857829003601f168201915b50505050509050919050565b5f5f80549050905090565b5f5f8054905011610472576040517f08c379a000000000000000000000000000000000000000000000000000000000815260040161046990610e08565b60405180910390fd5b5f80548061048357610482610cc2565b5b600190038181905f5260205f20015f61049c91906104a0565b9055565b5080546104ac90610826565b5f825580601f106104bd57506104da565b601f0160209004905f5260205f20908101906104d991906104dd565b5b50565b5b808211156104f4575f815f9055506001016104de565b5090565b5f81519050919050565b5f82825260208201905092915050565b8281835e5f83830152505050565b5f601f19601f8301169050919050565b5f61053a826104f8565b6105448185610502565b9350610554818560208601610512565b61055d81610520565b840191505092915050565b5f6020820190508181035f8301526105808184610530565b905092915050565b5f604051905090565b5f5ffd5b5f5ffd5b5f819050919050565b6105ab81610599565b81146105b5575f5ffd5b50565b5f813590506105c6816105a2565b92915050565b5f602082840312156105e1576105e0610591565b5b5f6105ee848285016105b8565b91505092915050565b5f5ffd5b5f5ffd5b7f4e487b71000000000000000000000000000000000000000000000000000000005f52604160045260245ffd5b61063582610520565b810181811067ffffffffffffffff82111715610654576106536105ff565b5b80604052505050565b5f610666610588565b9050610672828261062c565b919050565b5f67ffffffffffffffff821115610691576106906105ff565b5b61069a82610520565b9050602081019050919050565b828183375f83830152505050565b5f6106c76106c284610677565b61065d565b9050828152602081018484840111156106e3576106e26105fb565b5b6106ee8482856106a7565b509392505050565b5f82601f83011261070a576107096105f7565b5b813561071a8482602086016106b5565b91505092915050565b5f6020828403121561073857610737610591565b5b5f82013567ffffffffffffffff81111561075557610754610595565b5b610761848285016106f6565b91505092915050565b61077381610599565b82525050565b5f60208201905061078c5f83018461076a565b92915050565b7f4e487b71000000000000000000000000000000000000000000000000000000005f52603260045260245ffd5b5f81905092915050565b5f6107d3826104f8565b6107dd81856107bf565b93506107ed818560208601610512565b80840191505092915050565b7f4e487b71000000000000000000000000000000000000000000000000000000005f52602260045260245ffd5b5f600282049050600182168061083d57607f821691505b6020821081036108505761084f6107f9565b5b50919050565b5f819050815f5260205f209050919050565b5f815461087481610826565b61087e81866107bf565b9450600182165f811461089857600181146108ad576108df565b60ff19831686528115158202860193506108df565b6108b685610856565b5f5b838110156108d7578154818901526001820191506020810190506108b8565b838801955050505b50505092915050565b7f20000000000000000000000000000000000000000000000000000000000000005f82015250565b5f61091c6001836107bf565b9150610927826108e8565b600182019050919050565b5f61093d82856107c9565b91506109498284610868565b915061095482610910565b91508190509392505050565b7f496e646578206f7574206f6620626f756e6473000000000000000000000000005f82015250565b5f610994601383610502565b915061099f82610960565b602082019050919050565b5f6020820190508181035f8301526109c181610988565b9050919050565b7f4e487b71000000000000000000000000000000000000000000000000000000005f52601160045260245ffd5b5f6109ff82610599565b9150610a0a83610599565b9250828203905081811115610a2257610a216109c8565b5b92915050565b5f81549050610a3681610826565b9050919050565b5f819050815f5260205f209050919050565b5f6020601f8301049050919050565b5f82821b905092915050565b5f60088302610a997fffffffffffffffffffffffffffffffffffffffffffffffffffffffffffffffff82610a5e565b610aa38683610a5e565b95508019841693508086168417925050509392505050565b5f819050919050565b5f610ade610ad9610ad484610599565b610abb565b610599565b9050919050565b5f819050919050565b610af783610ac4565b610b0b610b0382610ae5565b848454610a6a565b825550505050565b5f5f905090565b610b22610b13565b610b2d818484610aee565b505050565b5b81811015610b5057610b455f82610b1a565b600181019050610b33565b5050565b601f821115610b9557610b6681610856565b610b6f84610a4f565b81016020851015610b7e578190505b610b92610b8a85610a4f565b830182610b32565b50505b505050565b5f82821c905092915050565b5f610bb55f1984600802610b9a565b1980831691505092915050565b5f610bcd8383610ba6565b9150826002028217905092915050565b818103610beb575050610cc0565b610bf482610a28565b67ffffffffffffffff811115610c0d57610c0c6105ff565b5b610c178254610826565b610c22828285610b54565b5f601f831160018114610c4f575f8415610c3d578287015490505b610c478582610bc2565b865550610cb9565b601f198416610c5d87610a3d565b9650610c6886610856565b5f5b82811015610c8f57848901548255600182019150600185019450602081019050610c6a565b86831015610cac5784890154610ca8601f891682610ba6565b8355505b6001600288020188555050505b5050505050505b565b7f4e487b71000000000000000000000000000000000000000000000000000000005f52603160045260245ffd5b610cf8826104f8565b67ffffffffffffffff811115610d1157610d106105ff565b5b610d1b8254610826565b610d26828285610b54565b5f60209050601f831160018114610d57575f8415610d45578287015190505b610d4f8582610bc2565b865550610db6565b601f198416610d6586610856565b5f5b82811015610d8c57848901518255600182019150602085019450602081019050610d67565b86831015610da95784890151610da5601f891682610ba6565b8355505b6001600288020188555050505b505050505050565b7f417272617920697320656d7074790000000000000000000000000000000000005f82015250565b5f610df2600e83610502565b9150610dfd82610dbe565b602082019050919050565b5f6020820190508181035f830152610e1f81610de6565b905091905056fea26469706673582212208fafbd22e0cfa3595c70fb6a1ebaf42fd5a7f3d8d96aa688a51c08437ffc6d9764736f6c634300081c0033",
			"opcodes": "PUSH1 0x80 PUSH1 0x40 MSTORE CALLVALUE DUP1 ISZERO PUSH1 0xE JUMPI PUSH0 PUSH0 REVERT JUMPDEST POP PUSH2 0xE5C DUP1 PUSH2 0x1C PUSH0 CODECOPY PUSH0 RETURN INVALID PUSH1 0x80 PUSH1 0x40 MSTORE CALLVALUE DUP1 ISZERO PUSH2 0xF JUMPI PUSH0 PUSH0 REVERT JUMPDEST POP PUSH1 0x4 CALLDATASIZE LT PUSH2 0x7B JUMPI PUSH0 CALLDATALOAD PUSH1 0xE0 SHR DUP1 PUSH4 0x9874F5D7 GT PUSH2 0x59 JUMPI DUP1 PUSH4 0x9874F5D7 EQ PUSH2 0xE9 JUMPI DUP1 PUSH4 0xB7C763B5 EQ PUSH2 0x105 JUMPI DUP1 PUSH4 0xBE1C766B EQ PUSH2 0x135 JUMPI DUP1 PUSH4 0xD772F549 EQ PUSH2 0x153 JUMPI PUSH2 0x7B JUMP JUMPDEST DUP1 PUSH4 0x28460980 EQ PUSH2 0x7F JUMPI DUP1 PUSH4 0x76A48C71 EQ PUSH2 0x9D JUMPI DUP1 PUSH4 0x8B3C8A65 EQ PUSH2 0xB9 JUMPI JUMPDEST PUSH0 PUSH0 REVERT JUMPDEST PUSH2 0x87 PUSH2 0x15D JUMP JUMPDEST PUSH1 0x40 MLOAD PUSH2 0x94 SWAP2 SWAP1 PUSH2 0x568 JUMP JUMPDEST PUSH1 0x40 MLOAD DUP1 SWAP2 SUB SWAP1 RETURN JUMPDEST PUSH2 0xB7 PUSH1 0x4 DUP1 CALLDATASIZE SUB DUP2 ADD SWAP1 PUSH2 0xB2 SWAP2 SWAP1 PUSH2 0x5CC JUMP JUMPDEST PUSH2 0x1D5 JUMP JUMPDEST STOP JUMPDEST PUSH2 0xD3 PUSH1 0x4 DUP1 CALLDATASIZE SUB DUP2 ADD SWAP1 PUSH2 0xCE SWAP2 SWAP1 PUSH2 0x5CC JUMP JUMPDEST PUSH2 0x29D JUMP JUMPDEST PUSH1 0x40 MLOAD PUSH2 0xE0 SWAP2 SWAP1 PUSH2 0x568 JUMP JUMPDEST PUSH1 0x40 MLOAD DUP1 SWAP2 SUB SWAP1 RETURN JUMPDEST PUSH2 0x103 PUSH1 0x4 DUP1 CALLDATASIZE SUB DUP2 ADD SWAP1 PUSH2 0xFE SWAP2 SWAP1 PUSH2 0x723 JUMP JUMPDEST PUSH2 0x342 JUMP JUMPDEST STOP JUMPDEST PUSH2 0x11F PUSH1 0x4 DUP1 CALLDATASIZE SUB DUP2 ADD SWAP1 PUSH2 0x11A SWAP2 SWAP1 PUSH2 0x5CC JUMP JUMPDEST PUSH2 0x376 JUMP JUMPDEST PUSH1 0x40 MLOAD PUSH2 0x12C SWAP2 SWAP1 PUSH2 0x568 JUMP JUMPDEST PUSH1 0x40 MLOAD DUP1 SWAP2 SUB SWAP1 RETURN JUMPDEST PUSH2 0x13D PUSH2 0x421 JUMP JUMPDEST PUSH1 0x40 MLOAD PUSH2 0x14A SWAP2 SWAP1 PUSH2 0x779 JUMP JUMPDEST PUSH1 0x40 MLOAD DUP1 SWAP2 SUB SWAP1 RETURN JUMPDEST PUSH2 0x15B PUSH2 0x42C JUMP JUMPDEST STOP JUMPDEST PUSH1 0x60 PUSH0 PUSH1 0x40 MLOAD DUP1 PUSH1 0x20 ADD PUSH1 0x40 MSTORE DUP1 PUSH0 DUP2 MSTORE POP SWAP1 POP PUSH0 PUSH0 SWAP1 POP JUMPDEST PUSH0 DUP1 SLOAD SWAP1 POP DUP2 LT ISZERO PUSH2 0x1CD JUMPI DUP2 PUSH0 DUP3 DUP2 SLOAD DUP2 LT PUSH2 0x196 JUMPI PUSH2 0x195 PUSH2 0x792 JUMP JUMPDEST JUMPDEST SWAP1 PUSH0 MSTORE PUSH1 0x20 PUSH0 KECCAK256 ADD PUSH1 0x40 MLOAD PUSH1 0x20 ADD PUSH2 0x1AF SWAP3 SWAP2 SWAP1 PUSH2 0x932 JUMP JUMPDEST PUSH1 0x40 MLOAD PUSH1 0x20 DUP2 DUP4 SUB SUB DUP2 MSTORE SWAP1 PUSH1 0x40 MSTORE SWAP2 POP DUP1 DUP1 PUSH1 0x1 ADD SWAP2 POP POP PUSH2 0x176 JUMP JUMPDEST POP DUP1 SWAP2 POP POP SWAP1 JUMP JUMPDEST PUSH0 DUP1 SLOAD SWAP1 POP DUP2 LT PUSH2 0x21B JUMPI PUSH1 0x40 MLOAD PUSH32 0x8C379A000000000000000000000000000000000000000000000000000000000 DUP2 MSTORE PUSH1 0x4 ADD PUSH2 0x212 SWAP1 PUSH2 0x9AA JUMP JUMPDEST PUSH1 0x40 MLOAD DUP1 SWAP2 SUB SWAP1 REVERT JUMPDEST PUSH0 PUSH1 0x1 PUSH0 DUP1 SLOAD SWAP1 POP PUSH2 0x22D SWAP2 SWAP1 PUSH2 0x9F5 JUMP JUMPDEST DUP2 SLOAD DUP2 LT PUSH2 0x23E JUMPI PUSH2 0x23D PUSH2 0x792 JUMP JUMPDEST JUMPDEST SWAP1 PUSH0 MSTORE PUSH1 0x20 PUSH0 KECCAK256 ADD PUSH0 DUP3 DUP2 SLOAD DUP2 LT PUSH2 0x259 JUMPI PUSH2 0x258 PUSH2 0x792 JUMP JUMPDEST JUMPDEST SWAP1 PUSH0 MSTORE PUSH1 0x20 PUSH0 KECCAK256 ADD SWAP1 DUP2 PUSH2 0x26D SWAP2 SWAP1 PUSH2 0xBDD JUMP JUMPDEST POP PUSH0 DUP1 SLOAD DUP1 PUSH2 0x27F JUMPI PUSH2 0x27E PUSH2 0xCC2 JUMP JUMPDEST JUMPDEST PUSH1 0x1 SWAP1 SUB DUP2 DUP2 SWAP1 PUSH0 MSTORE PUSH1 0x20 PUSH0 KECCAK256 ADD PUSH0 PUSH2 0x298 SWAP2 SWAP1 PUSH2 0x4A0 JUMP JUMPDEST SWAP1 SSTORE POP JUMP JUMPDEST PUSH0 DUP2 DUP2 SLOAD DUP2 LT PUSH2 0x2AB JUMPI PUSH0 DUP1 REVERT JUMPDEST SWAP1 PUSH0 MSTORE PUSH1 0x20 PUSH0 KECCAK256 ADD PUSH0 SWAP2 POP SWAP1 POP DUP1 SLOAD PUSH2 0x2C3 SWAP1 PUSH2 0x826 JUMP JUMPDEST DUP1 PUSH1 0x1F ADD PUSH1 0x20 DUP1 SWAP2 DIV MUL PUSH1 0x20 ADD PUSH1 0x40 MLOAD SWAP1 DUP2 ADD PUSH1 0x40 MSTORE DUP1 SWAP3 SWAP2 SWAP1 DUP2 DUP2 MSTORE PUSH1 0x20 ADD DUP3 DUP1 SLOAD PUSH2 0x2EF SWAP1 PUSH2 0x826 JUMP JUMPDEST DUP1 ISZERO PUSH2 0x33A JUMPI DUP1 PUSH1 0x1F LT PUSH2 0x311 JUMPI PUSH2 0x100 DUP1 DUP4 SLOAD DIV MUL DUP4 MSTORE SWAP2 PUSH1 0x20 ADD SWAP2 PUSH2 0x33A JUMP JUMPDEST DUP3 ADD SWAP2 SWAP1 PUSH0 MSTORE PUSH1 0x20 PUSH0 KECCAK256 SWAP1 JUMPDEST DUP2 SLOAD DUP2 MSTORE SWAP1 PUSH1 0x1 ADD SWAP1 PUSH1 0x20 ADD DUP1 DUP4 GT PUSH2 0x31D JUMPI DUP3 SWAP1 SUB PUSH1 0x1F AND DUP3 ADD SWAP2 JUMPDEST POP POP POP POP POP DUP2 JUMP JUMPDEST PUSH0 DUP2 SWAP1 DUP1 PUSH1 0x1 DUP2 SLOAD ADD DUP1 DUP3 SSTORE DUP1 SWAP2 POP POP PUSH1 0x1 SWAP1 SUB SWAP1 PUSH0 MSTORE PUSH1 0x20 PUSH0 KECCAK256 ADD PUSH0 SWAP1 SWAP2 SWAP1 SWAP2 SWAP1 SWAP2 POP SWAP1 DUP2 PUSH2 0x372 SWAP2 SWAP1 PUSH2 0xCEF JUMP JUMPDEST POP POP JUMP JUMPDEST PUSH1 0x60 PUSH0 DUP3 DUP2 SLOAD DUP2 LT PUSH2 0x38B JUMPI PUSH2 0x38A PUSH2 0x792 JUMP JUMPDEST JUMPDEST SWAP1 PUSH0 MSTORE PUSH1 0x20 PUSH0 KECCAK256 ADD DUP1 SLOAD PUSH2 0x39E SWAP1 PUSH2 0x826 JUMP JUMPDEST DUP1 PUSH1 0x1F ADD PUSH1 0x20 DUP1 SWAP2 DIV MUL PUSH1 0x20 ADD PUSH1 0x40 MLOAD SWAP1 DUP2 ADD PUSH1 0x40 MSTORE DUP1 SWAP3 SWAP2 SWAP1 DUP2 DUP2 MSTORE PUSH1 0x20 ADD DUP3 DUP1 SLOAD PUSH2 0x3CA SWAP1 PUSH2 0x826 JUMP JUMPDEST DUP1 ISZERO PUSH2 0x415 JUMPI DUP1 PUSH1 0x1F LT PUSH2 0x3EC JUMPI PUSH2 0x100 DUP1 DUP4 SLOAD DIV MUL DUP4 MSTORE SWAP2 PUSH1 0x20 ADD SWAP2 PUSH2 0x415 JUMP JUMPDEST DUP3 ADD SWAP2 SWAP1 PUSH0 MSTORE PUSH1 0x20 PUSH0 KECCAK256 SWAP1 JUMPDEST DUP2 SLOAD DUP2 MSTORE SWAP1 PUSH1 0x1 ADD SWAP1 PUSH1 0x20 ADD DUP1 DUP4 GT PUSH2 0x3F8 JUMPI DUP3 SWAP1 SUB PUSH1 0x1F AND DUP3 ADD SWAP2 JUMPDEST POP POP POP POP POP SWAP1 POP SWAP2 SWAP1 POP JUMP JUMPDEST PUSH0 PUSH0 DUP1 SLOAD SWAP1 POP SWAP1 POP SWAP1 JUMP JUMPDEST PUSH0 PUSH0 DUP1 SLOAD SWAP1 POP GT PUSH2 0x472 JUMPI PUSH1 0x40 MLOAD PUSH32 0x8C379A000000000000000000000000000000000000000000000000000000000 DUP2 MSTORE PUSH1 0x4 ADD PUSH2 0x469 SWAP1 PUSH2 0xE08 JUMP JUMPDEST PUSH1 0x40 MLOAD DUP1 SWAP2 SUB SWAP1 REVERT JUMPDEST PUSH0 DUP1 SLOAD DUP1 PUSH2 0x483 JUMPI PUSH2 0x482 PUSH2 0xCC2 JUMP JUMPDEST JUMPDEST PUSH1 0x1 SWAP1 SUB DUP2 DUP2 SWAP1 PUSH0 MSTORE PUSH1 0x20 PUSH0 KECCAK256 ADD PUSH0 PUSH2 0x49C SWAP2 SWAP1 PUSH2 0x4A0 JUMP JUMPDEST SWAP1 SSTORE JUMP JUMPDEST POP DUP1 SLOAD PUSH2 0x4AC SWAP1 PUSH2 0x826 JUMP JUMPDEST PUSH0 DUP3 SSTORE DUP1 PUSH1 0x1F LT PUSH2 0x4BD JUMPI POP PUSH2 0x4DA JUMP JUMPDEST PUSH1 0x1F ADD PUSH1 0x20 SWAP1 DIV SWAP1 PUSH0 MSTORE PUSH1 0x20 PUSH0 KECCAK256 SWAP1 DUP2 ADD SWAP1 PUSH2 0x4D9 SWAP2 SWAP1 PUSH2 0x4DD JUMP JUMPDEST JUMPDEST POP JUMP JUMPDEST JUMPDEST DUP1 DUP3 GT ISZERO PUSH2 0x4F4 JUMPI PUSH0 DUP2 PUSH0 SWAP1 SSTORE POP PUSH1 0x1 ADD PUSH2 0x4DE JUMP JUMPDEST POP SWAP1 JUMP JUMPDEST PUSH0 DUP2 MLOAD SWAP1 POP SWAP2 SWAP1 POP JUMP JUMPDEST PUSH0 DUP3 DUP3 MSTORE PUSH1 0x20 DUP3 ADD SWAP1 POP SWAP3 SWAP2 POP POP JUMP JUMPDEST DUP3 DUP2 DUP4 MCOPY PUSH0 DUP4 DUP4 ADD MSTORE POP POP POP JUMP JUMPDEST PUSH0 PUSH1 0x1F NOT PUSH1 0x1F DUP4 ADD AND SWAP1 POP SWAP2 SWAP1 POP JUMP JUMPDEST PUSH0 PUSH2 0x53A DUP3 PUSH2 0x4F8 JUMP JUMPDEST PUSH2 0x544 DUP2 DUP6 PUSH2 0x502 JUMP JUMPDEST SWAP4 POP PUSH2 0x554 DUP2 DUP6 PUSH1 0x20 DUP7 ADD PUSH2 0x512 JUMP JUMPDEST PUSH2 0x55D DUP2 PUSH2 0x520 JUMP JUMPDEST DUP5 ADD SWAP2 POP POP SWAP3 SWAP2 POP POP JUMP JUMPDEST PUSH0 PUSH1 0x20 DUP3 ADD SWAP1 POP DUP2 DUP2 SUB PUSH0 DUP4 ADD MSTORE PUSH2 0x580 DUP2 DUP5 PUSH2 0x530 JUMP JUMPDEST SWAP1 POP SWAP3 SWAP2 POP POP JUMP JUMPDEST PUSH0 PUSH1 0x40 MLOAD SWAP1 POP SWAP1 JUMP JUMPDEST PUSH0 PUSH0 REVERT JUMPDEST PUSH0 PUSH0 REVERT JUMPDEST PUSH0 DUP2 SWAP1 POP SWAP2 SWAP1 POP JUMP JUMPDEST PUSH2 0x5AB DUP2 PUSH2 0x599 JUMP JUMPDEST DUP2 EQ PUSH2 0x5B5 JUMPI PUSH0 PUSH0 REVERT JUMPDEST POP JUMP JUMPDEST PUSH0 DUP2 CALLDATALOAD SWAP1 POP PUSH2 0x5C6 DUP2 PUSH2 0x5A2 JUMP JUMPDEST SWAP3 SWAP2 POP POP JUMP JUMPDEST PUSH0 PUSH1 0x20 DUP3 DUP5 SUB SLT ISZERO PUSH2 0x5E1 JUMPI PUSH2 0x5E0 PUSH2 0x591 JUMP JUMPDEST JUMPDEST PUSH0 PUSH2 0x5EE DUP5 DUP3 DUP6 ADD PUSH2 0x5B8 JUMP JUMPDEST SWAP2 POP POP SWAP3 SWAP2 POP POP JUMP JUMPDEST PUSH0 PUSH0 REVERT JUMPDEST PUSH0 PUSH0 REVERT JUMPDEST PUSH32 0x4E487B7100000000000000000000000000000000000000000000000000000000 PUSH0 MSTORE PUSH1 0x41 PUSH1 0x4 MSTORE PUSH1 0x24 PUSH0 REVERT JUMPDEST PUSH2 0x635 DUP3 PUSH2 0x520 JUMP JUMPDEST DUP2 ADD DUP2 DUP2 LT PUSH8 0xFFFFFFFFFFFFFFFF DUP3 GT OR ISZERO PUSH2 0x654 JUMPI PUSH2 0x653 PUSH2 0x5FF JUMP JUMPDEST JUMPDEST DUP1 PUSH1 0x40 MSTORE POP POP POP JUMP JUMPDEST PUSH0 PUSH2 0x666 PUSH2 0x588 JUMP JUMPDEST SWAP1 POP PUSH2 0x672 DUP3 DUP3 PUSH2 0x62C JUMP JUMPDEST SWAP2 SWAP1 POP JUMP JUMPDEST PUSH0 PUSH8 0xFFFFFFFFFFFFFFFF DUP3 GT ISZERO PUSH2 0x691 JUMPI PUSH2 0x690 PUSH2 0x5FF JUMP JUMPDEST JUMPDEST PUSH2 0x69A DUP3 PUSH2 0x520 JUMP JUMPDEST SWAP1 POP PUSH1 0x20 DUP2 ADD SWAP1 POP SWAP2 SWAP1 POP JUMP JUMPDEST DUP3 DUP2 DUP4 CALLDATACOPY PUSH0 DUP4 DUP4 ADD MSTORE POP POP POP JUMP JUMPDEST PUSH0 PUSH2 0x6C7 PUSH2 0x6C2 DUP5 PUSH2 0x677 JUMP JUMPDEST PUSH2 0x65D JUMP JUMPDEST SWAP1 POP DUP3 DUP2 MSTORE PUSH1 0x20 DUP2 ADD DUP5 DUP5 DUP5 ADD GT ISZERO PUSH2 0x6E3 JUMPI PUSH2 0x6E2 PUSH2 0x5FB JUMP JUMPDEST JUMPDEST PUSH2 0x6EE DUP5 DUP3 DUP6 PUSH2 0x6A7 JUMP JUMPDEST POP SWAP4 SWAP3 POP POP POP JUMP JUMPDEST PUSH0 DUP3 PUSH1 0x1F DUP4 ADD SLT PUSH2 0x70A JUMPI PUSH2 0x709 PUSH2 0x5F7 JUMP JUMPDEST JUMPDEST DUP2 CALLDATALOAD PUSH2 0x71A DUP5 DUP3 PUSH1 0x20 DUP7 ADD PUSH2 0x6B5 JUMP JUMPDEST SWAP2 POP POP SWAP3 SWAP2 POP POP JUMP JUMPDEST PUSH0 PUSH1 0x20 DUP3 DUP5 SUB SLT ISZERO PUSH2 0x738 JUMPI PUSH2 0x737 PUSH2 0x591 JUMP JUMPDEST JUMPDEST PUSH0 DUP3 ADD CALLDATALOAD PUSH8 0xFFFFFFFFFFFFFFFF DUP2 GT ISZERO PUSH2 0x755 JUMPI PUSH2 0x754 PUSH2 0x595 JUMP JUMPDEST JUMPDEST PUSH2 0x761 DUP5 DUP3 DUP6 ADD PUSH2 0x6F6 JUMP JUMPDEST SWAP2 POP POP SWAP3 SWAP2 POP POP JUMP JUMPDEST PUSH2 0x773 DUP2 PUSH2 0x599 JUMP JUMPDEST DUP3 MSTORE POP POP JUMP JUMPDEST PUSH0 PUSH1 0x20 DUP3 ADD SWAP1 POP PUSH2 0x78C PUSH0 DUP4 ADD DUP5 PUSH2 0x76A JUMP JUMPDEST SWAP3 SWAP2 POP POP JUMP JUMPDEST PUSH32 0x4E487B7100000000000000000000000000000000000000000000000000000000 PUSH0 MSTORE PUSH1 0x32 PUSH1 0x4 MSTORE PUSH1 0x24 PUSH0 REVERT JUMPDEST PUSH0 DUP2 SWAP1 POP SWAP3 SWAP2 POP POP JUMP JUMPDEST PUSH0 PUSH2 0x7D3 DUP3 PUSH2 0x4F8 JUMP JUMPDEST PUSH2 0x7DD DUP2 DUP6 PUSH2 0x7BF JUMP JUMPDEST SWAP4 POP PUSH2 0x7ED DUP2 DUP6 PUSH1 0x20 DUP7 ADD PUSH2 0x512 JUMP JUMPDEST DUP1 DUP5 ADD SWAP2 POP POP SWAP3 SWAP2 POP POP JUMP JUMPDEST PUSH32 0x4E487B7100000000000000000000000000000000000000000000000000000000 PUSH0 MSTORE PUSH1 0x22 PUSH1 0x4 MSTORE PUSH1 0x24 PUSH0 REVERT JUMPDEST PUSH0 PUSH1 0x2 DUP3 DIV SWAP1 POP PUSH1 0x1 DUP3 AND DUP1 PUSH2 0x83D JUMPI PUSH1 0x7F DUP3 AND SWAP2 POP JUMPDEST PUSH1 0x20 DUP3 LT DUP2 SUB PUSH2 0x850 JUMPI PUSH2 0x84F PUSH2 0x7F9 JUMP JUMPDEST JUMPDEST POP SWAP2 SWAP1 POP JUMP JUMPDEST PUSH0 DUP2 SWAP1 POP DUP2 PUSH0 MSTORE PUSH1 0x20 PUSH0 KECCAK256 SWAP1 POP SWAP2 SWAP1 POP JUMP JUMPDEST PUSH0 DUP2 SLOAD PUSH2 0x874 DUP2 PUSH2 0x826 JUMP JUMPDEST PUSH2 0x87E DUP2 DUP7 PUSH2 0x7BF JUMP JUMPDEST SWAP5 POP PUSH1 0x1 DUP3 AND PUSH0 DUP2 EQ PUSH2 0x898 JUMPI PUSH1 0x1 DUP2 EQ PUSH2 0x8AD JUMPI PUSH2 0x8DF JUMP JUMPDEST PUSH1 0xFF NOT DUP4 AND DUP7 MSTORE DUP2 ISZERO ISZERO DUP3 MUL DUP7 ADD SWAP4 POP PUSH2 0x8DF JUMP JUMPDEST PUSH2 0x8B6 DUP6 PUSH2 0x856 JUMP JUMPDEST PUSH0 JUMPDEST DUP4 DUP2 LT ISZERO PUSH2 0x8D7 JUMPI DUP2 SLOAD DUP2 DUP10 ADD MSTORE PUSH1 0x1 DUP3 ADD SWAP2 POP PUSH1 0x20 DUP2 ADD SWAP1 POP PUSH2 0x8B8 JUMP JUMPDEST DUP4 DUP9 ADD SWAP6 POP POP POP JUMPDEST POP POP POP SWAP3 SWAP2 POP POP JUMP JUMPDEST PUSH32 0x2000000000000000000000000000000000000000000000000000000000000000 PUSH0 DUP3 ADD MSTORE POP JUMP JUMPDEST PUSH0 PUSH2 0x91C PUSH1 0x1 DUP4 PUSH2 0x7BF JUMP JUMPDEST SWAP2 POP PUSH2 0x927 DUP3 PUSH2 0x8E8 JUMP JUMPDEST PUSH1 0x1 DUP3 ADD SWAP1 POP SWAP2 SWAP1 POP JUMP JUMPDEST PUSH0 PUSH2 0x93D DUP3 DUP6 PUSH2 0x7C9 JUMP JUMPDEST SWAP2 POP PUSH2 0x949 DUP3 DUP5 PUSH2 0x868 JUMP JUMPDEST SWAP2 POP PUSH2 0x954 DUP3 PUSH2 0x910 JUMP JUMPDEST SWAP2 POP DUP2 SWAP1 POP SWAP4 SWAP3 POP POP POP JUMP JUMPDEST PUSH32 0x496E646578206F7574206F6620626F756E647300000000000000000000000000 PUSH0 DUP3 ADD MSTORE POP JUMP JUMPDEST PUSH0 PUSH2 0x994 PUSH1 0x13 DUP4 PUSH2 0x502 JUMP JUMPDEST SWAP2 POP PUSH2 0x99F DUP3 PUSH2 0x960 JUMP JUMPDEST PUSH1 0x20 DUP3 ADD SWAP1 POP SWAP2 SWAP1 POP JUMP JUMPDEST PUSH0 PUSH1 0x20 DUP3 ADD SWAP1 POP DUP2 DUP2 SUB PUSH0 DUP4 ADD MSTORE PUSH2 0x9C1 DUP2 PUSH2 0x988 JUMP JUMPDEST SWAP1 POP SWAP2 SWAP1 POP JUMP JUMPDEST PUSH32 0x4E487B7100000000000000000000000000000000000000000000000000000000 PUSH0 MSTORE PUSH1 0x11 PUSH1 0x4 MSTORE PUSH1 0x24 PUSH0 REVERT JUMPDEST PUSH0 PUSH2 0x9FF DUP3 PUSH2 0x599 JUMP JUMPDEST SWAP2 POP PUSH2 0xA0A DUP4 PUSH2 0x599 JUMP JUMPDEST SWAP3 POP DUP3 DUP3 SUB SWAP1 POP DUP2 DUP2 GT ISZERO PUSH2 0xA22 JUMPI PUSH2 0xA21 PUSH2 0x9C8 JUMP JUMPDEST JUMPDEST SWAP3 SWAP2 POP POP JUMP JUMPDEST PUSH0 DUP2 SLOAD SWAP1 POP PUSH2 0xA36 DUP2 PUSH2 0x826 JUMP JUMPDEST SWAP1 POP SWAP2 SWAP1 POP JUMP JUMPDEST PUSH0 DUP2 SWAP1 POP DUP2 PUSH0 MSTORE PUSH1 0x20 PUSH0 KECCAK256 SWAP1 POP SWAP2 SWAP1 POP JUMP JUMPDEST PUSH0 PUSH1 0x20 PUSH1 0x1F DUP4 ADD DIV SWAP1 POP SWAP2 SWAP1 POP JUMP JUMPDEST PUSH0 DUP3 DUP3 SHL SWAP1 POP SWAP3 SWAP2 POP POP JUMP JUMPDEST PUSH0 PUSH1 0x8 DUP4 MUL PUSH2 0xA99 PUSH32 0xFFFFFFFFFFFFFFFFFFFFFFFFFFFFFFFFFFFFFFFFFFFFFFFFFFFFFFFFFFFFFFFF DUP3 PUSH2 0xA5E JUMP JUMPDEST PUSH2 0xAA3 DUP7 DUP4 PUSH2 0xA5E JUMP JUMPDEST SWAP6 POP DUP1 NOT DUP5 AND SWAP4 POP DUP1 DUP7 AND DUP5 OR SWAP3 POP POP POP SWAP4 SWAP3 POP POP POP JUMP JUMPDEST PUSH0 DUP2 SWAP1 POP SWAP2 SWAP1 POP JUMP JUMPDEST PUSH0 PUSH2 0xADE PUSH2 0xAD9 PUSH2 0xAD4 DUP5 PUSH2 0x599 JUMP JUMPDEST PUSH2 0xABB JUMP JUMPDEST PUSH2 0x599 JUMP JUMPDEST SWAP1 POP SWAP2 SWAP1 POP JUMP JUMPDEST PUSH0 DUP2 SWAP1 POP SWAP2 SWAP1 POP JUMP JUMPDEST PUSH2 0xAF7 DUP4 PUSH2 0xAC4 JUMP JUMPDEST PUSH2 0xB0B PUSH2 0xB03 DUP3 PUSH2 0xAE5 JUMP JUMPDEST DUP5 DUP5 SLOAD PUSH2 0xA6A JUMP JUMPDEST DUP3 SSTORE POP POP POP POP JUMP JUMPDEST PUSH0 PUSH0 SWAP1 POP SWAP1 JUMP JUMPDEST PUSH2 0xB22 PUSH2 0xB13 JUMP JUMPDEST PUSH2 0xB2D DUP2 DUP5 DUP5 PUSH2 0xAEE JUMP JUMPDEST POP POP POP JUMP JUMPDEST JUMPDEST DUP2 DUP2 LT ISZERO PUSH2 0xB50 JUMPI PUSH2 0xB45 PUSH0 DUP3 PUSH2 0xB1A JUMP JUMPDEST PUSH1 0x1 DUP2 ADD SWAP1 POP PUSH2 0xB33 JUMP JUMPDEST POP POP JUMP JUMPDEST PUSH1 0x1F DUP3 GT ISZERO PUSH2 0xB95 JUMPI PUSH2 0xB66 DUP2 PUSH2 0x856 JUMP JUMPDEST PUSH2 0xB6F DUP5 PUSH2 0xA4F JUMP JUMPDEST DUP2 ADD PUSH1 0x20 DUP6 LT ISZERO PUSH2 0xB7E JUMPI DUP2 SWAP1 POP JUMPDEST PUSH2 0xB92 PUSH2 0xB8A DUP6 PUSH2 0xA4F JUMP JUMPDEST DUP4 ADD DUP3 PUSH2 0xB32 JUMP JUMPDEST POP POP JUMPDEST POP POP POP JUMP JUMPDEST PUSH0 DUP3 DUP3 SHR SWAP1 POP SWAP3 SWAP2 POP POP JUMP JUMPDEST PUSH0 PUSH2 0xBB5 PUSH0 NOT DUP5 PUSH1 0x8 MUL PUSH2 0xB9A JUMP JUMPDEST NOT DUP1 DUP4 AND SWAP2 POP POP SWAP3 SWAP2 POP POP JUMP JUMPDEST PUSH0 PUSH2 0xBCD DUP4 DUP4 PUSH2 0xBA6 JUMP JUMPDEST SWAP2 POP DUP3 PUSH1 0x2 MUL DUP3 OR SWAP1 POP SWAP3 SWAP2 POP POP JUMP JUMPDEST DUP2 DUP2 SUB PUSH2 0xBEB JUMPI POP POP PUSH2 0xCC0 JUMP JUMPDEST PUSH2 0xBF4 DUP3 PUSH2 0xA28 JUMP JUMPDEST PUSH8 0xFFFFFFFFFFFFFFFF DUP2 GT ISZERO PUSH2 0xC0D JUMPI PUSH2 0xC0C PUSH2 0x5FF JUMP JUMPDEST JUMPDEST PUSH2 0xC17 DUP3 SLOAD PUSH2 0x826 JUMP JUMPDEST PUSH2 0xC22 DUP3 DUP3 DUP6 PUSH2 0xB54 JUMP JUMPDEST PUSH0 PUSH1 0x1F DUP4 GT PUSH1 0x1 DUP2 EQ PUSH2 0xC4F JUMPI PUSH0 DUP5 ISZERO PUSH2 0xC3D JUMPI DUP3 DUP8 ADD SLOAD SWAP1 POP JUMPDEST PUSH2 0xC47 DUP6 DUP3 PUSH2 0xBC2 JUMP JUMPDEST DUP7 SSTORE POP PUSH2 0xCB9 JUMP JUMPDEST PUSH1 0x1F NOT DUP5 AND PUSH2 0xC5D DUP8 PUSH2 0xA3D JUMP JUMPDEST SWAP7 POP PUSH2 0xC68 DUP7 PUSH2 0x856 JUMP JUMPDEST PUSH0 JUMPDEST DUP3 DUP2 LT ISZERO PUSH2 0xC8F JUMPI DUP5 DUP10 ADD SLOAD DUP3 SSTORE PUSH1 0x1 DUP3 ADD SWAP2 POP PUSH1 0x1 DUP6 ADD SWAP5 POP PUSH1 0x20 DUP2 ADD SWAP1 POP PUSH2 0xC6A JUMP JUMPDEST DUP7 DUP4 LT ISZERO PUSH2 0xCAC JUMPI DUP5 DUP10 ADD SLOAD PUSH2 0xCA8 PUSH1 0x1F DUP10 AND DUP3 PUSH2 0xBA6 JUMP JUMPDEST DUP4 SSTORE POP JUMPDEST PUSH1 0x1 PUSH1 0x2 DUP9 MUL ADD DUP9 SSTORE POP POP POP JUMPDEST POP POP POP POP POP POP JUMPDEST JUMP JUMPDEST PUSH32 0x4E487B7100000000000000000000000000000000000000000000000000000000 PUSH0 MSTORE PUSH1 0x31 PUSH1 0x4 MSTORE PUSH1 0x24 PUSH0 REVERT JUMPDEST PUSH2 0xCF8 DUP3 PUSH2 0x4F8 JUMP JUMPDEST PUSH8 0xFFFFFFFFFFFFFFFF DUP2 GT ISZERO PUSH2 0xD11 JUMPI PUSH2 0xD10 PUSH2 0x5FF JUMP JUMPDEST JUMPDEST PUSH2 0xD1B DUP3 SLOAD PUSH2 0x826 JUMP JUMPDEST PUSH2 0xD26 DUP3 DUP3 DUP6 PUSH2 0xB54 JUMP JUMPDEST PUSH0 PUSH1 0x20 SWAP1 POP PUSH1 0x1F DUP4 GT PUSH1 0x1 DUP2 EQ PUSH2 0xD57 JUMPI PUSH0 DUP5 ISZERO PUSH2 0xD45 JUMPI DUP3 DUP8 ADD MLOAD SWAP1 POP JUMPDEST PUSH2 0xD4F DUP6 DUP3 PUSH2 0xBC2 JUMP JUMPDEST DUP7 SSTORE POP PUSH2 0xDB6 JUMP JUMPDEST PUSH1 0x1F NOT DUP5 AND PUSH2 0xD65 DUP7 PUSH2 0x856 JUMP JUMPDEST PUSH0 JUMPDEST DUP3 DUP2 LT ISZERO PUSH2 0xD8C JUMPI DUP5 DUP10 ADD MLOAD DUP3 SSTORE PUSH1 0x1 DUP3 ADD SWAP2 POP PUSH1 0x20 DUP6 ADD SWAP5 POP PUSH1 0x20 DUP2 ADD SWAP1 POP PUSH2 0xD67 JUMP JUMPDEST DUP7 DUP4 LT ISZERO PUSH2 0xDA9 JUMPI DUP5 DUP10 ADD MLOAD PUSH2 0xDA5 PUSH1 0x1F DUP10 AND DUP3 PUSH2 0xBA6 JUMP JUMPDEST DUP4 SSTORE POP JUMPDEST PUSH1 0x1 PUSH1 0x2 DUP9 MUL ADD DUP9 SSTORE POP POP POP JUMPDEST POP POP POP POP POP POP JUMP JUMPDEST PUSH32 0x417272617920697320656D707479000000000000000000000000000000000000 PUSH0 DUP3 ADD MSTORE POP JUMP JUMPDEST PUSH0 PUSH2 0xDF2 PUSH1 0xE DUP4 PUSH2 0x502 JUMP JUMPDEST SWAP2 POP PUSH2 0xDFD DUP3 PUSH2 0xDBE JUMP JUMPDEST PUSH1 0x20 DUP3 ADD SWAP1 POP SWAP2 SWAP1 POP JUMP JUMPDEST PUSH0 PUSH1 0x20 DUP3 ADD SWAP1 POP DUP2 DUP2 SUB PUSH0 DUP4 ADD MSTORE PUSH2 0xE1F DUP2 PUSH2 0xDE6 JUMP JUMPDEST SWAP1 POP SWAP2 SWAP1 POP JUMP INVALID LOG2 PUSH5 0x6970667358 0x22 SLT KECCAK256 DUP16 0xAF 0xBD 0x22 0xE0 0xCF LOG3 MSIZE TLOAD PUSH17 0xFB6A1EBAF42FD5A7F3D8D96AA688A51C08 NUMBER PUSH32 0xFC6D9764736F6C634300081C0033000000000000000000000000000000000000 "
		},
		"gasEstimates": {
			"creation": {
				"codeDepositCost": "735200",
				"executionCost": "764",
				"totalCost": "735964"
			},
			"external": {
				"addString(string)": "infinite",
				"getAllStrings()": "infinite",
				"getLength()": "2483",
				"getString(uint256)": "infinite",
				"removeAtIndex(uint256)": "infinite",
				"removeLastString()": "infinite",
				"strings(uint256)": "infinite"
			}
		},
		"methodIdentifiers": {
			"addString(string)": "9874f5d7",
			"getAllStrings()": "28460980",
			"getLength()": "be1c766b",
			"getString(uint256)": "b7c763b5",
			"removeAtIndex(uint256)": "76a48c71",
			"removeLastString()": "d772f549",
			"strings(uint256)": "8b3c8a65"
		}
	},
	"abi": [
		{
			"inputs": [
				{
					"internalType": "string",
					"name": "_string",
					"type": "string"
				}
			],
			"name": "addString",
			"outputs": [],
			"stateMutability": "nonpayable",
			"type": "function"
		},
		{
			"inputs": [],
			"name": "getAllStrings",
			"outputs": [
				{
					"internalType": "string",
					"name": "",
					"type": "string"
				}
			],
			"stateMutability": "view",
			"type": "function"
		},
		{
			"inputs": [],
			"name": "getLength",
			"outputs": [
				{
					"internalType": "uint256",
					"name": "",
					"type": "uint256"
				}
			],
			"stateMutability": "view",
			"type": "function"
		},
		{
			"inputs": [
				{
					"internalType": "uint256",
					"name": "_index",
					"type": "uint256"
				}
			],
			"name": "getString",
			"outputs": [
				{
					"internalType": "string",
					"name": "",
					"type": "string"
				}
			],
			"stateMutability": "view",
			"type": "function"
		},
		{
			"inputs": [
				{
					"internalType": "uint256",
					"name": "_index",
					"type": "uint256"
				}
			],
			"name": "removeAtIndex",
			"outputs": [],
			"stateMutability": "nonpayable",
			"type": "function"
		},
		{
			"inputs": [],
			"name": "removeLastString",
			"outputs": [],
			"stateMutability": "nonpayable",
			"type": "function"
		},
		{
			"inputs": [
				{
					"internalType": "uint256",
					"name": "",
					"type": "uint256"
				}
			],
			"name": "strings",
			"outputs": [
				{
					"internalType": "string",
					"name": "",
					"type": "string"
				}
			],
			"stateMutability": "view",
			"type": "function"
		}
	]
}