{
	"ontap/3_ViduMang.sol": {
		"ArrayExample": {
			"abi": [
				{
					"inputs": [
						{
							"internalType": "uint256",
							"name": "_number",
							"type": "uint256"
						}
					],
					"name": "addNumber",
					"outputs": [],
					"stateMutability": "nonpayable",
					"type": "function"
				},
				{
					"inputs": [],
					"name": "getLength",
					"outputs": [
						{
							"internalType": "uint256",
							"name": "",
							"type": "uint256"
						}
					],
					"stateMutability": "view",
					"type": "function"
				},
				{
					"inputs": [
						{
							"internalType": "uint256",
							"name": "_index",
							"type": "uint256"
						}
					],
					"name": "getNumber",
					"outputs": [
						{
							"internalType": "uint256",
							"name": "",
							"type": "uint256"
						}
					],
					"stateMutability": "view",
					"type": "function"
				},
				{
					"inputs": [
						{
							"internalType": "uint256",
							"name": "",
							"type": "uint256"
						}
					],
					"name": "numbers",
					"outputs": [
						{
							"internalType": "uint256",
							"name": "",
							"type": "uint256"
						}
					],
					"stateMutability": "view",
					"type": "function"
				},
				{
					"inputs": [
						{
							"internalType": "uint256",
							"name": "_index",
							"type": "uint256"
						}
					],
					"name": "removeAtIndex",
					"outputs": [],
					"stateMutability": "nonpayable",
					"type": "function"
				},
				{
					"inputs": [],
					"name": "removeLastNum",
					"outputs": [],
					"stateMutability": "nonpayable",
					"type": "function"
				}
			],
			"devdoc": {
				"kind": "dev",
				"methods": {},
				"version": 1
			},
			"evm": {
				"assembly": "    /* \"ontap/3_ViduMang.sol\":61:1319  contract ArrayExample {... */\n  mstore(0x40, 0x80)\n  callvalue\n  dup1\n  iszero\n  tag_1\n  jumpi\n  revert(0x00, 0x00)\ntag_1:\n  pop\n  dataSize(sub_0)\n  dup1\n  dataOffset(sub_0)\n  0x00\n  codecopy\n  0x00\n  return\nstop\n\nsub_0: assembly {\n        /* \"ontap/3_ViduMang.sol\":61:1319  contract ArrayExample {... */\n      mstore(0x40, 0x80)\n      callvalue\n      dup1\n      iszero\n      tag_1\n      jumpi\n      revert(0x00, 0x00)\n    tag_1:\n      pop\n      jumpi(tag_2, lt(calldatasize, 0x04))\n      shr(0xe0, calldataload(0x00))\n      dup1\n      0x0995aaa8\n      eq\n      tag_3\n      jumpi\n      dup1\n      0x76a48c71\n      eq\n      tag_4\n      jumpi\n      dup1\n      0xbe1c766b\n      eq\n      tag_5\n      jumpi\n      dup1\n      0xd39fa233\n      eq\n      tag_6\n      jumpi\n      dup1\n      0xfc563658\n      eq\n      tag_7\n      jumpi\n      dup1\n      0xfce68023\n      eq\n      tag_8\n      jumpi\n    tag_2:\n      revert(0x00, 0x00)\n        /* \"ontap/3_ViduMang.sol\":627:748  function removeLastNum() public  {... */\n    tag_3:\n      tag_9\n      tag_10\n      jump\t// in\n    tag_9:\n      stop\n        /* \"ontap/3_ViduMang.sol\":980:1316  function removeAtIndex(uint _index) public  {... */\n    tag_4:\n      tag_11\n      0x04\n      dup1\n      calldatasize\n      sub\n      dup2\n      add\n      swap1\n      tag_12\n      swap2\n      swap1\n      tag_13\n      jump\t// in\n    tag_12:\n      tag_14\n      jump\t// in\n    tag_11:\n      stop\n        /* \"ontap/3_ViduMang.sol\":811:899  function getLength() public view returns (uint) {... */\n    tag_5:\n      tag_15\n      tag_16\n      jump\t// in\n    tag_15:\n      mload(0x40)\n      tag_17\n      swap2\n      swap1\n      tag_18\n      jump\t// in\n    tag_17:\n      mload(0x40)\n      dup1\n      swap2\n      sub\n      swap1\n      return\n        /* \"ontap/3_ViduMang.sol\":171:192  uint[] public numbers */\n    tag_6:\n      tag_19\n      0x04\n      dup1\n      calldatasize\n      sub\n      dup2\n      add\n      swap1\n      tag_20\n      swap2\n      swap1\n      tag_13\n      jump\t// in\n    tag_20:\n      tag_21\n      jump\t// in\n    tag_19:\n      mload(0x40)\n      tag_22\n      swap2\n      swap1\n      tag_18\n      jump\t// in\n    tag_22:\n      mload(0x40)\n      dup1\n      swap2\n      sub\n      swap1\n      return\n        /* \"ontap/3_ViduMang.sol\":397:563  function getNumber(uint _index) public view returns (uint) {... */\n    tag_7:\n      tag_23\n      0x04\n      dup1\n      calldatasize\n      sub\n      dup2\n      add\n      swap1\n      tag_24\n      swap2\n      swap1\n      tag_13\n      jump\t// in\n    tag_24:\n      tag_25\n      jump\t// in\n    tag_23:\n      mload(0x40)\n      tag_26\n      swap2\n      swap1\n      tag_18\n      jump\t// in\n    tag_26:\n      mload(0x40)\n      dup1\n      swap2\n      sub\n      swap1\n      return\n        /* \"ontap/3_ViduMang.sol\":244:324  function addNumber(uint _number) public {... */\n    tag_8:\n      tag_27\n      0x04\n      dup1\n      calldatasize\n      sub\n      dup2\n      add\n      swap1\n      tag_28\n      swap2\n      swap1\n      tag_13\n      jump\t// in\n    tag_28:\n      tag_29\n      jump\t// in\n    tag_27:\n      stop\n        /* \"ontap/3_ViduMang.sol\":627:748  function removeLastNum() public  {... */\n    tag_10:\n        /* \"ontap/3_ViduMang.sol\":696:697  0 */\n      0x00\n        /* \"ontap/3_ViduMang.sol\":679:686  numbers */\n      0x00\n        /* \"ontap/3_ViduMang.sol\":679:693  numbers.length */\n      dup1\n      sload\n      swap1\n      pop\n        /* \"ontap/3_ViduMang.sol\":679:697  numbers.length > 0 */\n      gt\n        /* \"ontap/3_ViduMang.sol\":671:716  require(numbers.length > 0, \"Array is empty\") */\n      tag_31\n      jumpi\n      mload(0x40)\n      0x08c379a000000000000000000000000000000000000000000000000000000000\n      dup2\n      mstore\n      0x04\n      add\n      tag_32\n      swap1\n      tag_33\n      jump\t// in\n    tag_32:\n      mload(0x40)\n      dup1\n      swap2\n      sub\n      swap1\n      revert\n    tag_31:\n        /* \"ontap/3_ViduMang.sol\":727:734  numbers */\n      0x00\n        /* \"ontap/3_ViduMang.sol\":727:740  numbers.pop() */\n      dup1\n      sload\n      dup1\n      tag_34\n      jumpi\n      tag_35\n      tag_36\n      jump\t// in\n    tag_35:\n    tag_34:\n      0x01\n      swap1\n      sub\n      dup2\n      dup2\n      swap1\n      0x00\n      mstore\n      keccak256(0x00, 0x20)\n      add\n      0x00\n      swap1\n      sstore\n      swap1\n      sstore\n        /* \"ontap/3_ViduMang.sol\":627:748  function removeLastNum() public  {... */\n      jump\t// out\n        /* \"ontap/3_ViduMang.sol\":980:1316  function removeAtIndex(uint _index) public  {... */\n    tag_14:\n        /* \"ontap/3_ViduMang.sol\":1052:1059  numbers */\n      0x00\n        /* \"ontap/3_ViduMang.sol\":1052:1066  numbers.length */\n      dup1\n      sload\n      swap1\n      pop\n        /* \"ontap/3_ViduMang.sol\":1043:1049  _index */\n      dup2\n        /* \"ontap/3_ViduMang.sol\":1043:1066  _index < numbers.length */\n      lt\n        /* \"ontap/3_ViduMang.sol\":1035:1090  require(_index < numbers.length, \"Index out of bounds\") */\n      tag_39\n      jumpi\n      mload(0x40)\n      0x08c379a000000000000000000000000000000000000000000000000000000000\n      dup2\n      mstore\n      0x04\n      add\n      tag_40\n      swap1\n      tag_41\n      jump\t// in\n    tag_40:\n      mload(0x40)\n      dup1\n      swap2\n      sub\n      swap1\n      revert\n    tag_39:\n        /* \"ontap/3_ViduMang.sol\":1204:1211  numbers */\n      0x00\n        /* \"ontap/3_ViduMang.sol\":1229:1230  1 */\n      0x01\n        /* \"ontap/3_ViduMang.sol\":1212:1219  numbers */\n      0x00\n        /* \"ontap/3_ViduMang.sol\":1212:1226  numbers.length */\n      dup1\n      sload\n      swap1\n      pop\n        /* \"ontap/3_ViduMang.sol\":1212:1230  numbers.length - 1 */\n      tag_42\n      swap2\n      swap1\n      tag_43\n      jump\t// in\n    tag_42:\n        /* \"ontap/3_ViduMang.sol\":1204:1231  numbers[numbers.length - 1] */\n      dup2\n      sload\n      dup2\n      lt\n      tag_44\n      jumpi\n      tag_45\n      tag_46\n      jump\t// in\n    tag_45:\n    tag_44:\n      swap1\n      0x00\n      mstore\n      keccak256(0x00, 0x20)\n      add\n      sload\n        /* \"ontap/3_ViduMang.sol\":1186:1193  numbers */\n      0x00\n        /* \"ontap/3_ViduMang.sol\":1194:1200  _index */\n      dup3\n        /* \"ontap/3_ViduMang.sol\":1186:1201  numbers[_index] */\n      dup2\n      sload\n      dup2\n      lt\n      tag_48\n      jumpi\n      tag_49\n      tag_46\n      jump\t// in\n    tag_49:\n    tag_48:\n      swap1\n      0x00\n      mstore\n      keccak256(0x00, 0x20)\n      add\n        /* \"ontap/3_ViduMang.sol\":1186:1231  numbers[_index] = numbers[numbers.length - 1] */\n      dup2\n      swap1\n      sstore\n      pop\n        /* \"ontap/3_ViduMang.sol\":1293:1300  numbers */\n      0x00\n        /* \"ontap/3_ViduMang.sol\":1293:1306  numbers.pop() */\n      dup1\n      sload\n      dup1\n      tag_51\n      jumpi\n      tag_52\n      tag_36\n      jump\t// in\n    tag_52:\n    tag_51:\n      0x01\n      swap1\n      sub\n      dup2\n      dup2\n      swap1\n      0x00\n      mstore\n      keccak256(0x00, 0x20)\n      add\n      0x00\n      swap1\n      sstore\n      swap1\n      sstore\n        /* \"ontap/3_ViduMang.sol\":980:1316  function removeAtIndex(uint _index) public  {... */\n      pop\n      jump\t// out\n        /* \"ontap/3_ViduMang.sol\":811:899  function getLength() public view returns (uint) {... */\n    tag_16:\n        /* \"ontap/3_ViduMang.sol\":853:857  uint */\n      0x00\n        /* \"ontap/3_ViduMang.sol\":877:884  numbers */\n      0x00\n        /* \"ontap/3_ViduMang.sol\":877:891  numbers.length */\n      dup1\n      sload\n      swap1\n      pop\n        /* \"ontap/3_ViduMang.sol\":870:891  return numbers.length */\n      swap1\n      pop\n        /* \"ontap/3_ViduMang.sol\":811:899  function getLength() public view returns (uint) {... */\n      swap1\n      jump\t// out\n        /* \"ontap/3_ViduMang.sol\":171:192  uint[] public numbers */\n    tag_21:\n      0x00\n      dup2\n      dup2\n      sload\n      dup2\n      lt\n      tag_55\n      jumpi\n      0x00\n      dup1\n      revert\n    tag_55:\n      swap1\n      0x00\n      mstore\n      keccak256(0x00, 0x20)\n      add\n      0x00\n      swap2\n      pop\n      swap1\n      pop\n      sload\n      dup2\n      jump\t// out\n        /* \"ontap/3_ViduMang.sol\":397:563  function getNumber(uint _index) public view returns (uint) {... */\n    tag_25:\n        /* \"ontap/3_ViduMang.sol\":450:454  uint */\n      0x00\n        /* \"ontap/3_ViduMang.sol\":484:491  numbers */\n      0x00\n        /* \"ontap/3_ViduMang.sol\":484:498  numbers.length */\n      dup1\n      sload\n      swap1\n      pop\n        /* \"ontap/3_ViduMang.sol\":475:481  _index */\n      dup3\n        /* \"ontap/3_ViduMang.sol\":475:498  _index < numbers.length */\n      lt\n        /* \"ontap/3_ViduMang.sol\":467:522  require(_index < numbers.length, \"Index out of bounds\") */\n      tag_58\n      jumpi\n      mload(0x40)\n      0x08c379a000000000000000000000000000000000000000000000000000000000\n      dup2\n      mstore\n      0x04\n      add\n      tag_59\n      swap1\n      tag_41\n      jump\t// in\n    tag_59:\n      mload(0x40)\n      dup1\n      swap2\n      sub\n      swap1\n      revert\n    tag_58:\n        /* \"ontap/3_ViduMang.sol\":540:547  numbers */\n      0x00\n        /* \"ontap/3_ViduMang.sol\":548:554  _index */\n      dup3\n        /* \"ontap/3_ViduMang.sol\":540:555  numbers[_index] */\n      dup2\n      sload\n      dup2\n      lt\n      tag_60\n      jumpi\n      tag_61\n      tag_46\n      jump\t// in\n    tag_61:\n    tag_60:\n      swap1\n      0x00\n      mstore\n      keccak256(0x00, 0x20)\n      add\n      sload\n        /* \"ontap/3_ViduMang.sol\":533:555  return numbers[_index] */\n      swap1\n      pop\n        /* \"ontap/3_ViduMang.sol\":397:563  function getNumber(uint _index) public view returns (uint) {... */\n      swap2\n      swap1\n      pop\n      jump\t// out\n        /* \"ontap/3_ViduMang.sol\":244:324  function addNumber(uint _number) public {... */\n    tag_29:\n        /* \"ontap/3_ViduMang.sol\":295:302  numbers */\n      0x00\n        /* \"ontap/3_ViduMang.sol\":308:315  _number */\n      dup2\n        /* \"ontap/3_ViduMang.sol\":295:316  numbers.push(_number) */\n      swap1\n      dup1\n      0x01\n      dup2\n      sload\n      add\n      dup1\n      dup3\n      sstore\n      dup1\n      swap2\n      pop\n      pop\n      0x01\n      swap1\n      sub\n      swap1\n      0x00\n      mstore\n      keccak256(0x00, 0x20)\n      add\n      0x00\n      swap1\n      swap2\n      swap1\n      swap2\n      swap1\n      swap2\n      pop\n      sstore\n        /* \"ontap/3_ViduMang.sol\":244:324  function addNumber(uint _number) public {... */\n      pop\n      jump\t// out\n        /* \"#utility.yul\":88:205   */\n    tag_66:\n        /* \"#utility.yul\":197:198   */\n      0x00\n        /* \"#utility.yul\":194:195   */\n      0x00\n        /* \"#utility.yul\":187:199   */\n      revert\n        /* \"#utility.yul\":334:411   */\n    tag_68:\n        /* \"#utility.yul\":371:378   */\n      0x00\n        /* \"#utility.yul\":400:405   */\n      dup2\n        /* \"#utility.yul\":389:405   */\n      swap1\n      pop\n        /* \"#utility.yul\":334:411   */\n      swap2\n      swap1\n      pop\n      jump\t// out\n        /* \"#utility.yul\":417:539   */\n    tag_69:\n        /* \"#utility.yul\":490:514   */\n      tag_84\n        /* \"#utility.yul\":508:513   */\n      dup2\n        /* \"#utility.yul\":490:514   */\n      tag_68\n      jump\t// in\n    tag_84:\n        /* \"#utility.yul\":483:488   */\n      dup2\n        /* \"#utility.yul\":480:515   */\n      eq\n        /* \"#utility.yul\":470:533   */\n      tag_85\n      jumpi\n        /* \"#utility.yul\":529:530   */\n      0x00\n        /* \"#utility.yul\":526:527   */\n      0x00\n        /* \"#utility.yul\":519:531   */\n      revert\n        /* \"#utility.yul\":470:533   */\n    tag_85:\n        /* \"#utility.yul\":417:539   */\n      pop\n      jump\t// out\n        /* \"#utility.yul\":545:684   */\n    tag_70:\n        /* \"#utility.yul\":591:596   */\n      0x00\n        /* \"#utility.yul\":629:635   */\n      dup2\n        /* \"#utility.yul\":616:636   */\n      calldataload\n        /* \"#utility.yul\":607:636   */\n      swap1\n      pop\n        /* \"#utility.yul\":645:678   */\n      tag_87\n        /* \"#utility.yul\":672:677   */\n      dup2\n        /* \"#utility.yul\":645:678   */\n      tag_69\n      jump\t// in\n    tag_87:\n        /* \"#utility.yul\":545:684   */\n      swap3\n      swap2\n      pop\n      pop\n      jump\t// out\n        /* \"#utility.yul\":690:1019   */\n    tag_13:\n        /* \"#utility.yul\":749:755   */\n      0x00\n        /* \"#utility.yul\":798:800   */\n      0x20\n        /* \"#utility.yul\":786:795   */\n      dup3\n        /* \"#utility.yul\":777:784   */\n      dup5\n        /* \"#utility.yul\":773:796   */\n      sub\n        /* \"#utility.yul\":769:801   */\n      slt\n        /* \"#utility.yul\":766:885   */\n      iszero\n      tag_89\n      jumpi\n        /* \"#utility.yul\":804:883   */\n      tag_90\n      tag_66\n      jump\t// in\n    tag_90:\n        /* \"#utility.yul\":766:885   */\n    tag_89:\n        /* \"#utility.yul\":924:925   */\n      0x00\n        /* \"#utility.yul\":949:1002   */\n      tag_91\n        /* \"#utility.yul\":994:1001   */\n      dup5\n        /* \"#utility.yul\":985:991   */\n      dup3\n        /* \"#utility.yul\":974:983   */\n      dup6\n        /* \"#utility.yul\":970:992   */\n      add\n        /* \"#utility.yul\":949:1002   */\n      tag_70\n      jump\t// in\n    tag_91:\n        /* \"#utility.yul\":939:1002   */\n      swap2\n      pop\n        /* \"#utility.yul\":895:1012   */\n      pop\n        /* \"#utility.yul\":690:1019   */\n      swap3\n      swap2\n      pop\n      pop\n      jump\t// out\n        /* \"#utility.yul\":1025:1143   */\n    tag_71:\n        /* \"#utility.yul\":1112:1136   */\n      tag_93\n        /* \"#utility.yul\":1130:1135   */\n      dup2\n        /* \"#utility.yul\":1112:1136   */\n      tag_68\n      jump\t// in\n    tag_93:\n        /* \"#utility.yul\":1107:1110   */\n      dup3\n        /* \"#utility.yul\":1100:1137   */\n      mstore\n        /* \"#utility.yul\":1025:1143   */\n      pop\n      pop\n      jump\t// out\n        /* \"#utility.yul\":1149:1371   */\n    tag_18:\n        /* \"#utility.yul\":1242:1246   */\n      0x00\n        /* \"#utility.yul\":1280:1282   */\n      0x20\n        /* \"#utility.yul\":1269:1278   */\n      dup3\n        /* \"#utility.yul\":1265:1283   */\n      add\n        /* \"#utility.yul\":1257:1283   */\n      swap1\n      pop\n        /* \"#utility.yul\":1293:1364   */\n      tag_95\n        /* \"#utility.yul\":1361:1362   */\n      0x00\n        /* \"#utility.yul\":1350:1359   */\n      dup4\n        /* \"#utility.yul\":1346:1363   */\n      add\n        /* \"#utility.yul\":1337:1343   */\n      dup5\n        /* \"#utility.yul\":1293:1364   */\n      tag_71\n      jump\t// in\n    tag_95:\n        /* \"#utility.yul\":1149:1371   */\n      swap3\n      swap2\n      pop\n      pop\n      jump\t// out\n        /* \"#utility.yul\":1377:1546   */\n    tag_72:\n        /* \"#utility.yul\":1461:1472   */\n      0x00\n        /* \"#utility.yul\":1495:1501   */\n      dup3\n        /* \"#utility.yul\":1490:1493   */\n      dup3\n        /* \"#utility.yul\":1483:1502   */\n      mstore\n        /* \"#utility.yul\":1535:1539   */\n      0x20\n        /* \"#utility.yul\":1530:1533   */\n      dup3\n        /* \"#utility.yul\":1526:1540   */\n      add\n        /* \"#utility.yul\":1511:1540   */\n      swap1\n      pop\n        /* \"#utility.yul\":1377:1546   */\n      swap3\n      swap2\n      pop\n      pop\n      jump\t// out\n        /* \"#utility.yul\":1552:1716   */\n    tag_73:\n        /* \"#utility.yul\":1692:1708   */\n      0x417272617920697320656d707479000000000000000000000000000000000000\n        /* \"#utility.yul\":1688:1689   */\n      0x00\n        /* \"#utility.yul\":1680:1686   */\n      dup3\n        /* \"#utility.yul\":1676:1690   */\n      add\n        /* \"#utility.yul\":1669:1709   */\n      mstore\n        /* \"#utility.yul\":1552:1716   */\n      pop\n      jump\t// out\n        /* \"#utility.yul\":1722:2088   */\n    tag_74:\n        /* \"#utility.yul\":1864:1867   */\n      0x00\n        /* \"#utility.yul\":1885:1952   */\n      tag_99\n        /* \"#utility.yul\":1949:1951   */\n      0x0e\n        /* \"#utility.yul\":1944:1947   */\n      dup4\n        /* \"#utility.yul\":1885:1952   */\n      tag_72\n      jump\t// in\n    tag_99:\n        /* \"#utility.yul\":1878:1952   */\n      swap2\n      pop\n        /* \"#utility.yul\":1961:2054   */\n      tag_100\n        /* \"#utility.yul\":2050:2053   */\n      dup3\n        /* \"#utility.yul\":1961:2054   */\n      tag_73\n      jump\t// in\n    tag_100:\n        /* \"#utility.yul\":2079:2081   */\n      0x20\n        /* \"#utility.yul\":2074:2077   */\n      dup3\n        /* \"#utility.yul\":2070:2082   */\n      add\n        /* \"#utility.yul\":2063:2082   */\n      swap1\n      pop\n        /* \"#utility.yul\":1722:2088   */\n      swap2\n      swap1\n      pop\n      jump\t// out\n        /* \"#utility.yul\":2094:2513   */\n    tag_33:\n        /* \"#utility.yul\":2260:2264   */\n      0x00\n        /* \"#utility.yul\":2298:2300   */\n      0x20\n        /* \"#utility.yul\":2287:2296   */\n      dup3\n        /* \"#utility.yul\":2283:2301   */\n      add\n        /* \"#utility.yul\":2275:2301   */\n      swap1\n      pop\n        /* \"#utility.yul\":2347:2356   */\n      dup2\n        /* \"#utility.yul\":2341:2345   */\n      dup2\n        /* \"#utility.yul\":2337:2357   */\n      sub\n        /* \"#utility.yul\":2333:2334   */\n      0x00\n        /* \"#utility.yul\":2322:2331   */\n      dup4\n        /* \"#utility.yul\":2318:2335   */\n      add\n        /* \"#utility.yul\":2311:2358   */\n      mstore\n        /* \"#utility.yul\":2375:2506   */\n      tag_102\n        /* \"#utility.yul\":2501:2505   */\n      dup2\n        /* \"#utility.yul\":2375:2506   */\n      tag_74\n      jump\t// in\n    tag_102:\n        /* \"#utility.yul\":2367:2506   */\n      swap1\n      pop\n        /* \"#utility.yul\":2094:2513   */\n      swap2\n      swap1\n      pop\n      jump\t// out\n        /* \"#utility.yul\":2519:2699   */\n    tag_36:\n        /* \"#utility.yul\":2567:2644   */\n      0x4e487b7100000000000000000000000000000000000000000000000000000000\n        /* \"#utility.yul\":2564:2565   */\n      0x00\n        /* \"#utility.yul\":2557:2645   */\n      mstore\n        /* \"#utility.yul\":2664:2668   */\n      0x31\n        /* \"#utility.yul\":2661:2662   */\n      0x04\n        /* \"#utility.yul\":2654:2669   */\n      mstore\n        /* \"#utility.yul\":2688:2692   */\n      0x24\n        /* \"#utility.yul\":2685:2686   */\n      0x00\n        /* \"#utility.yul\":2678:2693   */\n      revert\n        /* \"#utility.yul\":2705:2874   */\n    tag_75:\n        /* \"#utility.yul\":2845:2866   */\n      0x496e646578206f7574206f6620626f756e647300000000000000000000000000\n        /* \"#utility.yul\":2841:2842   */\n      0x00\n        /* \"#utility.yul\":2833:2839   */\n      dup3\n        /* \"#utility.yul\":2829:2843   */\n      add\n        /* \"#utility.yul\":2822:2867   */\n      mstore\n        /* \"#utility.yul\":2705:2874   */\n      pop\n      jump\t// out\n        /* \"#utility.yul\":2880:3246   */\n    tag_76:\n        /* \"#utility.yul\":3022:3025   */\n      0x00\n        /* \"#utility.yul\":3043:3110   */\n      tag_106\n        /* \"#utility.yul\":3107:3109   */\n      0x13\n        /* \"#utility.yul\":3102:3105   */\n      dup4\n        /* \"#utility.yul\":3043:3110   */\n      tag_72\n      jump\t// in\n    tag_106:\n        /* \"#utility.yul\":3036:3110   */\n      swap2\n      pop\n        /* \"#utility.yul\":3119:3212   */\n      tag_107\n        /* \"#utility.yul\":3208:3211   */\n      dup3\n        /* \"#utility.yul\":3119:3212   */\n      tag_75\n      jump\t// in\n    tag_107:\n        /* \"#utility.yul\":3237:3239   */\n      0x20\n        /* \"#utility.yul\":3232:3235   */\n      dup3\n        /* \"#utility.yul\":3228:3240   */\n      add\n        /* \"#utility.yul\":3221:3240   */\n      swap1\n      pop\n        /* \"#utility.yul\":2880:3246   */\n      swap2\n      swap1\n      pop\n      jump\t// out\n        /* \"#utility.yul\":3252:3671   */\n    tag_41:\n        /* \"#utility.yul\":3418:3422   */\n      0x00\n        /* \"#utility.yul\":3456:3458   */\n      0x20\n        /* \"#utility.yul\":3445:3454   */\n      dup3\n        /* \"#utility.yul\":3441:3459   */\n      add\n        /* \"#utility.yul\":3433:3459   */\n      swap1\n      pop\n        /* \"#utility.yul\":3505:3514   */\n      dup2\n        /* \"#utility.yul\":3499:3503   */\n      dup2\n        /* \"#utility.yul\":3495:3515   */\n      sub\n        /* \"#utility.yul\":3491:3492   */\n      0x00\n        /* \"#utility.yul\":3480:3489   */\n      dup4\n        /* \"#utility.yul\":3476:3493   */\n      add\n        /* \"#utility.yul\":3469:3516   */\n      mstore\n        /* \"#utility.yul\":3533:3664   */\n      tag_109\n        /* \"#utility.yul\":3659:3663   */\n      dup2\n        /* \"#utility.yul\":3533:3664   */\n      tag_76\n      jump\t// in\n    tag_109:\n        /* \"#utility.yul\":3525:3664   */\n      swap1\n      pop\n        /* \"#utility.yul\":3252:3671   */\n      swap2\n      swap1\n      pop\n      jump\t// out\n        /* \"#utility.yul\":3677:3857   */\n    tag_77:\n        /* \"#utility.yul\":3725:3802   */\n      0x4e487b7100000000000000000000000000000000000000000000000000000000\n        /* \"#utility.yul\":3722:3723   */\n      0x00\n        /* \"#utility.yul\":3715:3803   */\n      mstore\n        /* \"#utility.yul\":3822:3826   */\n      0x11\n        /* \"#utility.yul\":3819:3820   */\n      0x04\n        /* \"#utility.yul\":3812:3827   */\n      mstore\n        /* \"#utility.yul\":3846:3850   */\n      0x24\n        /* \"#utility.yul\":3843:3844   */\n      0x00\n        /* \"#utility.yul\":3836:3851   */\n      revert\n        /* \"#utility.yul\":3863:4057   */\n    tag_43:\n        /* \"#utility.yul\":3903:3907   */\n      0x00\n        /* \"#utility.yul\":3923:3943   */\n      tag_112\n        /* \"#utility.yul\":3941:3942   */\n      dup3\n        /* \"#utility.yul\":3923:3943   */\n      tag_68\n      jump\t// in\n    tag_112:\n        /* \"#utility.yul\":3918:3943   */\n      swap2\n      pop\n        /* \"#utility.yul\":3957:3977   */\n      tag_113\n        /* \"#utility.yul\":3975:3976   */\n      dup4\n        /* \"#utility.yul\":3957:3977   */\n      tag_68\n      jump\t// in\n    tag_113:\n        /* \"#utility.yul\":3952:3977   */\n      swap3\n      pop\n        /* \"#utility.yul\":4001:4002   */\n      dup3\n        /* \"#utility.yul\":3998:3999   */\n      dup3\n        /* \"#utility.yul\":3994:4003   */\n      sub\n        /* \"#utility.yul\":3986:4003   */\n      swap1\n      pop\n        /* \"#utility.yul\":4025:4026   */\n      dup2\n        /* \"#utility.yul\":4019:4023   */\n      dup2\n        /* \"#utility.yul\":4016:4027   */\n      gt\n        /* \"#utility.yul\":4013:4050   */\n      iszero\n      tag_114\n      jumpi\n        /* \"#utility.yul\":4030:4048   */\n      tag_115\n      tag_77\n      jump\t// in\n    tag_115:\n        /* \"#utility.yul\":4013:4050   */\n    tag_114:\n        /* \"#utility.yul\":3863:4057   */\n      swap3\n      swap2\n      pop\n      pop\n      jump\t// out\n        /* \"#utility.yul\":4063:4243   */\n    tag_46:\n        /* \"#utility.yul\":4111:4188   */\n      0x4e487b7100000000000000000000000000000000000000000000000000000000\n        /* \"#utility.yul\":4108:4109   */\n      0x00\n        /* \"#utility.yul\":4101:4189   */\n      mstore\n        /* \"#utility.yul\":4208:4212   */\n      0x32\n        /* \"#utility.yul\":4205:4206   */\n      0x04\n        /* \"#utility.yul\":4198:4213   */\n      mstore\n        /* \"#utility.yul\":4232:4236   */\n      0x24\n        /* \"#utility.yul\":4229:4230   */\n      0x00\n        /* \"#utility.yul\":4222:4237   */\n      revert\n\n    auxdata: 0xa2646970667358221220370d9310dcf7e521d80b629b96541dc9e02fdaec786c251a9fc33125cd4d329e64736f6c634300081c0033\n}\n",
				"bytecode": {
					"linkReferences": {},
					"object": "6080604052348015600e575f5ffd5b5061055e8061001c5f395ff3fe608060405234801561000f575f5ffd5b5060043610610060575f3560e01c80630995aaa81461006457806376a48c711461006e578063be1c766b1461008a578063d39fa233146100a8578063fc563658146100d8578063fce6802314610108575b5f5ffd5b61006c610124565b005b6100886004803603810190610083919061033b565b610190565b005b610092610248565b60405161009f9190610375565b60405180910390f35b6100c260048036038101906100bd919061033b565b610253565b6040516100cf9190610375565b60405180910390f35b6100f260048036038101906100ed919061033b565b610272565b6040516100ff9190610375565b60405180910390f35b610122600480360381019061011d919061033b565b6102dc565b005b5f5f805490501161016a576040517f08c379a0000000000000000000000000000000000000000000000000000000008152600401610161906103e8565b60405180910390fd5b5f80548061017b5761017a610406565b5b600190038181905f5260205f20015f90559055565b5f8054905081106101d6576040517f08c379a00000000000000000000000000000000000000000000000000000000081526004016101cd9061047d565b60405180910390fd5b5f60015f805490506101e891906104c8565b815481106101f9576101f86104fb565b5b905f5260205f2001545f8281548110610215576102146104fb565b5b905f5260205f2001819055505f80548061023257610231610406565b5b600190038181905f5260205f20015f9055905550565b5f5f80549050905090565b5f8181548110610261575f80fd5b905f5260205f20015f915090505481565b5f5f8054905082106102b9576040517f08c379a00000000000000000000000000000000000000000000000000000000081526004016102b09061047d565b60405180910390fd5b5f82815481106102cc576102cb6104fb565b5b905f5260205f2001549050919050565b5f81908060018154018082558091505060019003905f5260205f20015f909190919091505550565b5f5ffd5b5f819050919050565b61031a81610308565b8114610324575f5ffd5b50565b5f8135905061033581610311565b92915050565b5f602082840312156103505761034f610304565b5b5f61035d84828501610327565b91505092915050565b61036f81610308565b82525050565b5f6020820190506103885f830184610366565b92915050565b5f82825260208201905092915050565b7f417272617920697320656d7074790000000000000000000000000000000000005f82015250565b5f6103d2600e8361038e565b91506103dd8261039e565b602082019050919050565b5f6020820190508181035f8301526103ff816103c6565b9050919050565b7f4e487b71000000000000000000000000000000000000000000000000000000005f52603160045260245ffd5b7f496e646578206f7574206f6620626f756e6473000000000000000000000000005f82015250565b5f61046760138361038e565b915061047282610433565b602082019050919050565b5f6020820190508181035f8301526104948161045b565b9050919050565b7f4e487b71000000000000000000000000000000000000000000000000000000005f52601160045260245ffd5b5f6104d282610308565b91506104dd83610308565b92508282039050818111156104f5576104f461049b565b5b92915050565b7f4e487b71000000000000000000000000000000000000000000000000000000005f52603260045260245ffdfea2646970667358221220370d9310dcf7e521d80b629b96541dc9e02fdaec786c251a9fc33125cd4d329e64736f6c634300081c0033",
					"opcodes": "PUSH1 0x80 PUSH1 0x40 MSTORE CALLVALUE DUP1 ISZERO PUSH1 0xE JUMPI PUSH0 PUSH0 REVERT JUMPDEST POP PUSH2 0x55E DUP1 PUSH2 0x1C PUSH0 CODECOPY PUSH0 RETURN INVALID PUSH1 0x80 PUSH1 0x40 MSTORE CALLVALUE DUP1 ISZERO PUSH2 0xF JUMPI PUSH0 PUSH0 REVERT JUMPDEST POP PUSH1 0x4 CALLDATASIZE LT PUSH2 0x60 JUMPI PUSH0 CALLDATALOAD PUSH1 0xE0 SHR DUP1 PUSH4 0x995AAA8 EQ PUSH2 0x64 JUMPI DUP1 PUSH4 0x76A48C71 EQ PUSH2 0x6E JUMPI DUP1 PUSH4 0xBE1C766B EQ PUSH2 0x8A JUMPI DUP1 PUSH4 0xD39FA233 EQ PUSH2 0xA8 JUMPI DUP1 PUSH4 0xFC563658 EQ PUSH2 0xD8 JUMPI DUP1 PUSH4 0xFCE68023 EQ PUSH2 0x108 JUMPI JUMPDEST PUSH0 PUSH0 REVERT JUMPDEST PUSH2 0x6C PUSH2 0x124 JUMP JUMPDEST STOP JUMPDEST PUSH2 0x88 PUSH1 0x4 DUP1 CALLDATASIZE SUB DUP2 ADD SWAP1 PUSH2 0x83 SWAP2 SWAP1 PUSH2 0x33B JUMP JUMPDEST PUSH2 0x190 JUMP JUMPDEST STOP JUMPDEST PUSH2 0x92 PUSH2 0x248 JUMP JUMPDEST PUSH1 0x40 MLOAD PUSH2 0x9F SWAP2 SWAP1 PUSH2 0x375 JUMP JUMPDEST PUSH1 0x40 MLOAD DUP1 SWAP2 SUB SWAP1 RETURN JUMPDEST PUSH2 0xC2 PUSH1 0x4 DUP1 CALLDATASIZE SUB DUP2 ADD SWAP1 PUSH2 0xBD SWAP2 SWAP1 PUSH2 0x33B JUMP JUMPDEST PUSH2 0x253 JUMP JUMPDEST PUSH1 0x40 MLOAD PUSH2 0xCF SWAP2 SWAP1 PUSH2 0x375 JUMP JUMPDEST PUSH1 0x40 MLOAD DUP1 SWAP2 SUB SWAP1 RETURN JUMPDEST PUSH2 0xF2 PUSH1 0x4 DUP1 CALLDATASIZE SUB DUP2 ADD SWAP1 PUSH2 0xED SWAP2 SWAP1 PUSH2 0x33B JUMP JUMPDEST PUSH2 0x272 JUMP JUMPDEST PUSH1 0x40 MLOAD PUSH2 0xFF SWAP2 SWAP1 PUSH2 0x375 JUMP JUMPDEST PUSH1 0x40 MLOAD DUP1 SWAP2 SUB SWAP1 RETURN JUMPDEST PUSH2 0x122 PUSH1 0x4 DUP1 CALLDATASIZE SUB DUP2 ADD SWAP1 PUSH2 0x11D SWAP2 SWAP1 PUSH2 0x33B JUMP JUMPDEST PUSH2 0x2DC JUMP JUMPDEST STOP JUMPDEST PUSH0 PUSH0 DUP1 SLOAD SWAP1 POP GT PUSH2 0x16A JUMPI PUSH1 0x40 MLOAD PUSH32 0x8C379A000000000000000000000000000000000000000000000000000000000 DUP2 MSTORE PUSH1 0x4 ADD PUSH2 0x161 SWAP1 PUSH2 0x3E8 JUMP JUMPDEST PUSH1 0x40 MLOAD DUP1 SWAP2 SUB SWAP1 REVERT JUMPDEST PUSH0 DUP1 SLOAD DUP1 PUSH2 0x17B JUMPI PUSH2 0x17A PUSH2 0x406 JUMP JUMPDEST JUMPDEST PUSH1 0x1 SWAP1 SUB DUP2 DUP2 SWAP1 PUSH0 MSTORE PUSH1 0x20 PUSH0 KECCAK256 ADD PUSH0 SWAP1 SSTORE SWAP1 SSTORE JUMP JUMPDEST PUSH0 DUP1 SLOAD SWAP1 POP DUP2 LT PUSH2 0x1D6 JUMPI PUSH1 0x40 MLOAD PUSH32 0x8C379A000000000000000000000000000000000000000000000000000000000 DUP2 MSTORE PUSH1 0x4 ADD PUSH2 0x1CD SWAP1 PUSH2 0x47D JUMP JUMPDEST PUSH1 0x40 MLOAD DUP1 SWAP2 SUB SWAP1 REVERT JUMPDEST PUSH0 PUSH1 0x1 PUSH0 DUP1 SLOAD SWAP1 POP PUSH2 0x1E8 SWAP2 SWAP1 PUSH2 0x4C8 JUMP JUMPDEST DUP2 SLOAD DUP2 LT PUSH2 0x1F9 JUMPI PUSH2 0x1F8 PUSH2 0x4FB JUMP JUMPDEST JUMPDEST SWAP1 PUSH0 MSTORE PUSH1 0x20 PUSH0 KECCAK256 ADD SLOAD PUSH0 DUP3 DUP2 SLOAD DUP2 LT PUSH2 0x215 JUMPI PUSH2 0x214 PUSH2 0x4FB JUMP JUMPDEST JUMPDEST SWAP1 PUSH0 MSTORE PUSH1 0x20 PUSH0 KECCAK256 ADD DUP2 SWAP1 SSTORE POP PUSH0 DUP1 SLOAD DUP1 PUSH2 0x232 JUMPI PUSH2 0x231 PUSH2 0x406 JUMP JUMPDEST JUMPDEST PUSH1 0x1 SWAP1 SUB DUP2 DUP2 SWAP1 PUSH0 MSTORE PUSH1 0x20 PUSH0 KECCAK256 ADD PUSH0 SWAP1 SSTORE SWAP1 SSTORE POP JUMP JUMPDEST PUSH0 PUSH0 DUP1 SLOAD SWAP1 POP SWAP1 POP SWAP1 JUMP JUMPDEST PUSH0 DUP2 DUP2 SLOAD DUP2 LT PUSH2 0x261 JUMPI PUSH0 DUP1 REVERT JUMPDEST SWAP1 PUSH0 MSTORE PUSH1 0x20 PUSH0 KECCAK256 ADD PUSH0 SWAP2 POP SWAP1 POP SLOAD DUP2 JUMP JUMPDEST PUSH0 PUSH0 DUP1 SLOAD SWAP1 POP DUP3 LT PUSH2 0x2B9 JUMPI PUSH1 0x40 MLOAD PUSH32 0x8C379A000000000000000000000000000000000000000000000000000000000 DUP2 MSTORE PUSH1 0x4 ADD PUSH2 0x2B0 SWAP1 PUSH2 0x47D JUMP JUMPDEST PUSH1 0x40 MLOAD DUP1 SWAP2 SUB SWAP1 REVERT JUMPDEST PUSH0 DUP3 DUP2 SLOAD DUP2 LT PUSH2 0x2CC JUMPI PUSH2 0x2CB PUSH2 0x4FB JUMP JUMPDEST JUMPDEST SWAP1 PUSH0 MSTORE PUSH1 0x20 PUSH0 KECCAK256 ADD SLOAD SWAP1 POP SWAP2 SWAP1 POP JUMP JUMPDEST PUSH0 DUP2 SWAP1 DUP1 PUSH1 0x1 DUP2 SLOAD ADD DUP1 DUP3 SSTORE DUP1 SWAP2 POP POP PUSH1 0x1 SWAP1 SUB SWAP1 PUSH0 MSTORE PUSH1 0x20 PUSH0 KECCAK256 ADD PUSH0 SWAP1 SWAP2 SWAP1 SWAP2 SWAP1 SWAP2 POP SSTORE POP JUMP JUMPDEST PUSH0 PUSH0 REVERT JUMPDEST PUSH0 DUP2 SWAP1 POP SWAP2 SWAP1 POP JUMP JUMPDEST PUSH2 0x31A DUP2 PUSH2 0x308 JUMP JUMPDEST DUP2 EQ PUSH2 0x324 JUMPI PUSH0 PUSH0 REVERT JUMPDEST POP JUMP JUMPDEST PUSH0 DUP2 CALLDATALOAD SWAP1 POP PUSH2 0x335 DUP2 PUSH2 0x311 JUMP JUMPDEST SWAP3 SWAP2 POP POP JUMP JUMPDEST PUSH0 PUSH1 0x20 DUP3 DUP5 SUB SLT ISZERO PUSH2 0x350 JUMPI PUSH2 0x34F PUSH2 0x304 JUMP JUMPDEST JUMPDEST PUSH0 PUSH2 0x35D DUP5 DUP3 DUP6 ADD PUSH2 0x327 JUMP JUMPDEST SWAP2 POP POP SWAP3 SWAP2 POP POP JUMP JUMPDEST PUSH2 0x36F DUP2 PUSH2 0x308 JUMP JUMPDEST DUP3 MSTORE POP POP JUMP JUMPDEST PUSH0 PUSH1 0x20 DUP3 ADD SWAP1 POP PUSH2 0x388 PUSH0 DUP4 ADD DUP5 PUSH2 0x366 JUMP JUMPDEST SWAP3 SWAP2 POP POP JUMP JUMPDEST PUSH0 DUP3 DUP3 MSTORE PUSH1 0x20 DUP3 ADD SWAP1 POP SWAP3 SWAP2 POP POP JUMP JUMPDEST PUSH32 0x417272617920697320656D707479000000000000000000000000000000000000 PUSH0 DUP3 ADD MSTORE POP JUMP JUMPDEST PUSH0 PUSH2 0x3D2 PUSH1 0xE DUP4 PUSH2 0x38E JUMP JUMPDEST SWAP2 POP PUSH2 0x3DD DUP3 PUSH2 0x39E JUMP JUMPDEST PUSH1 0x20 DUP3 ADD SWAP1 POP SWAP2 SWAP1 POP JUMP JUMPDEST PUSH0 PUSH1 0x20 DUP3 ADD SWAP1 POP DUP2 DUP2 SUB PUSH0 DUP4 ADD MSTORE PUSH2 0x3FF DUP2 PUSH2 0x3C6 JUMP JUMPDEST SWAP1 POP SWAP2 SWAP1 POP JUMP JUMPDEST PUSH32 0x4E487B7100000000000000000000000000000000000000000000000000000000 PUSH0 MSTORE PUSH1 0x31 PUSH1 0x4 MSTORE PUSH1 0x24 PUSH0 REVERT JUMPDEST PUSH32 0x496E646578206F7574206F6620626F756E647300000000000000000000000000 PUSH0 DUP3 ADD MSTORE POP JUMP JUMPDEST PUSH0 PUSH2 0x467 PUSH1 0x13 DUP4 PUSH2 0x38E JUMP JUMPDEST SWAP2 POP PUSH2 0x472 DUP3 PUSH2 0x433 JUMP JUMPDEST PUSH1 0x20 DUP3 ADD SWAP1 POP SWAP2 SWAP1 POP JUMP JUMPDEST PUSH0 PUSH1 0x20 DUP3 ADD SWAP1 POP DUP2 DUP2 SUB PUSH0 DUP4 ADD MSTORE PUSH2 0x494 DUP2 PUSH2 0x45B JUMP JUMPDEST SWAP1 POP SWAP2 SWAP1 POP JUMP JUMPDEST PUSH32 0x4E487B7100000000000000000000000000000000000000000000000000000000 PUSH0 MSTORE PUSH1 0x11 PUSH1 0x4 MSTORE PUSH1 0x24 PUSH0 REVERT JUMPDEST PUSH0 PUSH2 0x4D2 DUP3 PUSH2 0x308 JUMP JUMPDEST SWAP2 POP PUSH2 0x4DD DUP4 PUSH2 0x308 JUMP JUMPDEST SWAP3 POP DUP3 DUP3 SUB SWAP1 POP DUP2 DUP2 GT ISZERO PUSH2 0x4F5 JUMPI PUSH2 0x4F4 PUSH2 0x49B JUMP JUMPDEST JUMPDEST SWAP3 SWAP2 POP POP JUMP JUMPDEST PUSH32 0x4E487B7100000000000000000000000000000000000000000000000000000000 PUSH0 MSTORE PUSH1 0x32 PUSH1 0x4 MSTORE PUSH1 0x24 PUSH0 REVERT INVALID LOG2 PUSH5 0x6970667358 0x22 SLT KECCAK256 CALLDATACOPY 0xD SWAP4 LT 0xDC 0xF7 0xE5 0x21 0xD8 SIGNEXTEND PUSH3 0x9B9654 SAR 0xC9 0xE0 0x2F 0xDA 0xEC PUSH25 0x6C251A9FC33125CD4D329E64736F6C634300081C0033000000 "
				},
				"gasEstimates": {
					"creation": {
						"codeDepositCost": "274800",
						"executionCost": "310",
						"totalCost": "275110"
					},
					"external": {
						"addNumber(uint256)": "46908",
						"getLength()": "2461",
						"getNumber(uint256)": "infinite",
						"numbers(uint256)": "infinite",
						"removeAtIndex(uint256)": "infinite",
						"removeLastNum()": "31547"
					}
				},
				"methodIdentifiers": {
					"addNumber(uint256)": "fce68023",
					"getLength()": "be1c766b",
					"getNumber(uint256)": "fc563658",
					"numbers(uint256)": "d39fa233",
					"removeAtIndex(uint256)": "76a48c71",
					"removeLastNum()": "0995aaa8"
				}
			},
			"storageLayout": {
				"storage": [
					{
						"astId": 4,
						"contract": "ontap/3_ViduMang.sol:ArrayExample",
						"label": "numbers",
						"offset": 0,
						"slot": "0",
						"type": "t_array(t_uint256)dyn_storage"
					}
				],
				"types": {
					"t_array(t_uint256)dyn_storage": {
						"base": "t_uint256",
						"encoding": "dynamic_array",
						"label": "uint256[]",
						"numberOfBytes": "32"
					},
					"t_uint256": {
						"encoding": "inplace",
						"label": "uint256",
						"numberOfBytes": "32"
					}
				}
			},
			"userdoc": {
				"kind": "user",
				"methods": {},
				"version": 1
			}
		}
	}
}