{
	"week9/bailamthem/bai1.sol": {
		"GoatManagement": {
			"abi": [
				{
					"anonymous": false,
					"inputs": [
						{
							"indexed": false,
							"internalType": "uint256",
							"name": "gasUsed",
							"type": "uint256"
						},
						{
							"indexed": false,
							"internalType": "bytes32",
							"name": "txHash",
							"type": "bytes32"
						},
						{
							"indexed": false,
							"internalType": "uint256",
							"name": "blockNumber",
							"type": "uint256"
						}
					],
					"name": "TransactionDetails",
					"type": "event"
				},
				{
					"inputs": [
						{
							"internalType": "string",
							"name": "_code",
							"type": "string"
						},
						{
							"internalType": "uint256",
							"name": "_age",
							"type": "uint256"
						},
						{
							"internalType": "uint256",
							"name": "_weight",
							"type": "uint256"
						},
						{
							"internalType": "string",
							"name": "_breed",
							"type": "string"
						},
						{
							"internalType": "string",
							"name": "_healthStatus",
							"type": "string"
						}
					],
					"name": "addGoat",
					"outputs": [],
					"stateMutability": "nonpayable",
					"type": "function"
				},
				{
					"inputs": [
						{
							"internalType": "uint256",
							"name": "",
							"type": "uint256"
						},
						{
							"internalType": "uint256",
							"name": "",
							"type": "uint256"
						}
					],
					"name": "goatProducts",
					"outputs": [
						{
							"internalType": "string",
							"name": "productType",
							"type": "string"
						},
						{
							"internalType": "uint256",
							"name": "quantity",
							"type": "uint256"
						},
						{
							"internalType": "string",
							"name": "harvestDate",
							"type": "string"
						}
					],
					"stateMutability": "view",
					"type": "function"
				},
				{
					"inputs": [
						{
							"internalType": "uint256",
							"name": "",
							"type": "uint256"
						}
					],
					"name": "goats",
					"outputs": [
						{
							"internalType": "uint256",
							"name": "id",
							"type": "uint256"
						},
						{
							"internalType": "string",
							"name": "code",
							"type": "string"
						},
						{
							"internalType": "uint256",
							"name": "age",
							"type": "uint256"
						},
						{
							"internalType": "uint256",
							"name": "weight",
							"type": "uint256"
						},
						{
							"internalType": "string",
							"name": "breed",
							"type": "string"
						},
						{
							"internalType": "string",
							"name": "healthStatus",
							"type": "string"
						}
					],
					"stateMutability": "view",
					"type": "function"
				},
				{
					"inputs": [
						{
							"internalType": "uint256",
							"name": "",
							"type": "uint256"
						},
						{
							"internalType": "uint256",
							"name": "",
							"type": "uint256"
						}
					],
					"name": "healthHistory",
					"outputs": [
						{
							"internalType": "string",
							"name": "date",
							"type": "string"
						},
						{
							"internalType": "string",
							"name": "healthStatus",
							"type": "string"
						},
						{
							"internalType": "string",
							"name": "treatment",
							"type": "string"
						}
					],
					"stateMutability": "view",
					"type": "function"
				},
				{
					"inputs": [],
					"name": "nextGoatId",
					"outputs": [
						{
							"internalType": "uint256",
							"name": "",
							"type": "uint256"
						}
					],
					"stateMutability": "view",
					"type": "function"
				}
			],
			"devdoc": {
				"kind": "dev",
				"methods": {},
				"version": 1
			},
			"evm": {
				"assembly": "    /* \"week9/bailamthem/bai1.sol\":171:1433  contract GoatManagement {... */\n  mstore(0x40, 0x80)\n  callvalue\n  dup1\n  iszero\n  tag_1\n  jumpi\n  revert(0x00, 0x00)\ntag_1:\n  pop\n  dataSize(sub_0)\n  dup1\n  dataOffset(sub_0)\n  0x00\n  codecopy\n  0x00\n  return\nstop\n\nsub_0: assembly {\n        /* \"week9/bailamthem/bai1.sol\":171:1433  contract GoatManagement {... */\n      mstore(0x40, 0x80)\n      callvalue\n      dup1\n      iszero\n      tag_1\n      jumpi\n      revert(0x00, 0x00)\n    tag_1:\n      pop\n      jumpi(tag_2, lt(calldatasize, 0x04))\n      shr(0xe0, calldataload(0x00))\n      dup1\n      0x0f53f667\n      eq\n      tag_3\n      jumpi\n      dup1\n      0x28b968ba\n      eq\n      tag_4\n      jumpi\n      dup1\n      0x609e1e60\n      eq\n      tag_5\n      jumpi\n      dup1\n      0x9af76a90\n      eq\n      tag_6\n      jumpi\n      dup1\n      0xc37f6a61\n      eq\n      tag_7\n      jumpi\n    tag_2:\n      revert(0x00, 0x00)\n        /* \"week9/bailamthem/bai1.sol\":856:902  mapping(uint => Product[]) public goatProducts */\n    tag_3:\n      tag_8\n      0x04\n      dup1\n      calldatasize\n      sub\n      dup2\n      add\n      swap1\n      tag_9\n      swap2\n      swap1\n      tag_10\n      jump\t// in\n    tag_9:\n      tag_11\n      jump\t// in\n    tag_8:\n      mload(0x40)\n      tag_12\n      swap4\n      swap3\n      swap2\n      swap1\n      tag_13\n      jump\t// in\n    tag_12:\n      mload(0x40)\n      dup1\n      swap2\n      sub\n      swap1\n      return\n        /* \"week9/bailamthem/bai1.sol\":797:849  mapping(uint => HealthRecord[]) public healthHistory */\n    tag_4:\n      tag_14\n      0x04\n      dup1\n      calldatasize\n      sub\n      dup2\n      add\n      swap1\n      tag_15\n      swap2\n      swap1\n      tag_10\n      jump\t// in\n    tag_15:\n      tag_16\n      jump\t// in\n    tag_14:\n      mload(0x40)\n      tag_17\n      swap4\n      swap3\n      swap2\n      swap1\n      tag_18\n      jump\t// in\n    tag_17:\n      mload(0x40)\n      dup1\n      swap2\n      sub\n      swap1\n      return\n        /* \"week9/bailamthem/bai1.sol\":725:747  uint public nextGoatId */\n    tag_5:\n      tag_19\n      tag_20\n      jump\t// in\n    tag_19:\n      mload(0x40)\n      tag_21\n      swap2\n      swap1\n      tag_22\n      jump\t// in\n    tag_21:\n      mload(0x40)\n      dup1\n      swap2\n      sub\n      swap1\n      return\n        /* \"week9/bailamthem/bai1.sol\":756:790  mapping(uint => Goat) public goats */\n    tag_6:\n      tag_23\n      0x04\n      dup1\n      calldatasize\n      sub\n      dup2\n      add\n      swap1\n      tag_24\n      swap2\n      swap1\n      tag_25\n      jump\t// in\n    tag_24:\n      tag_26\n      jump\t// in\n    tag_23:\n      mload(0x40)\n      tag_27\n      swap7\n      swap6\n      swap5\n      swap4\n      swap3\n      swap2\n      swap1\n      tag_28\n      jump\t// in\n    tag_27:\n      mload(0x40)\n      dup1\n      swap2\n      sub\n      swap1\n      return\n        /* \"week9/bailamthem/bai1.sol\":1061:1430  function addGoat(string memory _code, uint _age, uint _weight, string memory _breed, string memory _healthStatus) public {... */\n    tag_7:\n      tag_29\n      0x04\n      dup1\n      calldatasize\n      sub\n      dup2\n      add\n      swap1\n      tag_30\n      swap2\n      swap1\n      tag_31\n      jump\t// in\n    tag_30:\n      tag_32\n      jump\t// in\n    tag_29:\n      stop\n        /* \"week9/bailamthem/bai1.sol\":856:902  mapping(uint => Product[]) public goatProducts */\n    tag_11:\n      mstore(0x20, 0x03)\n      dup2\n      0x00\n      mstore\n      keccak256(0x00, 0x40)\n      dup2\n      dup2\n      sload\n      dup2\n      lt\n      tag_33\n      jumpi\n      0x00\n      dup1\n      revert\n    tag_33:\n      swap1\n      0x00\n      mstore\n      keccak256(0x00, 0x20)\n      swap1\n      0x03\n      mul\n      add\n      0x00\n      swap2\n      pop\n      swap2\n      pop\n      pop\n      dup1\n      0x00\n      add\n      dup1\n      sload\n      tag_35\n      swap1\n      tag_36\n      jump\t// in\n    tag_35:\n      dup1\n      0x1f\n      add\n      0x20\n      dup1\n      swap2\n      div\n      mul\n      0x20\n      add\n      mload(0x40)\n      swap1\n      dup2\n      add\n      0x40\n      mstore\n      dup1\n      swap3\n      swap2\n      swap1\n      dup2\n      dup2\n      mstore\n      0x20\n      add\n      dup3\n      dup1\n      sload\n      tag_37\n      swap1\n      tag_36\n      jump\t// in\n    tag_37:\n      dup1\n      iszero\n      tag_38\n      jumpi\n      dup1\n      0x1f\n      lt\n      tag_39\n      jumpi\n      0x0100\n      dup1\n      dup4\n      sload\n      div\n      mul\n      dup4\n      mstore\n      swap2\n      0x20\n      add\n      swap2\n      jump(tag_38)\n    tag_39:\n      dup3\n      add\n      swap2\n      swap1\n      0x00\n      mstore\n      keccak256(0x00, 0x20)\n      swap1\n    tag_40:\n      dup2\n      sload\n      dup2\n      mstore\n      swap1\n      0x01\n      add\n      swap1\n      0x20\n      add\n      dup1\n      dup4\n      gt\n      tag_40\n      jumpi\n      dup3\n      swap1\n      sub\n      0x1f\n      and\n      dup3\n      add\n      swap2\n    tag_38:\n      pop\n      pop\n      pop\n      pop\n      pop\n      swap1\n      dup1\n      0x01\n      add\n      sload\n      swap1\n      dup1\n      0x02\n      add\n      dup1\n      sload\n      tag_41\n      swap1\n      tag_36\n      jump\t// in\n    tag_41:\n      dup1\n      0x1f\n      add\n      0x20\n      dup1\n      swap2\n      div\n      mul\n      0x20\n      add\n      mload(0x40)\n      swap1\n      dup2\n      add\n      0x40\n      mstore\n      dup1\n      swap3\n      swap2\n      swap1\n      dup2\n      dup2\n      mstore\n      0x20\n      add\n      dup3\n      dup1\n      sload\n      tag_42\n      swap1\n      tag_36\n      jump\t// in\n    tag_42:\n      dup1\n      iszero\n      tag_43\n      jumpi\n      dup1\n      0x1f\n      lt\n      tag_44\n      jumpi\n      0x0100\n      dup1\n      dup4\n      sload\n      div\n      mul\n      dup4\n      mstore\n      swap2\n      0x20\n      add\n      swap2\n      jump(tag_43)\n    tag_44:\n      dup3\n      add\n      swap2\n      swap1\n      0x00\n      mstore\n      keccak256(0x00, 0x20)\n      swap1\n    tag_45:\n      dup2\n      sload\n      dup2\n      mstore\n      swap1\n      0x01\n      add\n      swap1\n      0x20\n      add\n      dup1\n      dup4\n      gt\n      tag_45\n      jumpi\n      dup3\n      swap1\n      sub\n      0x1f\n      and\n      dup3\n      add\n      swap2\n    tag_43:\n      pop\n      pop\n      pop\n      pop\n      pop\n      swap1\n      pop\n      dup4\n      jump\t// out\n        /* \"week9/bailamthem/bai1.sol\":797:849  mapping(uint => HealthRecord[]) public healthHistory */\n    tag_16:\n      mstore(0x20, 0x02)\n      dup2\n      0x00\n      mstore\n      keccak256(0x00, 0x40)\n      dup2\n      dup2\n      sload\n      dup2\n      lt\n      tag_46\n      jumpi\n      0x00\n      dup1\n      revert\n    tag_46:\n      swap1\n      0x00\n      mstore\n      keccak256(0x00, 0x20)\n      swap1\n      0x03\n      mul\n      add\n      0x00\n      swap2\n      pop\n      swap2\n      pop\n      pop\n      dup1\n      0x00\n      add\n      dup1\n      sload\n      tag_48\n      swap1\n      tag_36\n      jump\t// in\n    tag_48:\n      dup1\n      0x1f\n      add\n      0x20\n      dup1\n      swap2\n      div\n      mul\n      0x20\n      add\n      mload(0x40)\n      swap1\n      dup2\n      add\n      0x40\n      mstore\n      dup1\n      swap3\n      swap2\n      swap1\n      dup2\n      dup2\n      mstore\n      0x20\n      add\n      dup3\n      dup1\n      sload\n      tag_49\n      swap1\n      tag_36\n      jump\t// in\n    tag_49:\n      dup1\n      iszero\n      tag_50\n      jumpi\n      dup1\n      0x1f\n      lt\n      tag_51\n      jumpi\n      0x0100\n      dup1\n      dup4\n      sload\n      div\n      mul\n      dup4\n      mstore\n      swap2\n      0x20\n      add\n      swap2\n      jump(tag_50)\n    tag_51:\n      dup3\n      add\n      swap2\n      swap1\n      0x00\n      mstore\n      keccak256(0x00, 0x20)\n      swap1\n    tag_52:\n      dup2\n      sload\n      dup2\n      mstore\n      swap1\n      0x01\n      add\n      swap1\n      0x20\n      add\n      dup1\n      dup4\n      gt\n      tag_52\n      jumpi\n      dup3\n      swap1\n      sub\n      0x1f\n      and\n      dup3\n      add\n      swap2\n    tag_50:\n      pop\n      pop\n      pop\n      pop\n      pop\n      swap1\n      dup1\n      0x01\n      add\n      dup1\n      sload\n      tag_53\n      swap1\n      tag_36\n      jump\t// in\n    tag_53:\n      dup1\n      0x1f\n      add\n      0x20\n      dup1\n      swap2\n      div\n      mul\n      0x20\n      add\n      mload(0x40)\n      swap1\n      dup2\n      add\n      0x40\n      mstore\n      dup1\n      swap3\n      swap2\n      swap1\n      dup2\n      dup2\n      mstore\n      0x20\n      add\n      dup3\n      dup1\n      sload\n      tag_54\n      swap1\n      tag_36\n      jump\t// in\n    tag_54:\n      dup1\n      iszero\n      tag_55\n      jumpi\n      dup1\n      0x1f\n      lt\n      tag_56\n      jumpi\n      0x0100\n      dup1\n      dup4\n      sload\n      div\n      mul\n      dup4\n      mstore\n      swap2\n      0x20\n      add\n      swap2\n      jump(tag_55)\n    tag_56:\n      dup3\n      add\n      swap2\n      swap1\n      0x00\n      mstore\n      keccak256(0x00, 0x20)\n      swap1\n    tag_57:\n      dup2\n      sload\n      dup2\n      mstore\n      swap1\n      0x01\n      add\n      swap1\n      0x20\n      add\n      dup1\n      dup4\n      gt\n      tag_57\n      jumpi\n      dup3\n      swap1\n      sub\n      0x1f\n      and\n      dup3\n      add\n      swap2\n    tag_55:\n      pop\n      pop\n      pop\n      pop\n      pop\n      swap1\n      dup1\n      0x02\n      add\n      dup1\n      sload\n      tag_58\n      swap1\n      tag_36\n      jump\t// in\n    tag_58:\n      dup1\n      0x1f\n      add\n      0x20\n      dup1\n      swap2\n      div\n      mul\n      0x20\n      add\n      mload(0x40)\n      swap1\n      dup2\n      add\n      0x40\n      mstore\n      dup1\n      swap3\n      swap2\n      swap1\n      dup2\n      dup2\n      mstore\n      0x20\n      add\n      dup3\n      dup1\n      sload\n      tag_59\n      swap1\n      tag_36\n      jump\t// in\n    tag_59:\n      dup1\n      iszero\n      tag_60\n      jumpi\n      dup1\n      0x1f\n      lt\n      tag_61\n      jumpi\n      0x0100\n      dup1\n      dup4\n      sload\n      div\n      mul\n      dup4\n      mstore\n      swap2\n      0x20\n      add\n      swap2\n      jump(tag_60)\n    tag_61:\n      dup3\n      add\n      swap2\n      swap1\n      0x00\n      mstore\n      keccak256(0x00, 0x20)\n      swap1\n    tag_62:\n      dup2\n      sload\n      dup2\n      mstore\n      swap1\n      0x01\n      add\n      swap1\n      0x20\n      add\n      dup1\n      dup4\n      gt\n      tag_62\n      jumpi\n      dup3\n      swap1\n      sub\n      0x1f\n      and\n      dup3\n      add\n      swap2\n    tag_60:\n      pop\n      pop\n      pop\n      pop\n      pop\n      swap1\n      pop\n      dup4\n      jump\t// out\n        /* \"week9/bailamthem/bai1.sol\":725:747  uint public nextGoatId */\n    tag_20:\n      sload(0x00)\n      dup2\n      jump\t// out\n        /* \"week9/bailamthem/bai1.sol\":756:790  mapping(uint => Goat) public goats */\n    tag_26:\n      mstore(0x20, 0x01)\n      dup1\n      0x00\n      mstore\n      keccak256(0x00, 0x40)\n      0x00\n      swap2\n      pop\n      swap1\n      pop\n      dup1\n      0x00\n      add\n      sload\n      swap1\n      dup1\n      0x01\n      add\n      dup1\n      sload\n      tag_63\n      swap1\n      tag_36\n      jump\t// in\n    tag_63:\n      dup1\n      0x1f\n      add\n      0x20\n      dup1\n      swap2\n      div\n      mul\n      0x20\n      add\n      mload(0x40)\n      swap1\n      dup2\n      add\n      0x40\n      mstore\n      dup1\n      swap3\n      swap2\n      swap1\n      dup2\n      dup2\n      mstore\n      0x20\n      add\n      dup3\n      dup1\n      sload\n      tag_64\n      swap1\n      tag_36\n      jump\t// in\n    tag_64:\n      dup1\n      iszero\n      tag_65\n      jumpi\n      dup1\n      0x1f\n      lt\n      tag_66\n      jumpi\n      0x0100\n      dup1\n      dup4\n      sload\n      div\n      mul\n      dup4\n      mstore\n      swap2\n      0x20\n      add\n      swap2\n      jump(tag_65)\n    tag_66:\n      dup3\n      add\n      swap2\n      swap1\n      0x00\n      mstore\n      keccak256(0x00, 0x20)\n      swap1\n    tag_67:\n      dup2\n      sload\n      dup2\n      mstore\n      swap1\n      0x01\n      add\n      swap1\n      0x20\n      add\n      dup1\n      dup4\n      gt\n      tag_67\n      jumpi\n      dup3\n      swap1\n      sub\n      0x1f\n      and\n      dup3\n      add\n      swap2\n    tag_65:\n      pop\n      pop\n      pop\n      pop\n      pop\n      swap1\n      dup1\n      0x02\n      add\n      sload\n      swap1\n      dup1\n      0x03\n      add\n      sload\n      swap1\n      dup1\n      0x04\n      add\n      dup1\n      sload\n      tag_68\n      swap1\n      tag_36\n      jump\t// in\n    tag_68:\n      dup1\n      0x1f\n      add\n      0x20\n      dup1\n      swap2\n      div\n      mul\n      0x20\n      add\n      mload(0x40)\n      swap1\n      dup2\n      add\n      0x40\n      mstore\n      dup1\n      swap3\n      swap2\n      swap1\n      dup2\n      dup2\n      mstore\n      0x20\n      add\n      dup3\n      dup1\n      sload\n      tag_69\n      swap1\n      tag_36\n      jump\t// in\n    tag_69:\n      dup1\n      iszero\n      tag_70\n      jumpi\n      dup1\n      0x1f\n      lt\n      tag_71\n      jumpi\n      0x0100\n      dup1\n      dup4\n      sload\n      div\n      mul\n      dup4\n      mstore\n      swap2\n      0x20\n      add\n      swap2\n      jump(tag_70)\n    tag_71:\n      dup3\n      add\n      swap2\n      swap1\n      0x00\n      mstore\n      keccak256(0x00, 0x20)\n      swap1\n    tag_72:\n      dup2\n      sload\n      dup2\n      mstore\n      swap1\n      0x01\n      add\n      swap1\n      0x20\n      add\n      dup1\n      dup4\n      gt\n      tag_72\n      jumpi\n      dup3\n      swap1\n      sub\n      0x1f\n      and\n      dup3\n      add\n      swap2\n    tag_70:\n      pop\n      pop\n      pop\n      pop\n      pop\n      swap1\n      dup1\n      0x05\n      add\n      dup1\n      sload\n      tag_73\n      swap1\n      tag_36\n      jump\t// in\n    tag_73:\n      dup1\n      0x1f\n      add\n      0x20\n      dup1\n      swap2\n      div\n      mul\n      0x20\n      add\n      mload(0x40)\n      swap1\n      dup2\n      add\n      0x40\n      mstore\n      dup1\n      swap3\n      swap2\n      swap1\n      dup2\n      dup2\n      mstore\n      0x20\n      add\n      dup3\n      dup1\n      sload\n      tag_74\n      swap1\n      tag_36\n      jump\t// in\n    tag_74:\n      dup1\n      iszero\n      tag_75\n      jumpi\n      dup1\n      0x1f\n      lt\n      tag_76\n      jumpi\n      0x0100\n      dup1\n      dup4\n      sload\n      div\n      mul\n      dup4\n      mstore\n      swap2\n      0x20\n      add\n      swap2\n      jump(tag_75)\n    tag_76:\n      dup3\n      add\n      swap2\n      swap1\n      0x00\n      mstore\n      keccak256(0x00, 0x20)\n      swap1\n    tag_77:\n      dup2\n      sload\n      dup2\n      mstore\n      swap1\n      0x01\n      add\n      swap1\n      0x20\n      add\n      dup1\n      dup4\n      gt\n      tag_77\n      jumpi\n      dup3\n      swap1\n      sub\n      0x1f\n      and\n      dup3\n      add\n      swap2\n    tag_75:\n      pop\n      pop\n      pop\n      pop\n      pop\n      swap1\n      pop\n      dup7\n      jump\t// out\n        /* \"week9/bailamthem/bai1.sol\":1061:1430  function addGoat(string memory _code, uint _age, uint _weight, string memory _breed, string memory _healthStatus) public {... */\n    tag_32:\n        /* \"week9/bailamthem/bai1.sol\":1213:1274  Goat(nextGoatId, _code, _age, _weight, _breed, _healthStatus) */\n      mload(0x40)\n      dup1\n      0xc0\n      add\n      0x40\n      mstore\n      dup1\n        /* \"week9/bailamthem/bai1.sol\":1218:1228  nextGoatId */\n      sload(0x00)\n        /* \"week9/bailamthem/bai1.sol\":1213:1274  Goat(nextGoatId, _code, _age, _weight, _breed, _healthStatus) */\n      dup2\n      mstore\n      0x20\n      add\n        /* \"week9/bailamthem/bai1.sol\":1230:1235  _code */\n      dup7\n        /* \"week9/bailamthem/bai1.sol\":1213:1274  Goat(nextGoatId, _code, _age, _weight, _breed, _healthStatus) */\n      dup2\n      mstore\n      0x20\n      add\n        /* \"week9/bailamthem/bai1.sol\":1237:1241  _age */\n      dup6\n        /* \"week9/bailamthem/bai1.sol\":1213:1274  Goat(nextGoatId, _code, _age, _weight, _breed, _healthStatus) */\n      dup2\n      mstore\n      0x20\n      add\n        /* \"week9/bailamthem/bai1.sol\":1243:1250  _weight */\n      dup5\n        /* \"week9/bailamthem/bai1.sol\":1213:1274  Goat(nextGoatId, _code, _age, _weight, _breed, _healthStatus) */\n      dup2\n      mstore\n      0x20\n      add\n        /* \"week9/bailamthem/bai1.sol\":1252:1258  _breed */\n      dup4\n        /* \"week9/bailamthem/bai1.sol\":1213:1274  Goat(nextGoatId, _code, _age, _weight, _breed, _healthStatus) */\n      dup2\n      mstore\n      0x20\n      add\n        /* \"week9/bailamthem/bai1.sol\":1260:1273  _healthStatus */\n      dup3\n        /* \"week9/bailamthem/bai1.sol\":1213:1274  Goat(nextGoatId, _code, _age, _weight, _breed, _healthStatus) */\n      dup2\n      mstore\n      pop\n        /* \"week9/bailamthem/bai1.sol\":1193:1198  goats */\n      0x01\n        /* \"week9/bailamthem/bai1.sol\":1193:1210  goats[nextGoatId] */\n      0x00\n        /* \"week9/bailamthem/bai1.sol\":1199:1209  nextGoatId */\n      sload(0x00)\n        /* \"week9/bailamthem/bai1.sol\":1193:1210  goats[nextGoatId] */\n      dup2\n      mstore\n      0x20\n      add\n      swap1\n      dup2\n      mstore\n      0x20\n      add\n      0x00\n      keccak256\n        /* \"week9/bailamthem/bai1.sol\":1193:1274  goats[nextGoatId] = Goat(nextGoatId, _code, _age, _weight, _breed, _healthStatus) */\n      0x00\n      dup3\n      add\n      mload\n      dup2\n      0x00\n      add\n      sstore\n      0x20\n      dup3\n      add\n      mload\n      dup2\n      0x01\n      add\n      swap1\n      dup2\n      tag_79\n      swap2\n      swap1\n      tag_80\n      jump\t// in\n    tag_79:\n      pop\n      0x40\n      dup3\n      add\n      mload\n      dup2\n      0x02\n      add\n      sstore\n      0x60\n      dup3\n      add\n      mload\n      dup2\n      0x03\n      add\n      sstore\n      0x80\n      dup3\n      add\n      mload\n      dup2\n      0x04\n      add\n      swap1\n      dup2\n      tag_81\n      swap2\n      swap1\n      tag_80\n      jump\t// in\n    tag_81:\n      pop\n      0xa0\n      dup3\n      add\n      mload\n      dup2\n      0x05\n      add\n      swap1\n      dup2\n      tag_82\n      swap2\n      swap1\n      tag_80\n      jump\t// in\n    tag_82:\n      pop\n      swap1\n      pop\n      pop\n        /* \"week9/bailamthem/bai1.sol\":1318:1328  nextGoatId */\n      0x00\n      0x00\n        /* \"week9/bailamthem/bai1.sol\":1318:1330  nextGoatId++ */\n      dup2\n      sload\n      dup1\n      swap3\n      swap2\n      swap1\n      tag_83\n      swap1\n      tag_84\n      jump\t// in\n    tag_83:\n      swap2\n      swap1\n      pop\n      sstore\n      pop\n        /* \"week9/bailamthem/bai1.sol\":1348:1422  TransactionDetails(tx.gasprice, blockhash(block.number - 1), block.number) */\n      0x7efab20ab4c4d8c33ecd03458d6147bf7ccc1faa40dfeedd6f2d7a7cf28a12d7\n        /* \"week9/bailamthem/bai1.sol\":1367:1378  tx.gasprice */\n      gasprice\n        /* \"week9/bailamthem/bai1.sol\":1405:1406  1 */\n      0x01\n        /* \"week9/bailamthem/bai1.sol\":1390:1402  block.number */\n      number\n        /* \"week9/bailamthem/bai1.sol\":1390:1406  block.number - 1 */\n      tag_85\n      swap2\n      swap1\n      tag_86\n      jump\t// in\n    tag_85:\n        /* \"week9/bailamthem/bai1.sol\":1380:1407  blockhash(block.number - 1) */\n      blockhash\n        /* \"week9/bailamthem/bai1.sol\":1409:1421  block.number */\n      number\n        /* \"week9/bailamthem/bai1.sol\":1348:1422  TransactionDetails(tx.gasprice, blockhash(block.number - 1), block.number) */\n      mload(0x40)\n      tag_87\n      swap4\n      swap3\n      swap2\n      swap1\n      tag_88\n      jump\t// in\n    tag_87:\n      mload(0x40)\n      dup1\n      swap2\n      sub\n      swap1\n      log1\n        /* \"week9/bailamthem/bai1.sol\":1061:1430  function addGoat(string memory _code, uint _age, uint _weight, string memory _breed, string memory _healthStatus) public {... */\n      pop\n      pop\n      pop\n      pop\n      pop\n      jump\t// out\n        /* \"#utility.yul\":7:82   */\n    tag_89:\n        /* \"#utility.yul\":40:46   */\n      0x00\n        /* \"#utility.yul\":73:75   */\n      0x40\n        /* \"#utility.yul\":67:76   */\n      mload\n        /* \"#utility.yul\":57:76   */\n      swap1\n      pop\n        /* \"#utility.yul\":7:82   */\n      swap1\n      jump\t// out\n        /* \"#utility.yul\":88:205   */\n    tag_90:\n        /* \"#utility.yul\":197:198   */\n      0x00\n        /* \"#utility.yul\":194:195   */\n      0x00\n        /* \"#utility.yul\":187:199   */\n      revert\n        /* \"#utility.yul\":211:328   */\n    tag_91:\n        /* \"#utility.yul\":320:321   */\n      0x00\n        /* \"#utility.yul\":317:318   */\n      0x00\n        /* \"#utility.yul\":310:322   */\n      revert\n        /* \"#utility.yul\":334:411   */\n    tag_92:\n        /* \"#utility.yul\":371:378   */\n      0x00\n        /* \"#utility.yul\":400:405   */\n      dup2\n        /* \"#utility.yul\":389:405   */\n      swap1\n      pop\n        /* \"#utility.yul\":334:411   */\n      swap2\n      swap1\n      pop\n      jump\t// out\n        /* \"#utility.yul\":417:539   */\n    tag_93:\n        /* \"#utility.yul\":490:514   */\n      tag_135\n        /* \"#utility.yul\":508:513   */\n      dup2\n        /* \"#utility.yul\":490:514   */\n      tag_92\n      jump\t// in\n    tag_135:\n        /* \"#utility.yul\":483:488   */\n      dup2\n        /* \"#utility.yul\":480:515   */\n      eq\n        /* \"#utility.yul\":470:533   */\n      tag_136\n      jumpi\n        /* \"#utility.yul\":529:530   */\n      0x00\n        /* \"#utility.yul\":526:527   */\n      0x00\n        /* \"#utility.yul\":519:531   */\n      revert\n        /* \"#utility.yul\":470:533   */\n    tag_136:\n        /* \"#utility.yul\":417:539   */\n      pop\n      jump\t// out\n        /* \"#utility.yul\":545:684   */\n    tag_94:\n        /* \"#utility.yul\":591:596   */\n      0x00\n        /* \"#utility.yul\":629:635   */\n      dup2\n        /* \"#utility.yul\":616:636   */\n      calldataload\n        /* \"#utility.yul\":607:636   */\n      swap1\n      pop\n        /* \"#utility.yul\":645:678   */\n      tag_138\n        /* \"#utility.yul\":672:677   */\n      dup2\n        /* \"#utility.yul\":645:678   */\n      tag_93\n      jump\t// in\n    tag_138:\n        /* \"#utility.yul\":545:684   */\n      swap3\n      swap2\n      pop\n      pop\n      jump\t// out\n        /* \"#utility.yul\":690:1164   */\n    tag_10:\n        /* \"#utility.yul\":758:764   */\n      0x00\n        /* \"#utility.yul\":766:772   */\n      0x00\n        /* \"#utility.yul\":815:817   */\n      0x40\n        /* \"#utility.yul\":803:812   */\n      dup4\n        /* \"#utility.yul\":794:801   */\n      dup6\n        /* \"#utility.yul\":790:813   */\n      sub\n        /* \"#utility.yul\":786:818   */\n      slt\n        /* \"#utility.yul\":783:902   */\n      iszero\n      tag_140\n      jumpi\n        /* \"#utility.yul\":821:900   */\n      tag_141\n      tag_90\n      jump\t// in\n    tag_141:\n        /* \"#utility.yul\":783:902   */\n    tag_140:\n        /* \"#utility.yul\":941:942   */\n      0x00\n        /* \"#utility.yul\":966:1019   */\n      tag_142\n        /* \"#utility.yul\":1011:1018   */\n      dup6\n        /* \"#utility.yul\":1002:1008   */\n      dup3\n        /* \"#utility.yul\":991:1000   */\n      dup7\n        /* \"#utility.yul\":987:1009   */\n      add\n        /* \"#utility.yul\":966:1019   */\n      tag_94\n      jump\t// in\n    tag_142:\n        /* \"#utility.yul\":956:1019   */\n      swap3\n      pop\n        /* \"#utility.yul\":912:1029   */\n      pop\n        /* \"#utility.yul\":1068:1070   */\n      0x20\n        /* \"#utility.yul\":1094:1147   */\n      tag_143\n        /* \"#utility.yul\":1139:1146   */\n      dup6\n        /* \"#utility.yul\":1130:1136   */\n      dup3\n        /* \"#utility.yul\":1119:1128   */\n      dup7\n        /* \"#utility.yul\":1115:1137   */\n      add\n        /* \"#utility.yul\":1094:1147   */\n      tag_94\n      jump\t// in\n    tag_143:\n        /* \"#utility.yul\":1084:1147   */\n      swap2\n      pop\n        /* \"#utility.yul\":1039:1157   */\n      pop\n        /* \"#utility.yul\":690:1164   */\n      swap3\n      pop\n      swap3\n      swap1\n      pop\n      jump\t// out\n        /* \"#utility.yul\":1170:1269   */\n    tag_95:\n        /* \"#utility.yul\":1222:1228   */\n      0x00\n        /* \"#utility.yul\":1256:1261   */\n      dup2\n        /* \"#utility.yul\":1250:1262   */\n      mload\n        /* \"#utility.yul\":1240:1262   */\n      swap1\n      pop\n        /* \"#utility.yul\":1170:1269   */\n      swap2\n      swap1\n      pop\n      jump\t// out\n        /* \"#utility.yul\":1275:1444   */\n    tag_96:\n        /* \"#utility.yul\":1359:1370   */\n      0x00\n        /* \"#utility.yul\":1393:1399   */\n      dup3\n        /* \"#utility.yul\":1388:1391   */\n      dup3\n        /* \"#utility.yul\":1381:1400   */\n      mstore\n        /* \"#utility.yul\":1433:1437   */\n      0x20\n        /* \"#utility.yul\":1428:1431   */\n      dup3\n        /* \"#utility.yul\":1424:1438   */\n      add\n        /* \"#utility.yul\":1409:1438   */\n      swap1\n      pop\n        /* \"#utility.yul\":1275:1444   */\n      swap3\n      swap2\n      pop\n      pop\n      jump\t// out\n        /* \"#utility.yul\":1450:1589   */\n    tag_97:\n        /* \"#utility.yul\":1539:1545   */\n      dup3\n        /* \"#utility.yul\":1534:1537   */\n      dup2\n        /* \"#utility.yul\":1529:1532   */\n      dup4\n        /* \"#utility.yul\":1523:1546   */\n      mcopy\n        /* \"#utility.yul\":1580:1581   */\n      0x00\n        /* \"#utility.yul\":1571:1577   */\n      dup4\n        /* \"#utility.yul\":1566:1569   */\n      dup4\n        /* \"#utility.yul\":1562:1578   */\n      add\n        /* \"#utility.yul\":1555:1582   */\n      mstore\n        /* \"#utility.yul\":1450:1589   */\n      pop\n      pop\n      pop\n      jump\t// out\n        /* \"#utility.yul\":1595:1697   */\n    tag_98:\n        /* \"#utility.yul\":1636:1642   */\n      0x00\n        /* \"#utility.yul\":1687:1689   */\n      0x1f\n        /* \"#utility.yul\":1683:1690   */\n      not\n        /* \"#utility.yul\":1678:1680   */\n      0x1f\n        /* \"#utility.yul\":1671:1676   */\n      dup4\n        /* \"#utility.yul\":1667:1681   */\n      add\n        /* \"#utility.yul\":1663:1691   */\n      and\n        /* \"#utility.yul\":1653:1691   */\n      swap1\n      pop\n        /* \"#utility.yul\":1595:1697   */\n      swap2\n      swap1\n      pop\n      jump\t// out\n        /* \"#utility.yul\":1703:2080   */\n    tag_99:\n        /* \"#utility.yul\":1791:1794   */\n      0x00\n        /* \"#utility.yul\":1819:1858   */\n      tag_149\n        /* \"#utility.yul\":1852:1857   */\n      dup3\n        /* \"#utility.yul\":1819:1858   */\n      tag_95\n      jump\t// in\n    tag_149:\n        /* \"#utility.yul\":1874:1945   */\n      tag_150\n        /* \"#utility.yul\":1938:1944   */\n      dup2\n        /* \"#utility.yul\":1933:1936   */\n      dup6\n        /* \"#utility.yul\":1874:1945   */\n      tag_96\n      jump\t// in\n    tag_150:\n        /* \"#utility.yul\":1867:1945   */\n      swap4\n      pop\n        /* \"#utility.yul\":1954:2019   */\n      tag_151\n        /* \"#utility.yul\":2012:2018   */\n      dup2\n        /* \"#utility.yul\":2007:2010   */\n      dup6\n        /* \"#utility.yul\":2000:2004   */\n      0x20\n        /* \"#utility.yul\":1993:1998   */\n      dup7\n        /* \"#utility.yul\":1989:2005   */\n      add\n        /* \"#utility.yul\":1954:2019   */\n      tag_97\n      jump\t// in\n    tag_151:\n        /* \"#utility.yul\":2044:2073   */\n      tag_152\n        /* \"#utility.yul\":2066:2072   */\n      dup2\n        /* \"#utility.yul\":2044:2073   */\n      tag_98\n      jump\t// in\n    tag_152:\n        /* \"#utility.yul\":2039:2042   */\n      dup5\n        /* \"#utility.yul\":2035:2074   */\n      add\n        /* \"#utility.yul\":2028:2074   */\n      swap2\n      pop\n        /* \"#utility.yul\":1795:2080   */\n      pop\n        /* \"#utility.yul\":1703:2080   */\n      swap3\n      swap2\n      pop\n      pop\n      jump\t// out\n        /* \"#utility.yul\":2086:2204   */\n    tag_100:\n        /* \"#utility.yul\":2173:2197   */\n      tag_154\n        /* \"#utility.yul\":2191:2196   */\n      dup2\n        /* \"#utility.yul\":2173:2197   */\n      tag_92\n      jump\t// in\n    tag_154:\n        /* \"#utility.yul\":2168:2171   */\n      dup3\n        /* \"#utility.yul\":2161:2198   */\n      mstore\n        /* \"#utility.yul\":2086:2204   */\n      pop\n      pop\n      jump\t// out\n        /* \"#utility.yul\":2210:2834   */\n    tag_13:\n        /* \"#utility.yul\":2399:2403   */\n      0x00\n        /* \"#utility.yul\":2437:2439   */\n      0x60\n        /* \"#utility.yul\":2426:2435   */\n      dup3\n        /* \"#utility.yul\":2422:2440   */\n      add\n        /* \"#utility.yul\":2414:2440   */\n      swap1\n      pop\n        /* \"#utility.yul\":2486:2495   */\n      dup2\n        /* \"#utility.yul\":2480:2484   */\n      dup2\n        /* \"#utility.yul\":2476:2496   */\n      sub\n        /* \"#utility.yul\":2472:2473   */\n      0x00\n        /* \"#utility.yul\":2461:2470   */\n      dup4\n        /* \"#utility.yul\":2457:2474   */\n      add\n        /* \"#utility.yul\":2450:2497   */\n      mstore\n        /* \"#utility.yul\":2514:2592   */\n      tag_156\n        /* \"#utility.yul\":2587:2591   */\n      dup2\n        /* \"#utility.yul\":2578:2584   */\n      dup7\n        /* \"#utility.yul\":2514:2592   */\n      tag_99\n      jump\t// in\n    tag_156:\n        /* \"#utility.yul\":2506:2592   */\n      swap1\n      pop\n        /* \"#utility.yul\":2602:2674   */\n      tag_157\n        /* \"#utility.yul\":2670:2672   */\n      0x20\n        /* \"#utility.yul\":2659:2668   */\n      dup4\n        /* \"#utility.yul\":2655:2673   */\n      add\n        /* \"#utility.yul\":2646:2652   */\n      dup6\n        /* \"#utility.yul\":2602:2674   */\n      tag_100\n      jump\t// in\n    tag_157:\n        /* \"#utility.yul\":2721:2730   */\n      dup2\n        /* \"#utility.yul\":2715:2719   */\n      dup2\n        /* \"#utility.yul\":2711:2731   */\n      sub\n        /* \"#utility.yul\":2706:2708   */\n      0x40\n        /* \"#utility.yul\":2695:2704   */\n      dup4\n        /* \"#utility.yul\":2691:2709   */\n      add\n        /* \"#utility.yul\":2684:2732   */\n      mstore\n        /* \"#utility.yul\":2749:2827   */\n      tag_158\n        /* \"#utility.yul\":2822:2826   */\n      dup2\n        /* \"#utility.yul\":2813:2819   */\n      dup5\n        /* \"#utility.yul\":2749:2827   */\n      tag_99\n      jump\t// in\n    tag_158:\n        /* \"#utility.yul\":2741:2827   */\n      swap1\n      pop\n        /* \"#utility.yul\":2210:2834   */\n      swap5\n      swap4\n      pop\n      pop\n      pop\n      pop\n      jump\t// out\n        /* \"#utility.yul\":2840:3555   */\n    tag_18:\n        /* \"#utility.yul\":3049:3053   */\n      0x00\n        /* \"#utility.yul\":3087:3089   */\n      0x60\n        /* \"#utility.yul\":3076:3085   */\n      dup3\n        /* \"#utility.yul\":3072:3090   */\n      add\n        /* \"#utility.yul\":3064:3090   */\n      swap1\n      pop\n        /* \"#utility.yul\":3136:3145   */\n      dup2\n        /* \"#utility.yul\":3130:3134   */\n      dup2\n        /* \"#utility.yul\":3126:3146   */\n      sub\n        /* \"#utility.yul\":3122:3123   */\n      0x00\n        /* \"#utility.yul\":3111:3120   */\n      dup4\n        /* \"#utility.yul\":3107:3124   */\n      add\n        /* \"#utility.yul\":3100:3147   */\n      mstore\n        /* \"#utility.yul\":3164:3242   */\n      tag_160\n        /* \"#utility.yul\":3237:3241   */\n      dup2\n        /* \"#utility.yul\":3228:3234   */\n      dup7\n        /* \"#utility.yul\":3164:3242   */\n      tag_99\n      jump\t// in\n    tag_160:\n        /* \"#utility.yul\":3156:3242   */\n      swap1\n      pop\n        /* \"#utility.yul\":3289:3298   */\n      dup2\n        /* \"#utility.yul\":3283:3287   */\n      dup2\n        /* \"#utility.yul\":3279:3299   */\n      sub\n        /* \"#utility.yul\":3274:3276   */\n      0x20\n        /* \"#utility.yul\":3263:3272   */\n      dup4\n        /* \"#utility.yul\":3259:3277   */\n      add\n        /* \"#utility.yul\":3252:3300   */\n      mstore\n        /* \"#utility.yul\":3317:3395   */\n      tag_161\n        /* \"#utility.yul\":3390:3394   */\n      dup2\n        /* \"#utility.yul\":3381:3387   */\n      dup6\n        /* \"#utility.yul\":3317:3395   */\n      tag_99\n      jump\t// in\n    tag_161:\n        /* \"#utility.yul\":3309:3395   */\n      swap1\n      pop\n        /* \"#utility.yul\":3442:3451   */\n      dup2\n        /* \"#utility.yul\":3436:3440   */\n      dup2\n        /* \"#utility.yul\":3432:3452   */\n      sub\n        /* \"#utility.yul\":3427:3429   */\n      0x40\n        /* \"#utility.yul\":3416:3425   */\n      dup4\n        /* \"#utility.yul\":3412:3430   */\n      add\n        /* \"#utility.yul\":3405:3453   */\n      mstore\n        /* \"#utility.yul\":3470:3548   */\n      tag_162\n        /* \"#utility.yul\":3543:3547   */\n      dup2\n        /* \"#utility.yul\":3534:3540   */\n      dup5\n        /* \"#utility.yul\":3470:3548   */\n      tag_99\n      jump\t// in\n    tag_162:\n        /* \"#utility.yul\":3462:3548   */\n      swap1\n      pop\n        /* \"#utility.yul\":2840:3555   */\n      swap5\n      swap4\n      pop\n      pop\n      pop\n      pop\n      jump\t// out\n        /* \"#utility.yul\":3561:3783   */\n    tag_22:\n        /* \"#utility.yul\":3654:3658   */\n      0x00\n        /* \"#utility.yul\":3692:3694   */\n      0x20\n        /* \"#utility.yul\":3681:3690   */\n      dup3\n        /* \"#utility.yul\":3677:3695   */\n      add\n        /* \"#utility.yul\":3669:3695   */\n      swap1\n      pop\n        /* \"#utility.yul\":3705:3776   */\n      tag_164\n        /* \"#utility.yul\":3773:3774   */\n      0x00\n        /* \"#utility.yul\":3762:3771   */\n      dup4\n        /* \"#utility.yul\":3758:3775   */\n      add\n        /* \"#utility.yul\":3749:3755   */\n      dup5\n        /* \"#utility.yul\":3705:3776   */\n      tag_100\n      jump\t// in\n    tag_164:\n        /* \"#utility.yul\":3561:3783   */\n      swap3\n      swap2\n      pop\n      pop\n      jump\t// out\n        /* \"#utility.yul\":3789:4118   */\n    tag_25:\n        /* \"#utility.yul\":3848:3854   */\n      0x00\n        /* \"#utility.yul\":3897:3899   */\n      0x20\n        /* \"#utility.yul\":3885:3894   */\n      dup3\n        /* \"#utility.yul\":3876:3883   */\n      dup5\n        /* \"#utility.yul\":3872:3895   */\n      sub\n        /* \"#utility.yul\":3868:3900   */\n      slt\n        /* \"#utility.yul\":3865:3984   */\n      iszero\n      tag_166\n      jumpi\n        /* \"#utility.yul\":3903:3982   */\n      tag_167\n      tag_90\n      jump\t// in\n    tag_167:\n        /* \"#utility.yul\":3865:3984   */\n    tag_166:\n        /* \"#utility.yul\":4023:4024   */\n      0x00\n        /* \"#utility.yul\":4048:4101   */\n      tag_168\n        /* \"#utility.yul\":4093:4100   */\n      dup5\n        /* \"#utility.yul\":4084:4090   */\n      dup3\n        /* \"#utility.yul\":4073:4082   */\n      dup6\n        /* \"#utility.yul\":4069:4091   */\n      add\n        /* \"#utility.yul\":4048:4101   */\n      tag_94\n      jump\t// in\n    tag_168:\n        /* \"#utility.yul\":4038:4101   */\n      swap2\n      pop\n        /* \"#utility.yul\":3994:4111   */\n      pop\n        /* \"#utility.yul\":3789:4118   */\n      swap3\n      swap2\n      pop\n      pop\n      jump\t// out\n        /* \"#utility.yul\":4124:5172   */\n    tag_28:\n        /* \"#utility.yul\":4417:4421   */\n      0x00\n        /* \"#utility.yul\":4455:4458   */\n      0xc0\n        /* \"#utility.yul\":4444:4453   */\n      dup3\n        /* \"#utility.yul\":4440:4459   */\n      add\n        /* \"#utility.yul\":4432:4459   */\n      swap1\n      pop\n        /* \"#utility.yul\":4469:4540   */\n      tag_170\n        /* \"#utility.yul\":4537:4538   */\n      0x00\n        /* \"#utility.yul\":4526:4535   */\n      dup4\n        /* \"#utility.yul\":4522:4539   */\n      add\n        /* \"#utility.yul\":4513:4519   */\n      dup10\n        /* \"#utility.yul\":4469:4540   */\n      tag_100\n      jump\t// in\n    tag_170:\n        /* \"#utility.yul\":4587:4596   */\n      dup2\n        /* \"#utility.yul\":4581:4585   */\n      dup2\n        /* \"#utility.yul\":4577:4597   */\n      sub\n        /* \"#utility.yul\":4572:4574   */\n      0x20\n        /* \"#utility.yul\":4561:4570   */\n      dup4\n        /* \"#utility.yul\":4557:4575   */\n      add\n        /* \"#utility.yul\":4550:4598   */\n      mstore\n        /* \"#utility.yul\":4615:4693   */\n      tag_171\n        /* \"#utility.yul\":4688:4692   */\n      dup2\n        /* \"#utility.yul\":4679:4685   */\n      dup9\n        /* \"#utility.yul\":4615:4693   */\n      tag_99\n      jump\t// in\n    tag_171:\n        /* \"#utility.yul\":4607:4693   */\n      swap1\n      pop\n        /* \"#utility.yul\":4703:4775   */\n      tag_172\n        /* \"#utility.yul\":4771:4773   */\n      0x40\n        /* \"#utility.yul\":4760:4769   */\n      dup4\n        /* \"#utility.yul\":4756:4774   */\n      add\n        /* \"#utility.yul\":4747:4753   */\n      dup8\n        /* \"#utility.yul\":4703:4775   */\n      tag_100\n      jump\t// in\n    tag_172:\n        /* \"#utility.yul\":4785:4857   */\n      tag_173\n        /* \"#utility.yul\":4853:4855   */\n      0x60\n        /* \"#utility.yul\":4842:4851   */\n      dup4\n        /* \"#utility.yul\":4838:4856   */\n      add\n        /* \"#utility.yul\":4829:4835   */\n      dup7\n        /* \"#utility.yul\":4785:4857   */\n      tag_100\n      jump\t// in\n    tag_173:\n        /* \"#utility.yul\":4905:4914   */\n      dup2\n        /* \"#utility.yul\":4899:4903   */\n      dup2\n        /* \"#utility.yul\":4895:4915   */\n      sub\n        /* \"#utility.yul\":4889:4892   */\n      0x80\n        /* \"#utility.yul\":4878:4887   */\n      dup4\n        /* \"#utility.yul\":4874:4893   */\n      add\n        /* \"#utility.yul\":4867:4916   */\n      mstore\n        /* \"#utility.yul\":4933:5011   */\n      tag_174\n        /* \"#utility.yul\":5006:5010   */\n      dup2\n        /* \"#utility.yul\":4997:5003   */\n      dup6\n        /* \"#utility.yul\":4933:5011   */\n      tag_99\n      jump\t// in\n    tag_174:\n        /* \"#utility.yul\":4925:5011   */\n      swap1\n      pop\n        /* \"#utility.yul\":5059:5068   */\n      dup2\n        /* \"#utility.yul\":5053:5057   */\n      dup2\n        /* \"#utility.yul\":5049:5069   */\n      sub\n        /* \"#utility.yul\":5043:5046   */\n      0xa0\n        /* \"#utility.yul\":5032:5041   */\n      dup4\n        /* \"#utility.yul\":5028:5047   */\n      add\n        /* \"#utility.yul\":5021:5070   */\n      mstore\n        /* \"#utility.yul\":5087:5165   */\n      tag_175\n        /* \"#utility.yul\":5160:5164   */\n      dup2\n        /* \"#utility.yul\":5151:5157   */\n      dup5\n        /* \"#utility.yul\":5087:5165   */\n      tag_99\n      jump\t// in\n    tag_175:\n        /* \"#utility.yul\":5079:5165   */\n      swap1\n      pop\n        /* \"#utility.yul\":4124:5172   */\n      swap8\n      swap7\n      pop\n      pop\n      pop\n      pop\n      pop\n      pop\n      pop\n      jump\t// out\n        /* \"#utility.yul\":5178:5295   */\n    tag_101:\n        /* \"#utility.yul\":5287:5288   */\n      0x00\n        /* \"#utility.yul\":5284:5285   */\n      0x00\n        /* \"#utility.yul\":5277:5289   */\n      revert\n        /* \"#utility.yul\":5301:5418   */\n    tag_102:\n        /* \"#utility.yul\":5410:5411   */\n      0x00\n        /* \"#utility.yul\":5407:5408   */\n      0x00\n        /* \"#utility.yul\":5400:5412   */\n      revert\n        /* \"#utility.yul\":5424:5604   */\n    tag_103:\n        /* \"#utility.yul\":5472:5549   */\n      0x4e487b7100000000000000000000000000000000000000000000000000000000\n        /* \"#utility.yul\":5469:5470   */\n      0x00\n        /* \"#utility.yul\":5462:5550   */\n      mstore\n        /* \"#utility.yul\":5569:5573   */\n      0x41\n        /* \"#utility.yul\":5566:5567   */\n      0x04\n        /* \"#utility.yul\":5559:5574   */\n      mstore\n        /* \"#utility.yul\":5593:5597   */\n      0x24\n        /* \"#utility.yul\":5590:5591   */\n      0x00\n        /* \"#utility.yul\":5583:5598   */\n      revert\n        /* \"#utility.yul\":5610:5891   */\n    tag_104:\n        /* \"#utility.yul\":5693:5720   */\n      tag_180\n        /* \"#utility.yul\":5715:5719   */\n      dup3\n        /* \"#utility.yul\":5693:5720   */\n      tag_98\n      jump\t// in\n    tag_180:\n        /* \"#utility.yul\":5685:5691   */\n      dup2\n        /* \"#utility.yul\":5681:5721   */\n      add\n        /* \"#utility.yul\":5823:5829   */\n      dup2\n        /* \"#utility.yul\":5811:5821   */\n      dup2\n        /* \"#utility.yul\":5808:5830   */\n      lt\n        /* \"#utility.yul\":5787:5805   */\n      0xffffffffffffffff\n        /* \"#utility.yul\":5775:5785   */\n      dup3\n        /* \"#utility.yul\":5772:5806   */\n      gt\n        /* \"#utility.yul\":5769:5831   */\n      or\n        /* \"#utility.yul\":5766:5854   */\n      iszero\n      tag_181\n      jumpi\n        /* \"#utility.yul\":5834:5852   */\n      tag_182\n      tag_103\n      jump\t// in\n    tag_182:\n        /* \"#utility.yul\":5766:5854   */\n    tag_181:\n        /* \"#utility.yul\":5874:5884   */\n      dup1\n        /* \"#utility.yul\":5870:5872   */\n      0x40\n        /* \"#utility.yul\":5863:5885   */\n      mstore\n        /* \"#utility.yul\":5653:5891   */\n      pop\n        /* \"#utility.yul\":5610:5891   */\n      pop\n      pop\n      jump\t// out\n        /* \"#utility.yul\":5897:6026   */\n    tag_105:\n        /* \"#utility.yul\":5931:5937   */\n      0x00\n        /* \"#utility.yul\":5958:5978   */\n      tag_184\n      tag_89\n      jump\t// in\n    tag_184:\n        /* \"#utility.yul\":5948:5978   */\n      swap1\n      pop\n        /* \"#utility.yul\":5987:6020   */\n      tag_185\n        /* \"#utility.yul\":6015:6019   */\n      dup3\n        /* \"#utility.yul\":6007:6013   */\n      dup3\n        /* \"#utility.yul\":5987:6020   */\n      tag_104\n      jump\t// in\n    tag_185:\n        /* \"#utility.yul\":5897:6026   */\n      swap2\n      swap1\n      pop\n      jump\t// out\n        /* \"#utility.yul\":6032:6340   */\n    tag_106:\n        /* \"#utility.yul\":6094:6098   */\n      0x00\n        /* \"#utility.yul\":6184:6202   */\n      0xffffffffffffffff\n        /* \"#utility.yul\":6176:6182   */\n      dup3\n        /* \"#utility.yul\":6173:6203   */\n      gt\n        /* \"#utility.yul\":6170:6226   */\n      iszero\n      tag_187\n      jumpi\n        /* \"#utility.yul\":6206:6224   */\n      tag_188\n      tag_103\n      jump\t// in\n    tag_188:\n        /* \"#utility.yul\":6170:6226   */\n    tag_187:\n        /* \"#utility.yul\":6244:6273   */\n      tag_189\n        /* \"#utility.yul\":6266:6272   */\n      dup3\n        /* \"#utility.yul\":6244:6273   */\n      tag_98\n      jump\t// in\n    tag_189:\n        /* \"#utility.yul\":6236:6273   */\n      swap1\n      pop\n        /* \"#utility.yul\":6328:6332   */\n      0x20\n        /* \"#utility.yul\":6322:6326   */\n      dup2\n        /* \"#utility.yul\":6318:6333   */\n      add\n        /* \"#utility.yul\":6310:6333   */\n      swap1\n      pop\n        /* \"#utility.yul\":6032:6340   */\n      swap2\n      swap1\n      pop\n      jump\t// out\n        /* \"#utility.yul\":6346:6494   */\n    tag_107:\n        /* \"#utility.yul\":6444:6450   */\n      dup3\n        /* \"#utility.yul\":6439:6442   */\n      dup2\n        /* \"#utility.yul\":6434:6437   */\n      dup4\n        /* \"#utility.yul\":6421:6451   */\n      calldatacopy\n        /* \"#utility.yul\":6485:6486   */\n      0x00\n        /* \"#utility.yul\":6476:6482   */\n      dup4\n        /* \"#utility.yul\":6471:6474   */\n      dup4\n        /* \"#utility.yul\":6467:6483   */\n      add\n        /* \"#utility.yul\":6460:6487   */\n      mstore\n        /* \"#utility.yul\":6346:6494   */\n      pop\n      pop\n      pop\n      jump\t// out\n        /* \"#utility.yul\":6500:6925   */\n    tag_108:\n        /* \"#utility.yul\":6578:6583   */\n      0x00\n        /* \"#utility.yul\":6603:6669   */\n      tag_192\n        /* \"#utility.yul\":6619:6668   */\n      tag_193\n        /* \"#utility.yul\":6661:6667   */\n      dup5\n        /* \"#utility.yul\":6619:6668   */\n      tag_106\n      jump\t// in\n    tag_193:\n        /* \"#utility.yul\":6603:6669   */\n      tag_105\n      jump\t// in\n    tag_192:\n        /* \"#utility.yul\":6594:6669   */\n      swap1\n      pop\n        /* \"#utility.yul\":6692:6698   */\n      dup3\n        /* \"#utility.yul\":6685:6690   */\n      dup2\n        /* \"#utility.yul\":6678:6699   */\n      mstore\n        /* \"#utility.yul\":6730:6734   */\n      0x20\n        /* \"#utility.yul\":6723:6728   */\n      dup2\n        /* \"#utility.yul\":6719:6735   */\n      add\n        /* \"#utility.yul\":6768:6771   */\n      dup5\n        /* \"#utility.yul\":6759:6765   */\n      dup5\n        /* \"#utility.yul\":6754:6757   */\n      dup5\n        /* \"#utility.yul\":6750:6766   */\n      add\n        /* \"#utility.yul\":6747:6772   */\n      gt\n        /* \"#utility.yul\":6744:6856   */\n      iszero\n      tag_194\n      jumpi\n        /* \"#utility.yul\":6775:6854   */\n      tag_195\n      tag_102\n      jump\t// in\n    tag_195:\n        /* \"#utility.yul\":6744:6856   */\n    tag_194:\n        /* \"#utility.yul\":6865:6919   */\n      tag_196\n        /* \"#utility.yul\":6912:6918   */\n      dup5\n        /* \"#utility.yul\":6907:6910   */\n      dup3\n        /* \"#utility.yul\":6902:6905   */\n      dup6\n        /* \"#utility.yul\":6865:6919   */\n      tag_107\n      jump\t// in\n    tag_196:\n        /* \"#utility.yul\":6584:6925   */\n      pop\n        /* \"#utility.yul\":6500:6925   */\n      swap4\n      swap3\n      pop\n      pop\n      pop\n      jump\t// out\n        /* \"#utility.yul\":6945:7285   */\n    tag_109:\n        /* \"#utility.yul\":7001:7006   */\n      0x00\n        /* \"#utility.yul\":7050:7053   */\n      dup3\n        /* \"#utility.yul\":7043:7047   */\n      0x1f\n        /* \"#utility.yul\":7035:7041   */\n      dup4\n        /* \"#utility.yul\":7031:7048   */\n      add\n        /* \"#utility.yul\":7027:7054   */\n      slt\n        /* \"#utility.yul\":7017:7139   */\n      tag_198\n      jumpi\n        /* \"#utility.yul\":7058:7137   */\n      tag_199\n      tag_101\n      jump\t// in\n    tag_199:\n        /* \"#utility.yul\":7017:7139   */\n    tag_198:\n        /* \"#utility.yul\":7175:7181   */\n      dup2\n        /* \"#utility.yul\":7162:7182   */\n      calldataload\n        /* \"#utility.yul\":7200:7279   */\n      tag_200\n        /* \"#utility.yul\":7275:7278   */\n      dup5\n        /* \"#utility.yul\":7267:7273   */\n      dup3\n        /* \"#utility.yul\":7260:7264   */\n      0x20\n        /* \"#utility.yul\":7252:7258   */\n      dup7\n        /* \"#utility.yul\":7248:7265   */\n      add\n        /* \"#utility.yul\":7200:7279   */\n      tag_108\n      jump\t// in\n    tag_200:\n        /* \"#utility.yul\":7191:7279   */\n      swap2\n      pop\n        /* \"#utility.yul\":7007:7285   */\n      pop\n        /* \"#utility.yul\":6945:7285   */\n      swap3\n      swap2\n      pop\n      pop\n      jump\t// out\n        /* \"#utility.yul\":7291:8742   */\n    tag_31:\n        /* \"#utility.yul\":7416:7422   */\n      0x00\n        /* \"#utility.yul\":7424:7430   */\n      0x00\n        /* \"#utility.yul\":7432:7438   */\n      0x00\n        /* \"#utility.yul\":7440:7446   */\n      0x00\n        /* \"#utility.yul\":7448:7454   */\n      0x00\n        /* \"#utility.yul\":7497:7500   */\n      0xa0\n        /* \"#utility.yul\":7485:7494   */\n      dup7\n        /* \"#utility.yul\":7476:7483   */\n      dup9\n        /* \"#utility.yul\":7472:7495   */\n      sub\n        /* \"#utility.yul\":7468:7501   */\n      slt\n        /* \"#utility.yul\":7465:7585   */\n      iszero\n      tag_202\n      jumpi\n        /* \"#utility.yul\":7504:7583   */\n      tag_203\n      tag_90\n      jump\t// in\n    tag_203:\n        /* \"#utility.yul\":7465:7585   */\n    tag_202:\n        /* \"#utility.yul\":7652:7653   */\n      0x00\n        /* \"#utility.yul\":7641:7650   */\n      dup7\n        /* \"#utility.yul\":7637:7654   */\n      add\n        /* \"#utility.yul\":7624:7655   */\n      calldataload\n        /* \"#utility.yul\":7682:7700   */\n      0xffffffffffffffff\n        /* \"#utility.yul\":7674:7680   */\n      dup2\n        /* \"#utility.yul\":7671:7701   */\n      gt\n        /* \"#utility.yul\":7668:7785   */\n      iszero\n      tag_204\n      jumpi\n        /* \"#utility.yul\":7704:7783   */\n      tag_205\n      tag_91\n      jump\t// in\n    tag_205:\n        /* \"#utility.yul\":7668:7785   */\n    tag_204:\n        /* \"#utility.yul\":7809:7872   */\n      tag_206\n        /* \"#utility.yul\":7864:7871   */\n      dup9\n        /* \"#utility.yul\":7855:7861   */\n      dup3\n        /* \"#utility.yul\":7844:7853   */\n      dup10\n        /* \"#utility.yul\":7840:7862   */\n      add\n        /* \"#utility.yul\":7809:7872   */\n      tag_109\n      jump\t// in\n    tag_206:\n        /* \"#utility.yul\":7799:7872   */\n      swap6\n      pop\n        /* \"#utility.yul\":7595:7882   */\n      pop\n        /* \"#utility.yul\":7921:7923   */\n      0x20\n        /* \"#utility.yul\":7947:8000   */\n      tag_207\n        /* \"#utility.yul\":7992:7999   */\n      dup9\n        /* \"#utility.yul\":7983:7989   */\n      dup3\n        /* \"#utility.yul\":7972:7981   */\n      dup10\n        /* \"#utility.yul\":7968:7990   */\n      add\n        /* \"#utility.yul\":7947:8000   */\n      tag_94\n      jump\t// in\n    tag_207:\n        /* \"#utility.yul\":7937:8000   */\n      swap5\n      pop\n        /* \"#utility.yul\":7892:8010   */\n      pop\n        /* \"#utility.yul\":8049:8051   */\n      0x40\n        /* \"#utility.yul\":8075:8128   */\n      tag_208\n        /* \"#utility.yul\":8120:8127   */\n      dup9\n        /* \"#utility.yul\":8111:8117   */\n      dup3\n        /* \"#utility.yul\":8100:8109   */\n      dup10\n        /* \"#utility.yul\":8096:8118   */\n      add\n        /* \"#utility.yul\":8075:8128   */\n      tag_94\n      jump\t// in\n    tag_208:\n        /* \"#utility.yul\":8065:8128   */\n      swap4\n      pop\n        /* \"#utility.yul\":8020:8138   */\n      pop\n        /* \"#utility.yul\":8205:8207   */\n      0x60\n        /* \"#utility.yul\":8194:8203   */\n      dup7\n        /* \"#utility.yul\":8190:8208   */\n      add\n        /* \"#utility.yul\":8177:8209   */\n      calldataload\n        /* \"#utility.yul\":8236:8254   */\n      0xffffffffffffffff\n        /* \"#utility.yul\":8228:8234   */\n      dup2\n        /* \"#utility.yul\":8225:8255   */\n      gt\n        /* \"#utility.yul\":8222:8339   */\n      iszero\n      tag_209\n      jumpi\n        /* \"#utility.yul\":8258:8337   */\n      tag_210\n      tag_91\n      jump\t// in\n    tag_210:\n        /* \"#utility.yul\":8222:8339   */\n    tag_209:\n        /* \"#utility.yul\":8363:8426   */\n      tag_211\n        /* \"#utility.yul\":8418:8425   */\n      dup9\n        /* \"#utility.yul\":8409:8415   */\n      dup3\n        /* \"#utility.yul\":8398:8407   */\n      dup10\n        /* \"#utility.yul\":8394:8416   */\n      add\n        /* \"#utility.yul\":8363:8426   */\n      tag_109\n      jump\t// in\n    tag_211:\n        /* \"#utility.yul\":8353:8426   */\n      swap3\n      pop\n        /* \"#utility.yul\":8148:8436   */\n      pop\n        /* \"#utility.yul\":8503:8506   */\n      0x80\n        /* \"#utility.yul\":8492:8501   */\n      dup7\n        /* \"#utility.yul\":8488:8507   */\n      add\n        /* \"#utility.yul\":8475:8508   */\n      calldataload\n        /* \"#utility.yul\":8535:8553   */\n      0xffffffffffffffff\n        /* \"#utility.yul\":8527:8533   */\n      dup2\n        /* \"#utility.yul\":8524:8554   */\n      gt\n        /* \"#utility.yul\":8521:8638   */\n      iszero\n      tag_212\n      jumpi\n        /* \"#utility.yul\":8557:8636   */\n      tag_213\n      tag_91\n      jump\t// in\n    tag_213:\n        /* \"#utility.yul\":8521:8638   */\n    tag_212:\n        /* \"#utility.yul\":8662:8725   */\n      tag_214\n        /* \"#utility.yul\":8717:8724   */\n      dup9\n        /* \"#utility.yul\":8708:8714   */\n      dup3\n        /* \"#utility.yul\":8697:8706   */\n      dup10\n        /* \"#utility.yul\":8693:8715   */\n      add\n        /* \"#utility.yul\":8662:8725   */\n      tag_109\n      jump\t// in\n    tag_214:\n        /* \"#utility.yul\":8652:8725   */\n      swap2\n      pop\n        /* \"#utility.yul\":8446:8735   */\n      pop\n        /* \"#utility.yul\":7291:8742   */\n      swap3\n      swap6\n      pop\n      swap3\n      swap6\n      swap1\n      swap4\n      pop\n      jump\t// out\n        /* \"#utility.yul\":8748:8928   */\n    tag_110:\n        /* \"#utility.yul\":8796:8873   */\n      0x4e487b7100000000000000000000000000000000000000000000000000000000\n        /* \"#utility.yul\":8793:8794   */\n      0x00\n        /* \"#utility.yul\":8786:8874   */\n      mstore\n        /* \"#utility.yul\":8893:8897   */\n      0x22\n        /* \"#utility.yul\":8890:8891   */\n      0x04\n        /* \"#utility.yul\":8883:8898   */\n      mstore\n        /* \"#utility.yul\":8917:8921   */\n      0x24\n        /* \"#utility.yul\":8914:8915   */\n      0x00\n        /* \"#utility.yul\":8907:8922   */\n      revert\n        /* \"#utility.yul\":8934:9254   */\n    tag_36:\n        /* \"#utility.yul\":8978:8984   */\n      0x00\n        /* \"#utility.yul\":9015:9016   */\n      0x02\n        /* \"#utility.yul\":9009:9013   */\n      dup3\n        /* \"#utility.yul\":9005:9017   */\n      div\n        /* \"#utility.yul\":8995:9017   */\n      swap1\n      pop\n        /* \"#utility.yul\":9062:9063   */\n      0x01\n        /* \"#utility.yul\":9056:9060   */\n      dup3\n        /* \"#utility.yul\":9052:9064   */\n      and\n        /* \"#utility.yul\":9083:9101   */\n      dup1\n        /* \"#utility.yul\":9073:9154   */\n      tag_217\n      jumpi\n        /* \"#utility.yul\":9139:9143   */\n      0x7f\n        /* \"#utility.yul\":9131:9137   */\n      dup3\n        /* \"#utility.yul\":9127:9144   */\n      and\n        /* \"#utility.yul\":9117:9144   */\n      swap2\n      pop\n        /* \"#utility.yul\":9073:9154   */\n    tag_217:\n        /* \"#utility.yul\":9201:9203   */\n      0x20\n        /* \"#utility.yul\":9193:9199   */\n      dup3\n        /* \"#utility.yul\":9190:9204   */\n      lt\n        /* \"#utility.yul\":9170:9188   */\n      dup2\n        /* \"#utility.yul\":9167:9205   */\n      sub\n        /* \"#utility.yul\":9164:9248   */\n      tag_218\n      jumpi\n        /* \"#utility.yul\":9220:9238   */\n      tag_219\n      tag_110\n      jump\t// in\n    tag_219:\n        /* \"#utility.yul\":9164:9248   */\n    tag_218:\n        /* \"#utility.yul\":8985:9254   */\n      pop\n        /* \"#utility.yul\":8934:9254   */\n      swap2\n      swap1\n      pop\n      jump\t// out\n        /* \"#utility.yul\":9260:9401   */\n    tag_111:\n        /* \"#utility.yul\":9309:9313   */\n      0x00\n        /* \"#utility.yul\":9332:9335   */\n      dup2\n        /* \"#utility.yul\":9324:9335   */\n      swap1\n      pop\n        /* \"#utility.yul\":9355:9358   */\n      dup2\n        /* \"#utility.yul\":9352:9353   */\n      0x00\n        /* \"#utility.yul\":9345:9359   */\n      mstore\n        /* \"#utility.yul\":9389:9393   */\n      0x20\n        /* \"#utility.yul\":9386:9387   */\n      0x00\n        /* \"#utility.yul\":9376:9394   */\n      keccak256\n        /* \"#utility.yul\":9368:9394   */\n      swap1\n      pop\n        /* \"#utility.yul\":9260:9401   */\n      swap2\n      swap1\n      pop\n      jump\t// out\n        /* \"#utility.yul\":9407:9500   */\n    tag_112:\n        /* \"#utility.yul\":9444:9450   */\n      0x00\n        /* \"#utility.yul\":9491:9493   */\n      0x20\n        /* \"#utility.yul\":9486:9488   */\n      0x1f\n        /* \"#utility.yul\":9479:9484   */\n      dup4\n        /* \"#utility.yul\":9475:9489   */\n      add\n        /* \"#utility.yul\":9471:9494   */\n      div\n        /* \"#utility.yul\":9461:9494   */\n      swap1\n      pop\n        /* \"#utility.yul\":9407:9500   */\n      swap2\n      swap1\n      pop\n      jump\t// out\n        /* \"#utility.yul\":9506:9613   */\n    tag_113:\n        /* \"#utility.yul\":9550:9558   */\n      0x00\n        /* \"#utility.yul\":9600:9605   */\n      dup3\n        /* \"#utility.yul\":9594:9598   */\n      dup3\n        /* \"#utility.yul\":9590:9606   */\n      shl\n        /* \"#utility.yul\":9569:9606   */\n      swap1\n      pop\n        /* \"#utility.yul\":9506:9613   */\n      swap3\n      swap2\n      pop\n      pop\n      jump\t// out\n        /* \"#utility.yul\":9619:10012   */\n    tag_114:\n        /* \"#utility.yul\":9688:9694   */\n      0x00\n        /* \"#utility.yul\":9738:9739   */\n      0x08\n        /* \"#utility.yul\":9726:9736   */\n      dup4\n        /* \"#utility.yul\":9722:9740   */\n      mul\n        /* \"#utility.yul\":9761:9858   */\n      tag_224\n        /* \"#utility.yul\":9791:9857   */\n      0xffffffffffffffffffffffffffffffffffffffffffffffffffffffffffffffff\n        /* \"#utility.yul\":9780:9789   */\n      dup3\n        /* \"#utility.yul\":9761:9858   */\n      tag_113\n      jump\t// in\n    tag_224:\n        /* \"#utility.yul\":9879:9918   */\n      tag_225\n        /* \"#utility.yul\":9909:9917   */\n      dup7\n        /* \"#utility.yul\":9898:9907   */\n      dup4\n        /* \"#utility.yul\":9879:9918   */\n      tag_113\n      jump\t// in\n    tag_225:\n        /* \"#utility.yul\":9867:9918   */\n      swap6\n      pop\n        /* \"#utility.yul\":9951:9955   */\n      dup1\n        /* \"#utility.yul\":9947:9956   */\n      not\n        /* \"#utility.yul\":9940:9945   */\n      dup5\n        /* \"#utility.yul\":9936:9957   */\n      and\n        /* \"#utility.yul\":9927:9957   */\n      swap4\n      pop\n        /* \"#utility.yul\":10000:10004   */\n      dup1\n        /* \"#utility.yul\":9990:9998   */\n      dup7\n        /* \"#utility.yul\":9986:10005   */\n      and\n        /* \"#utility.yul\":9979:9984   */\n      dup5\n        /* \"#utility.yul\":9976:10006   */\n      or\n        /* \"#utility.yul\":9966:10006   */\n      swap3\n      pop\n        /* \"#utility.yul\":9695:10012   */\n      pop\n      pop\n        /* \"#utility.yul\":9619:10012   */\n      swap4\n      swap3\n      pop\n      pop\n      pop\n      jump\t// out\n        /* \"#utility.yul\":10018:10078   */\n    tag_115:\n        /* \"#utility.yul\":10046:10049   */\n      0x00\n        /* \"#utility.yul\":10067:10072   */\n      dup2\n        /* \"#utility.yul\":10060:10072   */\n      swap1\n      pop\n        /* \"#utility.yul\":10018:10078   */\n      swap2\n      swap1\n      pop\n      jump\t// out\n        /* \"#utility.yul\":10084:10226   */\n    tag_116:\n        /* \"#utility.yul\":10134:10143   */\n      0x00\n        /* \"#utility.yul\":10167:10220   */\n      tag_228\n        /* \"#utility.yul\":10185:10219   */\n      tag_229\n        /* \"#utility.yul\":10194:10218   */\n      tag_230\n        /* \"#utility.yul\":10212:10217   */\n      dup5\n        /* \"#utility.yul\":10194:10218   */\n      tag_92\n      jump\t// in\n    tag_230:\n        /* \"#utility.yul\":10185:10219   */\n      tag_115\n      jump\t// in\n    tag_229:\n        /* \"#utility.yul\":10167:10220   */\n      tag_92\n      jump\t// in\n    tag_228:\n        /* \"#utility.yul\":10154:10220   */\n      swap1\n      pop\n        /* \"#utility.yul\":10084:10226   */\n      swap2\n      swap1\n      pop\n      jump\t// out\n        /* \"#utility.yul\":10232:10307   */\n    tag_117:\n        /* \"#utility.yul\":10275:10278   */\n      0x00\n        /* \"#utility.yul\":10296:10301   */\n      dup2\n        /* \"#utility.yul\":10289:10301   */\n      swap1\n      pop\n        /* \"#utility.yul\":10232:10307   */\n      swap2\n      swap1\n      pop\n      jump\t// out\n        /* \"#utility.yul\":10313:10582   */\n    tag_118:\n        /* \"#utility.yul\":10423:10462   */\n      tag_233\n        /* \"#utility.yul\":10454:10461   */\n      dup4\n        /* \"#utility.yul\":10423:10462   */\n      tag_116\n      jump\t// in\n    tag_233:\n        /* \"#utility.yul\":10484:10575   */\n      tag_234\n        /* \"#utility.yul\":10533:10574   */\n      tag_235\n        /* \"#utility.yul\":10557:10573   */\n      dup3\n        /* \"#utility.yul\":10533:10574   */\n      tag_117\n      jump\t// in\n    tag_235:\n        /* \"#utility.yul\":10525:10531   */\n      dup5\n        /* \"#utility.yul\":10518:10522   */\n      dup5\n        /* \"#utility.yul\":10512:10523   */\n      sload\n        /* \"#utility.yul\":10484:10575   */\n      tag_114\n      jump\t// in\n    tag_234:\n        /* \"#utility.yul\":10478:10482   */\n      dup3\n        /* \"#utility.yul\":10471:10576   */\n      sstore\n        /* \"#utility.yul\":10389:10582   */\n      pop\n        /* \"#utility.yul\":10313:10582   */\n      pop\n      pop\n      pop\n      jump\t// out\n        /* \"#utility.yul\":10588:10661   */\n    tag_119:\n        /* \"#utility.yul\":10633:10636   */\n      0x00\n        /* \"#utility.yul\":10654:10655   */\n      0x00\n        /* \"#utility.yul\":10647:10655   */\n      swap1\n      pop\n        /* \"#utility.yul\":10588:10661   */\n      swap1\n      jump\t// out\n        /* \"#utility.yul\":10667:10856   */\n    tag_120:\n        /* \"#utility.yul\":10744:10776   */\n      tag_238\n      tag_119\n      jump\t// in\n    tag_238:\n        /* \"#utility.yul\":10785:10850   */\n      tag_239\n        /* \"#utility.yul\":10843:10849   */\n      dup2\n        /* \"#utility.yul\":10835:10841   */\n      dup5\n        /* \"#utility.yul\":10829:10833   */\n      dup5\n        /* \"#utility.yul\":10785:10850   */\n      tag_118\n      jump\t// in\n    tag_239:\n        /* \"#utility.yul\":10720:10856   */\n      pop\n        /* \"#utility.yul\":10667:10856   */\n      pop\n      pop\n      jump\t// out\n        /* \"#utility.yul\":10862:11048   */\n    tag_121:\n        /* \"#utility.yul\":10922:11042   */\n    tag_241:\n        /* \"#utility.yul\":10939:10942   */\n      dup2\n        /* \"#utility.yul\":10932:10937   */\n      dup2\n        /* \"#utility.yul\":10929:10943   */\n      lt\n        /* \"#utility.yul\":10922:11042   */\n      iszero\n      tag_243\n      jumpi\n        /* \"#utility.yul\":10993:11032   */\n      tag_244\n        /* \"#utility.yul\":11030:11031   */\n      0x00\n        /* \"#utility.yul\":11023:11028   */\n      dup3\n        /* \"#utility.yul\":10993:11032   */\n      tag_120\n      jump\t// in\n    tag_244:\n        /* \"#utility.yul\":10966:10967   */\n      0x01\n        /* \"#utility.yul\":10959:10964   */\n      dup2\n        /* \"#utility.yul\":10955:10968   */\n      add\n        /* \"#utility.yul\":10946:10968   */\n      swap1\n      pop\n        /* \"#utility.yul\":10922:11042   */\n      jump(tag_241)\n    tag_243:\n        /* \"#utility.yul\":10862:11048   */\n      pop\n      pop\n      jump\t// out\n        /* \"#utility.yul\":11054:11597   */\n    tag_122:\n        /* \"#utility.yul\":11155:11157   */\n      0x1f\n        /* \"#utility.yul\":11150:11153   */\n      dup3\n        /* \"#utility.yul\":11147:11158   */\n      gt\n        /* \"#utility.yul\":11144:11590   */\n      iszero\n      tag_246\n      jumpi\n        /* \"#utility.yul\":11189:11227   */\n      tag_247\n        /* \"#utility.yul\":11221:11226   */\n      dup2\n        /* \"#utility.yul\":11189:11227   */\n      tag_111\n      jump\t// in\n    tag_247:\n        /* \"#utility.yul\":11273:11302   */\n      tag_248\n        /* \"#utility.yul\":11291:11301   */\n      dup5\n        /* \"#utility.yul\":11273:11302   */\n      tag_112\n      jump\t// in\n    tag_248:\n        /* \"#utility.yul\":11263:11271   */\n      dup2\n        /* \"#utility.yul\":11259:11303   */\n      add\n        /* \"#utility.yul\":11456:11458   */\n      0x20\n        /* \"#utility.yul\":11444:11454   */\n      dup6\n        /* \"#utility.yul\":11441:11459   */\n      lt\n        /* \"#utility.yul\":11438:11487   */\n      iszero\n      tag_249\n      jumpi\n        /* \"#utility.yul\":11477:11485   */\n      dup2\n        /* \"#utility.yul\":11462:11485   */\n      swap1\n      pop\n        /* \"#utility.yul\":11438:11487   */\n    tag_249:\n        /* \"#utility.yul\":11500:11580   */\n      tag_250\n        /* \"#utility.yul\":11556:11578   */\n      tag_251\n        /* \"#utility.yul\":11574:11577   */\n      dup6\n        /* \"#utility.yul\":11556:11578   */\n      tag_112\n      jump\t// in\n    tag_251:\n        /* \"#utility.yul\":11546:11554   */\n      dup4\n        /* \"#utility.yul\":11542:11579   */\n      add\n        /* \"#utility.yul\":11529:11540   */\n      dup3\n        /* \"#utility.yul\":11500:11580   */\n      tag_121\n      jump\t// in\n    tag_250:\n        /* \"#utility.yul\":11159:11590   */\n      pop\n      pop\n        /* \"#utility.yul\":11144:11590   */\n    tag_246:\n        /* \"#utility.yul\":11054:11597   */\n      pop\n      pop\n      pop\n      jump\t// out\n        /* \"#utility.yul\":11603:11720   */\n    tag_123:\n        /* \"#utility.yul\":11657:11665   */\n      0x00\n        /* \"#utility.yul\":11707:11712   */\n      dup3\n        /* \"#utility.yul\":11701:11705   */\n      dup3\n        /* \"#utility.yul\":11697:11713   */\n      shr\n        /* \"#utility.yul\":11676:11713   */\n      swap1\n      pop\n        /* \"#utility.yul\":11603:11720   */\n      swap3\n      swap2\n      pop\n      pop\n      jump\t// out\n        /* \"#utility.yul\":11726:11895   */\n    tag_124:\n        /* \"#utility.yul\":11770:11776   */\n      0x00\n        /* \"#utility.yul\":11803:11854   */\n      tag_254\n        /* \"#utility.yul\":11851:11852   */\n      0x00\n        /* \"#utility.yul\":11847:11853   */\n      not\n        /* \"#utility.yul\":11839:11844   */\n      dup5\n        /* \"#utility.yul\":11836:11837   */\n      0x08\n        /* \"#utility.yul\":11832:11845   */\n      mul\n        /* \"#utility.yul\":11803:11854   */\n      tag_123\n      jump\t// in\n    tag_254:\n        /* \"#utility.yul\":11799:11855   */\n      not\n        /* \"#utility.yul\":11884:11888   */\n      dup1\n        /* \"#utility.yul\":11878:11882   */\n      dup4\n        /* \"#utility.yul\":11874:11889   */\n      and\n        /* \"#utility.yul\":11864:11889   */\n      swap2\n      pop\n        /* \"#utility.yul\":11777:11895   */\n      pop\n        /* \"#utility.yul\":11726:11895   */\n      swap3\n      swap2\n      pop\n      pop\n      jump\t// out\n        /* \"#utility.yul\":11900:12195   */\n    tag_125:\n        /* \"#utility.yul\":11976:11980   */\n      0x00\n        /* \"#utility.yul\":12122:12151   */\n      tag_256\n        /* \"#utility.yul\":12147:12150   */\n      dup4\n        /* \"#utility.yul\":12141:12145   */\n      dup4\n        /* \"#utility.yul\":12122:12151   */\n      tag_124\n      jump\t// in\n    tag_256:\n        /* \"#utility.yul\":12114:12151   */\n      swap2\n      pop\n        /* \"#utility.yul\":12184:12187   */\n      dup3\n        /* \"#utility.yul\":12181:12182   */\n      0x02\n        /* \"#utility.yul\":12177:12188   */\n      mul\n        /* \"#utility.yul\":12171:12175   */\n      dup3\n        /* \"#utility.yul\":12168:12189   */\n      or\n        /* \"#utility.yul\":12160:12189   */\n      swap1\n      pop\n        /* \"#utility.yul\":11900:12195   */\n      swap3\n      swap2\n      pop\n      pop\n      jump\t// out\n        /* \"#utility.yul\":12200:13595   */\n    tag_80:\n        /* \"#utility.yul\":12317:12354   */\n      tag_258\n        /* \"#utility.yul\":12350:12353   */\n      dup3\n        /* \"#utility.yul\":12317:12354   */\n      tag_95\n      jump\t// in\n    tag_258:\n        /* \"#utility.yul\":12419:12437   */\n      0xffffffffffffffff\n        /* \"#utility.yul\":12411:12417   */\n      dup2\n        /* \"#utility.yul\":12408:12438   */\n      gt\n        /* \"#utility.yul\":12405:12461   */\n      iszero\n      tag_259\n      jumpi\n        /* \"#utility.yul\":12441:12459   */\n      tag_260\n      tag_103\n      jump\t// in\n    tag_260:\n        /* \"#utility.yul\":12405:12461   */\n    tag_259:\n        /* \"#utility.yul\":12485:12523   */\n      tag_261\n        /* \"#utility.yul\":12517:12521   */\n      dup3\n        /* \"#utility.yul\":12511:12522   */\n      sload\n        /* \"#utility.yul\":12485:12523   */\n      tag_36\n      jump\t// in\n    tag_261:\n        /* \"#utility.yul\":12570:12637   */\n      tag_262\n        /* \"#utility.yul\":12630:12636   */\n      dup3\n        /* \"#utility.yul\":12622:12628   */\n      dup3\n        /* \"#utility.yul\":12616:12620   */\n      dup6\n        /* \"#utility.yul\":12570:12637   */\n      tag_122\n      jump\t// in\n    tag_262:\n        /* \"#utility.yul\":12664:12665   */\n      0x00\n        /* \"#utility.yul\":12688:12692   */\n      0x20\n        /* \"#utility.yul\":12675:12692   */\n      swap1\n      pop\n        /* \"#utility.yul\":12720:12722   */\n      0x1f\n        /* \"#utility.yul\":12712:12718   */\n      dup4\n        /* \"#utility.yul\":12709:12723   */\n      gt\n        /* \"#utility.yul\":12737:12738   */\n      0x01\n        /* \"#utility.yul\":12732:13350   */\n      dup2\n      eq\n      tag_264\n      jumpi\n        /* \"#utility.yul\":13394:13395   */\n      0x00\n        /* \"#utility.yul\":13411:13417   */\n      dup5\n        /* \"#utility.yul\":13408:13485   */\n      iszero\n      tag_265\n      jumpi\n        /* \"#utility.yul\":13460:13469   */\n      dup3\n        /* \"#utility.yul\":13455:13458   */\n      dup8\n        /* \"#utility.yul\":13451:13470   */\n      add\n        /* \"#utility.yul\":13445:13471   */\n      mload\n        /* \"#utility.yul\":13436:13471   */\n      swap1\n      pop\n        /* \"#utility.yul\":13408:13485   */\n    tag_265:\n        /* \"#utility.yul\":13511:13578   */\n      tag_266\n        /* \"#utility.yul\":13571:13577   */\n      dup6\n        /* \"#utility.yul\":13564:13569   */\n      dup3\n        /* \"#utility.yul\":13511:13578   */\n      tag_125\n      jump\t// in\n    tag_266:\n        /* \"#utility.yul\":13505:13509   */\n      dup7\n        /* \"#utility.yul\":13498:13579   */\n      sstore\n        /* \"#utility.yul\":13367:13589   */\n      pop\n        /* \"#utility.yul\":12702:13589   */\n      jump(tag_263)\n        /* \"#utility.yul\":12732:13350   */\n    tag_264:\n        /* \"#utility.yul\":12784:12788   */\n      0x1f\n        /* \"#utility.yul\":12780:12789   */\n      not\n        /* \"#utility.yul\":12772:12778   */\n      dup5\n        /* \"#utility.yul\":12768:12790   */\n      and\n        /* \"#utility.yul\":12818:12855   */\n      tag_267\n        /* \"#utility.yul\":12850:12854   */\n      dup7\n        /* \"#utility.yul\":12818:12855   */\n      tag_111\n      jump\t// in\n    tag_267:\n        /* \"#utility.yul\":12877:12878   */\n      0x00\n        /* \"#utility.yul\":12891:13099   */\n    tag_268:\n        /* \"#utility.yul\":12905:12912   */\n      dup3\n        /* \"#utility.yul\":12902:12903   */\n      dup2\n        /* \"#utility.yul\":12899:12913   */\n      lt\n        /* \"#utility.yul\":12891:13099   */\n      iszero\n      tag_270\n      jumpi\n        /* \"#utility.yul\":12984:12993   */\n      dup5\n        /* \"#utility.yul\":12979:12982   */\n      dup10\n        /* \"#utility.yul\":12975:12994   */\n      add\n        /* \"#utility.yul\":12969:12995   */\n      mload\n        /* \"#utility.yul\":12961:12967   */\n      dup3\n        /* \"#utility.yul\":12954:12996   */\n      sstore\n        /* \"#utility.yul\":13035:13036   */\n      0x01\n        /* \"#utility.yul\":13027:13033   */\n      dup3\n        /* \"#utility.yul\":13023:13037   */\n      add\n        /* \"#utility.yul\":13013:13037   */\n      swap2\n      pop\n        /* \"#utility.yul\":13082:13084   */\n      0x20\n        /* \"#utility.yul\":13071:13080   */\n      dup6\n        /* \"#utility.yul\":13067:13085   */\n      add\n        /* \"#utility.yul\":13054:13085   */\n      swap5\n      pop\n        /* \"#utility.yul\":12928:12932   */\n      0x20\n        /* \"#utility.yul\":12925:12926   */\n      dup2\n        /* \"#utility.yul\":12921:12933   */\n      add\n        /* \"#utility.yul\":12916:12933   */\n      swap1\n      pop\n        /* \"#utility.yul\":12891:13099   */\n      jump(tag_268)\n    tag_270:\n        /* \"#utility.yul\":13127:13133   */\n      dup7\n        /* \"#utility.yul\":13118:13125   */\n      dup4\n        /* \"#utility.yul\":13115:13134   */\n      lt\n        /* \"#utility.yul\":13112:13291   */\n      iszero\n      tag_271\n      jumpi\n        /* \"#utility.yul\":13185:13194   */\n      dup5\n        /* \"#utility.yul\":13180:13183   */\n      dup10\n        /* \"#utility.yul\":13176:13195   */\n      add\n        /* \"#utility.yul\":13170:13196   */\n      mload\n        /* \"#utility.yul\":13228:13276   */\n      tag_272\n        /* \"#utility.yul\":13270:13274   */\n      0x1f\n        /* \"#utility.yul\":13262:13268   */\n      dup10\n        /* \"#utility.yul\":13258:13275   */\n      and\n        /* \"#utility.yul\":13247:13256   */\n      dup3\n        /* \"#utility.yul\":13228:13276   */\n      tag_124\n      jump\t// in\n    tag_272:\n        /* \"#utility.yul\":13220:13226   */\n      dup4\n        /* \"#utility.yul\":13213:13277   */\n      sstore\n        /* \"#utility.yul\":13135:13291   */\n      pop\n        /* \"#utility.yul\":13112:13291   */\n    tag_271:\n        /* \"#utility.yul\":13337:13338   */\n      0x01\n        /* \"#utility.yul\":13333:13334   */\n      0x02\n        /* \"#utility.yul\":13325:13331   */\n      dup9\n        /* \"#utility.yul\":13321:13335   */\n      mul\n        /* \"#utility.yul\":13317:13339   */\n      add\n        /* \"#utility.yul\":13311:13315   */\n      dup9\n        /* \"#utility.yul\":13304:13340   */\n      sstore\n        /* \"#utility.yul\":12739:13350   */\n      pop\n      pop\n      pop\n        /* \"#utility.yul\":12702:13589   */\n    tag_263:\n      pop\n        /* \"#utility.yul\":12292:13595   */\n      pop\n      pop\n      pop\n        /* \"#utility.yul\":12200:13595   */\n      pop\n      pop\n      jump\t// out\n        /* \"#utility.yul\":13601:13781   */\n    tag_126:\n        /* \"#utility.yul\":13649:13726   */\n      0x4e487b7100000000000000000000000000000000000000000000000000000000\n        /* \"#utility.yul\":13646:13647   */\n      0x00\n        /* \"#utility.yul\":13639:13727   */\n      mstore\n        /* \"#utility.yul\":13746:13750   */\n      0x11\n        /* \"#utility.yul\":13743:13744   */\n      0x04\n        /* \"#utility.yul\":13736:13751   */\n      mstore\n        /* \"#utility.yul\":13770:13774   */\n      0x24\n        /* \"#utility.yul\":13767:13768   */\n      0x00\n        /* \"#utility.yul\":13760:13775   */\n      revert\n        /* \"#utility.yul\":13787:14020   */\n    tag_84:\n        /* \"#utility.yul\":13826:13829   */\n      0x00\n        /* \"#utility.yul\":13849:13873   */\n      tag_275\n        /* \"#utility.yul\":13867:13872   */\n      dup3\n        /* \"#utility.yul\":13849:13873   */\n      tag_92\n      jump\t// in\n    tag_275:\n        /* \"#utility.yul\":13840:13873   */\n      swap2\n      pop\n        /* \"#utility.yul\":13895:13961   */\n      0xffffffffffffffffffffffffffffffffffffffffffffffffffffffffffffffff\n        /* \"#utility.yul\":13888:13893   */\n      dup3\n        /* \"#utility.yul\":13885:13962   */\n      sub\n        /* \"#utility.yul\":13882:13985   */\n      tag_276\n      jumpi\n        /* \"#utility.yul\":13965:13983   */\n      tag_277\n      tag_126\n      jump\t// in\n    tag_277:\n        /* \"#utility.yul\":13882:13985   */\n    tag_276:\n        /* \"#utility.yul\":14012:14013   */\n      0x01\n        /* \"#utility.yul\":14005:14010   */\n      dup3\n        /* \"#utility.yul\":14001:14014   */\n      add\n        /* \"#utility.yul\":13994:14014   */\n      swap1\n      pop\n        /* \"#utility.yul\":13787:14020   */\n      swap2\n      swap1\n      pop\n      jump\t// out\n        /* \"#utility.yul\":14026:14220   */\n    tag_86:\n        /* \"#utility.yul\":14066:14070   */\n      0x00\n        /* \"#utility.yul\":14086:14106   */\n      tag_279\n        /* \"#utility.yul\":14104:14105   */\n      dup3\n        /* \"#utility.yul\":14086:14106   */\n      tag_92\n      jump\t// in\n    tag_279:\n        /* \"#utility.yul\":14081:14106   */\n      swap2\n      pop\n        /* \"#utility.yul\":14120:14140   */\n      tag_280\n        /* \"#utility.yul\":14138:14139   */\n      dup4\n        /* \"#utility.yul\":14120:14140   */\n      tag_92\n      jump\t// in\n    tag_280:\n        /* \"#utility.yul\":14115:14140   */\n      swap3\n      pop\n        /* \"#utility.yul\":14164:14165   */\n      dup3\n        /* \"#utility.yul\":14161:14162   */\n      dup3\n        /* \"#utility.yul\":14157:14166   */\n      sub\n        /* \"#utility.yul\":14149:14166   */\n      swap1\n      pop\n        /* \"#utility.yul\":14188:14189   */\n      dup2\n        /* \"#utility.yul\":14182:14186   */\n      dup2\n        /* \"#utility.yul\":14179:14190   */\n      gt\n        /* \"#utility.yul\":14176:14213   */\n      iszero\n      tag_281\n      jumpi\n        /* \"#utility.yul\":14193:14211   */\n      tag_282\n      tag_126\n      jump\t// in\n    tag_282:\n        /* \"#utility.yul\":14176:14213   */\n    tag_281:\n        /* \"#utility.yul\":14026:14220   */\n      swap3\n      swap2\n      pop\n      pop\n      jump\t// out\n        /* \"#utility.yul\":14226:14303   */\n    tag_127:\n        /* \"#utility.yul\":14263:14270   */\n      0x00\n        /* \"#utility.yul\":14292:14297   */\n      dup2\n        /* \"#utility.yul\":14281:14297   */\n      swap1\n      pop\n        /* \"#utility.yul\":14226:14303   */\n      swap2\n      swap1\n      pop\n      jump\t// out\n        /* \"#utility.yul\":14309:14427   */\n    tag_128:\n        /* \"#utility.yul\":14396:14420   */\n      tag_285\n        /* \"#utility.yul\":14414:14419   */\n      dup2\n        /* \"#utility.yul\":14396:14420   */\n      tag_127\n      jump\t// in\n    tag_285:\n        /* \"#utility.yul\":14391:14394   */\n      dup3\n        /* \"#utility.yul\":14384:14421   */\n      mstore\n        /* \"#utility.yul\":14309:14427   */\n      pop\n      pop\n      jump\t// out\n        /* \"#utility.yul\":14433:14875   */\n    tag_88:\n        /* \"#utility.yul\":14582:14586   */\n      0x00\n        /* \"#utility.yul\":14620:14622   */\n      0x60\n        /* \"#utility.yul\":14609:14618   */\n      dup3\n        /* \"#utility.yul\":14605:14623   */\n      add\n        /* \"#utility.yul\":14597:14623   */\n      swap1\n      pop\n        /* \"#utility.yul\":14633:14704   */\n      tag_287\n        /* \"#utility.yul\":14701:14702   */\n      0x00\n        /* \"#utility.yul\":14690:14699   */\n      dup4\n        /* \"#utility.yul\":14686:14703   */\n      add\n        /* \"#utility.yul\":14677:14683   */\n      dup7\n        /* \"#utility.yul\":14633:14704   */\n      tag_100\n      jump\t// in\n    tag_287:\n        /* \"#utility.yul\":14714:14786   */\n      tag_288\n        /* \"#utility.yul\":14782:14784   */\n      0x20\n        /* \"#utility.yul\":14771:14780   */\n      dup4\n        /* \"#utility.yul\":14767:14785   */\n      add\n        /* \"#utility.yul\":14758:14764   */\n      dup6\n        /* \"#utility.yul\":14714:14786   */\n      tag_128\n      jump\t// in\n    tag_288:\n        /* \"#utility.yul\":14796:14868   */\n      tag_289\n        /* \"#utility.yul\":14864:14866   */\n      0x40\n        /* \"#utility.yul\":14853:14862   */\n      dup4\n        /* \"#utility.yul\":14849:14867   */\n      add\n        /* \"#utility.yul\":14840:14846   */\n      dup5\n        /* \"#utility.yul\":14796:14868   */\n      tag_100\n      jump\t// in\n    tag_289:\n        /* \"#utility.yul\":14433:14875   */\n      swap5\n      swap4\n      pop\n      pop\n      pop\n      pop\n      jump\t// out\n\n    auxdata: 0xa264697066735822122040ef221f33628afaf75d23944ebe5bf1e1f9b1ec6ad485ec0c7542aefc8e536d64736f6c634300081c0033\n}\n",
				"bytecode": {
					"linkReferences": {},
					"object": "6080604052348015600e575f5ffd5b50610f528061001c5f395ff3fe608060405234801561000f575f5ffd5b5060043610610055575f3560e01c80630f53f6671461005957806328b968ba1461008b578063609e1e60146100bd5780639af76a90146100db578063c37f6a6114610110575b5f5ffd5b610073600480360381019061006e9190610763565b61012c565b60405161008293929190610820565b60405180910390f35b6100a560048036038101906100a09190610763565b610278565b6040516100b493929190610863565b60405180910390f35b6100c561044a565b6040516100d291906108ad565b60405180910390f35b6100f560048036038101906100f091906108c6565b61044f565b604051610107969594939291906108f1565b60405180910390f35b61012a60048036038101906101259190610a91565b610619565b005b6003602052815f5260405f208181548110610145575f80fd5b905f5260205f2090600302015f9150915050805f01805461016590610b89565b80601f016020809104026020016040519081016040528092919081815260200182805461019190610b89565b80156101dc5780601f106101b3576101008083540402835291602001916101dc565b820191905f5260205f20905b8154815290600101906020018083116101bf57829003601f168201915b5050505050908060010154908060020180546101f790610b89565b80601f016020809104026020016040519081016040528092919081815260200182805461022390610b89565b801561026e5780601f106102455761010080835404028352916020019161026e565b820191905f5260205f20905b81548152906001019060200180831161025157829003601f168201915b5050505050905083565b6002602052815f5260405f208181548110610291575f80fd5b905f5260205f2090600302015f9150915050805f0180546102b190610b89565b80601f01602080910402602001604051908101604052809291908181526020018280546102dd90610b89565b80156103285780601f106102ff57610100808354040283529160200191610328565b820191905f5260205f20905b81548152906001019060200180831161030b57829003601f168201915b50505050509080600101805461033d90610b89565b80601f016020809104026020016040519081016040528092919081815260200182805461036990610b89565b80156103b45780601f1061038b576101008083540402835291602001916103b4565b820191905f5260205f20905b81548152906001019060200180831161039757829003601f168201915b5050505050908060020180546103c990610b89565b80601f01602080910402602001604051908101604052809291908181526020018280546103f590610b89565b80156104405780601f1061041757610100808354040283529160200191610440565b820191905f5260205f20905b81548152906001019060200180831161042357829003601f168201915b5050505050905083565b5f5481565b6001602052805f5260405f205f91509050805f01549080600101805461047490610b89565b80601f01602080910402602001604051908101604052809291908181526020018280546104a090610b89565b80156104eb5780601f106104c2576101008083540402835291602001916104eb565b820191905f5260205f20905b8154815290600101906020018083116104ce57829003601f168201915b50505050509080600201549080600301549080600401805461050c90610b89565b80601f016020809104026020016040519081016040528092919081815260200182805461053890610b89565b80156105835780601f1061055a57610100808354040283529160200191610583565b820191905f5260205f20905b81548152906001019060200180831161056657829003601f168201915b50505050509080600501805461059890610b89565b80601f01602080910402602001604051908101604052809291908181526020018280546105c490610b89565b801561060f5780601f106105e65761010080835404028352916020019161060f565b820191905f5260205f20905b8154815290600101906020018083116105f257829003601f168201915b5050505050905086565b6040518060c001604052805f5481526020018681526020018581526020018481526020018381526020018281525060015f5f5481526020019081526020015f205f820151815f015560208201518160010190816106769190610d59565b50604082015181600201556060820151816003015560808201518160040190816106a09190610d59565b5060a08201518160050190816106b69190610d59565b509050505f5f8154809291906106cb90610e55565b91905055507f7efab20ab4c4d8c33ecd03458d6147bf7ccc1faa40dfeedd6f2d7a7cf28a12d73a6001436106ff9190610e9c565b404360405161071093929190610ee7565b60405180910390a15050505050565b5f604051905090565b5f5ffd5b5f5ffd5b5f819050919050565b61074281610730565b811461074c575f5ffd5b50565b5f8135905061075d81610739565b92915050565b5f5f6040838503121561077957610778610728565b5b5f6107868582860161074f565b92505060206107978582860161074f565b9150509250929050565b5f81519050919050565b5f82825260208201905092915050565b8281835e5f83830152505050565b5f601f19601f8301169050919050565b5f6107e3826107a1565b6107ed81856107ab565b93506107fd8185602086016107bb565b610806816107c9565b840191505092915050565b61081a81610730565b82525050565b5f6060820190508181035f83015261083881866107d9565b90506108476020830185610811565b818103604083015261085981846107d9565b9050949350505050565b5f6060820190508181035f83015261087b81866107d9565b9050818103602083015261088f81856107d9565b905081810360408301526108a381846107d9565b9050949350505050565b5f6020820190506108c05f830184610811565b92915050565b5f602082840312156108db576108da610728565b5b5f6108e88482850161074f565b91505092915050565b5f60c0820190506109045f830189610811565b818103602083015261091681886107d9565b90506109256040830187610811565b6109326060830186610811565b818103608083015261094481856107d9565b905081810360a083015261095881846107d9565b9050979650505050505050565b5f5ffd5b5f5ffd5b7f4e487b71000000000000000000000000000000000000000000000000000000005f52604160045260245ffd5b6109a3826107c9565b810181811067ffffffffffffffff821117156109c2576109c161096d565b5b80604052505050565b5f6109d461071f565b90506109e0828261099a565b919050565b5f67ffffffffffffffff8211156109ff576109fe61096d565b5b610a08826107c9565b9050602081019050919050565b828183375f83830152505050565b5f610a35610a30846109e5565b6109cb565b905082815260208101848484011115610a5157610a50610969565b5b610a5c848285610a15565b509392505050565b5f82601f830112610a7857610a77610965565b5b8135610a88848260208601610a23565b91505092915050565b5f5f5f5f5f60a08688031215610aaa57610aa9610728565b5b5f86013567ffffffffffffffff811115610ac757610ac661072c565b5b610ad388828901610a64565b9550506020610ae48882890161074f565b9450506040610af58882890161074f565b935050606086013567ffffffffffffffff811115610b1657610b1561072c565b5b610b2288828901610a64565b925050608086013567ffffffffffffffff811115610b4357610b4261072c565b5b610b4f88828901610a64565b9150509295509295909350565b7f4e487b71000000000000000000000000000000000000000000000000000000005f52602260045260245ffd5b5f6002820490506001821680610ba057607f821691505b602082108103610bb357610bb2610b5c565b5b50919050565b5f819050815f5260205f209050919050565b5f6020601f8301049050919050565b5f82821b905092915050565b5f60088302610c157fffffffffffffffffffffffffffffffffffffffffffffffffffffffffffffffff82610bda565b610c1f8683610bda565b95508019841693508086168417925050509392505050565b5f819050919050565b5f610c5a610c55610c5084610730565b610c37565b610730565b9050919050565b5f819050919050565b610c7383610c40565b610c87610c7f82610c61565b848454610be6565b825550505050565b5f5f905090565b610c9e610c8f565b610ca9818484610c6a565b505050565b5b81811015610ccc57610cc15f82610c96565b600181019050610caf565b5050565b601f821115610d1157610ce281610bb9565b610ceb84610bcb565b81016020851015610cfa578190505b610d0e610d0685610bcb565b830182610cae565b50505b505050565b5f82821c905092915050565b5f610d315f1984600802610d16565b1980831691505092915050565b5f610d498383610d22565b9150826002028217905092915050565b610d62826107a1565b67ffffffffffffffff811115610d7b57610d7a61096d565b5b610d858254610b89565b610d90828285610cd0565b5f60209050601f831160018114610dc1575f8415610daf578287015190505b610db98582610d3e565b865550610e20565b601f198416610dcf86610bb9565b5f5b82811015610df657848901518255600182019150602085019450602081019050610dd1565b86831015610e135784890151610e0f601f891682610d22565b8355505b6001600288020188555050505b505050505050565b7f4e487b71000000000000000000000000000000000000000000000000000000005f52601160045260245ffd5b5f610e5f82610730565b91507fffffffffffffffffffffffffffffffffffffffffffffffffffffffffffffffff8203610e9157610e90610e28565b5b600182019050919050565b5f610ea682610730565b9150610eb183610730565b9250828203905081811115610ec957610ec8610e28565b5b92915050565b5f819050919050565b610ee181610ecf565b82525050565b5f606082019050610efa5f830186610811565b610f076020830185610ed8565b610f146040830184610811565b94935050505056fea264697066735822122040ef221f33628afaf75d23944ebe5bf1e1f9b1ec6ad485ec0c7542aefc8e536d64736f6c634300081c0033",
					"opcodes": "PUSH1 0x80 PUSH1 0x40 MSTORE CALLVALUE DUP1 ISZERO PUSH1 0xE JUMPI PUSH0 PUSH0 REVERT JUMPDEST POP PUSH2 0xF52 DUP1 PUSH2 0x1C PUSH0 CODECOPY PUSH0 RETURN INVALID PUSH1 0x80 PUSH1 0x40 MSTORE CALLVALUE DUP1 ISZERO PUSH2 0xF JUMPI PUSH0 PUSH0 REVERT JUMPDEST POP PUSH1 0x4 CALLDATASIZE LT PUSH2 0x55 JUMPI PUSH0 CALLDATALOAD PUSH1 0xE0 SHR DUP1 PUSH4 0xF53F667 EQ PUSH2 0x59 JUMPI DUP1 PUSH4 0x28B968BA EQ PUSH2 0x8B JUMPI DUP1 PUSH4 0x609E1E60 EQ PUSH2 0xBD JUMPI DUP1 PUSH4 0x9AF76A90 EQ PUSH2 0xDB JUMPI DUP1 PUSH4 0xC37F6A61 EQ PUSH2 0x110 JUMPI JUMPDEST PUSH0 PUSH0 REVERT JUMPDEST PUSH2 0x73 PUSH1 0x4 DUP1 CALLDATASIZE SUB DUP2 ADD SWAP1 PUSH2 0x6E SWAP2 SWAP1 PUSH2 0x763 JUMP JUMPDEST PUSH2 0x12C JUMP JUMPDEST PUSH1 0x40 MLOAD PUSH2 0x82 SWAP4 SWAP3 SWAP2 SWAP1 PUSH2 0x820 JUMP JUMPDEST PUSH1 0x40 MLOAD DUP1 SWAP2 SUB SWAP1 RETURN JUMPDEST PUSH2 0xA5 PUSH1 0x4 DUP1 CALLDATASIZE SUB DUP2 ADD SWAP1 PUSH2 0xA0 SWAP2 SWAP1 PUSH2 0x763 JUMP JUMPDEST PUSH2 0x278 JUMP JUMPDEST PUSH1 0x40 MLOAD PUSH2 0xB4 SWAP4 SWAP3 SWAP2 SWAP1 PUSH2 0x863 JUMP JUMPDEST PUSH1 0x40 MLOAD DUP1 SWAP2 SUB SWAP1 RETURN JUMPDEST PUSH2 0xC5 PUSH2 0x44A JUMP JUMPDEST PUSH1 0x40 MLOAD PUSH2 0xD2 SWAP2 SWAP1 PUSH2 0x8AD JUMP JUMPDEST PUSH1 0x40 MLOAD DUP1 SWAP2 SUB SWAP1 RETURN JUMPDEST PUSH2 0xF5 PUSH1 0x4 DUP1 CALLDATASIZE SUB DUP2 ADD SWAP1 PUSH2 0xF0 SWAP2 SWAP1 PUSH2 0x8C6 JUMP JUMPDEST PUSH2 0x44F JUMP JUMPDEST PUSH1 0x40 MLOAD PUSH2 0x107 SWAP7 SWAP6 SWAP5 SWAP4 SWAP3 SWAP2 SWAP1 PUSH2 0x8F1 JUMP JUMPDEST PUSH1 0x40 MLOAD DUP1 SWAP2 SUB SWAP1 RETURN JUMPDEST PUSH2 0x12A PUSH1 0x4 DUP1 CALLDATASIZE SUB DUP2 ADD SWAP1 PUSH2 0x125 SWAP2 SWAP1 PUSH2 0xA91 JUMP JUMPDEST PUSH2 0x619 JUMP JUMPDEST STOP JUMPDEST PUSH1 0x3 PUSH1 0x20 MSTORE DUP2 PUSH0 MSTORE PUSH1 0x40 PUSH0 KECCAK256 DUP2 DUP2 SLOAD DUP2 LT PUSH2 0x145 JUMPI PUSH0 DUP1 REVERT JUMPDEST SWAP1 PUSH0 MSTORE PUSH1 0x20 PUSH0 KECCAK256 SWAP1 PUSH1 0x3 MUL ADD PUSH0 SWAP2 POP SWAP2 POP POP DUP1 PUSH0 ADD DUP1 SLOAD PUSH2 0x165 SWAP1 PUSH2 0xB89 JUMP JUMPDEST DUP1 PUSH1 0x1F ADD PUSH1 0x20 DUP1 SWAP2 DIV MUL PUSH1 0x20 ADD PUSH1 0x40 MLOAD SWAP1 DUP2 ADD PUSH1 0x40 MSTORE DUP1 SWAP3 SWAP2 SWAP1 DUP2 DUP2 MSTORE PUSH1 0x20 ADD DUP3 DUP1 SLOAD PUSH2 0x191 SWAP1 PUSH2 0xB89 JUMP JUMPDEST DUP1 ISZERO PUSH2 0x1DC JUMPI DUP1 PUSH1 0x1F LT PUSH2 0x1B3 JUMPI PUSH2 0x100 DUP1 DUP4 SLOAD DIV MUL DUP4 MSTORE SWAP2 PUSH1 0x20 ADD SWAP2 PUSH2 0x1DC JUMP JUMPDEST DUP3 ADD SWAP2 SWAP1 PUSH0 MSTORE PUSH1 0x20 PUSH0 KECCAK256 SWAP1 JUMPDEST DUP2 SLOAD DUP2 MSTORE SWAP1 PUSH1 0x1 ADD SWAP1 PUSH1 0x20 ADD DUP1 DUP4 GT PUSH2 0x1BF JUMPI DUP3 SWAP1 SUB PUSH1 0x1F AND DUP3 ADD SWAP2 JUMPDEST POP POP POP POP POP SWAP1 DUP1 PUSH1 0x1 ADD SLOAD SWAP1 DUP1 PUSH1 0x2 ADD DUP1 SLOAD PUSH2 0x1F7 SWAP1 PUSH2 0xB89 JUMP JUMPDEST DUP1 PUSH1 0x1F ADD PUSH1 0x20 DUP1 SWAP2 DIV MUL PUSH1 0x20 ADD PUSH1 0x40 MLOAD SWAP1 DUP2 ADD PUSH1 0x40 MSTORE DUP1 SWAP3 SWAP2 SWAP1 DUP2 DUP2 MSTORE PUSH1 0x20 ADD DUP3 DUP1 SLOAD PUSH2 0x223 SWAP1 PUSH2 0xB89 JUMP JUMPDEST DUP1 ISZERO PUSH2 0x26E JUMPI DUP1 PUSH1 0x1F LT PUSH2 0x245 JUMPI PUSH2 0x100 DUP1 DUP4 SLOAD DIV MUL DUP4 MSTORE SWAP2 PUSH1 0x20 ADD SWAP2 PUSH2 0x26E JUMP JUMPDEST DUP3 ADD SWAP2 SWAP1 PUSH0 MSTORE PUSH1 0x20 PUSH0 KECCAK256 SWAP1 JUMPDEST DUP2 SLOAD DUP2 MSTORE SWAP1 PUSH1 0x1 ADD SWAP1 PUSH1 0x20 ADD DUP1 DUP4 GT PUSH2 0x251 JUMPI DUP3 SWAP1 SUB PUSH1 0x1F AND DUP3 ADD SWAP2 JUMPDEST POP POP POP POP POP SWAP1 POP DUP4 JUMP JUMPDEST PUSH1 0x2 PUSH1 0x20 MSTORE DUP2 PUSH0 MSTORE PUSH1 0x40 PUSH0 KECCAK256 DUP2 DUP2 SLOAD DUP2 LT PUSH2 0x291 JUMPI PUSH0 DUP1 REVERT JUMPDEST SWAP1 PUSH0 MSTORE PUSH1 0x20 PUSH0 KECCAK256 SWAP1 PUSH1 0x3 MUL ADD PUSH0 SWAP2 POP SWAP2 POP POP DUP1 PUSH0 ADD DUP1 SLOAD PUSH2 0x2B1 SWAP1 PUSH2 0xB89 JUMP JUMPDEST DUP1 PUSH1 0x1F ADD PUSH1 0x20 DUP1 SWAP2 DIV MUL PUSH1 0x20 ADD PUSH1 0x40 MLOAD SWAP1 DUP2 ADD PUSH1 0x40 MSTORE DUP1 SWAP3 SWAP2 SWAP1 DUP2 DUP2 MSTORE PUSH1 0x20 ADD DUP3 DUP1 SLOAD PUSH2 0x2DD SWAP1 PUSH2 0xB89 JUMP JUMPDEST DUP1 ISZERO PUSH2 0x328 JUMPI DUP1 PUSH1 0x1F LT PUSH2 0x2FF JUMPI PUSH2 0x100 DUP1 DUP4 SLOAD DIV MUL DUP4 MSTORE SWAP2 PUSH1 0x20 ADD SWAP2 PUSH2 0x328 JUMP JUMPDEST DUP3 ADD SWAP2 SWAP1 PUSH0 MSTORE PUSH1 0x20 PUSH0 KECCAK256 SWAP1 JUMPDEST DUP2 SLOAD DUP2 MSTORE SWAP1 PUSH1 0x1 ADD SWAP1 PUSH1 0x20 ADD DUP1 DUP4 GT PUSH2 0x30B JUMPI DUP3 SWAP1 SUB PUSH1 0x1F AND DUP3 ADD SWAP2 JUMPDEST POP POP POP POP POP SWAP1 DUP1 PUSH1 0x1 ADD DUP1 SLOAD PUSH2 0x33D SWAP1 PUSH2 0xB89 JUMP JUMPDEST DUP1 PUSH1 0x1F ADD PUSH1 0x20 DUP1 SWAP2 DIV MUL PUSH1 0x20 ADD PUSH1 0x40 MLOAD SWAP1 DUP2 ADD PUSH1 0x40 MSTORE DUP1 SWAP3 SWAP2 SWAP1 DUP2 DUP2 MSTORE PUSH1 0x20 ADD DUP3 DUP1 SLOAD PUSH2 0x369 SWAP1 PUSH2 0xB89 JUMP JUMPDEST DUP1 ISZERO PUSH2 0x3B4 JUMPI DUP1 PUSH1 0x1F LT PUSH2 0x38B JUMPI PUSH2 0x100 DUP1 DUP4 SLOAD DIV MUL DUP4 MSTORE SWAP2 PUSH1 0x20 ADD SWAP2 PUSH2 0x3B4 JUMP JUMPDEST DUP3 ADD SWAP2 SWAP1 PUSH0 MSTORE PUSH1 0x20 PUSH0 KECCAK256 SWAP1 JUMPDEST DUP2 SLOAD DUP2 MSTORE SWAP1 PUSH1 0x1 ADD SWAP1 PUSH1 0x20 ADD DUP1 DUP4 GT PUSH2 0x397 JUMPI DUP3 SWAP1 SUB PUSH1 0x1F AND DUP3 ADD SWAP2 JUMPDEST POP POP POP POP POP SWAP1 DUP1 PUSH1 0x2 ADD DUP1 SLOAD PUSH2 0x3C9 SWAP1 PUSH2 0xB89 JUMP JUMPDEST DUP1 PUSH1 0x1F ADD PUSH1 0x20 DUP1 SWAP2 DIV MUL PUSH1 0x20 ADD PUSH1 0x40 MLOAD SWAP1 DUP2 ADD PUSH1 0x40 MSTORE DUP1 SWAP3 SWAP2 SWAP1 DUP2 DUP2 MSTORE PUSH1 0x20 ADD DUP3 DUP1 SLOAD PUSH2 0x3F5 SWAP1 PUSH2 0xB89 JUMP JUMPDEST DUP1 ISZERO PUSH2 0x440 JUMPI DUP1 PUSH1 0x1F LT PUSH2 0x417 JUMPI PUSH2 0x100 DUP1 DUP4 SLOAD DIV MUL DUP4 MSTORE SWAP2 PUSH1 0x20 ADD SWAP2 PUSH2 0x440 JUMP JUMPDEST DUP3 ADD SWAP2 SWAP1 PUSH0 MSTORE PUSH1 0x20 PUSH0 KECCAK256 SWAP1 JUMPDEST DUP2 SLOAD DUP2 MSTORE SWAP1 PUSH1 0x1 ADD SWAP1 PUSH1 0x20 ADD DUP1 DUP4 GT PUSH2 0x423 JUMPI DUP3 SWAP1 SUB PUSH1 0x1F AND DUP3 ADD SWAP2 JUMPDEST POP POP POP POP POP SWAP1 POP DUP4 JUMP JUMPDEST PUSH0 SLOAD DUP2 JUMP JUMPDEST PUSH1 0x1 PUSH1 0x20 MSTORE DUP1 PUSH0 MSTORE PUSH1 0x40 PUSH0 KECCAK256 PUSH0 SWAP2 POP SWAP1 POP DUP1 PUSH0 ADD SLOAD SWAP1 DUP1 PUSH1 0x1 ADD DUP1 SLOAD PUSH2 0x474 SWAP1 PUSH2 0xB89 JUMP JUMPDEST DUP1 PUSH1 0x1F ADD PUSH1 0x20 DUP1 SWAP2 DIV MUL PUSH1 0x20 ADD PUSH1 0x40 MLOAD SWAP1 DUP2 ADD PUSH1 0x40 MSTORE DUP1 SWAP3 SWAP2 SWAP1 DUP2 DUP2 MSTORE PUSH1 0x20 ADD DUP3 DUP1 SLOAD PUSH2 0x4A0 SWAP1 PUSH2 0xB89 JUMP JUMPDEST DUP1 ISZERO PUSH2 0x4EB JUMPI DUP1 PUSH1 0x1F LT PUSH2 0x4C2 JUMPI PUSH2 0x100 DUP1 DUP4 SLOAD DIV MUL DUP4 MSTORE SWAP2 PUSH1 0x20 ADD SWAP2 PUSH2 0x4EB JUMP JUMPDEST DUP3 ADD SWAP2 SWAP1 PUSH0 MSTORE PUSH1 0x20 PUSH0 KECCAK256 SWAP1 JUMPDEST DUP2 SLOAD DUP2 MSTORE SWAP1 PUSH1 0x1 ADD SWAP1 PUSH1 0x20 ADD DUP1 DUP4 GT PUSH2 0x4CE JUMPI DUP3 SWAP1 SUB PUSH1 0x1F AND DUP3 ADD SWAP2 JUMPDEST POP POP POP POP POP SWAP1 DUP1 PUSH1 0x2 ADD SLOAD SWAP1 DUP1 PUSH1 0x3 ADD SLOAD SWAP1 DUP1 PUSH1 0x4 ADD DUP1 SLOAD PUSH2 0x50C SWAP1 PUSH2 0xB89 JUMP JUMPDEST DUP1 PUSH1 0x1F ADD PUSH1 0x20 DUP1 SWAP2 DIV MUL PUSH1 0x20 ADD PUSH1 0x40 MLOAD SWAP1 DUP2 ADD PUSH1 0x40 MSTORE DUP1 SWAP3 SWAP2 SWAP1 DUP2 DUP2 MSTORE PUSH1 0x20 ADD DUP3 DUP1 SLOAD PUSH2 0x538 SWAP1 PUSH2 0xB89 JUMP JUMPDEST DUP1 ISZERO PUSH2 0x583 JUMPI DUP1 PUSH1 0x1F LT PUSH2 0x55A JUMPI PUSH2 0x100 DUP1 DUP4 SLOAD DIV MUL DUP4 MSTORE SWAP2 PUSH1 0x20 ADD SWAP2 PUSH2 0x583 JUMP JUMPDEST DUP3 ADD SWAP2 SWAP1 PUSH0 MSTORE PUSH1 0x20 PUSH0 KECCAK256 SWAP1 JUMPDEST DUP2 SLOAD DUP2 MSTORE SWAP1 PUSH1 0x1 ADD SWAP1 PUSH1 0x20 ADD DUP1 DUP4 GT PUSH2 0x566 JUMPI DUP3 SWAP1 SUB PUSH1 0x1F AND DUP3 ADD SWAP2 JUMPDEST POP POP POP POP POP SWAP1 DUP1 PUSH1 0x5 ADD DUP1 SLOAD PUSH2 0x598 SWAP1 PUSH2 0xB89 JUMP JUMPDEST DUP1 PUSH1 0x1F ADD PUSH1 0x20 DUP1 SWAP2 DIV MUL PUSH1 0x20 ADD PUSH1 0x40 MLOAD SWAP1 DUP2 ADD PUSH1 0x40 MSTORE DUP1 SWAP3 SWAP2 SWAP1 DUP2 DUP2 MSTORE PUSH1 0x20 ADD DUP3 DUP1 SLOAD PUSH2 0x5C4 SWAP1 PUSH2 0xB89 JUMP JUMPDEST DUP1 ISZERO PUSH2 0x60F JUMPI DUP1 PUSH1 0x1F LT PUSH2 0x5E6 JUMPI PUSH2 0x100 DUP1 DUP4 SLOAD DIV MUL DUP4 MSTORE SWAP2 PUSH1 0x20 ADD SWAP2 PUSH2 0x60F JUMP JUMPDEST DUP3 ADD SWAP2 SWAP1 PUSH0 MSTORE PUSH1 0x20 PUSH0 KECCAK256 SWAP1 JUMPDEST DUP2 SLOAD DUP2 MSTORE SWAP1 PUSH1 0x1 ADD SWAP1 PUSH1 0x20 ADD DUP1 DUP4 GT PUSH2 0x5F2 JUMPI DUP3 SWAP1 SUB PUSH1 0x1F AND DUP3 ADD SWAP2 JUMPDEST POP POP POP POP POP SWAP1 POP DUP7 JUMP JUMPDEST PUSH1 0x40 MLOAD DUP1 PUSH1 0xC0 ADD PUSH1 0x40 MSTORE DUP1 PUSH0 SLOAD DUP2 MSTORE PUSH1 0x20 ADD DUP7 DUP2 MSTORE PUSH1 0x20 ADD DUP6 DUP2 MSTORE PUSH1 0x20 ADD DUP5 DUP2 MSTORE PUSH1 0x20 ADD DUP4 DUP2 MSTORE PUSH1 0x20 ADD DUP3 DUP2 MSTORE POP PUSH1 0x1 PUSH0 PUSH0 SLOAD DUP2 MSTORE PUSH1 0x20 ADD SWAP1 DUP2 MSTORE PUSH1 0x20 ADD PUSH0 KECCAK256 PUSH0 DUP3 ADD MLOAD DUP2 PUSH0 ADD SSTORE PUSH1 0x20 DUP3 ADD MLOAD DUP2 PUSH1 0x1 ADD SWAP1 DUP2 PUSH2 0x676 SWAP2 SWAP1 PUSH2 0xD59 JUMP JUMPDEST POP PUSH1 0x40 DUP3 ADD MLOAD DUP2 PUSH1 0x2 ADD SSTORE PUSH1 0x60 DUP3 ADD MLOAD DUP2 PUSH1 0x3 ADD SSTORE PUSH1 0x80 DUP3 ADD MLOAD DUP2 PUSH1 0x4 ADD SWAP1 DUP2 PUSH2 0x6A0 SWAP2 SWAP1 PUSH2 0xD59 JUMP JUMPDEST POP PUSH1 0xA0 DUP3 ADD MLOAD DUP2 PUSH1 0x5 ADD SWAP1 DUP2 PUSH2 0x6B6 SWAP2 SWAP1 PUSH2 0xD59 JUMP JUMPDEST POP SWAP1 POP POP PUSH0 PUSH0 DUP2 SLOAD DUP1 SWAP3 SWAP2 SWAP1 PUSH2 0x6CB SWAP1 PUSH2 0xE55 JUMP JUMPDEST SWAP2 SWAP1 POP SSTORE POP PUSH32 0x7EFAB20AB4C4D8C33ECD03458D6147BF7CCC1FAA40DFEEDD6F2D7A7CF28A12D7 GASPRICE PUSH1 0x1 NUMBER PUSH2 0x6FF SWAP2 SWAP1 PUSH2 0xE9C JUMP JUMPDEST BLOCKHASH NUMBER PUSH1 0x40 MLOAD PUSH2 0x710 SWAP4 SWAP3 SWAP2 SWAP1 PUSH2 0xEE7 JUMP JUMPDEST PUSH1 0x40 MLOAD DUP1 SWAP2 SUB SWAP1 LOG1 POP POP POP POP POP JUMP JUMPDEST PUSH0 PUSH1 0x40 MLOAD SWAP1 POP SWAP1 JUMP JUMPDEST PUSH0 PUSH0 REVERT JUMPDEST PUSH0 PUSH0 REVERT JUMPDEST PUSH0 DUP2 SWAP1 POP SWAP2 SWAP1 POP JUMP JUMPDEST PUSH2 0x742 DUP2 PUSH2 0x730 JUMP JUMPDEST DUP2 EQ PUSH2 0x74C JUMPI PUSH0 PUSH0 REVERT JUMPDEST POP JUMP JUMPDEST PUSH0 DUP2 CALLDATALOAD SWAP1 POP PUSH2 0x75D DUP2 PUSH2 0x739 JUMP JUMPDEST SWAP3 SWAP2 POP POP JUMP JUMPDEST PUSH0 PUSH0 PUSH1 0x40 DUP4 DUP6 SUB SLT ISZERO PUSH2 0x779 JUMPI PUSH2 0x778 PUSH2 0x728 JUMP JUMPDEST JUMPDEST PUSH0 PUSH2 0x786 DUP6 DUP3 DUP7 ADD PUSH2 0x74F JUMP JUMPDEST SWAP3 POP POP PUSH1 0x20 PUSH2 0x797 DUP6 DUP3 DUP7 ADD PUSH2 0x74F JUMP JUMPDEST SWAP2 POP POP SWAP3 POP SWAP3 SWAP1 POP JUMP JUMPDEST PUSH0 DUP2 MLOAD SWAP1 POP SWAP2 SWAP1 POP JUMP JUMPDEST PUSH0 DUP3 DUP3 MSTORE PUSH1 0x20 DUP3 ADD SWAP1 POP SWAP3 SWAP2 POP POP JUMP JUMPDEST DUP3 DUP2 DUP4 MCOPY PUSH0 DUP4 DUP4 ADD MSTORE POP POP POP JUMP JUMPDEST PUSH0 PUSH1 0x1F NOT PUSH1 0x1F DUP4 ADD AND SWAP1 POP SWAP2 SWAP1 POP JUMP JUMPDEST PUSH0 PUSH2 0x7E3 DUP3 PUSH2 0x7A1 JUMP JUMPDEST PUSH2 0x7ED DUP2 DUP6 PUSH2 0x7AB JUMP JUMPDEST SWAP4 POP PUSH2 0x7FD DUP2 DUP6 PUSH1 0x20 DUP7 ADD PUSH2 0x7BB JUMP JUMPDEST PUSH2 0x806 DUP2 PUSH2 0x7C9 JUMP JUMPDEST DUP5 ADD SWAP2 POP POP SWAP3 SWAP2 POP POP JUMP JUMPDEST PUSH2 0x81A DUP2 PUSH2 0x730 JUMP JUMPDEST DUP3 MSTORE POP POP JUMP JUMPDEST PUSH0 PUSH1 0x60 DUP3 ADD SWAP1 POP DUP2 DUP2 SUB PUSH0 DUP4 ADD MSTORE PUSH2 0x838 DUP2 DUP7 PUSH2 0x7D9 JUMP JUMPDEST SWAP1 POP PUSH2 0x847 PUSH1 0x20 DUP4 ADD DUP6 PUSH2 0x811 JUMP JUMPDEST DUP2 DUP2 SUB PUSH1 0x40 DUP4 ADD MSTORE PUSH2 0x859 DUP2 DUP5 PUSH2 0x7D9 JUMP JUMPDEST SWAP1 POP SWAP5 SWAP4 POP POP POP POP JUMP JUMPDEST PUSH0 PUSH1 0x60 DUP3 ADD SWAP1 POP DUP2 DUP2 SUB PUSH0 DUP4 ADD MSTORE PUSH2 0x87B DUP2 DUP7 PUSH2 0x7D9 JUMP JUMPDEST SWAP1 POP DUP2 DUP2 SUB PUSH1 0x20 DUP4 ADD MSTORE PUSH2 0x88F DUP2 DUP6 PUSH2 0x7D9 JUMP JUMPDEST SWAP1 POP DUP2 DUP2 SUB PUSH1 0x40 DUP4 ADD MSTORE PUSH2 0x8A3 DUP2 DUP5 PUSH2 0x7D9 JUMP JUMPDEST SWAP1 POP SWAP5 SWAP4 POP POP POP POP JUMP JUMPDEST PUSH0 PUSH1 0x20 DUP3 ADD SWAP1 POP PUSH2 0x8C0 PUSH0 DUP4 ADD DUP5 PUSH2 0x811 JUMP JUMPDEST SWAP3 SWAP2 POP POP JUMP JUMPDEST PUSH0 PUSH1 0x20 DUP3 DUP5 SUB SLT ISZERO PUSH2 0x8DB JUMPI PUSH2 0x8DA PUSH2 0x728 JUMP JUMPDEST JUMPDEST PUSH0 PUSH2 0x8E8 DUP5 DUP3 DUP6 ADD PUSH2 0x74F JUMP JUMPDEST SWAP2 POP POP SWAP3 SWAP2 POP POP JUMP JUMPDEST PUSH0 PUSH1 0xC0 DUP3 ADD SWAP1 POP PUSH2 0x904 PUSH0 DUP4 ADD DUP10 PUSH2 0x811 JUMP JUMPDEST DUP2 DUP2 SUB PUSH1 0x20 DUP4 ADD MSTORE PUSH2 0x916 DUP2 DUP9 PUSH2 0x7D9 JUMP JUMPDEST SWAP1 POP PUSH2 0x925 PUSH1 0x40 DUP4 ADD DUP8 PUSH2 0x811 JUMP JUMPDEST PUSH2 0x932 PUSH1 0x60 DUP4 ADD DUP7 PUSH2 0x811 JUMP JUMPDEST DUP2 DUP2 SUB PUSH1 0x80 DUP4 ADD MSTORE PUSH2 0x944 DUP2 DUP6 PUSH2 0x7D9 JUMP JUMPDEST SWAP1 POP DUP2 DUP2 SUB PUSH1 0xA0 DUP4 ADD MSTORE PUSH2 0x958 DUP2 DUP5 PUSH2 0x7D9 JUMP JUMPDEST SWAP1 POP SWAP8 SWAP7 POP POP POP POP POP POP POP JUMP JUMPDEST PUSH0 PUSH0 REVERT JUMPDEST PUSH0 PUSH0 REVERT JUMPDEST PUSH32 0x4E487B7100000000000000000000000000000000000000000000000000000000 PUSH0 MSTORE PUSH1 0x41 PUSH1 0x4 MSTORE PUSH1 0x24 PUSH0 REVERT JUMPDEST PUSH2 0x9A3 DUP3 PUSH2 0x7C9 JUMP JUMPDEST DUP2 ADD DUP2 DUP2 LT PUSH8 0xFFFFFFFFFFFFFFFF DUP3 GT OR ISZERO PUSH2 0x9C2 JUMPI PUSH2 0x9C1 PUSH2 0x96D JUMP JUMPDEST JUMPDEST DUP1 PUSH1 0x40 MSTORE POP POP POP JUMP JUMPDEST PUSH0 PUSH2 0x9D4 PUSH2 0x71F JUMP JUMPDEST SWAP1 POP PUSH2 0x9E0 DUP3 DUP3 PUSH2 0x99A JUMP JUMPDEST SWAP2 SWAP1 POP JUMP JUMPDEST PUSH0 PUSH8 0xFFFFFFFFFFFFFFFF DUP3 GT ISZERO PUSH2 0x9FF JUMPI PUSH2 0x9FE PUSH2 0x96D JUMP JUMPDEST JUMPDEST PUSH2 0xA08 DUP3 PUSH2 0x7C9 JUMP JUMPDEST SWAP1 POP PUSH1 0x20 DUP2 ADD SWAP1 POP SWAP2 SWAP1 POP JUMP JUMPDEST DUP3 DUP2 DUP4 CALLDATACOPY PUSH0 DUP4 DUP4 ADD MSTORE POP POP POP JUMP JUMPDEST PUSH0 PUSH2 0xA35 PUSH2 0xA30 DUP5 PUSH2 0x9E5 JUMP JUMPDEST PUSH2 0x9CB JUMP JUMPDEST SWAP1 POP DUP3 DUP2 MSTORE PUSH1 0x20 DUP2 ADD DUP5 DUP5 DUP5 ADD GT ISZERO PUSH2 0xA51 JUMPI PUSH2 0xA50 PUSH2 0x969 JUMP JUMPDEST JUMPDEST PUSH2 0xA5C DUP5 DUP3 DUP6 PUSH2 0xA15 JUMP JUMPDEST POP SWAP4 SWAP3 POP POP POP JUMP JUMPDEST PUSH0 DUP3 PUSH1 0x1F DUP4 ADD SLT PUSH2 0xA78 JUMPI PUSH2 0xA77 PUSH2 0x965 JUMP JUMPDEST JUMPDEST DUP2 CALLDATALOAD PUSH2 0xA88 DUP5 DUP3 PUSH1 0x20 DUP7 ADD PUSH2 0xA23 JUMP JUMPDEST SWAP2 POP POP SWAP3 SWAP2 POP POP JUMP JUMPDEST PUSH0 PUSH0 PUSH0 PUSH0 PUSH0 PUSH1 0xA0 DUP7 DUP9 SUB SLT ISZERO PUSH2 0xAAA JUMPI PUSH2 0xAA9 PUSH2 0x728 JUMP JUMPDEST JUMPDEST PUSH0 DUP7 ADD CALLDATALOAD PUSH8 0xFFFFFFFFFFFFFFFF DUP2 GT ISZERO PUSH2 0xAC7 JUMPI PUSH2 0xAC6 PUSH2 0x72C JUMP JUMPDEST JUMPDEST PUSH2 0xAD3 DUP9 DUP3 DUP10 ADD PUSH2 0xA64 JUMP JUMPDEST SWAP6 POP POP PUSH1 0x20 PUSH2 0xAE4 DUP9 DUP3 DUP10 ADD PUSH2 0x74F JUMP JUMPDEST SWAP5 POP POP PUSH1 0x40 PUSH2 0xAF5 DUP9 DUP3 DUP10 ADD PUSH2 0x74F JUMP JUMPDEST SWAP4 POP POP PUSH1 0x60 DUP7 ADD CALLDATALOAD PUSH8 0xFFFFFFFFFFFFFFFF DUP2 GT ISZERO PUSH2 0xB16 JUMPI PUSH2 0xB15 PUSH2 0x72C JUMP JUMPDEST JUMPDEST PUSH2 0xB22 DUP9 DUP3 DUP10 ADD PUSH2 0xA64 JUMP JUMPDEST SWAP3 POP POP PUSH1 0x80 DUP7 ADD CALLDATALOAD PUSH8 0xFFFFFFFFFFFFFFFF DUP2 GT ISZERO PUSH2 0xB43 JUMPI PUSH2 0xB42 PUSH2 0x72C JUMP JUMPDEST JUMPDEST PUSH2 0xB4F DUP9 DUP3 DUP10 ADD PUSH2 0xA64 JUMP JUMPDEST SWAP2 POP POP SWAP3 SWAP6 POP SWAP3 SWAP6 SWAP1 SWAP4 POP JUMP JUMPDEST PUSH32 0x4E487B7100000000000000000000000000000000000000000000000000000000 PUSH0 MSTORE PUSH1 0x22 PUSH1 0x4 MSTORE PUSH1 0x24 PUSH0 REVERT JUMPDEST PUSH0 PUSH1 0x2 DUP3 DIV SWAP1 POP PUSH1 0x1 DUP3 AND DUP1 PUSH2 0xBA0 JUMPI PUSH1 0x7F DUP3 AND SWAP2 POP JUMPDEST PUSH1 0x20 DUP3 LT DUP2 SUB PUSH2 0xBB3 JUMPI PUSH2 0xBB2 PUSH2 0xB5C JUMP JUMPDEST JUMPDEST POP SWAP2 SWAP1 POP JUMP JUMPDEST PUSH0 DUP2 SWAP1 POP DUP2 PUSH0 MSTORE PUSH1 0x20 PUSH0 KECCAK256 SWAP1 POP SWAP2 SWAP1 POP JUMP JUMPDEST PUSH0 PUSH1 0x20 PUSH1 0x1F DUP4 ADD DIV SWAP1 POP SWAP2 SWAP1 POP JUMP JUMPDEST PUSH0 DUP3 DUP3 SHL SWAP1 POP SWAP3 SWAP2 POP POP JUMP JUMPDEST PUSH0 PUSH1 0x8 DUP4 MUL PUSH2 0xC15 PUSH32 0xFFFFFFFFFFFFFFFFFFFFFFFFFFFFFFFFFFFFFFFFFFFFFFFFFFFFFFFFFFFFFFFF DUP3 PUSH2 0xBDA JUMP JUMPDEST PUSH2 0xC1F DUP7 DUP4 PUSH2 0xBDA JUMP JUMPDEST SWAP6 POP DUP1 NOT DUP5 AND SWAP4 POP DUP1 DUP7 AND DUP5 OR SWAP3 POP POP POP SWAP4 SWAP3 POP POP POP JUMP JUMPDEST PUSH0 DUP2 SWAP1 POP SWAP2 SWAP1 POP JUMP JUMPDEST PUSH0 PUSH2 0xC5A PUSH2 0xC55 PUSH2 0xC50 DUP5 PUSH2 0x730 JUMP JUMPDEST PUSH2 0xC37 JUMP JUMPDEST PUSH2 0x730 JUMP JUMPDEST SWAP1 POP SWAP2 SWAP1 POP JUMP JUMPDEST PUSH0 DUP2 SWAP1 POP SWAP2 SWAP1 POP JUMP JUMPDEST PUSH2 0xC73 DUP4 PUSH2 0xC40 JUMP JUMPDEST PUSH2 0xC87 PUSH2 0xC7F DUP3 PUSH2 0xC61 JUMP JUMPDEST DUP5 DUP5 SLOAD PUSH2 0xBE6 JUMP JUMPDEST DUP3 SSTORE POP POP POP POP JUMP JUMPDEST PUSH0 PUSH0 SWAP1 POP SWAP1 JUMP JUMPDEST PUSH2 0xC9E PUSH2 0xC8F JUMP JUMPDEST PUSH2 0xCA9 DUP2 DUP5 DUP5 PUSH2 0xC6A JUMP JUMPDEST POP POP POP JUMP JUMPDEST JUMPDEST DUP2 DUP2 LT ISZERO PUSH2 0xCCC JUMPI PUSH2 0xCC1 PUSH0 DUP3 PUSH2 0xC96 JUMP JUMPDEST PUSH1 0x1 DUP2 ADD SWAP1 POP PUSH2 0xCAF JUMP JUMPDEST POP POP JUMP JUMPDEST PUSH1 0x1F DUP3 GT ISZERO PUSH2 0xD11 JUMPI PUSH2 0xCE2 DUP2 PUSH2 0xBB9 JUMP JUMPDEST PUSH2 0xCEB DUP5 PUSH2 0xBCB JUMP JUMPDEST DUP2 ADD PUSH1 0x20 DUP6 LT ISZERO PUSH2 0xCFA JUMPI DUP2 SWAP1 POP JUMPDEST PUSH2 0xD0E PUSH2 0xD06 DUP6 PUSH2 0xBCB JUMP JUMPDEST DUP4 ADD DUP3 PUSH2 0xCAE JUMP JUMPDEST POP POP JUMPDEST POP POP POP JUMP JUMPDEST PUSH0 DUP3 DUP3 SHR SWAP1 POP SWAP3 SWAP2 POP POP JUMP JUMPDEST PUSH0 PUSH2 0xD31 PUSH0 NOT DUP5 PUSH1 0x8 MUL PUSH2 0xD16 JUMP JUMPDEST NOT DUP1 DUP4 AND SWAP2 POP POP SWAP3 SWAP2 POP POP JUMP JUMPDEST PUSH0 PUSH2 0xD49 DUP4 DUP4 PUSH2 0xD22 JUMP JUMPDEST SWAP2 POP DUP3 PUSH1 0x2 MUL DUP3 OR SWAP1 POP SWAP3 SWAP2 POP POP JUMP JUMPDEST PUSH2 0xD62 DUP3 PUSH2 0x7A1 JUMP JUMPDEST PUSH8 0xFFFFFFFFFFFFFFFF DUP2 GT ISZERO PUSH2 0xD7B JUMPI PUSH2 0xD7A PUSH2 0x96D JUMP JUMPDEST JUMPDEST PUSH2 0xD85 DUP3 SLOAD PUSH2 0xB89 JUMP JUMPDEST PUSH2 0xD90 DUP3 DUP3 DUP6 PUSH2 0xCD0 JUMP JUMPDEST PUSH0 PUSH1 0x20 SWAP1 POP PUSH1 0x1F DUP4 GT PUSH1 0x1 DUP2 EQ PUSH2 0xDC1 JUMPI PUSH0 DUP5 ISZERO PUSH2 0xDAF JUMPI DUP3 DUP8 ADD MLOAD SWAP1 POP JUMPDEST PUSH2 0xDB9 DUP6 DUP3 PUSH2 0xD3E JUMP JUMPDEST DUP7 SSTORE POP PUSH2 0xE20 JUMP JUMPDEST PUSH1 0x1F NOT DUP5 AND PUSH2 0xDCF DUP7 PUSH2 0xBB9 JUMP JUMPDEST PUSH0 JUMPDEST DUP3 DUP2 LT ISZERO PUSH2 0xDF6 JUMPI DUP5 DUP10 ADD MLOAD DUP3 SSTORE PUSH1 0x1 DUP3 ADD SWAP2 POP PUSH1 0x20 DUP6 ADD SWAP5 POP PUSH1 0x20 DUP2 ADD SWAP1 POP PUSH2 0xDD1 JUMP JUMPDEST DUP7 DUP4 LT ISZERO PUSH2 0xE13 JUMPI DUP5 DUP10 ADD MLOAD PUSH2 0xE0F PUSH1 0x1F DUP10 AND DUP3 PUSH2 0xD22 JUMP JUMPDEST DUP4 SSTORE POP JUMPDEST PUSH1 0x1 PUSH1 0x2 DUP9 MUL ADD DUP9 SSTORE POP POP POP JUMPDEST POP POP POP POP POP POP JUMP JUMPDEST PUSH32 0x4E487B7100000000000000000000000000000000000000000000000000000000 PUSH0 MSTORE PUSH1 0x11 PUSH1 0x4 MSTORE PUSH1 0x24 PUSH0 REVERT JUMPDEST PUSH0 PUSH2 0xE5F DUP3 PUSH2 0x730 JUMP JUMPDEST SWAP2 POP PUSH32 0xFFFFFFFFFFFFFFFFFFFFFFFFFFFFFFFFFFFFFFFFFFFFFFFFFFFFFFFFFFFFFFFF DUP3 SUB PUSH2 0xE91 JUMPI PUSH2 0xE90 PUSH2 0xE28 JUMP JUMPDEST JUMPDEST PUSH1 0x1 DUP3 ADD SWAP1 POP SWAP2 SWAP1 POP JUMP JUMPDEST PUSH0 PUSH2 0xEA6 DUP3 PUSH2 0x730 JUMP JUMPDEST SWAP2 POP PUSH2 0xEB1 DUP4 PUSH2 0x730 JUMP JUMPDEST SWAP3 POP DUP3 DUP3 SUB SWAP1 POP DUP2 DUP2 GT ISZERO PUSH2 0xEC9 JUMPI PUSH2 0xEC8 PUSH2 0xE28 JUMP JUMPDEST JUMPDEST SWAP3 SWAP2 POP POP JUMP JUMPDEST PUSH0 DUP2 SWAP1 POP SWAP2 SWAP1 POP JUMP JUMPDEST PUSH2 0xEE1 DUP2 PUSH2 0xECF JUMP JUMPDEST DUP3 MSTORE POP POP JUMP JUMPDEST PUSH0 PUSH1 0x60 DUP3 ADD SWAP1 POP PUSH2 0xEFA PUSH0 DUP4 ADD DUP7 PUSH2 0x811 JUMP JUMPDEST PUSH2 0xF07 PUSH1 0x20 DUP4 ADD DUP6 PUSH2 0xED8 JUMP JUMPDEST PUSH2 0xF14 PUSH1 0x40 DUP4 ADD DUP5 PUSH2 0x811 JUMP JUMPDEST SWAP5 SWAP4 POP POP POP POP JUMP INVALID LOG2 PUSH5 0x6970667358 0x22 SLT KECCAK256 BLOCKHASH 0xEF 0x22 0x1F CALLER PUSH3 0x8AFAF7 TSTORE 0x23 SWAP5 0x4E 0xBE JUMPDEST CALL 0xE1 0xF9 0xB1 0xEC PUSH11 0xD485EC0C7542AEFC8E536D PUSH5 0x736F6C6343 STOP ADDMOD SHR STOP CALLER "
				},
				"gasEstimates": {
					"creation": {
						"codeDepositCost": "784400",
						"executionCost": "816",
						"totalCost": "785216"
					},
					"external": {
						"addGoat(string,uint256,uint256,string,string)": "infinite",
						"goatProducts(uint256,uint256)": "infinite",
						"goats(uint256)": "infinite",
						"healthHistory(uint256,uint256)": "infinite",
						"nextGoatId()": "2446"
					}
				},
				"methodIdentifiers": {
					"addGoat(string,uint256,uint256,string,string)": "c37f6a61",
					"goatProducts(uint256,uint256)": "0f53f667",
					"goats(uint256)": "9af76a90",
					"healthHistory(uint256,uint256)": "28b968ba",
					"nextGoatId()": "609e1e60"
				}
			},
			"storageLayout": {
				"storage": [
					{
						"astId": 30,
						"contract": "week9/bailamthem/bai1.sol:GoatManagement",
						"label": "nextGoatId",
						"offset": 0,
						"slot": "0",
						"type": "t_uint256"
					},
					{
						"astId": 35,
						"contract": "week9/bailamthem/bai1.sol:GoatManagement",
						"label": "goats",
						"offset": 0,
						"slot": "1",
						"type": "t_mapping(t_uint256,t_struct(Goat)14_storage)"
					},
					{
						"astId": 41,
						"contract": "week9/bailamthem/bai1.sol:GoatManagement",
						"label": "healthHistory",
						"offset": 0,
						"slot": "2",
						"type": "t_mapping(t_uint256,t_array(t_struct(HealthRecord)21_storage)dyn_storage)"
					},
					{
						"astId": 47,
						"contract": "week9/bailamthem/bai1.sol:GoatManagement",
						"label": "goatProducts",
						"offset": 0,
						"slot": "3",
						"type": "t_mapping(t_uint256,t_array(t_struct(Product)28_storage)dyn_storage)"
					}
				],
				"types": {
					"t_array(t_struct(HealthRecord)21_storage)dyn_storage": {
						"base": "t_struct(HealthRecord)21_storage",
						"encoding": "dynamic_array",
						"label": "struct GoatManagement.HealthRecord[]",
						"numberOfBytes": "32"
					},
					"t_array(t_struct(Product)28_storage)dyn_storage": {
						"base": "t_struct(Product)28_storage",
						"encoding": "dynamic_array",
						"label": "struct GoatManagement.Product[]",
						"numberOfBytes": "32"
					},
					"t_mapping(t_uint256,t_array(t_struct(HealthRecord)21_storage)dyn_storage)": {
						"encoding": "mapping",
						"key": "t_uint256",
						"label": "mapping(uint256 => struct GoatManagement.HealthRecord[])",
						"numberOfBytes": "32",
						"value": "t_array(t_struct(HealthRecord)21_storage)dyn_storage"
					},
					"t_mapping(t_uint256,t_array(t_struct(Product)28_storage)dyn_storage)": {
						"encoding": "mapping",
						"key": "t_uint256",
						"label": "mapping(uint256 => struct GoatManagement.Product[])",
						"numberOfBytes": "32",
						"value": "t_array(t_struct(Product)28_storage)dyn_storage"
					},
					"t_mapping(t_uint256,t_struct(Goat)14_storage)": {
						"encoding": "mapping",
						"key": "t_uint256",
						"label": "mapping(uint256 => struct GoatManagement.Goat)",
						"numberOfBytes": "32",
						"value": "t_struct(Goat)14_storage"
					},
					"t_string_storage": {
						"encoding": "bytes",
						"label": "string",
						"numberOfBytes": "32"
					},
					"t_struct(Goat)14_storage": {
						"encoding": "inplace",
						"label": "struct GoatManagement.Goat",
						"members": [
							{
								"astId": 3,
								"contract": "week9/bailamthem/bai1.sol:GoatManagement",
								"label": "id",
								"offset": 0,
								"slot": "0",
								"type": "t_uint256"
							},
							{
								"astId": 5,
								"contract": "week9/bailamthem/bai1.sol:GoatManagement",
								"label": "code",
								"offset": 0,
								"slot": "1",
								"type": "t_string_storage"
							},
							{
								"astId": 7,
								"contract": "week9/bailamthem/bai1.sol:GoatManagement",
								"label": "age",
								"offset": 0,
								"slot": "2",
								"type": "t_uint256"
							},
							{
								"astId": 9,
								"contract": "week9/bailamthem/bai1.sol:GoatManagement",
								"label": "weight",
								"offset": 0,
								"slot": "3",
								"type": "t_uint256"
							},
							{
								"astId": 11,
								"contract": "week9/bailamthem/bai1.sol:GoatManagement",
								"label": "breed",
								"offset": 0,
								"slot": "4",
								"type": "t_string_storage"
							},
							{
								"astId": 13,
								"contract": "week9/bailamthem/bai1.sol:GoatManagement",
								"label": "healthStatus",
								"offset": 0,
								"slot": "5",
								"type": "t_string_storage"
							}
						],
						"numberOfBytes": "192"
					},
					"t_struct(HealthRecord)21_storage": {
						"encoding": "inplace",
						"label": "struct GoatManagement.HealthRecord",
						"members": [
							{
								"astId": 16,
								"contract": "week9/bailamthem/bai1.sol:GoatManagement",
								"label": "date",
								"offset": 0,
								"slot": "0",
								"type": "t_string_storage"
							},
							{
								"astId": 18,
								"contract": "week9/bailamthem/bai1.sol:GoatManagement",
								"label": "healthStatus",
								"offset": 0,
								"slot": "1",
								"type": "t_string_storage"
							},
							{
								"astId": 20,
								"contract": "week9/bailamthem/bai1.sol:GoatManagement",
								"label": "treatment",
								"offset": 0,
								"slot": "2",
								"type": "t_string_storage"
							}
						],
						"numberOfBytes": "96"
					},
					"t_struct(Product)28_storage": {
						"encoding": "inplace",
						"label": "struct GoatManagement.Product",
						"members": [
							{
								"astId": 23,
								"contract": "week9/bailamthem/bai1.sol:GoatManagement",
								"label": "productType",
								"offset": 0,
								"slot": "0",
								"type": "t_string_storage"
							},
							{
								"astId": 25,
								"contract": "week9/bailamthem/bai1.sol:GoatManagement",
								"label": "quantity",
								"offset": 0,
								"slot": "1",
								"type": "t_uint256"
							},
							{
								"astId": 27,
								"contract": "week9/bailamthem/bai1.sol:GoatManagement",
								"label": "harvestDate",
								"offset": 0,
								"slot": "2",
								"type": "t_string_storage"
							}
						],
						"numberOfBytes": "96"
					},
					"t_uint256": {
						"encoding": "inplace",
						"label": "uint256",
						"numberOfBytes": "32"
					}
				}
			},
			"userdoc": {
				"kind": "user",
				"methods": {},
				"version": 1
			}
		}
	}
}