{
	"week9/bailamthem/HealthManagement.sol": {
		"GoatManagement": {
			"abi": [
				{
					"anonymous": false,
					"inputs": [
						{
							"indexed": false,
							"internalType": "uint256",
							"name": "gasUsed",
							"type": "uint256"
						},
						{
							"indexed": false,
							"internalType": "bytes32",
							"name": "txHash",
							"type": "bytes32"
						},
						{
							"indexed": false,
							"internalType": "uint256",
							"name": "blockNumber",
							"type": "uint256"
						}
					],
					"name": "TransactionDetails",
					"type": "event"
				},
				{
					"inputs": [
						{
							"internalType": "string",
							"name": "_code",
							"type": "string"
						},
						{
							"internalType": "uint256",
							"name": "_age",
							"type": "uint256"
						},
						{
							"internalType": "uint256",
							"name": "_weight",
							"type": "uint256"
						},
						{
							"internalType": "string",
							"name": "_breed",
							"type": "string"
						},
						{
							"internalType": "string",
							"name": "_healthStatus",
							"type": "string"
						},
						{
							"internalType": "bool",
							"name": "isBornInFarm",
							"type": "bool"
						},
						{
							"internalType": "enum GoatManagement.MatingType",
							"name": "_matingType",
							"type": "uint8"
						},
						{
							"internalType": "uint256",
							"name": "_parent1Id",
							"type": "uint256"
						},
						{
							"internalType": "uint256",
							"name": "_parent2Id",
							"type": "uint256"
						},
						{
							"internalType": "string",
							"name": "_note",
							"type": "string"
						},
						{
							"internalType": "string",
							"name": "_artificialBreed",
							"type": "string"
						}
					],
					"name": "addGoat",
					"outputs": [],
					"stateMutability": "nonpayable",
					"type": "function"
				},
				{
					"inputs": [
						{
							"internalType": "uint256",
							"name": "_goatId",
							"type": "uint256"
						},
						{
							"internalType": "string",
							"name": "_productType",
							"type": "string"
						},
						{
							"internalType": "uint256",
							"name": "_quantity",
							"type": "uint256"
						},
						{
							"internalType": "string",
							"name": "_harvresDate",
							"type": "string"
						}
					],
					"name": "addProduct",
					"outputs": [],
					"stateMutability": "nonpayable",
					"type": "function"
				},
				{
					"inputs": [
						{
							"internalType": "uint256",
							"name": "_goatId",
							"type": "uint256"
						}
					],
					"name": "calculateFeedCost",
					"outputs": [
						{
							"internalType": "uint256",
							"name": "",
							"type": "uint256"
						}
					],
					"stateMutability": "view",
					"type": "function"
				},
				{
					"inputs": [
						{
							"internalType": "uint256",
							"name": "",
							"type": "uint256"
						},
						{
							"internalType": "uint256",
							"name": "",
							"type": "uint256"
						}
					],
					"name": "goatProducts",
					"outputs": [
						{
							"internalType": "string",
							"name": "productType",
							"type": "string"
						},
						{
							"internalType": "uint256",
							"name": "quantity",
							"type": "uint256"
						},
						{
							"internalType": "string",
							"name": "harvestDate",
							"type": "string"
						}
					],
					"stateMutability": "view",
					"type": "function"
				},
				{
					"inputs": [
						{
							"internalType": "uint256",
							"name": "",
							"type": "uint256"
						}
					],
					"name": "goats",
					"outputs": [
						{
							"internalType": "uint256",
							"name": "id",
							"type": "uint256"
						},
						{
							"internalType": "string",
							"name": "code",
							"type": "string"
						},
						{
							"internalType": "uint256",
							"name": "age",
							"type": "uint256"
						},
						{
							"internalType": "uint256",
							"name": "weight",
							"type": "uint256"
						},
						{
							"internalType": "enum GoatManagement.Breed",
							"name": "breed",
							"type": "uint8"
						},
						{
							"internalType": "string",
							"name": "healthStatus",
							"type": "string"
						},
						{
							"internalType": "bool",
							"name": "isBornInFarm",
							"type": "bool"
						},
						{
							"internalType": "enum GoatManagement.MatingType",
							"name": "mattingType",
							"type": "uint8"
						},
						{
							"internalType": "uint256",
							"name": "parent1Id",
							"type": "uint256"
						},
						{
							"internalType": "uint256",
							"name": "parent2Id",
							"type": "uint256"
						},
						{
							"internalType": "string",
							"name": "note",
							"type": "string"
						},
						{
							"internalType": "string",
							"name": "artificialBreed",
							"type": "string"
						}
					],
					"stateMutability": "view",
					"type": "function"
				},
				{
					"inputs": [
						{
							"internalType": "uint256",
							"name": "",
							"type": "uint256"
						},
						{
							"internalType": "uint256",
							"name": "",
							"type": "uint256"
						}
					],
					"name": "healthHistory",
					"outputs": [
						{
							"internalType": "string",
							"name": "date",
							"type": "string"
						},
						{
							"internalType": "string",
							"name": "healthStatus",
							"type": "string"
						},
						{
							"internalType": "string",
							"name": "treatment",
							"type": "string"
						}
					],
					"stateMutability": "view",
					"type": "function"
				},
				{
					"inputs": [],
					"name": "nextGoatId",
					"outputs": [
						{
							"internalType": "uint256",
							"name": "",
							"type": "uint256"
						}
					],
					"stateMutability": "view",
					"type": "function"
				},
				{
					"inputs": [],
					"name": "totalMonthlyFeedCost",
					"outputs": [
						{
							"internalType": "uint256",
							"name": "",
							"type": "uint256"
						}
					],
					"stateMutability": "view",
					"type": "function"
				},
				{
					"inputs": [
						{
							"internalType": "uint256",
							"name": "_goatId",
							"type": "uint256"
						},
						{
							"internalType": "string",
							"name": "_date",
							"type": "string"
						},
						{
							"internalType": "string",
							"name": "_healthStatus",
							"type": "string"
						},
						{
							"internalType": "string",
							"name": "_treatment",
							"type": "string"
						}
					],
					"name": "updateHealth",
					"outputs": [],
					"stateMutability": "nonpayable",
					"type": "function"
				}
			],
			"devdoc": {
				"kind": "dev",
				"methods": {},
				"version": 1
			},
			"evm": {
				"assembly": "    /* \"week9/bailamthem/HealthManagement.sol\":171:4864  contract GoatManagement {... */\n  mstore(0x40, 0x80)\n  callvalue\n  dup1\n  iszero\n  tag_1\n  jumpi\n  revert(0x00, 0x00)\ntag_1:\n  pop\n  dataSize(sub_0)\n  dup1\n  dataOffset(sub_0)\n  0x00\n  codecopy\n  0x00\n  return\nstop\n\nsub_0: assembly {\n        /* \"week9/bailamthem/HealthManagement.sol\":171:4864  contract GoatManagement {... */\n      mstore(0x40, 0x80)\n      callvalue\n      dup1\n      iszero\n      tag_1\n      jumpi\n      revert(0x00, 0x00)\n    tag_1:\n      pop\n      jumpi(tag_2, lt(calldatasize, 0x04))\n      shr(0xe0, calldataload(0x00))\n      dup1\n      0x609e1e60\n      gt\n      tag_12\n      jumpi\n      dup1\n      0x609e1e60\n      eq\n      tag_7\n      jumpi\n      dup1\n      0x6d25a3d1\n      eq\n      tag_8\n      jumpi\n      dup1\n      0x7454a9f6\n      eq\n      tag_9\n      jumpi\n      dup1\n      0x79c66a04\n      eq\n      tag_10\n      jumpi\n      dup1\n      0x9af76a90\n      eq\n      tag_11\n      jumpi\n      jump(tag_2)\n    tag_12:\n      dup1\n      0x0e366cbe\n      eq\n      tag_3\n      jumpi\n      dup1\n      0x0f53f667\n      eq\n      tag_4\n      jumpi\n      dup1\n      0x28b968ba\n      eq\n      tag_5\n      jumpi\n      dup1\n      0x338ad5c2\n      eq\n      tag_6\n      jumpi\n    tag_2:\n      revert(0x00, 0x00)\n        /* \"week9/bailamthem/HealthManagement.sol\":2245:3209  function addGoat(... */\n    tag_3:\n      tag_13\n      0x04\n      dup1\n      calldatasize\n      sub\n      dup2\n      add\n      swap1\n      tag_14\n      swap2\n      swap1\n      tag_15\n      jump\t// in\n    tag_14:\n      tag_16\n      jump\t// in\n    tag_13:\n      stop\n        /* \"week9/bailamthem/HealthManagement.sol\":1396:1442  mapping(uint => Product[]) public goatProducts */\n    tag_4:\n      tag_17\n      0x04\n      dup1\n      calldatasize\n      sub\n      dup2\n      add\n      swap1\n      tag_18\n      swap2\n      swap1\n      tag_19\n      jump\t// in\n    tag_18:\n      tag_20\n      jump\t// in\n    tag_17:\n      mload(0x40)\n      tag_21\n      swap4\n      swap3\n      swap2\n      swap1\n      tag_22\n      jump\t// in\n    tag_21:\n      mload(0x40)\n      dup1\n      swap2\n      sub\n      swap1\n      return\n        /* \"week9/bailamthem/HealthManagement.sol\":1337:1389  mapping(uint => HealthRecord[]) public healthHistory */\n    tag_5:\n      tag_23\n      0x04\n      dup1\n      calldatasize\n      sub\n      dup2\n      add\n      swap1\n      tag_24\n      swap2\n      swap1\n      tag_19\n      jump\t// in\n    tag_24:\n      tag_25\n      jump\t// in\n    tag_23:\n      mload(0x40)\n      tag_26\n      swap4\n      swap3\n      swap2\n      swap1\n      tag_27\n      jump\t// in\n    tag_26:\n      mload(0x40)\n      dup1\n      swap2\n      sub\n      swap1\n      return\n        /* \"week9/bailamthem/HealthManagement.sol\":3341:3771  function updateHealth(uint _goatId, string memory _date, string memory _healthStatus, string memory _treatment) public {... */\n    tag_6:\n      tag_28\n      0x04\n      dup1\n      calldatasize\n      sub\n      dup2\n      add\n      swap1\n      tag_29\n      swap2\n      swap1\n      tag_30\n      jump\t// in\n    tag_29:\n      tag_31\n      jump\t// in\n    tag_28:\n      stop\n        /* \"week9/bailamthem/HealthManagement.sol\":1265:1287  uint public nextGoatId */\n    tag_7:\n      tag_32\n      tag_33\n      jump\t// in\n    tag_32:\n      mload(0x40)\n      tag_34\n      swap2\n      swap1\n      tag_35\n      jump\t// in\n    tag_34:\n      mload(0x40)\n      dup1\n      swap2\n      sub\n      swap1\n      return\n        /* \"week9/bailamthem/HealthManagement.sol\":3815:4184  function addProduct(uint _goatId, string memory _productType, uint _quantity, string memory _harvresDate) public {... */\n    tag_8:\n      tag_36\n      0x04\n      dup1\n      calldatasize\n      sub\n      dup2\n      add\n      swap1\n      tag_37\n      swap2\n      swap1\n      tag_38\n      jump\t// in\n    tag_37:\n      tag_39\n      jump\t// in\n    tag_36:\n      stop\n        /* \"week9/bailamthem/HealthManagement.sol\":4280:4574  function calculateFeedCost(uint _goatId) public view returns (uint) {... */\n    tag_9:\n      tag_40\n      0x04\n      dup1\n      calldatasize\n      sub\n      dup2\n      add\n      swap1\n      tag_41\n      swap2\n      swap1\n      tag_42\n      jump\t// in\n    tag_41:\n      tag_43\n      jump\t// in\n    tag_40:\n      mload(0x40)\n      tag_44\n      swap2\n      swap1\n      tag_35\n      jump\t// in\n    tag_44:\n      mload(0x40)\n      dup1\n      swap2\n      sub\n      swap1\n      return\n        /* \"week9/bailamthem/HealthManagement.sol\":4632:4861  function totalMonthlyFeedCost() public view returns(uint) {... */\n    tag_10:\n      tag_45\n      tag_46\n      jump\t// in\n    tag_45:\n      mload(0x40)\n      tag_47\n      swap2\n      swap1\n      tag_35\n      jump\t// in\n    tag_47:\n      mload(0x40)\n      dup1\n      swap2\n      sub\n      swap1\n      return\n        /* \"week9/bailamthem/HealthManagement.sol\":1296:1330  mapping(uint => Goat) public goats */\n    tag_11:\n      tag_48\n      0x04\n      dup1\n      calldatasize\n      sub\n      dup2\n      add\n      swap1\n      tag_49\n      swap2\n      swap1\n      tag_42\n      jump\t// in\n    tag_49:\n      tag_50\n      jump\t// in\n    tag_48:\n      mload(0x40)\n      tag_51\n      swap13\n      swap12\n      swap11\n      swap10\n      swap9\n      swap8\n      swap7\n      swap6\n      swap5\n      swap4\n      swap3\n      swap2\n      swap1\n      tag_52\n      jump\t// in\n    tag_51:\n      mload(0x40)\n      dup1\n      swap2\n      sub\n      swap1\n      return\n        /* \"week9/bailamthem/HealthManagement.sol\":2245:3209  function addGoat(... */\n    tag_16:\n        /* \"week9/bailamthem/HealthManagement.sol\":2617:2633  Breed breedValue */\n      0x00\n        /* \"week9/bailamthem/HealthManagement.sol\":2636:2656  getEnumValue(_breed) */\n      tag_54\n        /* \"week9/bailamthem/HealthManagement.sol\":2649:2655  _breed */\n      dup10\n        /* \"week9/bailamthem/HealthManagement.sol\":2636:2648  getEnumValue */\n      tag_55\n        /* \"week9/bailamthem/HealthManagement.sol\":2636:2656  getEnumValue(_breed) */\n      jump\t// in\n    tag_54:\n        /* \"week9/bailamthem/HealthManagement.sol\":2617:2656  Breed breedValue = getEnumValue(_breed) */\n      swap1\n      pop\n        /* \"week9/bailamthem/HealthManagement.sol\":2730:3043  Goat(... */\n      mload(0x40)\n      dup1\n      0x0180\n      add\n      0x40\n      mstore\n      dup1\n        /* \"week9/bailamthem/HealthManagement.sol\":2749:2759  nextGoatId */\n      sload(0x00)\n        /* \"week9/bailamthem/HealthManagement.sol\":2730:3043  Goat(... */\n      dup2\n      mstore\n      0x20\n      add\n        /* \"week9/bailamthem/HealthManagement.sol\":2775:2780  _code */\n      dup14\n        /* \"week9/bailamthem/HealthManagement.sol\":2730:3043  Goat(... */\n      dup2\n      mstore\n      0x20\n      add\n        /* \"week9/bailamthem/HealthManagement.sol\":2796:2800  _age */\n      dup13\n        /* \"week9/bailamthem/HealthManagement.sol\":2730:3043  Goat(... */\n      dup2\n      mstore\n      0x20\n      add\n        /* \"week9/bailamthem/HealthManagement.sol\":2816:2823  _weight */\n      dup12\n        /* \"week9/bailamthem/HealthManagement.sol\":2730:3043  Goat(... */\n      dup2\n      mstore\n      0x20\n      add\n        /* \"week9/bailamthem/HealthManagement.sol\":2839:2849  breedValue */\n      dup3\n        /* \"week9/bailamthem/HealthManagement.sol\":2730:3043  Goat(... */\n      0x02\n      dup2\n      gt\n      iszero\n      tag_56\n      jumpi\n      tag_57\n      tag_58\n      jump\t// in\n    tag_57:\n    tag_56:\n      dup2\n      mstore\n      0x20\n      add\n        /* \"week9/bailamthem/HealthManagement.sol\":2865:2878  _healthStatus */\n      dup10\n        /* \"week9/bailamthem/HealthManagement.sol\":2730:3043  Goat(... */\n      dup2\n      mstore\n      0x20\n      add\n        /* \"week9/bailamthem/HealthManagement.sol\":2893:2905  isBornInFarm */\n      dup9\n        /* \"week9/bailamthem/HealthManagement.sol\":2730:3043  Goat(... */\n      iszero\n      iszero\n      dup2\n      mstore\n      0x20\n      add\n        /* \"week9/bailamthem/HealthManagement.sol\":2920:2931  _matingType */\n      dup8\n        /* \"week9/bailamthem/HealthManagement.sol\":2730:3043  Goat(... */\n      0x02\n      dup2\n      gt\n      iszero\n      tag_59\n      jumpi\n      tag_60\n      tag_58\n      jump\t// in\n    tag_60:\n    tag_59:\n      dup2\n      mstore\n      0x20\n      add\n        /* \"week9/bailamthem/HealthManagement.sol\":2946:2956  _parent1Id */\n      dup7\n        /* \"week9/bailamthem/HealthManagement.sol\":2730:3043  Goat(... */\n      dup2\n      mstore\n      0x20\n      add\n        /* \"week9/bailamthem/HealthManagement.sol\":2971:2981  _parent2Id */\n      dup6\n        /* \"week9/bailamthem/HealthManagement.sol\":2730:3043  Goat(... */\n      dup2\n      mstore\n      0x20\n      add\n        /* \"week9/bailamthem/HealthManagement.sol\":2996:3001  _note */\n      dup5\n        /* \"week9/bailamthem/HealthManagement.sol\":2730:3043  Goat(... */\n      dup2\n      mstore\n      0x20\n      add\n        /* \"week9/bailamthem/HealthManagement.sol\":3016:3032  _artificialBreed */\n      dup4\n        /* \"week9/bailamthem/HealthManagement.sol\":2730:3043  Goat(... */\n      dup2\n      mstore\n      pop\n        /* \"week9/bailamthem/HealthManagement.sol\":2710:2715  goats */\n      0x01\n        /* \"week9/bailamthem/HealthManagement.sol\":2710:2727  goats[nextGoatId] */\n      0x00\n        /* \"week9/bailamthem/HealthManagement.sol\":2716:2726  nextGoatId */\n      sload(0x00)\n        /* \"week9/bailamthem/HealthManagement.sol\":2710:2727  goats[nextGoatId] */\n      dup2\n      mstore\n      0x20\n      add\n      swap1\n      dup2\n      mstore\n      0x20\n      add\n      0x00\n      keccak256\n        /* \"week9/bailamthem/HealthManagement.sol\":2710:3043  goats[nextGoatId] = Goat(... */\n      0x00\n      dup3\n      add\n      mload\n      dup2\n      0x00\n      add\n      sstore\n      0x20\n      dup3\n      add\n      mload\n      dup2\n      0x01\n      add\n      swap1\n      dup2\n      tag_61\n      swap2\n      swap1\n      tag_62\n      jump\t// in\n    tag_61:\n      pop\n      0x40\n      dup3\n      add\n      mload\n      dup2\n      0x02\n      add\n      sstore\n      0x60\n      dup3\n      add\n      mload\n      dup2\n      0x03\n      add\n      sstore\n      0x80\n      dup3\n      add\n      mload\n      dup2\n      0x04\n      add\n      exp(0x0100, 0x00)\n      dup2\n      sload\n      dup2\n      0xff\n      mul\n      not\n      and\n      swap1\n      dup4\n      0x02\n      dup2\n      gt\n      iszero\n      tag_63\n      jumpi\n      tag_64\n      tag_58\n      jump\t// in\n    tag_64:\n    tag_63:\n      mul\n      or\n      swap1\n      sstore\n      pop\n      0xa0\n      dup3\n      add\n      mload\n      dup2\n      0x05\n      add\n      swap1\n      dup2\n      tag_65\n      swap2\n      swap1\n      tag_62\n      jump\t// in\n    tag_65:\n      pop\n      0xc0\n      dup3\n      add\n      mload\n      dup2\n      0x06\n      add\n      exp(0x0100, 0x00)\n      dup2\n      sload\n      dup2\n      0xff\n      mul\n      not\n      and\n      swap1\n      dup4\n      iszero\n      iszero\n      mul\n      or\n      swap1\n      sstore\n      pop\n      0xe0\n      dup3\n      add\n      mload\n      dup2\n      0x06\n      add\n      exp(0x0100, 0x01)\n      dup2\n      sload\n      dup2\n      0xff\n      mul\n      not\n      and\n      swap1\n      dup4\n      0x02\n      dup2\n      gt\n      iszero\n      tag_66\n      jumpi\n      tag_67\n      tag_58\n      jump\t// in\n    tag_67:\n    tag_66:\n      mul\n      or\n      swap1\n      sstore\n      pop\n      0x0100\n      dup3\n      add\n      mload\n      dup2\n      0x07\n      add\n      sstore\n      0x0120\n      dup3\n      add\n      mload\n      dup2\n      0x08\n      add\n      sstore\n      0x0140\n      dup3\n      add\n      mload\n      dup2\n      0x09\n      add\n      swap1\n      dup2\n      tag_68\n      swap2\n      swap1\n      tag_62\n      jump\t// in\n    tag_68:\n      pop\n      0x0160\n      dup3\n      add\n      mload\n      dup2\n      0x0a\n      add\n      swap1\n      dup2\n      tag_69\n      swap2\n      swap1\n      tag_62\n      jump\t// in\n    tag_69:\n      pop\n      swap1\n      pop\n      pop\n        /* \"week9/bailamthem/HealthManagement.sol\":3097:3107  nextGoatId */\n      0x00\n      0x00\n        /* \"week9/bailamthem/HealthManagement.sol\":3097:3109  nextGoatId++ */\n      dup2\n      sload\n      dup1\n      swap3\n      swap2\n      swap1\n      tag_70\n      swap1\n      tag_71\n      jump\t// in\n    tag_70:\n      swap2\n      swap1\n      pop\n      sstore\n      pop\n        /* \"week9/bailamthem/HealthManagement.sol\":3127:3201  TransactionDetails(tx.gasprice, blockhash(block.number - 1), block.number) */\n      0x7efab20ab4c4d8c33ecd03458d6147bf7ccc1faa40dfeedd6f2d7a7cf28a12d7\n        /* \"week9/bailamthem/HealthManagement.sol\":3146:3157  tx.gasprice */\n      gasprice\n        /* \"week9/bailamthem/HealthManagement.sol\":3184:3185  1 */\n      0x01\n        /* \"week9/bailamthem/HealthManagement.sol\":3169:3181  block.number */\n      number\n        /* \"week9/bailamthem/HealthManagement.sol\":3169:3185  block.number - 1 */\n      tag_72\n      swap2\n      swap1\n      tag_73\n      jump\t// in\n    tag_72:\n        /* \"week9/bailamthem/HealthManagement.sol\":3159:3186  blockhash(block.number - 1) */\n      blockhash\n        /* \"week9/bailamthem/HealthManagement.sol\":3188:3200  block.number */\n      number\n        /* \"week9/bailamthem/HealthManagement.sol\":3127:3201  TransactionDetails(tx.gasprice, blockhash(block.number - 1), block.number) */\n      mload(0x40)\n      tag_74\n      swap4\n      swap3\n      swap2\n      swap1\n      tag_75\n      jump\t// in\n    tag_74:\n      mload(0x40)\n      dup1\n      swap2\n      sub\n      swap1\n      log1\n        /* \"week9/bailamthem/HealthManagement.sol\":2606:3209  {... */\n      pop\n        /* \"week9/bailamthem/HealthManagement.sol\":2245:3209  function addGoat(... */\n      pop\n      pop\n      pop\n      pop\n      pop\n      pop\n      pop\n      pop\n      pop\n      pop\n      pop\n      jump\t// out\n        /* \"week9/bailamthem/HealthManagement.sol\":1396:1442  mapping(uint => Product[]) public goatProducts */\n    tag_20:\n      mstore(0x20, 0x03)\n      dup2\n      0x00\n      mstore\n      keccak256(0x00, 0x40)\n      dup2\n      dup2\n      sload\n      dup2\n      lt\n      tag_76\n      jumpi\n      0x00\n      dup1\n      revert\n    tag_76:\n      swap1\n      0x00\n      mstore\n      keccak256(0x00, 0x20)\n      swap1\n      0x03\n      mul\n      add\n      0x00\n      swap2\n      pop\n      swap2\n      pop\n      pop\n      dup1\n      0x00\n      add\n      dup1\n      sload\n      tag_78\n      swap1\n      tag_79\n      jump\t// in\n    tag_78:\n      dup1\n      0x1f\n      add\n      0x20\n      dup1\n      swap2\n      div\n      mul\n      0x20\n      add\n      mload(0x40)\n      swap1\n      dup2\n      add\n      0x40\n      mstore\n      dup1\n      swap3\n      swap2\n      swap1\n      dup2\n      dup2\n      mstore\n      0x20\n      add\n      dup3\n      dup1\n      sload\n      tag_80\n      swap1\n      tag_79\n      jump\t// in\n    tag_80:\n      dup1\n      iszero\n      tag_81\n      jumpi\n      dup1\n      0x1f\n      lt\n      tag_82\n      jumpi\n      0x0100\n      dup1\n      dup4\n      sload\n      div\n      mul\n      dup4\n      mstore\n      swap2\n      0x20\n      add\n      swap2\n      jump(tag_81)\n    tag_82:\n      dup3\n      add\n      swap2\n      swap1\n      0x00\n      mstore\n      keccak256(0x00, 0x20)\n      swap1\n    tag_83:\n      dup2\n      sload\n      dup2\n      mstore\n      swap1\n      0x01\n      add\n      swap1\n      0x20\n      add\n      dup1\n      dup4\n      gt\n      tag_83\n      jumpi\n      dup3\n      swap1\n      sub\n      0x1f\n      and\n      dup3\n      add\n      swap2\n    tag_81:\n      pop\n      pop\n      pop\n      pop\n      pop\n      swap1\n      dup1\n      0x01\n      add\n      sload\n      swap1\n      dup1\n      0x02\n      add\n      dup1\n      sload\n      tag_84\n      swap1\n      tag_79\n      jump\t// in\n    tag_84:\n      dup1\n      0x1f\n      add\n      0x20\n      dup1\n      swap2\n      div\n      mul\n      0x20\n      add\n      mload(0x40)\n      swap1\n      dup2\n      add\n      0x40\n      mstore\n      dup1\n      swap3\n      swap2\n      swap1\n      dup2\n      dup2\n      mstore\n      0x20\n      add\n      dup3\n      dup1\n      sload\n      tag_85\n      swap1\n      tag_79\n      jump\t// in\n    tag_85:\n      dup1\n      iszero\n      tag_86\n      jumpi\n      dup1\n      0x1f\n      lt\n      tag_87\n      jumpi\n      0x0100\n      dup1\n      dup4\n      sload\n      div\n      mul\n      dup4\n      mstore\n      swap2\n      0x20\n      add\n      swap2\n      jump(tag_86)\n    tag_87:\n      dup3\n      add\n      swap2\n      swap1\n      0x00\n      mstore\n      keccak256(0x00, 0x20)\n      swap1\n    tag_88:\n      dup2\n      sload\n      dup2\n      mstore\n      swap1\n      0x01\n      add\n      swap1\n      0x20\n      add\n      dup1\n      dup4\n      gt\n      tag_88\n      jumpi\n      dup3\n      swap1\n      sub\n      0x1f\n      and\n      dup3\n      add\n      swap2\n    tag_86:\n      pop\n      pop\n      pop\n      pop\n      pop\n      swap1\n      pop\n      dup4\n      jump\t// out\n        /* \"week9/bailamthem/HealthManagement.sol\":1337:1389  mapping(uint => HealthRecord[]) public healthHistory */\n    tag_25:\n      mstore(0x20, 0x02)\n      dup2\n      0x00\n      mstore\n      keccak256(0x00, 0x40)\n      dup2\n      dup2\n      sload\n      dup2\n      lt\n      tag_89\n      jumpi\n      0x00\n      dup1\n      revert\n    tag_89:\n      swap1\n      0x00\n      mstore\n      keccak256(0x00, 0x20)\n      swap1\n      0x03\n      mul\n      add\n      0x00\n      swap2\n      pop\n      swap2\n      pop\n      pop\n      dup1\n      0x00\n      add\n      dup1\n      sload\n      tag_91\n      swap1\n      tag_79\n      jump\t// in\n    tag_91:\n      dup1\n      0x1f\n      add\n      0x20\n      dup1\n      swap2\n      div\n      mul\n      0x20\n      add\n      mload(0x40)\n      swap1\n      dup2\n      add\n      0x40\n      mstore\n      dup1\n      swap3\n      swap2\n      swap1\n      dup2\n      dup2\n      mstore\n      0x20\n      add\n      dup3\n      dup1\n      sload\n      tag_92\n      swap1\n      tag_79\n      jump\t// in\n    tag_92:\n      dup1\n      iszero\n      tag_93\n      jumpi\n      dup1\n      0x1f\n      lt\n      tag_94\n      jumpi\n      0x0100\n      dup1\n      dup4\n      sload\n      div\n      mul\n      dup4\n      mstore\n      swap2\n      0x20\n      add\n      swap2\n      jump(tag_93)\n    tag_94:\n      dup3\n      add\n      swap2\n      swap1\n      0x00\n      mstore\n      keccak256(0x00, 0x20)\n      swap1\n    tag_95:\n      dup2\n      sload\n      dup2\n      mstore\n      swap1\n      0x01\n      add\n      swap1\n      0x20\n      add\n      dup1\n      dup4\n      gt\n      tag_95\n      jumpi\n      dup3\n      swap1\n      sub\n      0x1f\n      and\n      dup3\n      add\n      swap2\n    tag_93:\n      pop\n      pop\n      pop\n      pop\n      pop\n      swap1\n      dup1\n      0x01\n      add\n      dup1\n      sload\n      tag_96\n      swap1\n      tag_79\n      jump\t// in\n    tag_96:\n      dup1\n      0x1f\n      add\n      0x20\n      dup1\n      swap2\n      div\n      mul\n      0x20\n      add\n      mload(0x40)\n      swap1\n      dup2\n      add\n      0x40\n      mstore\n      dup1\n      swap3\n      swap2\n      swap1\n      dup2\n      dup2\n      mstore\n      0x20\n      add\n      dup3\n      dup1\n      sload\n      tag_97\n      swap1\n      tag_79\n      jump\t// in\n    tag_97:\n      dup1\n      iszero\n      tag_98\n      jumpi\n      dup1\n      0x1f\n      lt\n      tag_99\n      jumpi\n      0x0100\n      dup1\n      dup4\n      sload\n      div\n      mul\n      dup4\n      mstore\n      swap2\n      0x20\n      add\n      swap2\n      jump(tag_98)\n    tag_99:\n      dup3\n      add\n      swap2\n      swap1\n      0x00\n      mstore\n      keccak256(0x00, 0x20)\n      swap1\n    tag_100:\n      dup2\n      sload\n      dup2\n      mstore\n      swap1\n      0x01\n      add\n      swap1\n      0x20\n      add\n      dup1\n      dup4\n      gt\n      tag_100\n      jumpi\n      dup3\n      swap1\n      sub\n      0x1f\n      and\n      dup3\n      add\n      swap2\n    tag_98:\n      pop\n      pop\n      pop\n      pop\n      pop\n      swap1\n      dup1\n      0x02\n      add\n      dup1\n      sload\n      tag_101\n      swap1\n      tag_79\n      jump\t// in\n    tag_101:\n      dup1\n      0x1f\n      add\n      0x20\n      dup1\n      swap2\n      div\n      mul\n      0x20\n      add\n      mload(0x40)\n      swap1\n      dup2\n      add\n      0x40\n      mstore\n      dup1\n      swap3\n      swap2\n      swap1\n      dup2\n      dup2\n      mstore\n      0x20\n      add\n      dup3\n      dup1\n      sload\n      tag_102\n      swap1\n      tag_79\n      jump\t// in\n    tag_102:\n      dup1\n      iszero\n      tag_103\n      jumpi\n      dup1\n      0x1f\n      lt\n      tag_104\n      jumpi\n      0x0100\n      dup1\n      dup4\n      sload\n      div\n      mul\n      dup4\n      mstore\n      swap2\n      0x20\n      add\n      swap2\n      jump(tag_103)\n    tag_104:\n      dup3\n      add\n      swap2\n      swap1\n      0x00\n      mstore\n      keccak256(0x00, 0x20)\n      swap1\n    tag_105:\n      dup2\n      sload\n      dup2\n      mstore\n      swap1\n      0x01\n      add\n      swap1\n      0x20\n      add\n      dup1\n      dup4\n      gt\n      tag_105\n      jumpi\n      dup3\n      swap1\n      sub\n      0x1f\n      and\n      dup3\n      add\n      swap2\n    tag_103:\n      pop\n      pop\n      pop\n      pop\n      pop\n      swap1\n      pop\n      dup4\n      jump\t// out\n        /* \"week9/bailamthem/HealthManagement.sol\":3341:3771  function updateHealth(uint _goatId, string memory _date, string memory _healthStatus, string memory _treatment) public {... */\n    tag_31:\n        /* \"week9/bailamthem/HealthManagement.sol\":3500:3507  _goatId */\n      dup4\n        /* \"week9/bailamthem/HealthManagement.sol\":3479:3484  goats */\n      0x01\n        /* \"week9/bailamthem/HealthManagement.sol\":3479:3493  goats[_goatId] */\n      0x00\n        /* \"week9/bailamthem/HealthManagement.sol\":3485:3492  _goatId */\n      dup7\n        /* \"week9/bailamthem/HealthManagement.sol\":3479:3493  goats[_goatId] */\n      dup2\n      mstore\n      0x20\n      add\n      swap1\n      dup2\n      mstore\n      0x20\n      add\n      0x00\n      keccak256\n        /* \"week9/bailamthem/HealthManagement.sol\":3479:3496  goats[_goatId].id */\n      0x00\n      add\n      sload\n        /* \"week9/bailamthem/HealthManagement.sol\":3479:3507  goats[_goatId].id == _goatId */\n      eq\n        /* \"week9/bailamthem/HealthManagement.sol\":3471:3531  require(goats[_goatId].id == _goatId, \"Goat does not exist\") */\n      tag_107\n      jumpi\n      mload(0x40)\n      0x08c379a000000000000000000000000000000000000000000000000000000000\n      dup2\n      mstore\n      0x04\n      add\n      tag_108\n      swap1\n      tag_109\n      jump\t// in\n    tag_108:\n      mload(0x40)\n      dup1\n      swap2\n      sub\n      swap1\n      revert\n    tag_107:\n        /* \"week9/bailamthem/HealthManagement.sol\":3542:3555  healthHistory */\n      0x02\n        /* \"week9/bailamthem/HealthManagement.sol\":3542:3564  healthHistory[_goatId] */\n      0x00\n        /* \"week9/bailamthem/HealthManagement.sol\":3556:3563  _goatId */\n      dup6\n        /* \"week9/bailamthem/HealthManagement.sol\":3542:3564  healthHistory[_goatId] */\n      dup2\n      mstore\n      0x20\n      add\n      swap1\n      dup2\n      mstore\n      0x20\n      add\n      0x00\n      keccak256\n        /* \"week9/bailamthem/HealthManagement.sol\":3570:3616  HealthRecord(_date, _healthStatus, _treatment) */\n      mload(0x40)\n      dup1\n      0x60\n      add\n      0x40\n      mstore\n      dup1\n        /* \"week9/bailamthem/HealthManagement.sol\":3583:3588  _date */\n      dup6\n        /* \"week9/bailamthem/HealthManagement.sol\":3570:3616  HealthRecord(_date, _healthStatus, _treatment) */\n      dup2\n      mstore\n      0x20\n      add\n        /* \"week9/bailamthem/HealthManagement.sol\":3590:3603  _healthStatus */\n      dup5\n        /* \"week9/bailamthem/HealthManagement.sol\":3570:3616  HealthRecord(_date, _healthStatus, _treatment) */\n      dup2\n      mstore\n      0x20\n      add\n        /* \"week9/bailamthem/HealthManagement.sol\":3605:3615  _treatment */\n      dup4\n        /* \"week9/bailamthem/HealthManagement.sol\":3570:3616  HealthRecord(_date, _healthStatus, _treatment) */\n      dup2\n      mstore\n      pop\n        /* \"week9/bailamthem/HealthManagement.sol\":3542:3617  healthHistory[_goatId].push(HealthRecord(_date, _healthStatus, _treatment)) */\n      swap1\n      dup1\n      0x01\n      dup2\n      sload\n      add\n      dup1\n      dup3\n      sstore\n      dup1\n      swap2\n      pop\n      pop\n      0x01\n      swap1\n      sub\n      swap1\n      0x00\n      mstore\n      keccak256(0x00, 0x20)\n      swap1\n      0x03\n      mul\n      add\n      0x00\n      swap1\n      swap2\n      swap1\n      swap2\n      swap1\n      swap2\n      pop\n      0x00\n      dup3\n      add\n      mload\n      dup2\n      0x00\n      add\n      swap1\n      dup2\n      tag_111\n      swap2\n      swap1\n      tag_62\n      jump\t// in\n    tag_111:\n      pop\n      0x20\n      dup3\n      add\n      mload\n      dup2\n      0x01\n      add\n      swap1\n      dup2\n      tag_112\n      swap2\n      swap1\n      tag_62\n      jump\t// in\n    tag_112:\n      pop\n      0x40\n      dup3\n      add\n      mload\n      dup2\n      0x02\n      add\n      swap1\n      dup2\n      tag_113\n      swap2\n      swap1\n      tag_62\n      jump\t// in\n    tag_113:\n      pop\n      pop\n      pop\n        /* \"week9/bailamthem/HealthManagement.sol\":3658:3671  _healthStatus */\n      dup2\n        /* \"week9/bailamthem/HealthManagement.sol\":3628:3633  goats */\n      0x01\n        /* \"week9/bailamthem/HealthManagement.sol\":3628:3642  goats[_goatId] */\n      0x00\n        /* \"week9/bailamthem/HealthManagement.sol\":3634:3641  _goatId */\n      dup7\n        /* \"week9/bailamthem/HealthManagement.sol\":3628:3642  goats[_goatId] */\n      dup2\n      mstore\n      0x20\n      add\n      swap1\n      dup2\n      mstore\n      0x20\n      add\n      0x00\n      keccak256\n        /* \"week9/bailamthem/HealthManagement.sol\":3628:3655  goats[_goatId].healthStatus */\n      0x05\n      add\n        /* \"week9/bailamthem/HealthManagement.sol\":3628:3671  goats[_goatId].healthStatus = _healthStatus */\n      swap1\n      dup2\n      tag_114\n      swap2\n      swap1\n      tag_62\n      jump\t// in\n    tag_114:\n      pop\n        /* \"week9/bailamthem/HealthManagement.sol\":3689:3763  TransactionDetails(tx.gasprice, blockhash(block.number - 1), block.number) */\n      0x7efab20ab4c4d8c33ecd03458d6147bf7ccc1faa40dfeedd6f2d7a7cf28a12d7\n        /* \"week9/bailamthem/HealthManagement.sol\":3708:3719  tx.gasprice */\n      gasprice\n        /* \"week9/bailamthem/HealthManagement.sol\":3746:3747  1 */\n      0x01\n        /* \"week9/bailamthem/HealthManagement.sol\":3731:3743  block.number */\n      number\n        /* \"week9/bailamthem/HealthManagement.sol\":3731:3747  block.number - 1 */\n      tag_115\n      swap2\n      swap1\n      tag_73\n      jump\t// in\n    tag_115:\n        /* \"week9/bailamthem/HealthManagement.sol\":3721:3748  blockhash(block.number - 1) */\n      blockhash\n        /* \"week9/bailamthem/HealthManagement.sol\":3750:3762  block.number */\n      number\n        /* \"week9/bailamthem/HealthManagement.sol\":3689:3763  TransactionDetails(tx.gasprice, blockhash(block.number - 1), block.number) */\n      mload(0x40)\n      tag_116\n      swap4\n      swap3\n      swap2\n      swap1\n      tag_75\n      jump\t// in\n    tag_116:\n      mload(0x40)\n      dup1\n      swap2\n      sub\n      swap1\n      log1\n        /* \"week9/bailamthem/HealthManagement.sol\":3341:3771  function updateHealth(uint _goatId, string memory _date, string memory _healthStatus, string memory _treatment) public {... */\n      pop\n      pop\n      pop\n      pop\n      jump\t// out\n        /* \"week9/bailamthem/HealthManagement.sol\":1265:1287  uint public nextGoatId */\n    tag_33:\n      sload(0x00)\n      dup2\n      jump\t// out\n        /* \"week9/bailamthem/HealthManagement.sol\":3815:4184  function addProduct(uint _goatId, string memory _productType, uint _quantity, string memory _harvresDate) public {... */\n    tag_39:\n        /* \"week9/bailamthem/HealthManagement.sol\":3968:3975  _goatId */\n      dup4\n        /* \"week9/bailamthem/HealthManagement.sol\":3947:3952  goats */\n      0x01\n        /* \"week9/bailamthem/HealthManagement.sol\":3947:3961  goats[_goatId] */\n      0x00\n        /* \"week9/bailamthem/HealthManagement.sol\":3953:3960  _goatId */\n      dup7\n        /* \"week9/bailamthem/HealthManagement.sol\":3947:3961  goats[_goatId] */\n      dup2\n      mstore\n      0x20\n      add\n      swap1\n      dup2\n      mstore\n      0x20\n      add\n      0x00\n      keccak256\n        /* \"week9/bailamthem/HealthManagement.sol\":3947:3964  goats[_goatId].id */\n      0x00\n      add\n      sload\n        /* \"week9/bailamthem/HealthManagement.sol\":3947:3975  goats[_goatId].id == _goatId */\n      eq\n        /* \"week9/bailamthem/HealthManagement.sol\":3939:3999  require(goats[_goatId].id == _goatId, \"Goat does not exist\") */\n      tag_118\n      jumpi\n      mload(0x40)\n      0x08c379a000000000000000000000000000000000000000000000000000000000\n      dup2\n      mstore\n      0x04\n      add\n      tag_119\n      swap1\n      tag_109\n      jump\t// in\n    tag_119:\n      mload(0x40)\n      dup1\n      swap2\n      sub\n      swap1\n      revert\n    tag_118:\n        /* \"week9/bailamthem/HealthManagement.sol\":4010:4022  goatProducts */\n      0x03\n        /* \"week9/bailamthem/HealthManagement.sol\":4010:4031  goatProducts[_goatId] */\n      0x00\n        /* \"week9/bailamthem/HealthManagement.sol\":4023:4030  _goatId */\n      dup6\n        /* \"week9/bailamthem/HealthManagement.sol\":4010:4031  goatProducts[_goatId] */\n      dup2\n      mstore\n      0x20\n      add\n      swap1\n      dup2\n      mstore\n      0x20\n      add\n      0x00\n      keccak256\n        /* \"week9/bailamthem/HealthManagement.sol\":4037:4083  Product(_productType, _quantity, _harvresDate) */\n      mload(0x40)\n      dup1\n      0x60\n      add\n      0x40\n      mstore\n      dup1\n        /* \"week9/bailamthem/HealthManagement.sol\":4045:4057  _productType */\n      dup6\n        /* \"week9/bailamthem/HealthManagement.sol\":4037:4083  Product(_productType, _quantity, _harvresDate) */\n      dup2\n      mstore\n      0x20\n      add\n        /* \"week9/bailamthem/HealthManagement.sol\":4059:4068  _quantity */\n      dup5\n        /* \"week9/bailamthem/HealthManagement.sol\":4037:4083  Product(_productType, _quantity, _harvresDate) */\n      dup2\n      mstore\n      0x20\n      add\n        /* \"week9/bailamthem/HealthManagement.sol\":4070:4082  _harvresDate */\n      dup4\n        /* \"week9/bailamthem/HealthManagement.sol\":4037:4083  Product(_productType, _quantity, _harvresDate) */\n      dup2\n      mstore\n      pop\n        /* \"week9/bailamthem/HealthManagement.sol\":4010:4084  goatProducts[_goatId].push(Product(_productType, _quantity, _harvresDate)) */\n      swap1\n      dup1\n      0x01\n      dup2\n      sload\n      add\n      dup1\n      dup3\n      sstore\n      dup1\n      swap2\n      pop\n      pop\n      0x01\n      swap1\n      sub\n      swap1\n      0x00\n      mstore\n      keccak256(0x00, 0x20)\n      swap1\n      0x03\n      mul\n      add\n      0x00\n      swap1\n      swap2\n      swap1\n      swap2\n      swap1\n      swap2\n      pop\n      0x00\n      dup3\n      add\n      mload\n      dup2\n      0x00\n      add\n      swap1\n      dup2\n      tag_121\n      swap2\n      swap1\n      tag_62\n      jump\t// in\n    tag_121:\n      pop\n      0x20\n      dup3\n      add\n      mload\n      dup2\n      0x01\n      add\n      sstore\n      0x40\n      dup3\n      add\n      mload\n      dup2\n      0x02\n      add\n      swap1\n      dup2\n      tag_122\n      swap2\n      swap1\n      tag_62\n      jump\t// in\n    tag_122:\n      pop\n      pop\n      pop\n        /* \"week9/bailamthem/HealthManagement.sol\":4102:4176  TransactionDetails(tx.gasprice, blockhash(block.number - 1), block.number) */\n      0x7efab20ab4c4d8c33ecd03458d6147bf7ccc1faa40dfeedd6f2d7a7cf28a12d7\n        /* \"week9/bailamthem/HealthManagement.sol\":4121:4132  tx.gasprice */\n      gasprice\n        /* \"week9/bailamthem/HealthManagement.sol\":4159:4160  1 */\n      0x01\n        /* \"week9/bailamthem/HealthManagement.sol\":4144:4156  block.number */\n      number\n        /* \"week9/bailamthem/HealthManagement.sol\":4144:4160  block.number - 1 */\n      tag_123\n      swap2\n      swap1\n      tag_73\n      jump\t// in\n    tag_123:\n        /* \"week9/bailamthem/HealthManagement.sol\":4134:4161  blockhash(block.number - 1) */\n      blockhash\n        /* \"week9/bailamthem/HealthManagement.sol\":4163:4175  block.number */\n      number\n        /* \"week9/bailamthem/HealthManagement.sol\":4102:4176  TransactionDetails(tx.gasprice, blockhash(block.number - 1), block.number) */\n      mload(0x40)\n      tag_124\n      swap4\n      swap3\n      swap2\n      swap1\n      tag_75\n      jump\t// in\n    tag_124:\n      mload(0x40)\n      dup1\n      swap2\n      sub\n      swap1\n      log1\n        /* \"week9/bailamthem/HealthManagement.sol\":3815:4184  function addProduct(uint _goatId, string memory _productType, uint _quantity, string memory _harvresDate) public {... */\n      pop\n      pop\n      pop\n      pop\n      jump\t// out\n        /* \"week9/bailamthem/HealthManagement.sol\":4280:4574  function calculateFeedCost(uint _goatId) public view returns (uint) {... */\n    tag_43:\n        /* \"week9/bailamthem/HealthManagement.sol\":4342:4346  uint */\n      0x00\n        /* \"week9/bailamthem/HealthManagement.sol\":4359:4375  Goat memory goat */\n      0x00\n        /* \"week9/bailamthem/HealthManagement.sol\":4378:4383  goats */\n      0x01\n        /* \"week9/bailamthem/HealthManagement.sol\":4378:4392  goats[_goatId] */\n      0x00\n        /* \"week9/bailamthem/HealthManagement.sol\":4384:4391  _goatId */\n      dup5\n        /* \"week9/bailamthem/HealthManagement.sol\":4378:4392  goats[_goatId] */\n      dup2\n      mstore\n      0x20\n      add\n      swap1\n      dup2\n      mstore\n      0x20\n      add\n      0x00\n      keccak256\n        /* \"week9/bailamthem/HealthManagement.sol\":4359:4392  Goat memory goat = goats[_goatId] */\n      mload(0x40)\n      dup1\n      0x0180\n      add\n      0x40\n      mstore\n      swap1\n      dup2\n      0x00\n      dup3\n      add\n      sload\n      dup2\n      mstore\n      0x20\n      add\n      0x01\n      dup3\n      add\n      dup1\n      sload\n      tag_126\n      swap1\n      tag_79\n      jump\t// in\n    tag_126:\n      dup1\n      0x1f\n      add\n      0x20\n      dup1\n      swap2\n      div\n      mul\n      0x20\n      add\n      mload(0x40)\n      swap1\n      dup2\n      add\n      0x40\n      mstore\n      dup1\n      swap3\n      swap2\n      swap1\n      dup2\n      dup2\n      mstore\n      0x20\n      add\n      dup3\n      dup1\n      sload\n      tag_127\n      swap1\n      tag_79\n      jump\t// in\n    tag_127:\n      dup1\n      iszero\n      tag_128\n      jumpi\n      dup1\n      0x1f\n      lt\n      tag_129\n      jumpi\n      0x0100\n      dup1\n      dup4\n      sload\n      div\n      mul\n      dup4\n      mstore\n      swap2\n      0x20\n      add\n      swap2\n      jump(tag_128)\n    tag_129:\n      dup3\n      add\n      swap2\n      swap1\n      0x00\n      mstore\n      keccak256(0x00, 0x20)\n      swap1\n    tag_130:\n      dup2\n      sload\n      dup2\n      mstore\n      swap1\n      0x01\n      add\n      swap1\n      0x20\n      add\n      dup1\n      dup4\n      gt\n      tag_130\n      jumpi\n      dup3\n      swap1\n      sub\n      0x1f\n      and\n      dup3\n      add\n      swap2\n    tag_128:\n      pop\n      pop\n      pop\n      pop\n      pop\n      dup2\n      mstore\n      0x20\n      add\n      0x02\n      dup3\n      add\n      sload\n      dup2\n      mstore\n      0x20\n      add\n      0x03\n      dup3\n      add\n      sload\n      dup2\n      mstore\n      0x20\n      add\n      0x04\n      dup3\n      add\n      0x00\n      swap1\n      sload\n      swap1\n      0x0100\n      exp\n      swap1\n      div\n      0xff\n      and\n      0x02\n      dup2\n      gt\n      iszero\n      tag_131\n      jumpi\n      tag_132\n      tag_58\n      jump\t// in\n    tag_132:\n    tag_131:\n      0x02\n      dup2\n      gt\n      iszero\n      tag_133\n      jumpi\n      tag_134\n      tag_58\n      jump\t// in\n    tag_134:\n    tag_133:\n      dup2\n      mstore\n      0x20\n      add\n      0x05\n      dup3\n      add\n      dup1\n      sload\n      tag_135\n      swap1\n      tag_79\n      jump\t// in\n    tag_135:\n      dup1\n      0x1f\n      add\n      0x20\n      dup1\n      swap2\n      div\n      mul\n      0x20\n      add\n      mload(0x40)\n      swap1\n      dup2\n      add\n      0x40\n      mstore\n      dup1\n      swap3\n      swap2\n      swap1\n      dup2\n      dup2\n      mstore\n      0x20\n      add\n      dup3\n      dup1\n      sload\n      tag_136\n      swap1\n      tag_79\n      jump\t// in\n    tag_136:\n      dup1\n      iszero\n      tag_137\n      jumpi\n      dup1\n      0x1f\n      lt\n      tag_138\n      jumpi\n      0x0100\n      dup1\n      dup4\n      sload\n      div\n      mul\n      dup4\n      mstore\n      swap2\n      0x20\n      add\n      swap2\n      jump(tag_137)\n    tag_138:\n      dup3\n      add\n      swap2\n      swap1\n      0x00\n      mstore\n      keccak256(0x00, 0x20)\n      swap1\n    tag_139:\n      dup2\n      sload\n      dup2\n      mstore\n      swap1\n      0x01\n      add\n      swap1\n      0x20\n      add\n      dup1\n      dup4\n      gt\n      tag_139\n      jumpi\n      dup3\n      swap1\n      sub\n      0x1f\n      and\n      dup3\n      add\n      swap2\n    tag_137:\n      pop\n      pop\n      pop\n      pop\n      pop\n      dup2\n      mstore\n      0x20\n      add\n      0x06\n      dup3\n      add\n      0x00\n      swap1\n      sload\n      swap1\n      0x0100\n      exp\n      swap1\n      div\n      0xff\n      and\n      iszero\n      iszero\n      iszero\n      iszero\n      dup2\n      mstore\n      0x20\n      add\n      0x06\n      dup3\n      add\n      0x01\n      swap1\n      sload\n      swap1\n      0x0100\n      exp\n      swap1\n      div\n      0xff\n      and\n      0x02\n      dup2\n      gt\n      iszero\n      tag_140\n      jumpi\n      tag_141\n      tag_58\n      jump\t// in\n    tag_141:\n    tag_140:\n      0x02\n      dup2\n      gt\n      iszero\n      tag_142\n      jumpi\n      tag_143\n      tag_58\n      jump\t// in\n    tag_143:\n    tag_142:\n      dup2\n      mstore\n      0x20\n      add\n      0x07\n      dup3\n      add\n      sload\n      dup2\n      mstore\n      0x20\n      add\n      0x08\n      dup3\n      add\n      sload\n      dup2\n      mstore\n      0x20\n      add\n      0x09\n      dup3\n      add\n      dup1\n      sload\n      tag_144\n      swap1\n      tag_79\n      jump\t// in\n    tag_144:\n      dup1\n      0x1f\n      add\n      0x20\n      dup1\n      swap2\n      div\n      mul\n      0x20\n      add\n      mload(0x40)\n      swap1\n      dup2\n      add\n      0x40\n      mstore\n      dup1\n      swap3\n      swap2\n      swap1\n      dup2\n      dup2\n      mstore\n      0x20\n      add\n      dup3\n      dup1\n      sload\n      tag_145\n      swap1\n      tag_79\n      jump\t// in\n    tag_145:\n      dup1\n      iszero\n      tag_146\n      jumpi\n      dup1\n      0x1f\n      lt\n      tag_147\n      jumpi\n      0x0100\n      dup1\n      dup4\n      sload\n      div\n      mul\n      dup4\n      mstore\n      swap2\n      0x20\n      add\n      swap2\n      jump(tag_146)\n    tag_147:\n      dup3\n      add\n      swap2\n      swap1\n      0x00\n      mstore\n      keccak256(0x00, 0x20)\n      swap1\n    tag_148:\n      dup2\n      sload\n      dup2\n      mstore\n      swap1\n      0x01\n      add\n      swap1\n      0x20\n      add\n      dup1\n      dup4\n      gt\n      tag_148\n      jumpi\n      dup3\n      swap1\n      sub\n      0x1f\n      and\n      dup3\n      add\n      swap2\n    tag_146:\n      pop\n      pop\n      pop\n      pop\n      pop\n      dup2\n      mstore\n      0x20\n      add\n      0x0a\n      dup3\n      add\n      dup1\n      sload\n      tag_149\n      swap1\n      tag_79\n      jump\t// in\n    tag_149:\n      dup1\n      0x1f\n      add\n      0x20\n      dup1\n      swap2\n      div\n      mul\n      0x20\n      add\n      mload(0x40)\n      swap1\n      dup2\n      add\n      0x40\n      mstore\n      dup1\n      swap3\n      swap2\n      swap1\n      dup2\n      dup2\n      mstore\n      0x20\n      add\n      dup3\n      dup1\n      sload\n      tag_150\n      swap1\n      tag_79\n      jump\t// in\n    tag_150:\n      dup1\n      iszero\n      tag_151\n      jumpi\n      dup1\n      0x1f\n      lt\n      tag_152\n      jumpi\n      0x0100\n      dup1\n      dup4\n      sload\n      div\n      mul\n      dup4\n      mstore\n      swap2\n      0x20\n      add\n      swap2\n      jump(tag_151)\n    tag_152:\n      dup3\n      add\n      swap2\n      swap1\n      0x00\n      mstore\n      keccak256(0x00, 0x20)\n      swap1\n    tag_153:\n      dup2\n      sload\n      dup2\n      mstore\n      swap1\n      0x01\n      add\n      swap1\n      0x20\n      add\n      dup1\n      dup4\n      gt\n      tag_153\n      jumpi\n      dup3\n      swap1\n      sub\n      0x1f\n      and\n      dup3\n      add\n      swap2\n    tag_151:\n      pop\n      pop\n      pop\n      pop\n      pop\n      dup2\n      mstore\n      pop\n      pop\n      swap1\n      pop\n        /* \"week9/bailamthem/HealthManagement.sol\":4403:4421  uint feedCostPerKg */\n      0x00\n        /* \"week9/bailamthem/HealthManagement.sol\":4424:4425  5 */\n      0x05\n        /* \"week9/bailamthem/HealthManagement.sol\":4403:4425  uint feedCostPerKg = 5 */\n      swap1\n      pop\n        /* \"week9/bailamthem/HealthManagement.sol\":4497:4510  uint feedCost */\n      0x00\n        /* \"week9/bailamthem/HealthManagement.sol\":4527:4540  feedCostPerKg */\n      dup2\n        /* \"week9/bailamthem/HealthManagement.sol\":4513:4517  goat */\n      dup4\n        /* \"week9/bailamthem/HealthManagement.sol\":4513:4524  goat.weight */\n      0x60\n      add\n      mload\n        /* \"week9/bailamthem/HealthManagement.sol\":4513:4540  goat.weight * feedCostPerKg */\n      tag_154\n      swap2\n      swap1\n      tag_155\n      jump\t// in\n    tag_154:\n        /* \"week9/bailamthem/HealthManagement.sol\":4497:4540  uint feedCost = goat.weight * feedCostPerKg */\n      swap1\n      pop\n        /* \"week9/bailamthem/HealthManagement.sol\":4558:4566  feedCost */\n      dup1\n        /* \"week9/bailamthem/HealthManagement.sol\":4551:4566  return feedCost */\n      swap4\n      pop\n      pop\n      pop\n      pop\n        /* \"week9/bailamthem/HealthManagement.sol\":4280:4574  function calculateFeedCost(uint _goatId) public view returns (uint) {... */\n      swap2\n      swap1\n      pop\n      jump\t// out\n        /* \"week9/bailamthem/HealthManagement.sol\":4632:4861  function totalMonthlyFeedCost() public view returns(uint) {... */\n    tag_46:\n        /* \"week9/bailamthem/HealthManagement.sol\":4684:4688  uint */\n      0x00\n        /* \"week9/bailamthem/HealthManagement.sol\":4701:4715  uint totalCost */\n      0x00\n        /* \"week9/bailamthem/HealthManagement.sol\":4718:4719  0 */\n      0x00\n        /* \"week9/bailamthem/HealthManagement.sol\":4701:4719  uint totalCost = 0 */\n      swap1\n      pop\n        /* \"week9/bailamthem/HealthManagement.sol\":4735:4741  uint i */\n      0x00\n        /* \"week9/bailamthem/HealthManagement.sol\":4744:4745  0 */\n      0x00\n        /* \"week9/bailamthem/HealthManagement.sol\":4735:4745  uint i = 0 */\n      swap1\n      pop\n        /* \"week9/bailamthem/HealthManagement.sol\":4730:4827  for (uint i = 0; i < nextGoatId; i++){... */\n    tag_157:\n        /* \"week9/bailamthem/HealthManagement.sol\":4751:4761  nextGoatId */\n      sload(0x00)\n        /* \"week9/bailamthem/HealthManagement.sol\":4747:4748  i */\n      dup2\n        /* \"week9/bailamthem/HealthManagement.sol\":4747:4761  i < nextGoatId */\n      lt\n        /* \"week9/bailamthem/HealthManagement.sol\":4730:4827  for (uint i = 0; i < nextGoatId; i++){... */\n      iszero\n      tag_158\n      jumpi\n        /* \"week9/bailamthem/HealthManagement.sol\":4795:4815  calculateFeedCost(i) */\n      tag_160\n        /* \"week9/bailamthem/HealthManagement.sol\":4813:4814  i */\n      dup2\n        /* \"week9/bailamthem/HealthManagement.sol\":4795:4812  calculateFeedCost */\n      tag_43\n        /* \"week9/bailamthem/HealthManagement.sol\":4795:4815  calculateFeedCost(i) */\n      jump\t// in\n    tag_160:\n        /* \"week9/bailamthem/HealthManagement.sol\":4782:4815  totalCost += calculateFeedCost(i) */\n      dup3\n      tag_161\n      swap2\n      swap1\n      tag_162\n      jump\t// in\n    tag_161:\n      swap2\n      pop\n        /* \"week9/bailamthem/HealthManagement.sol\":4763:4766  i++ */\n      dup1\n      dup1\n      0x01\n      add\n      swap2\n      pop\n      pop\n        /* \"week9/bailamthem/HealthManagement.sol\":4730:4827  for (uint i = 0; i < nextGoatId; i++){... */\n      jump(tag_157)\n    tag_158:\n      pop\n        /* \"week9/bailamthem/HealthManagement.sol\":4844:4853  totalCost */\n      dup1\n        /* \"week9/bailamthem/HealthManagement.sol\":4837:4853  return totalCost */\n      swap2\n      pop\n      pop\n        /* \"week9/bailamthem/HealthManagement.sol\":4632:4861  function totalMonthlyFeedCost() public view returns(uint) {... */\n      swap1\n      jump\t// out\n        /* \"week9/bailamthem/HealthManagement.sol\":1296:1330  mapping(uint => Goat) public goats */\n    tag_50:\n      mstore(0x20, 0x01)\n      dup1\n      0x00\n      mstore\n      keccak256(0x00, 0x40)\n      0x00\n      swap2\n      pop\n      swap1\n      pop\n      dup1\n      0x00\n      add\n      sload\n      swap1\n      dup1\n      0x01\n      add\n      dup1\n      sload\n      tag_163\n      swap1\n      tag_79\n      jump\t// in\n    tag_163:\n      dup1\n      0x1f\n      add\n      0x20\n      dup1\n      swap2\n      div\n      mul\n      0x20\n      add\n      mload(0x40)\n      swap1\n      dup2\n      add\n      0x40\n      mstore\n      dup1\n      swap3\n      swap2\n      swap1\n      dup2\n      dup2\n      mstore\n      0x20\n      add\n      dup3\n      dup1\n      sload\n      tag_164\n      swap1\n      tag_79\n      jump\t// in\n    tag_164:\n      dup1\n      iszero\n      tag_165\n      jumpi\n      dup1\n      0x1f\n      lt\n      tag_166\n      jumpi\n      0x0100\n      dup1\n      dup4\n      sload\n      div\n      mul\n      dup4\n      mstore\n      swap2\n      0x20\n      add\n      swap2\n      jump(tag_165)\n    tag_166:\n      dup3\n      add\n      swap2\n      swap1\n      0x00\n      mstore\n      keccak256(0x00, 0x20)\n      swap1\n    tag_167:\n      dup2\n      sload\n      dup2\n      mstore\n      swap1\n      0x01\n      add\n      swap1\n      0x20\n      add\n      dup1\n      dup4\n      gt\n      tag_167\n      jumpi\n      dup3\n      swap1\n      sub\n      0x1f\n      and\n      dup3\n      add\n      swap2\n    tag_165:\n      pop\n      pop\n      pop\n      pop\n      pop\n      swap1\n      dup1\n      0x02\n      add\n      sload\n      swap1\n      dup1\n      0x03\n      add\n      sload\n      swap1\n      dup1\n      0x04\n      add\n      0x00\n      swap1\n      sload\n      swap1\n      0x0100\n      exp\n      swap1\n      div\n      0xff\n      and\n      swap1\n      dup1\n      0x05\n      add\n      dup1\n      sload\n      tag_168\n      swap1\n      tag_79\n      jump\t// in\n    tag_168:\n      dup1\n      0x1f\n      add\n      0x20\n      dup1\n      swap2\n      div\n      mul\n      0x20\n      add\n      mload(0x40)\n      swap1\n      dup2\n      add\n      0x40\n      mstore\n      dup1\n      swap3\n      swap2\n      swap1\n      dup2\n      dup2\n      mstore\n      0x20\n      add\n      dup3\n      dup1\n      sload\n      tag_169\n      swap1\n      tag_79\n      jump\t// in\n    tag_169:\n      dup1\n      iszero\n      tag_170\n      jumpi\n      dup1\n      0x1f\n      lt\n      tag_171\n      jumpi\n      0x0100\n      dup1\n      dup4\n      sload\n      div\n      mul\n      dup4\n      mstore\n      swap2\n      0x20\n      add\n      swap2\n      jump(tag_170)\n    tag_171:\n      dup3\n      add\n      swap2\n      swap1\n      0x00\n      mstore\n      keccak256(0x00, 0x20)\n      swap1\n    tag_172:\n      dup2\n      sload\n      dup2\n      mstore\n      swap1\n      0x01\n      add\n      swap1\n      0x20\n      add\n      dup1\n      dup4\n      gt\n      tag_172\n      jumpi\n      dup3\n      swap1\n      sub\n      0x1f\n      and\n      dup3\n      add\n      swap2\n    tag_170:\n      pop\n      pop\n      pop\n      pop\n      pop\n      swap1\n      dup1\n      0x06\n      add\n      0x00\n      swap1\n      sload\n      swap1\n      0x0100\n      exp\n      swap1\n      div\n      0xff\n      and\n      swap1\n      dup1\n      0x06\n      add\n      0x01\n      swap1\n      sload\n      swap1\n      0x0100\n      exp\n      swap1\n      div\n      0xff\n      and\n      swap1\n      dup1\n      0x07\n      add\n      sload\n      swap1\n      dup1\n      0x08\n      add\n      sload\n      swap1\n      dup1\n      0x09\n      add\n      dup1\n      sload\n      tag_173\n      swap1\n      tag_79\n      jump\t// in\n    tag_173:\n      dup1\n      0x1f\n      add\n      0x20\n      dup1\n      swap2\n      div\n      mul\n      0x20\n      add\n      mload(0x40)\n      swap1\n      dup2\n      add\n      0x40\n      mstore\n      dup1\n      swap3\n      swap2\n      swap1\n      dup2\n      dup2\n      mstore\n      0x20\n      add\n      dup3\n      dup1\n      sload\n      tag_174\n      swap1\n      tag_79\n      jump\t// in\n    tag_174:\n      dup1\n      iszero\n      tag_175\n      jumpi\n      dup1\n      0x1f\n      lt\n      tag_176\n      jumpi\n      0x0100\n      dup1\n      dup4\n      sload\n      div\n      mul\n      dup4\n      mstore\n      swap2\n      0x20\n      add\n      swap2\n      jump(tag_175)\n    tag_176:\n      dup3\n      add\n      swap2\n      swap1\n      0x00\n      mstore\n      keccak256(0x00, 0x20)\n      swap1\n    tag_177:\n      dup2\n      sload\n      dup2\n      mstore\n      swap1\n      0x01\n      add\n      swap1\n      0x20\n      add\n      dup1\n      dup4\n      gt\n      tag_177\n      jumpi\n      dup3\n      swap1\n      sub\n      0x1f\n      and\n      dup3\n      add\n      swap2\n    tag_175:\n      pop\n      pop\n      pop\n      pop\n      pop\n      swap1\n      dup1\n      0x0a\n      add\n      dup1\n      sload\n      tag_178\n      swap1\n      tag_79\n      jump\t// in\n    tag_178:\n      dup1\n      0x1f\n      add\n      0x20\n      dup1\n      swap2\n      div\n      mul\n      0x20\n      add\n      mload(0x40)\n      swap1\n      dup2\n      add\n      0x40\n      mstore\n      dup1\n      swap3\n      swap2\n      swap1\n      dup2\n      dup2\n      mstore\n      0x20\n      add\n      dup3\n      dup1\n      sload\n      tag_179\n      swap1\n      tag_79\n      jump\t// in\n    tag_179:\n      dup1\n      iszero\n      tag_180\n      jumpi\n      dup1\n      0x1f\n      lt\n      tag_181\n      jumpi\n      0x0100\n      dup1\n      dup4\n      sload\n      div\n      mul\n      dup4\n      mstore\n      swap2\n      0x20\n      add\n      swap2\n      jump(tag_180)\n    tag_181:\n      dup3\n      add\n      swap2\n      swap1\n      0x00\n      mstore\n      keccak256(0x00, 0x20)\n      swap1\n    tag_182:\n      dup2\n      sload\n      dup2\n      mstore\n      swap1\n      0x01\n      add\n      swap1\n      0x20\n      add\n      dup1\n      dup4\n      gt\n      tag_182\n      jumpi\n      dup3\n      swap1\n      sub\n      0x1f\n      and\n      dup3\n      add\n      swap2\n    tag_180:\n      pop\n      pop\n      pop\n      pop\n      pop\n      swap1\n      pop\n      dup13\n      jump\t// out\n        /* \"week9/bailamthem/HealthManagement.sol\":1585:2132  function getEnumValue(string memory _breed) internal pure returns (Breed) {... */\n    tag_55:\n        /* \"week9/bailamthem/HealthManagement.sol\":1652:1657  Breed */\n      0x00\n        /* \"week9/bailamthem/HealthManagement.sol\":1723:1748  abi.encodePacked(\"Local\") */\n      add(0x20, mload(0x40))\n      tag_184\n      swap1\n      tag_185\n      jump\t// in\n    tag_184:\n      mload(0x40)\n      0x20\n      dup2\n      dup4\n      sub\n      sub\n      dup2\n      mstore\n      swap1\n      0x40\n      mstore\n        /* \"week9/bailamthem/HealthManagement.sol\":1713:1749  keccak256(abi.encodePacked(\"Local\")) */\n      dup1\n      mload\n      swap1\n      0x20\n      add\n      keccak256\n        /* \"week9/bailamthem/HealthManagement.sol\":1701:1707  _breed */\n      dup3\n        /* \"week9/bailamthem/HealthManagement.sol\":1684:1708  abi.encodePacked(_breed) */\n      add(0x20, mload(0x40))\n      tag_186\n      swap2\n      swap1\n      tag_187\n      jump\t// in\n    tag_186:\n      mload(0x40)\n      0x20\n      dup2\n      dup4\n      sub\n      sub\n      dup2\n      mstore\n      swap1\n      0x40\n      mstore\n        /* \"week9/bailamthem/HealthManagement.sol\":1674:1709  keccak256(abi.encodePacked(_breed)) */\n      dup1\n      mload\n      swap1\n      0x20\n      add\n      keccak256\n        /* \"week9/bailamthem/HealthManagement.sol\":1674:1749  keccak256(abi.encodePacked(_breed)) == keccak256(abi.encodePacked(\"Local\")) */\n      sub\n        /* \"week9/bailamthem/HealthManagement.sol\":1670:2125  if (keccak256(abi.encodePacked(_breed)) == keccak256(abi.encodePacked(\"Local\"))) {... */\n      tag_188\n      jumpi\n        /* \"week9/bailamthem/HealthManagement.sol\":1773:1784  Breed.Local */\n      0x00\n        /* \"week9/bailamthem/HealthManagement.sol\":1766:1784  return Breed.Local */\n      swap1\n      pop\n      jump(tag_183)\n        /* \"week9/bailamthem/HealthManagement.sol\":1670:2125  if (keccak256(abi.encodePacked(_breed)) == keccak256(abi.encodePacked(\"Local\"))) {... */\n    tag_188:\n        /* \"week9/bailamthem/HealthManagement.sol\":1855:1883  abi.encodePacked(\"BachThao\") */\n      add(0x20, mload(0x40))\n      tag_190\n      swap1\n      tag_191\n      jump\t// in\n    tag_190:\n      mload(0x40)\n      0x20\n      dup2\n      dup4\n      sub\n      sub\n      dup2\n      mstore\n      swap1\n      0x40\n      mstore\n        /* \"week9/bailamthem/HealthManagement.sol\":1845:1884  keccak256(abi.encodePacked(\"BachThao\")) */\n      dup1\n      mload\n      swap1\n      0x20\n      add\n      keccak256\n        /* \"week9/bailamthem/HealthManagement.sol\":1833:1839  _breed */\n      dup3\n        /* \"week9/bailamthem/HealthManagement.sol\":1816:1840  abi.encodePacked(_breed) */\n      add(0x20, mload(0x40))\n      tag_192\n      swap2\n      swap1\n      tag_187\n      jump\t// in\n    tag_192:\n      mload(0x40)\n      0x20\n      dup2\n      dup4\n      sub\n      sub\n      dup2\n      mstore\n      swap1\n      0x40\n      mstore\n        /* \"week9/bailamthem/HealthManagement.sol\":1806:1841  keccak256(abi.encodePacked(_breed)) */\n      dup1\n      mload\n      swap1\n      0x20\n      add\n      keccak256\n        /* \"week9/bailamthem/HealthManagement.sol\":1806:1884  keccak256(abi.encodePacked(_breed)) == keccak256(abi.encodePacked(\"BachThao\")) */\n      sub\n        /* \"week9/bailamthem/HealthManagement.sol\":1802:2125  if (keccak256(abi.encodePacked(_breed)) == keccak256(abi.encodePacked(\"BachThao\"))) {... */\n      tag_193\n      jumpi\n        /* \"week9/bailamthem/HealthManagement.sol\":1908:1922  Breed.BachThao */\n      0x01\n        /* \"week9/bailamthem/HealthManagement.sol\":1901:1922  return Breed.BachThao */\n      swap1\n      pop\n      jump(tag_183)\n        /* \"week9/bailamthem/HealthManagement.sol\":1802:2125  if (keccak256(abi.encodePacked(_breed)) == keccak256(abi.encodePacked(\"BachThao\"))) {... */\n    tag_193:\n        /* \"week9/bailamthem/HealthManagement.sol\":1993:2017  abi.encodePacked(\"Boer\") */\n      add(0x20, mload(0x40))\n      tag_195\n      swap1\n      tag_196\n      jump\t// in\n    tag_195:\n      mload(0x40)\n      0x20\n      dup2\n      dup4\n      sub\n      sub\n      dup2\n      mstore\n      swap1\n      0x40\n      mstore\n        /* \"week9/bailamthem/HealthManagement.sol\":1983:2018  keccak256(abi.encodePacked(\"Boer\")) */\n      dup1\n      mload\n      swap1\n      0x20\n      add\n      keccak256\n        /* \"week9/bailamthem/HealthManagement.sol\":1971:1977  _breed */\n      dup3\n        /* \"week9/bailamthem/HealthManagement.sol\":1954:1978  abi.encodePacked(_breed) */\n      add(0x20, mload(0x40))\n      tag_197\n      swap2\n      swap1\n      tag_187\n      jump\t// in\n    tag_197:\n      mload(0x40)\n      0x20\n      dup2\n      dup4\n      sub\n      sub\n      dup2\n      mstore\n      swap1\n      0x40\n      mstore\n        /* \"week9/bailamthem/HealthManagement.sol\":1944:1979  keccak256(abi.encodePacked(_breed)) */\n      dup1\n      mload\n      swap1\n      0x20\n      add\n      keccak256\n        /* \"week9/bailamthem/HealthManagement.sol\":1944:2018  keccak256(abi.encodePacked(_breed)) == keccak256(abi.encodePacked(\"Boer\")) */\n      sub\n        /* \"week9/bailamthem/HealthManagement.sol\":1940:2125  if (keccak256(abi.encodePacked(_breed)) == keccak256(abi.encodePacked(\"Boer\"))) {... */\n      tag_198\n      jumpi\n        /* \"week9/bailamthem/HealthManagement.sol\":2042:2052  Breed.Boer */\n      0x02\n        /* \"week9/bailamthem/HealthManagement.sol\":2035:2052  return Breed.Boer */\n      swap1\n      pop\n      jump(tag_183)\n        /* \"week9/bailamthem/HealthManagement.sol\":1940:2125  if (keccak256(abi.encodePacked(_breed)) == keccak256(abi.encodePacked(\"Boer\"))) {... */\n    tag_198:\n        /* \"week9/bailamthem/HealthManagement.sol\":2085:2113  revert(\"Invalid breed type\") */\n      mload(0x40)\n      0x08c379a000000000000000000000000000000000000000000000000000000000\n      dup2\n      mstore\n      0x04\n      add\n      tag_200\n      swap1\n      tag_201\n      jump\t// in\n    tag_200:\n      mload(0x40)\n      dup1\n      swap2\n      sub\n      swap1\n      revert\n        /* \"week9/bailamthem/HealthManagement.sol\":1585:2132  function getEnumValue(string memory _breed) internal pure returns (Breed) {... */\n    tag_183:\n      swap2\n      swap1\n      pop\n      jump\t// out\n        /* \"#utility.yul\":7:82   */\n    tag_202:\n        /* \"#utility.yul\":40:46   */\n      0x00\n        /* \"#utility.yul\":73:75   */\n      0x40\n        /* \"#utility.yul\":67:76   */\n      mload\n        /* \"#utility.yul\":57:76   */\n      swap1\n      pop\n        /* \"#utility.yul\":7:82   */\n      swap1\n      jump\t// out\n        /* \"#utility.yul\":88:205   */\n    tag_203:\n        /* \"#utility.yul\":197:198   */\n      0x00\n        /* \"#utility.yul\":194:195   */\n      0x00\n        /* \"#utility.yul\":187:199   */\n      revert\n        /* \"#utility.yul\":211:328   */\n    tag_204:\n        /* \"#utility.yul\":320:321   */\n      0x00\n        /* \"#utility.yul\":317:318   */\n      0x00\n        /* \"#utility.yul\":310:322   */\n      revert\n        /* \"#utility.yul\":334:451   */\n    tag_205:\n        /* \"#utility.yul\":443:444   */\n      0x00\n        /* \"#utility.yul\":440:441   */\n      0x00\n        /* \"#utility.yul\":433:445   */\n      revert\n        /* \"#utility.yul\":457:574   */\n    tag_206:\n        /* \"#utility.yul\":566:567   */\n      0x00\n        /* \"#utility.yul\":563:564   */\n      0x00\n        /* \"#utility.yul\":556:568   */\n      revert\n        /* \"#utility.yul\":580:682   */\n    tag_207:\n        /* \"#utility.yul\":621:627   */\n      0x00\n        /* \"#utility.yul\":672:674   */\n      0x1f\n        /* \"#utility.yul\":668:675   */\n      not\n        /* \"#utility.yul\":663:665   */\n      0x1f\n        /* \"#utility.yul\":656:661   */\n      dup4\n        /* \"#utility.yul\":652:666   */\n      add\n        /* \"#utility.yul\":648:676   */\n      and\n        /* \"#utility.yul\":638:676   */\n      swap1\n      pop\n        /* \"#utility.yul\":580:682   */\n      swap2\n      swap1\n      pop\n      jump\t// out\n        /* \"#utility.yul\":688:868   */\n    tag_208:\n        /* \"#utility.yul\":736:813   */\n      0x4e487b7100000000000000000000000000000000000000000000000000000000\n        /* \"#utility.yul\":733:734   */\n      0x00\n        /* \"#utility.yul\":726:814   */\n      mstore\n        /* \"#utility.yul\":833:837   */\n      0x41\n        /* \"#utility.yul\":830:831   */\n      0x04\n        /* \"#utility.yul\":823:838   */\n      mstore\n        /* \"#utility.yul\":857:861   */\n      0x24\n        /* \"#utility.yul\":854:855   */\n      0x00\n        /* \"#utility.yul\":847:862   */\n      revert\n        /* \"#utility.yul\":874:1155   */\n    tag_209:\n        /* \"#utility.yul\":957:984   */\n      tag_277\n        /* \"#utility.yul\":979:983   */\n      dup3\n        /* \"#utility.yul\":957:984   */\n      tag_207\n      jump\t// in\n    tag_277:\n        /* \"#utility.yul\":949:955   */\n      dup2\n        /* \"#utility.yul\":945:985   */\n      add\n        /* \"#utility.yul\":1087:1093   */\n      dup2\n        /* \"#utility.yul\":1075:1085   */\n      dup2\n        /* \"#utility.yul\":1072:1094   */\n      lt\n        /* \"#utility.yul\":1051:1069   */\n      0xffffffffffffffff\n        /* \"#utility.yul\":1039:1049   */\n      dup3\n        /* \"#utility.yul\":1036:1070   */\n      gt\n        /* \"#utility.yul\":1033:1095   */\n      or\n        /* \"#utility.yul\":1030:1118   */\n      iszero\n      tag_278\n      jumpi\n        /* \"#utility.yul\":1098:1116   */\n      tag_279\n      tag_208\n      jump\t// in\n    tag_279:\n        /* \"#utility.yul\":1030:1118   */\n    tag_278:\n        /* \"#utility.yul\":1138:1148   */\n      dup1\n        /* \"#utility.yul\":1134:1136   */\n      0x40\n        /* \"#utility.yul\":1127:1149   */\n      mstore\n        /* \"#utility.yul\":917:1155   */\n      pop\n        /* \"#utility.yul\":874:1155   */\n      pop\n      pop\n      jump\t// out\n        /* \"#utility.yul\":1161:1290   */\n    tag_210:\n        /* \"#utility.yul\":1195:1201   */\n      0x00\n        /* \"#utility.yul\":1222:1242   */\n      tag_281\n      tag_202\n      jump\t// in\n    tag_281:\n        /* \"#utility.yul\":1212:1242   */\n      swap1\n      pop\n        /* \"#utility.yul\":1251:1284   */\n      tag_282\n        /* \"#utility.yul\":1279:1283   */\n      dup3\n        /* \"#utility.yul\":1271:1277   */\n      dup3\n        /* \"#utility.yul\":1251:1284   */\n      tag_209\n      jump\t// in\n    tag_282:\n        /* \"#utility.yul\":1161:1290   */\n      swap2\n      swap1\n      pop\n      jump\t// out\n        /* \"#utility.yul\":1296:1604   */\n    tag_211:\n        /* \"#utility.yul\":1358:1362   */\n      0x00\n        /* \"#utility.yul\":1448:1466   */\n      0xffffffffffffffff\n        /* \"#utility.yul\":1440:1446   */\n      dup3\n        /* \"#utility.yul\":1437:1467   */\n      gt\n        /* \"#utility.yul\":1434:1490   */\n      iszero\n      tag_284\n      jumpi\n        /* \"#utility.yul\":1470:1488   */\n      tag_285\n      tag_208\n      jump\t// in\n    tag_285:\n        /* \"#utility.yul\":1434:1490   */\n    tag_284:\n        /* \"#utility.yul\":1508:1537   */\n      tag_286\n        /* \"#utility.yul\":1530:1536   */\n      dup3\n        /* \"#utility.yul\":1508:1537   */\n      tag_207\n      jump\t// in\n    tag_286:\n        /* \"#utility.yul\":1500:1537   */\n      swap1\n      pop\n        /* \"#utility.yul\":1592:1596   */\n      0x20\n        /* \"#utility.yul\":1586:1590   */\n      dup2\n        /* \"#utility.yul\":1582:1597   */\n      add\n        /* \"#utility.yul\":1574:1597   */\n      swap1\n      pop\n        /* \"#utility.yul\":1296:1604   */\n      swap2\n      swap1\n      pop\n      jump\t// out\n        /* \"#utility.yul\":1610:1758   */\n    tag_212:\n        /* \"#utility.yul\":1708:1714   */\n      dup3\n        /* \"#utility.yul\":1703:1706   */\n      dup2\n        /* \"#utility.yul\":1698:1701   */\n      dup4\n        /* \"#utility.yul\":1685:1715   */\n      calldatacopy\n        /* \"#utility.yul\":1749:1750   */\n      0x00\n        /* \"#utility.yul\":1740:1746   */\n      dup4\n        /* \"#utility.yul\":1735:1738   */\n      dup4\n        /* \"#utility.yul\":1731:1747   */\n      add\n        /* \"#utility.yul\":1724:1751   */\n      mstore\n        /* \"#utility.yul\":1610:1758   */\n      pop\n      pop\n      pop\n      jump\t// out\n        /* \"#utility.yul\":1764:2189   */\n    tag_213:\n        /* \"#utility.yul\":1842:1847   */\n      0x00\n        /* \"#utility.yul\":1867:1933   */\n      tag_289\n        /* \"#utility.yul\":1883:1932   */\n      tag_290\n        /* \"#utility.yul\":1925:1931   */\n      dup5\n        /* \"#utility.yul\":1883:1932   */\n      tag_211\n      jump\t// in\n    tag_290:\n        /* \"#utility.yul\":1867:1933   */\n      tag_210\n      jump\t// in\n    tag_289:\n        /* \"#utility.yul\":1858:1933   */\n      swap1\n      pop\n        /* \"#utility.yul\":1956:1962   */\n      dup3\n        /* \"#utility.yul\":1949:1954   */\n      dup2\n        /* \"#utility.yul\":1942:1963   */\n      mstore\n        /* \"#utility.yul\":1994:1998   */\n      0x20\n        /* \"#utility.yul\":1987:1992   */\n      dup2\n        /* \"#utility.yul\":1983:1999   */\n      add\n        /* \"#utility.yul\":2032:2035   */\n      dup5\n        /* \"#utility.yul\":2023:2029   */\n      dup5\n        /* \"#utility.yul\":2018:2021   */\n      dup5\n        /* \"#utility.yul\":2014:2030   */\n      add\n        /* \"#utility.yul\":2011:2036   */\n      gt\n        /* \"#utility.yul\":2008:2120   */\n      iszero\n      tag_291\n      jumpi\n        /* \"#utility.yul\":2039:2118   */\n      tag_292\n      tag_206\n      jump\t// in\n    tag_292:\n        /* \"#utility.yul\":2008:2120   */\n    tag_291:\n        /* \"#utility.yul\":2129:2183   */\n      tag_293\n        /* \"#utility.yul\":2176:2182   */\n      dup5\n        /* \"#utility.yul\":2171:2174   */\n      dup3\n        /* \"#utility.yul\":2166:2169   */\n      dup6\n        /* \"#utility.yul\":2129:2183   */\n      tag_212\n      jump\t// in\n    tag_293:\n        /* \"#utility.yul\":1848:2189   */\n      pop\n        /* \"#utility.yul\":1764:2189   */\n      swap4\n      swap3\n      pop\n      pop\n      pop\n      jump\t// out\n        /* \"#utility.yul\":2209:2549   */\n    tag_214:\n        /* \"#utility.yul\":2265:2270   */\n      0x00\n        /* \"#utility.yul\":2314:2317   */\n      dup3\n        /* \"#utility.yul\":2307:2311   */\n      0x1f\n        /* \"#utility.yul\":2299:2305   */\n      dup4\n        /* \"#utility.yul\":2295:2312   */\n      add\n        /* \"#utility.yul\":2291:2318   */\n      slt\n        /* \"#utility.yul\":2281:2403   */\n      tag_295\n      jumpi\n        /* \"#utility.yul\":2322:2401   */\n      tag_296\n      tag_205\n      jump\t// in\n    tag_296:\n        /* \"#utility.yul\":2281:2403   */\n    tag_295:\n        /* \"#utility.yul\":2439:2445   */\n      dup2\n        /* \"#utility.yul\":2426:2446   */\n      calldataload\n        /* \"#utility.yul\":2464:2543   */\n      tag_297\n        /* \"#utility.yul\":2539:2542   */\n      dup5\n        /* \"#utility.yul\":2531:2537   */\n      dup3\n        /* \"#utility.yul\":2524:2528   */\n      0x20\n        /* \"#utility.yul\":2516:2522   */\n      dup7\n        /* \"#utility.yul\":2512:2529   */\n      add\n        /* \"#utility.yul\":2464:2543   */\n      tag_213\n      jump\t// in\n    tag_297:\n        /* \"#utility.yul\":2455:2543   */\n      swap2\n      pop\n        /* \"#utility.yul\":2271:2549   */\n      pop\n        /* \"#utility.yul\":2209:2549   */\n      swap3\n      swap2\n      pop\n      pop\n      jump\t// out\n        /* \"#utility.yul\":2555:2632   */\n    tag_215:\n        /* \"#utility.yul\":2592:2599   */\n      0x00\n        /* \"#utility.yul\":2621:2626   */\n      dup2\n        /* \"#utility.yul\":2610:2626   */\n      swap1\n      pop\n        /* \"#utility.yul\":2555:2632   */\n      swap2\n      swap1\n      pop\n      jump\t// out\n        /* \"#utility.yul\":2638:2760   */\n    tag_216:\n        /* \"#utility.yul\":2711:2735   */\n      tag_300\n        /* \"#utility.yul\":2729:2734   */\n      dup2\n        /* \"#utility.yul\":2711:2735   */\n      tag_215\n      jump\t// in\n    tag_300:\n        /* \"#utility.yul\":2704:2709   */\n      dup2\n        /* \"#utility.yul\":2701:2736   */\n      eq\n        /* \"#utility.yul\":2691:2754   */\n      tag_301\n      jumpi\n        /* \"#utility.yul\":2750:2751   */\n      0x00\n        /* \"#utility.yul\":2747:2748   */\n      0x00\n        /* \"#utility.yul\":2740:2752   */\n      revert\n        /* \"#utility.yul\":2691:2754   */\n    tag_301:\n        /* \"#utility.yul\":2638:2760   */\n      pop\n      jump\t// out\n        /* \"#utility.yul\":2766:2905   */\n    tag_217:\n        /* \"#utility.yul\":2812:2817   */\n      0x00\n        /* \"#utility.yul\":2850:2856   */\n      dup2\n        /* \"#utility.yul\":2837:2857   */\n      calldataload\n        /* \"#utility.yul\":2828:2857   */\n      swap1\n      pop\n        /* \"#utility.yul\":2866:2899   */\n      tag_303\n        /* \"#utility.yul\":2893:2898   */\n      dup2\n        /* \"#utility.yul\":2866:2899   */\n      tag_216\n      jump\t// in\n    tag_303:\n        /* \"#utility.yul\":2766:2905   */\n      swap3\n      swap2\n      pop\n      pop\n      jump\t// out\n        /* \"#utility.yul\":2911:3001   */\n    tag_218:\n        /* \"#utility.yul\":2945:2952   */\n      0x00\n        /* \"#utility.yul\":2988:2993   */\n      dup2\n        /* \"#utility.yul\":2981:2994   */\n      iszero\n        /* \"#utility.yul\":2974:2995   */\n      iszero\n        /* \"#utility.yul\":2963:2995   */\n      swap1\n      pop\n        /* \"#utility.yul\":2911:3001   */\n      swap2\n      swap1\n      pop\n      jump\t// out\n        /* \"#utility.yul\":3007:3123   */\n    tag_219:\n        /* \"#utility.yul\":3077:3098   */\n      tag_306\n        /* \"#utility.yul\":3092:3097   */\n      dup2\n        /* \"#utility.yul\":3077:3098   */\n      tag_218\n      jump\t// in\n    tag_306:\n        /* \"#utility.yul\":3070:3075   */\n      dup2\n        /* \"#utility.yul\":3067:3099   */\n      eq\n        /* \"#utility.yul\":3057:3117   */\n      tag_307\n      jumpi\n        /* \"#utility.yul\":3113:3114   */\n      0x00\n        /* \"#utility.yul\":3110:3111   */\n      0x00\n        /* \"#utility.yul\":3103:3115   */\n      revert\n        /* \"#utility.yul\":3057:3117   */\n    tag_307:\n        /* \"#utility.yul\":3007:3123   */\n      pop\n      jump\t// out\n        /* \"#utility.yul\":3129:3262   */\n    tag_220:\n        /* \"#utility.yul\":3172:3177   */\n      0x00\n        /* \"#utility.yul\":3210:3216   */\n      dup2\n        /* \"#utility.yul\":3197:3217   */\n      calldataload\n        /* \"#utility.yul\":3188:3217   */\n      swap1\n      pop\n        /* \"#utility.yul\":3226:3256   */\n      tag_309\n        /* \"#utility.yul\":3250:3255   */\n      dup2\n        /* \"#utility.yul\":3226:3256   */\n      tag_219\n      jump\t// in\n    tag_309:\n        /* \"#utility.yul\":3129:3262   */\n      swap3\n      swap2\n      pop\n      pop\n      jump\t// out\n        /* \"#utility.yul\":3268:3379   */\n    tag_221:\n        /* \"#utility.yul\":3353:3354   */\n      0x03\n        /* \"#utility.yul\":3346:3351   */\n      dup2\n        /* \"#utility.yul\":3343:3355   */\n      lt\n        /* \"#utility.yul\":3333:3373   */\n      tag_311\n      jumpi\n        /* \"#utility.yul\":3369:3370   */\n      0x00\n        /* \"#utility.yul\":3366:3367   */\n      0x00\n        /* \"#utility.yul\":3359:3371   */\n      revert\n        /* \"#utility.yul\":3333:3373   */\n    tag_311:\n        /* \"#utility.yul\":3268:3379   */\n      pop\n      jump\t// out\n        /* \"#utility.yul\":3385:3548   */\n    tag_222:\n        /* \"#utility.yul\":3443:3448   */\n      0x00\n        /* \"#utility.yul\":3481:3487   */\n      dup2\n        /* \"#utility.yul\":3468:3488   */\n      calldataload\n        /* \"#utility.yul\":3459:3488   */\n      swap1\n      pop\n        /* \"#utility.yul\":3497:3542   */\n      tag_313\n        /* \"#utility.yul\":3536:3541   */\n      dup2\n        /* \"#utility.yul\":3497:3542   */\n      tag_221\n      jump\t// in\n    tag_313:\n        /* \"#utility.yul\":3385:3548   */\n      swap3\n      swap2\n      pop\n      pop\n      jump\t// out\n        /* \"#utility.yul\":3554:6261   */\n    tag_15:\n        /* \"#utility.yul\":3762:3768   */\n      0x00\n        /* \"#utility.yul\":3770:3776   */\n      0x00\n        /* \"#utility.yul\":3778:3784   */\n      0x00\n        /* \"#utility.yul\":3786:3792   */\n      0x00\n        /* \"#utility.yul\":3794:3800   */\n      0x00\n        /* \"#utility.yul\":3802:3808   */\n      0x00\n        /* \"#utility.yul\":3810:3816   */\n      0x00\n        /* \"#utility.yul\":3818:3824   */\n      0x00\n        /* \"#utility.yul\":3826:3832   */\n      0x00\n        /* \"#utility.yul\":3834:3840   */\n      0x00\n        /* \"#utility.yul\":3842:3849   */\n      0x00\n        /* \"#utility.yul\":3892:3895   */\n      0x0160\n        /* \"#utility.yul\":3880:3889   */\n      dup13\n        /* \"#utility.yul\":3871:3878   */\n      dup15\n        /* \"#utility.yul\":3867:3890   */\n      sub\n        /* \"#utility.yul\":3863:3896   */\n      slt\n        /* \"#utility.yul\":3860:3980   */\n      iszero\n      tag_315\n      jumpi\n        /* \"#utility.yul\":3899:3978   */\n      tag_316\n      tag_203\n      jump\t// in\n    tag_316:\n        /* \"#utility.yul\":3860:3980   */\n    tag_315:\n        /* \"#utility.yul\":4047:4048   */\n      0x00\n        /* \"#utility.yul\":4036:4045   */\n      dup13\n        /* \"#utility.yul\":4032:4049   */\n      add\n        /* \"#utility.yul\":4019:4050   */\n      calldataload\n        /* \"#utility.yul\":4077:4095   */\n      0xffffffffffffffff\n        /* \"#utility.yul\":4069:4075   */\n      dup2\n        /* \"#utility.yul\":4066:4096   */\n      gt\n        /* \"#utility.yul\":4063:4180   */\n      iszero\n      tag_317\n      jumpi\n        /* \"#utility.yul\":4099:4178   */\n      tag_318\n      tag_204\n      jump\t// in\n    tag_318:\n        /* \"#utility.yul\":4063:4180   */\n    tag_317:\n        /* \"#utility.yul\":4204:4267   */\n      tag_319\n        /* \"#utility.yul\":4259:4266   */\n      dup15\n        /* \"#utility.yul\":4250:4256   */\n      dup3\n        /* \"#utility.yul\":4239:4248   */\n      dup16\n        /* \"#utility.yul\":4235:4257   */\n      add\n        /* \"#utility.yul\":4204:4267   */\n      tag_214\n      jump\t// in\n    tag_319:\n        /* \"#utility.yul\":4194:4267   */\n      swap12\n      pop\n        /* \"#utility.yul\":3990:4277   */\n      pop\n        /* \"#utility.yul\":4316:4318   */\n      0x20\n        /* \"#utility.yul\":4342:4395   */\n      tag_320\n        /* \"#utility.yul\":4387:4394   */\n      dup15\n        /* \"#utility.yul\":4378:4384   */\n      dup3\n        /* \"#utility.yul\":4367:4376   */\n      dup16\n        /* \"#utility.yul\":4363:4385   */\n      add\n        /* \"#utility.yul\":4342:4395   */\n      tag_217\n      jump\t// in\n    tag_320:\n        /* \"#utility.yul\":4332:4395   */\n      swap11\n      pop\n        /* \"#utility.yul\":4287:4405   */\n      pop\n        /* \"#utility.yul\":4444:4446   */\n      0x40\n        /* \"#utility.yul\":4470:4523   */\n      tag_321\n        /* \"#utility.yul\":4515:4522   */\n      dup15\n        /* \"#utility.yul\":4506:4512   */\n      dup3\n        /* \"#utility.yul\":4495:4504   */\n      dup16\n        /* \"#utility.yul\":4491:4513   */\n      add\n        /* \"#utility.yul\":4470:4523   */\n      tag_217\n      jump\t// in\n    tag_321:\n        /* \"#utility.yul\":4460:4523   */\n      swap10\n      pop\n        /* \"#utility.yul\":4415:4533   */\n      pop\n        /* \"#utility.yul\":4600:4602   */\n      0x60\n        /* \"#utility.yul\":4589:4598   */\n      dup13\n        /* \"#utility.yul\":4585:4603   */\n      add\n        /* \"#utility.yul\":4572:4604   */\n      calldataload\n        /* \"#utility.yul\":4631:4649   */\n      0xffffffffffffffff\n        /* \"#utility.yul\":4623:4629   */\n      dup2\n        /* \"#utility.yul\":4620:4650   */\n      gt\n        /* \"#utility.yul\":4617:4734   */\n      iszero\n      tag_322\n      jumpi\n        /* \"#utility.yul\":4653:4732   */\n      tag_323\n      tag_204\n      jump\t// in\n    tag_323:\n        /* \"#utility.yul\":4617:4734   */\n    tag_322:\n        /* \"#utility.yul\":4758:4821   */\n      tag_324\n        /* \"#utility.yul\":4813:4820   */\n      dup15\n        /* \"#utility.yul\":4804:4810   */\n      dup3\n        /* \"#utility.yul\":4793:4802   */\n      dup16\n        /* \"#utility.yul\":4789:4811   */\n      add\n        /* \"#utility.yul\":4758:4821   */\n      tag_214\n      jump\t// in\n    tag_324:\n        /* \"#utility.yul\":4748:4821   */\n      swap9\n      pop\n        /* \"#utility.yul\":4543:4831   */\n      pop\n        /* \"#utility.yul\":4898:4901   */\n      0x80\n        /* \"#utility.yul\":4887:4896   */\n      dup13\n        /* \"#utility.yul\":4883:4902   */\n      add\n        /* \"#utility.yul\":4870:4903   */\n      calldataload\n        /* \"#utility.yul\":4930:4948   */\n      0xffffffffffffffff\n        /* \"#utility.yul\":4922:4928   */\n      dup2\n        /* \"#utility.yul\":4919:4949   */\n      gt\n        /* \"#utility.yul\":4916:5033   */\n      iszero\n      tag_325\n      jumpi\n        /* \"#utility.yul\":4952:5031   */\n      tag_326\n      tag_204\n      jump\t// in\n    tag_326:\n        /* \"#utility.yul\":4916:5033   */\n    tag_325:\n        /* \"#utility.yul\":5057:5120   */\n      tag_327\n        /* \"#utility.yul\":5112:5119   */\n      dup15\n        /* \"#utility.yul\":5103:5109   */\n      dup3\n        /* \"#utility.yul\":5092:5101   */\n      dup16\n        /* \"#utility.yul\":5088:5110   */\n      add\n        /* \"#utility.yul\":5057:5120   */\n      tag_214\n      jump\t// in\n    tag_327:\n        /* \"#utility.yul\":5047:5120   */\n      swap8\n      pop\n        /* \"#utility.yul\":4841:5130   */\n      pop\n        /* \"#utility.yul\":5169:5172   */\n      0xa0\n        /* \"#utility.yul\":5196:5246   */\n      tag_328\n        /* \"#utility.yul\":5238:5245   */\n      dup15\n        /* \"#utility.yul\":5229:5235   */\n      dup3\n        /* \"#utility.yul\":5218:5227   */\n      dup16\n        /* \"#utility.yul\":5214:5236   */\n      add\n        /* \"#utility.yul\":5196:5246   */\n      tag_220\n      jump\t// in\n    tag_328:\n        /* \"#utility.yul\":5186:5246   */\n      swap7\n      pop\n        /* \"#utility.yul\":5140:5256   */\n      pop\n        /* \"#utility.yul\":5295:5298   */\n      0xc0\n        /* \"#utility.yul\":5322:5387   */\n      tag_329\n        /* \"#utility.yul\":5379:5386   */\n      dup15\n        /* \"#utility.yul\":5370:5376   */\n      dup3\n        /* \"#utility.yul\":5359:5368   */\n      dup16\n        /* \"#utility.yul\":5355:5377   */\n      add\n        /* \"#utility.yul\":5322:5387   */\n      tag_222\n      jump\t// in\n    tag_329:\n        /* \"#utility.yul\":5312:5387   */\n      swap6\n      pop\n        /* \"#utility.yul\":5266:5397   */\n      pop\n        /* \"#utility.yul\":5436:5439   */\n      0xe0\n        /* \"#utility.yul\":5463:5516   */\n      tag_330\n        /* \"#utility.yul\":5508:5515   */\n      dup15\n        /* \"#utility.yul\":5499:5505   */\n      dup3\n        /* \"#utility.yul\":5488:5497   */\n      dup16\n        /* \"#utility.yul\":5484:5506   */\n      add\n        /* \"#utility.yul\":5463:5516   */\n      tag_217\n      jump\t// in\n    tag_330:\n        /* \"#utility.yul\":5453:5516   */\n      swap5\n      pop\n        /* \"#utility.yul\":5407:5526   */\n      pop\n        /* \"#utility.yul\":5565:5568   */\n      0x0100\n        /* \"#utility.yul\":5592:5645   */\n      tag_331\n        /* \"#utility.yul\":5637:5644   */\n      dup15\n        /* \"#utility.yul\":5628:5634   */\n      dup3\n        /* \"#utility.yul\":5617:5626   */\n      dup16\n        /* \"#utility.yul\":5613:5635   */\n      add\n        /* \"#utility.yul\":5592:5645   */\n      tag_217\n      jump\t// in\n    tag_331:\n        /* \"#utility.yul\":5582:5645   */\n      swap4\n      pop\n        /* \"#utility.yul\":5536:5655   */\n      pop\n        /* \"#utility.yul\":5722:5725   */\n      0x0120\n        /* \"#utility.yul\":5711:5720   */\n      dup13\n        /* \"#utility.yul\":5707:5726   */\n      add\n        /* \"#utility.yul\":5694:5727   */\n      calldataload\n        /* \"#utility.yul\":5754:5772   */\n      0xffffffffffffffff\n        /* \"#utility.yul\":5746:5752   */\n      dup2\n        /* \"#utility.yul\":5743:5773   */\n      gt\n        /* \"#utility.yul\":5740:5857   */\n      iszero\n      tag_332\n      jumpi\n        /* \"#utility.yul\":5776:5855   */\n      tag_333\n      tag_204\n      jump\t// in\n    tag_333:\n        /* \"#utility.yul\":5740:5857   */\n    tag_332:\n        /* \"#utility.yul\":5881:5944   */\n      tag_334\n        /* \"#utility.yul\":5936:5943   */\n      dup15\n        /* \"#utility.yul\":5927:5933   */\n      dup3\n        /* \"#utility.yul\":5916:5925   */\n      dup16\n        /* \"#utility.yul\":5912:5934   */\n      add\n        /* \"#utility.yul\":5881:5944   */\n      tag_214\n      jump\t// in\n    tag_334:\n        /* \"#utility.yul\":5871:5944   */\n      swap3\n      pop\n        /* \"#utility.yul\":5665:5954   */\n      pop\n        /* \"#utility.yul\":6021:6024   */\n      0x0140\n        /* \"#utility.yul\":6010:6019   */\n      dup13\n        /* \"#utility.yul\":6006:6025   */\n      add\n        /* \"#utility.yul\":5993:6026   */\n      calldataload\n        /* \"#utility.yul\":6053:6071   */\n      0xffffffffffffffff\n        /* \"#utility.yul\":6045:6051   */\n      dup2\n        /* \"#utility.yul\":6042:6072   */\n      gt\n        /* \"#utility.yul\":6039:6156   */\n      iszero\n      tag_335\n      jumpi\n        /* \"#utility.yul\":6075:6154   */\n      tag_336\n      tag_204\n      jump\t// in\n    tag_336:\n        /* \"#utility.yul\":6039:6156   */\n    tag_335:\n        /* \"#utility.yul\":6181:6244   */\n      tag_337\n        /* \"#utility.yul\":6236:6243   */\n      dup15\n        /* \"#utility.yul\":6227:6233   */\n      dup3\n        /* \"#utility.yul\":6216:6225   */\n      dup16\n        /* \"#utility.yul\":6212:6234   */\n      add\n        /* \"#utility.yul\":6181:6244   */\n      tag_214\n      jump\t// in\n    tag_337:\n        /* \"#utility.yul\":6170:6244   */\n      swap2\n      pop\n        /* \"#utility.yul\":5964:6254   */\n      pop\n        /* \"#utility.yul\":3554:6261   */\n      swap3\n      swap6\n      swap9\n      swap12\n      pop\n      swap3\n      swap6\n      swap9\n      swap12\n      swap1\n      swap4\n      swap7\n      swap10\n      pop\n      jump\t// out\n        /* \"#utility.yul\":6267:6741   */\n    tag_19:\n        /* \"#utility.yul\":6335:6341   */\n      0x00\n        /* \"#utility.yul\":6343:6349   */\n      0x00\n        /* \"#utility.yul\":6392:6394   */\n      0x40\n        /* \"#utility.yul\":6380:6389   */\n      dup4\n        /* \"#utility.yul\":6371:6378   */\n      dup6\n        /* \"#utility.yul\":6367:6390   */\n      sub\n        /* \"#utility.yul\":6363:6395   */\n      slt\n        /* \"#utility.yul\":6360:6479   */\n      iszero\n      tag_339\n      jumpi\n        /* \"#utility.yul\":6398:6477   */\n      tag_340\n      tag_203\n      jump\t// in\n    tag_340:\n        /* \"#utility.yul\":6360:6479   */\n    tag_339:\n        /* \"#utility.yul\":6518:6519   */\n      0x00\n        /* \"#utility.yul\":6543:6596   */\n      tag_341\n        /* \"#utility.yul\":6588:6595   */\n      dup6\n        /* \"#utility.yul\":6579:6585   */\n      dup3\n        /* \"#utility.yul\":6568:6577   */\n      dup7\n        /* \"#utility.yul\":6564:6586   */\n      add\n        /* \"#utility.yul\":6543:6596   */\n      tag_217\n      jump\t// in\n    tag_341:\n        /* \"#utility.yul\":6533:6596   */\n      swap3\n      pop\n        /* \"#utility.yul\":6489:6606   */\n      pop\n        /* \"#utility.yul\":6645:6647   */\n      0x20\n        /* \"#utility.yul\":6671:6724   */\n      tag_342\n        /* \"#utility.yul\":6716:6723   */\n      dup6\n        /* \"#utility.yul\":6707:6713   */\n      dup3\n        /* \"#utility.yul\":6696:6705   */\n      dup7\n        /* \"#utility.yul\":6692:6714   */\n      add\n        /* \"#utility.yul\":6671:6724   */\n      tag_217\n      jump\t// in\n    tag_342:\n        /* \"#utility.yul\":6661:6724   */\n      swap2\n      pop\n        /* \"#utility.yul\":6616:6734   */\n      pop\n        /* \"#utility.yul\":6267:6741   */\n      swap3\n      pop\n      swap3\n      swap1\n      pop\n      jump\t// out\n        /* \"#utility.yul\":6747:6846   */\n    tag_223:\n        /* \"#utility.yul\":6799:6805   */\n      0x00\n        /* \"#utility.yul\":6833:6838   */\n      dup2\n        /* \"#utility.yul\":6827:6839   */\n      mload\n        /* \"#utility.yul\":6817:6839   */\n      swap1\n      pop\n        /* \"#utility.yul\":6747:6846   */\n      swap2\n      swap1\n      pop\n      jump\t// out\n        /* \"#utility.yul\":6852:7021   */\n    tag_224:\n        /* \"#utility.yul\":6936:6947   */\n      0x00\n        /* \"#utility.yul\":6970:6976   */\n      dup3\n        /* \"#utility.yul\":6965:6968   */\n      dup3\n        /* \"#utility.yul\":6958:6977   */\n      mstore\n        /* \"#utility.yul\":7010:7014   */\n      0x20\n        /* \"#utility.yul\":7005:7008   */\n      dup3\n        /* \"#utility.yul\":7001:7015   */\n      add\n        /* \"#utility.yul\":6986:7015   */\n      swap1\n      pop\n        /* \"#utility.yul\":6852:7021   */\n      swap3\n      swap2\n      pop\n      pop\n      jump\t// out\n        /* \"#utility.yul\":7027:7166   */\n    tag_225:\n        /* \"#utility.yul\":7116:7122   */\n      dup3\n        /* \"#utility.yul\":7111:7114   */\n      dup2\n        /* \"#utility.yul\":7106:7109   */\n      dup4\n        /* \"#utility.yul\":7100:7123   */\n      mcopy\n        /* \"#utility.yul\":7157:7158   */\n      0x00\n        /* \"#utility.yul\":7148:7154   */\n      dup4\n        /* \"#utility.yul\":7143:7146   */\n      dup4\n        /* \"#utility.yul\":7139:7155   */\n      add\n        /* \"#utility.yul\":7132:7159   */\n      mstore\n        /* \"#utility.yul\":7027:7166   */\n      pop\n      pop\n      pop\n      jump\t// out\n        /* \"#utility.yul\":7172:7549   */\n    tag_226:\n        /* \"#utility.yul\":7260:7263   */\n      0x00\n        /* \"#utility.yul\":7288:7327   */\n      tag_347\n        /* \"#utility.yul\":7321:7326   */\n      dup3\n        /* \"#utility.yul\":7288:7327   */\n      tag_223\n      jump\t// in\n    tag_347:\n        /* \"#utility.yul\":7343:7414   */\n      tag_348\n        /* \"#utility.yul\":7407:7413   */\n      dup2\n        /* \"#utility.yul\":7402:7405   */\n      dup6\n        /* \"#utility.yul\":7343:7414   */\n      tag_224\n      jump\t// in\n    tag_348:\n        /* \"#utility.yul\":7336:7414   */\n      swap4\n      pop\n        /* \"#utility.yul\":7423:7488   */\n      tag_349\n        /* \"#utility.yul\":7481:7487   */\n      dup2\n        /* \"#utility.yul\":7476:7479   */\n      dup6\n        /* \"#utility.yul\":7469:7473   */\n      0x20\n        /* \"#utility.yul\":7462:7467   */\n      dup7\n        /* \"#utility.yul\":7458:7474   */\n      add\n        /* \"#utility.yul\":7423:7488   */\n      tag_225\n      jump\t// in\n    tag_349:\n        /* \"#utility.yul\":7513:7542   */\n      tag_350\n        /* \"#utility.yul\":7535:7541   */\n      dup2\n        /* \"#utility.yul\":7513:7542   */\n      tag_207\n      jump\t// in\n    tag_350:\n        /* \"#utility.yul\":7508:7511   */\n      dup5\n        /* \"#utility.yul\":7504:7543   */\n      add\n        /* \"#utility.yul\":7497:7543   */\n      swap2\n      pop\n        /* \"#utility.yul\":7264:7549   */\n      pop\n        /* \"#utility.yul\":7172:7549   */\n      swap3\n      swap2\n      pop\n      pop\n      jump\t// out\n        /* \"#utility.yul\":7555:7673   */\n    tag_227:\n        /* \"#utility.yul\":7642:7666   */\n      tag_352\n        /* \"#utility.yul\":7660:7665   */\n      dup2\n        /* \"#utility.yul\":7642:7666   */\n      tag_215\n      jump\t// in\n    tag_352:\n        /* \"#utility.yul\":7637:7640   */\n      dup3\n        /* \"#utility.yul\":7630:7667   */\n      mstore\n        /* \"#utility.yul\":7555:7673   */\n      pop\n      pop\n      jump\t// out\n        /* \"#utility.yul\":7679:8303   */\n    tag_22:\n        /* \"#utility.yul\":7868:7872   */\n      0x00\n        /* \"#utility.yul\":7906:7908   */\n      0x60\n        /* \"#utility.yul\":7895:7904   */\n      dup3\n        /* \"#utility.yul\":7891:7909   */\n      add\n        /* \"#utility.yul\":7883:7909   */\n      swap1\n      pop\n        /* \"#utility.yul\":7955:7964   */\n      dup2\n        /* \"#utility.yul\":7949:7953   */\n      dup2\n        /* \"#utility.yul\":7945:7965   */\n      sub\n        /* \"#utility.yul\":7941:7942   */\n      0x00\n        /* \"#utility.yul\":7930:7939   */\n      dup4\n        /* \"#utility.yul\":7926:7943   */\n      add\n        /* \"#utility.yul\":7919:7966   */\n      mstore\n        /* \"#utility.yul\":7983:8061   */\n      tag_354\n        /* \"#utility.yul\":8056:8060   */\n      dup2\n        /* \"#utility.yul\":8047:8053   */\n      dup7\n        /* \"#utility.yul\":7983:8061   */\n      tag_226\n      jump\t// in\n    tag_354:\n        /* \"#utility.yul\":7975:8061   */\n      swap1\n      pop\n        /* \"#utility.yul\":8071:8143   */\n      tag_355\n        /* \"#utility.yul\":8139:8141   */\n      0x20\n        /* \"#utility.yul\":8128:8137   */\n      dup4\n        /* \"#utility.yul\":8124:8142   */\n      add\n        /* \"#utility.yul\":8115:8121   */\n      dup6\n        /* \"#utility.yul\":8071:8143   */\n      tag_227\n      jump\t// in\n    tag_355:\n        /* \"#utility.yul\":8190:8199   */\n      dup2\n        /* \"#utility.yul\":8184:8188   */\n      dup2\n        /* \"#utility.yul\":8180:8200   */\n      sub\n        /* \"#utility.yul\":8175:8177   */\n      0x40\n        /* \"#utility.yul\":8164:8173   */\n      dup4\n        /* \"#utility.yul\":8160:8178   */\n      add\n        /* \"#utility.yul\":8153:8201   */\n      mstore\n        /* \"#utility.yul\":8218:8296   */\n      tag_356\n        /* \"#utility.yul\":8291:8295   */\n      dup2\n        /* \"#utility.yul\":8282:8288   */\n      dup5\n        /* \"#utility.yul\":8218:8296   */\n      tag_226\n      jump\t// in\n    tag_356:\n        /* \"#utility.yul\":8210:8296   */\n      swap1\n      pop\n        /* \"#utility.yul\":7679:8303   */\n      swap5\n      swap4\n      pop\n      pop\n      pop\n      pop\n      jump\t// out\n        /* \"#utility.yul\":8309:9024   */\n    tag_27:\n        /* \"#utility.yul\":8518:8522   */\n      0x00\n        /* \"#utility.yul\":8556:8558   */\n      0x60\n        /* \"#utility.yul\":8545:8554   */\n      dup3\n        /* \"#utility.yul\":8541:8559   */\n      add\n        /* \"#utility.yul\":8533:8559   */\n      swap1\n      pop\n        /* \"#utility.yul\":8605:8614   */\n      dup2\n        /* \"#utility.yul\":8599:8603   */\n      dup2\n        /* \"#utility.yul\":8595:8615   */\n      sub\n        /* \"#utility.yul\":8591:8592   */\n      0x00\n        /* \"#utility.yul\":8580:8589   */\n      dup4\n        /* \"#utility.yul\":8576:8593   */\n      add\n        /* \"#utility.yul\":8569:8616   */\n      mstore\n        /* \"#utility.yul\":8633:8711   */\n      tag_358\n        /* \"#utility.yul\":8706:8710   */\n      dup2\n        /* \"#utility.yul\":8697:8703   */\n      dup7\n        /* \"#utility.yul\":8633:8711   */\n      tag_226\n      jump\t// in\n    tag_358:\n        /* \"#utility.yul\":8625:8711   */\n      swap1\n      pop\n        /* \"#utility.yul\":8758:8767   */\n      dup2\n        /* \"#utility.yul\":8752:8756   */\n      dup2\n        /* \"#utility.yul\":8748:8768   */\n      sub\n        /* \"#utility.yul\":8743:8745   */\n      0x20\n        /* \"#utility.yul\":8732:8741   */\n      dup4\n        /* \"#utility.yul\":8728:8746   */\n      add\n        /* \"#utility.yul\":8721:8769   */\n      mstore\n        /* \"#utility.yul\":8786:8864   */\n      tag_359\n        /* \"#utility.yul\":8859:8863   */\n      dup2\n        /* \"#utility.yul\":8850:8856   */\n      dup6\n        /* \"#utility.yul\":8786:8864   */\n      tag_226\n      jump\t// in\n    tag_359:\n        /* \"#utility.yul\":8778:8864   */\n      swap1\n      pop\n        /* \"#utility.yul\":8911:8920   */\n      dup2\n        /* \"#utility.yul\":8905:8909   */\n      dup2\n        /* \"#utility.yul\":8901:8921   */\n      sub\n        /* \"#utility.yul\":8896:8898   */\n      0x40\n        /* \"#utility.yul\":8885:8894   */\n      dup4\n        /* \"#utility.yul\":8881:8899   */\n      add\n        /* \"#utility.yul\":8874:8922   */\n      mstore\n        /* \"#utility.yul\":8939:9017   */\n      tag_360\n        /* \"#utility.yul\":9012:9016   */\n      dup2\n        /* \"#utility.yul\":9003:9009   */\n      dup5\n        /* \"#utility.yul\":8939:9017   */\n      tag_226\n      jump\t// in\n    tag_360:\n        /* \"#utility.yul\":8931:9017   */\n      swap1\n      pop\n        /* \"#utility.yul\":8309:9024   */\n      swap5\n      swap4\n      pop\n      pop\n      pop\n      pop\n      jump\t// out\n        /* \"#utility.yul\":9030:10335   */\n    tag_30:\n        /* \"#utility.yul\":9146:9152   */\n      0x00\n        /* \"#utility.yul\":9154:9160   */\n      0x00\n        /* \"#utility.yul\":9162:9168   */\n      0x00\n        /* \"#utility.yul\":9170:9176   */\n      0x00\n        /* \"#utility.yul\":9219:9222   */\n      0x80\n        /* \"#utility.yul\":9207:9216   */\n      dup6\n        /* \"#utility.yul\":9198:9205   */\n      dup8\n        /* \"#utility.yul\":9194:9217   */\n      sub\n        /* \"#utility.yul\":9190:9223   */\n      slt\n        /* \"#utility.yul\":9187:9307   */\n      iszero\n      tag_362\n      jumpi\n        /* \"#utility.yul\":9226:9305   */\n      tag_363\n      tag_203\n      jump\t// in\n    tag_363:\n        /* \"#utility.yul\":9187:9307   */\n    tag_362:\n        /* \"#utility.yul\":9346:9347   */\n      0x00\n        /* \"#utility.yul\":9371:9424   */\n      tag_364\n        /* \"#utility.yul\":9416:9423   */\n      dup8\n        /* \"#utility.yul\":9407:9413   */\n      dup3\n        /* \"#utility.yul\":9396:9405   */\n      dup9\n        /* \"#utility.yul\":9392:9414   */\n      add\n        /* \"#utility.yul\":9371:9424   */\n      tag_217\n      jump\t// in\n    tag_364:\n        /* \"#utility.yul\":9361:9424   */\n      swap5\n      pop\n        /* \"#utility.yul\":9317:9434   */\n      pop\n        /* \"#utility.yul\":9501:9503   */\n      0x20\n        /* \"#utility.yul\":9490:9499   */\n      dup6\n        /* \"#utility.yul\":9486:9504   */\n      add\n        /* \"#utility.yul\":9473:9505   */\n      calldataload\n        /* \"#utility.yul\":9532:9550   */\n      0xffffffffffffffff\n        /* \"#utility.yul\":9524:9530   */\n      dup2\n        /* \"#utility.yul\":9521:9551   */\n      gt\n        /* \"#utility.yul\":9518:9635   */\n      iszero\n      tag_365\n      jumpi\n        /* \"#utility.yul\":9554:9633   */\n      tag_366\n      tag_204\n      jump\t// in\n    tag_366:\n        /* \"#utility.yul\":9518:9635   */\n    tag_365:\n        /* \"#utility.yul\":9659:9722   */\n      tag_367\n        /* \"#utility.yul\":9714:9721   */\n      dup8\n        /* \"#utility.yul\":9705:9711   */\n      dup3\n        /* \"#utility.yul\":9694:9703   */\n      dup9\n        /* \"#utility.yul\":9690:9712   */\n      add\n        /* \"#utility.yul\":9659:9722   */\n      tag_214\n      jump\t// in\n    tag_367:\n        /* \"#utility.yul\":9649:9722   */\n      swap4\n      pop\n        /* \"#utility.yul\":9444:9732   */\n      pop\n        /* \"#utility.yul\":9799:9801   */\n      0x40\n        /* \"#utility.yul\":9788:9797   */\n      dup6\n        /* \"#utility.yul\":9784:9802   */\n      add\n        /* \"#utility.yul\":9771:9803   */\n      calldataload\n        /* \"#utility.yul\":9830:9848   */\n      0xffffffffffffffff\n        /* \"#utility.yul\":9822:9828   */\n      dup2\n        /* \"#utility.yul\":9819:9849   */\n      gt\n        /* \"#utility.yul\":9816:9933   */\n      iszero\n      tag_368\n      jumpi\n        /* \"#utility.yul\":9852:9931   */\n      tag_369\n      tag_204\n      jump\t// in\n    tag_369:\n        /* \"#utility.yul\":9816:9933   */\n    tag_368:\n        /* \"#utility.yul\":9957:10020   */\n      tag_370\n        /* \"#utility.yul\":10012:10019   */\n      dup8\n        /* \"#utility.yul\":10003:10009   */\n      dup3\n        /* \"#utility.yul\":9992:10001   */\n      dup9\n        /* \"#utility.yul\":9988:10010   */\n      add\n        /* \"#utility.yul\":9957:10020   */\n      tag_214\n      jump\t// in\n    tag_370:\n        /* \"#utility.yul\":9947:10020   */\n      swap3\n      pop\n        /* \"#utility.yul\":9742:10030   */\n      pop\n        /* \"#utility.yul\":10097:10099   */\n      0x60\n        /* \"#utility.yul\":10086:10095   */\n      dup6\n        /* \"#utility.yul\":10082:10100   */\n      add\n        /* \"#utility.yul\":10069:10101   */\n      calldataload\n        /* \"#utility.yul\":10128:10146   */\n      0xffffffffffffffff\n        /* \"#utility.yul\":10120:10126   */\n      dup2\n        /* \"#utility.yul\":10117:10147   */\n      gt\n        /* \"#utility.yul\":10114:10231   */\n      iszero\n      tag_371\n      jumpi\n        /* \"#utility.yul\":10150:10229   */\n      tag_372\n      tag_204\n      jump\t// in\n    tag_372:\n        /* \"#utility.yul\":10114:10231   */\n    tag_371:\n        /* \"#utility.yul\":10255:10318   */\n      tag_373\n        /* \"#utility.yul\":10310:10317   */\n      dup8\n        /* \"#utility.yul\":10301:10307   */\n      dup3\n        /* \"#utility.yul\":10290:10299   */\n      dup9\n        /* \"#utility.yul\":10286:10308   */\n      add\n        /* \"#utility.yul\":10255:10318   */\n      tag_214\n      jump\t// in\n    tag_373:\n        /* \"#utility.yul\":10245:10318   */\n      swap2\n      pop\n        /* \"#utility.yul\":10040:10328   */\n      pop\n        /* \"#utility.yul\":9030:10335   */\n      swap3\n      swap6\n      swap2\n      swap5\n      pop\n      swap3\n      pop\n      jump\t// out\n        /* \"#utility.yul\":10341:10563   */\n    tag_35:\n        /* \"#utility.yul\":10434:10438   */\n      0x00\n        /* \"#utility.yul\":10472:10474   */\n      0x20\n        /* \"#utility.yul\":10461:10470   */\n      dup3\n        /* \"#utility.yul\":10457:10475   */\n      add\n        /* \"#utility.yul\":10449:10475   */\n      swap1\n      pop\n        /* \"#utility.yul\":10485:10556   */\n      tag_375\n        /* \"#utility.yul\":10553:10554   */\n      0x00\n        /* \"#utility.yul\":10542:10551   */\n      dup4\n        /* \"#utility.yul\":10538:10555   */\n      add\n        /* \"#utility.yul\":10529:10535   */\n      dup5\n        /* \"#utility.yul\":10485:10556   */\n      tag_227\n      jump\t// in\n    tag_375:\n        /* \"#utility.yul\":10341:10563   */\n      swap3\n      swap2\n      pop\n      pop\n      jump\t// out\n        /* \"#utility.yul\":10569:11694   */\n    tag_38:\n        /* \"#utility.yul\":10675:10681   */\n      0x00\n        /* \"#utility.yul\":10683:10689   */\n      0x00\n        /* \"#utility.yul\":10691:10697   */\n      0x00\n        /* \"#utility.yul\":10699:10705   */\n      0x00\n        /* \"#utility.yul\":10748:10751   */\n      0x80\n        /* \"#utility.yul\":10736:10745   */\n      dup6\n        /* \"#utility.yul\":10727:10734   */\n      dup8\n        /* \"#utility.yul\":10723:10746   */\n      sub\n        /* \"#utility.yul\":10719:10752   */\n      slt\n        /* \"#utility.yul\":10716:10836   */\n      iszero\n      tag_377\n      jumpi\n        /* \"#utility.yul\":10755:10834   */\n      tag_378\n      tag_203\n      jump\t// in\n    tag_378:\n        /* \"#utility.yul\":10716:10836   */\n    tag_377:\n        /* \"#utility.yul\":10875:10876   */\n      0x00\n        /* \"#utility.yul\":10900:10953   */\n      tag_379\n        /* \"#utility.yul\":10945:10952   */\n      dup8\n        /* \"#utility.yul\":10936:10942   */\n      dup3\n        /* \"#utility.yul\":10925:10934   */\n      dup9\n        /* \"#utility.yul\":10921:10943   */\n      add\n        /* \"#utility.yul\":10900:10953   */\n      tag_217\n      jump\t// in\n    tag_379:\n        /* \"#utility.yul\":10890:10953   */\n      swap5\n      pop\n        /* \"#utility.yul\":10846:10963   */\n      pop\n        /* \"#utility.yul\":11030:11032   */\n      0x20\n        /* \"#utility.yul\":11019:11028   */\n      dup6\n        /* \"#utility.yul\":11015:11033   */\n      add\n        /* \"#utility.yul\":11002:11034   */\n      calldataload\n        /* \"#utility.yul\":11061:11079   */\n      0xffffffffffffffff\n        /* \"#utility.yul\":11053:11059   */\n      dup2\n        /* \"#utility.yul\":11050:11080   */\n      gt\n        /* \"#utility.yul\":11047:11164   */\n      iszero\n      tag_380\n      jumpi\n        /* \"#utility.yul\":11083:11162   */\n      tag_381\n      tag_204\n      jump\t// in\n    tag_381:\n        /* \"#utility.yul\":11047:11164   */\n    tag_380:\n        /* \"#utility.yul\":11188:11251   */\n      tag_382\n        /* \"#utility.yul\":11243:11250   */\n      dup8\n        /* \"#utility.yul\":11234:11240   */\n      dup3\n        /* \"#utility.yul\":11223:11232   */\n      dup9\n        /* \"#utility.yul\":11219:11241   */\n      add\n        /* \"#utility.yul\":11188:11251   */\n      tag_214\n      jump\t// in\n    tag_382:\n        /* \"#utility.yul\":11178:11251   */\n      swap4\n      pop\n        /* \"#utility.yul\":10973:11261   */\n      pop\n        /* \"#utility.yul\":11300:11302   */\n      0x40\n        /* \"#utility.yul\":11326:11379   */\n      tag_383\n        /* \"#utility.yul\":11371:11378   */\n      dup8\n        /* \"#utility.yul\":11362:11368   */\n      dup3\n        /* \"#utility.yul\":11351:11360   */\n      dup9\n        /* \"#utility.yul\":11347:11369   */\n      add\n        /* \"#utility.yul\":11326:11379   */\n      tag_217\n      jump\t// in\n    tag_383:\n        /* \"#utility.yul\":11316:11379   */\n      swap3\n      pop\n        /* \"#utility.yul\":11271:11389   */\n      pop\n        /* \"#utility.yul\":11456:11458   */\n      0x60\n        /* \"#utility.yul\":11445:11454   */\n      dup6\n        /* \"#utility.yul\":11441:11459   */\n      add\n        /* \"#utility.yul\":11428:11460   */\n      calldataload\n        /* \"#utility.yul\":11487:11505   */\n      0xffffffffffffffff\n        /* \"#utility.yul\":11479:11485   */\n      dup2\n        /* \"#utility.yul\":11476:11506   */\n      gt\n        /* \"#utility.yul\":11473:11590   */\n      iszero\n      tag_384\n      jumpi\n        /* \"#utility.yul\":11509:11588   */\n      tag_385\n      tag_204\n      jump\t// in\n    tag_385:\n        /* \"#utility.yul\":11473:11590   */\n    tag_384:\n        /* \"#utility.yul\":11614:11677   */\n      tag_386\n        /* \"#utility.yul\":11669:11676   */\n      dup8\n        /* \"#utility.yul\":11660:11666   */\n      dup3\n        /* \"#utility.yul\":11649:11658   */\n      dup9\n        /* \"#utility.yul\":11645:11667   */\n      add\n        /* \"#utility.yul\":11614:11677   */\n      tag_214\n      jump\t// in\n    tag_386:\n        /* \"#utility.yul\":11604:11677   */\n      swap2\n      pop\n        /* \"#utility.yul\":11399:11687   */\n      pop\n        /* \"#utility.yul\":10569:11694   */\n      swap3\n      swap6\n      swap2\n      swap5\n      pop\n      swap3\n      pop\n      jump\t// out\n        /* \"#utility.yul\":11700:12029   */\n    tag_42:\n        /* \"#utility.yul\":11759:11765   */\n      0x00\n        /* \"#utility.yul\":11808:11810   */\n      0x20\n        /* \"#utility.yul\":11796:11805   */\n      dup3\n        /* \"#utility.yul\":11787:11794   */\n      dup5\n        /* \"#utility.yul\":11783:11806   */\n      sub\n        /* \"#utility.yul\":11779:11811   */\n      slt\n        /* \"#utility.yul\":11776:11895   */\n      iszero\n      tag_388\n      jumpi\n        /* \"#utility.yul\":11814:11893   */\n      tag_389\n      tag_203\n      jump\t// in\n    tag_389:\n        /* \"#utility.yul\":11776:11895   */\n    tag_388:\n        /* \"#utility.yul\":11934:11935   */\n      0x00\n        /* \"#utility.yul\":11959:12012   */\n      tag_390\n        /* \"#utility.yul\":12004:12011   */\n      dup5\n        /* \"#utility.yul\":11995:12001   */\n      dup3\n        /* \"#utility.yul\":11984:11993   */\n      dup6\n        /* \"#utility.yul\":11980:12002   */\n      add\n        /* \"#utility.yul\":11959:12012   */\n      tag_217\n      jump\t// in\n    tag_390:\n        /* \"#utility.yul\":11949:12012   */\n      swap2\n      pop\n        /* \"#utility.yul\":11905:12022   */\n      pop\n        /* \"#utility.yul\":11700:12029   */\n      swap3\n      swap2\n      pop\n      pop\n      jump\t// out\n        /* \"#utility.yul\":12035:12215   */\n    tag_58:\n        /* \"#utility.yul\":12083:12160   */\n      0x4e487b7100000000000000000000000000000000000000000000000000000000\n        /* \"#utility.yul\":12080:12081   */\n      0x00\n        /* \"#utility.yul\":12073:12161   */\n      mstore\n        /* \"#utility.yul\":12180:12184   */\n      0x21\n        /* \"#utility.yul\":12177:12178   */\n      0x04\n        /* \"#utility.yul\":12170:12185   */\n      mstore\n        /* \"#utility.yul\":12204:12208   */\n      0x24\n        /* \"#utility.yul\":12201:12202   */\n      0x00\n        /* \"#utility.yul\":12194:12209   */\n      revert\n        /* \"#utility.yul\":12221:12333   */\n    tag_228:\n        /* \"#utility.yul\":12301:12302   */\n      0x03\n        /* \"#utility.yul\":12294:12299   */\n      dup2\n        /* \"#utility.yul\":12291:12303   */\n      lt\n        /* \"#utility.yul\":12281:12327   */\n      tag_393\n      jumpi\n        /* \"#utility.yul\":12307:12325   */\n      tag_394\n      tag_58\n      jump\t// in\n    tag_394:\n        /* \"#utility.yul\":12281:12327   */\n    tag_393:\n        /* \"#utility.yul\":12221:12333   */\n      pop\n      jump\t// out\n        /* \"#utility.yul\":12339:12464   */\n    tag_229:\n        /* \"#utility.yul\":12383:12390   */\n      0x00\n        /* \"#utility.yul\":12412:12417   */\n      dup2\n        /* \"#utility.yul\":12401:12417   */\n      swap1\n      pop\n        /* \"#utility.yul\":12418:12458   */\n      tag_396\n        /* \"#utility.yul\":12452:12457   */\n      dup3\n        /* \"#utility.yul\":12418:12458   */\n      tag_228\n      jump\t// in\n    tag_396:\n        /* \"#utility.yul\":12339:12464   */\n      swap2\n      swap1\n      pop\n      jump\t// out\n        /* \"#utility.yul\":12470:12595   */\n    tag_230:\n        /* \"#utility.yul\":12525:12534   */\n      0x00\n        /* \"#utility.yul\":12558:12589   */\n      tag_398\n        /* \"#utility.yul\":12583:12588   */\n      dup3\n        /* \"#utility.yul\":12558:12589   */\n      tag_229\n      jump\t// in\n    tag_398:\n        /* \"#utility.yul\":12545:12589   */\n      swap1\n      pop\n        /* \"#utility.yul\":12470:12595   */\n      swap2\n      swap1\n      pop\n      jump\t// out\n        /* \"#utility.yul\":12601:12742   */\n    tag_231:\n        /* \"#utility.yul\":12693:12735   */\n      tag_400\n        /* \"#utility.yul\":12729:12734   */\n      dup2\n        /* \"#utility.yul\":12693:12735   */\n      tag_230\n      jump\t// in\n    tag_400:\n        /* \"#utility.yul\":12688:12691   */\n      dup3\n        /* \"#utility.yul\":12681:12736   */\n      mstore\n        /* \"#utility.yul\":12601:12742   */\n      pop\n      pop\n      jump\t// out\n        /* \"#utility.yul\":12748:12857   */\n    tag_232:\n        /* \"#utility.yul\":12829:12850   */\n      tag_402\n        /* \"#utility.yul\":12844:12849   */\n      dup2\n        /* \"#utility.yul\":12829:12850   */\n      tag_218\n      jump\t// in\n    tag_402:\n        /* \"#utility.yul\":12824:12827   */\n      dup3\n        /* \"#utility.yul\":12817:12851   */\n      mstore\n        /* \"#utility.yul\":12748:12857   */\n      pop\n      pop\n      jump\t// out\n        /* \"#utility.yul\":12863:12980   */\n    tag_233:\n        /* \"#utility.yul\":12948:12949   */\n      0x03\n        /* \"#utility.yul\":12941:12946   */\n      dup2\n        /* \"#utility.yul\":12938:12950   */\n      lt\n        /* \"#utility.yul\":12928:12974   */\n      tag_404\n      jumpi\n        /* \"#utility.yul\":12954:12972   */\n      tag_405\n      tag_58\n      jump\t// in\n    tag_405:\n        /* \"#utility.yul\":12928:12974   */\n    tag_404:\n        /* \"#utility.yul\":12863:12980   */\n      pop\n      jump\t// out\n        /* \"#utility.yul\":12986:13121   */\n    tag_234:\n        /* \"#utility.yul\":13035:13042   */\n      0x00\n        /* \"#utility.yul\":13064:13069   */\n      dup2\n        /* \"#utility.yul\":13053:13069   */\n      swap1\n      pop\n        /* \"#utility.yul\":13070:13115   */\n      tag_407\n        /* \"#utility.yul\":13109:13114   */\n      dup3\n        /* \"#utility.yul\":13070:13115   */\n      tag_233\n      jump\t// in\n    tag_407:\n        /* \"#utility.yul\":12986:13121   */\n      swap2\n      swap1\n      pop\n      jump\t// out\n        /* \"#utility.yul\":13127:13262   */\n    tag_235:\n        /* \"#utility.yul\":13187:13196   */\n      0x00\n        /* \"#utility.yul\":13220:13256   */\n      tag_409\n        /* \"#utility.yul\":13250:13255   */\n      dup3\n        /* \"#utility.yul\":13220:13256   */\n      tag_234\n      jump\t// in\n    tag_409:\n        /* \"#utility.yul\":13207:13256   */\n      swap1\n      pop\n        /* \"#utility.yul\":13127:13262   */\n      swap2\n      swap1\n      pop\n      jump\t// out\n        /* \"#utility.yul\":13268:13419   */\n    tag_236:\n        /* \"#utility.yul\":13365:13412   */\n      tag_411\n        /* \"#utility.yul\":13406:13411   */\n      dup2\n        /* \"#utility.yul\":13365:13412   */\n      tag_235\n      jump\t// in\n    tag_411:\n        /* \"#utility.yul\":13360:13363   */\n      dup3\n        /* \"#utility.yul\":13353:13413   */\n      mstore\n        /* \"#utility.yul\":13268:13419   */\n      pop\n      pop\n      jump\t// out\n        /* \"#utility.yul\":13425:15252   */\n    tag_52:\n        /* \"#utility.yul\":13917:13921   */\n      0x00\n        /* \"#utility.yul\":13955:13958   */\n      0x0180\n        /* \"#utility.yul\":13944:13953   */\n      dup3\n        /* \"#utility.yul\":13940:13959   */\n      add\n        /* \"#utility.yul\":13932:13959   */\n      swap1\n      pop\n        /* \"#utility.yul\":13969:14040   */\n      tag_413\n        /* \"#utility.yul\":14037:14038   */\n      0x00\n        /* \"#utility.yul\":14026:14035   */\n      dup4\n        /* \"#utility.yul\":14022:14039   */\n      add\n        /* \"#utility.yul\":14013:14019   */\n      dup16\n        /* \"#utility.yul\":13969:14040   */\n      tag_227\n      jump\t// in\n    tag_413:\n        /* \"#utility.yul\":14087:14096   */\n      dup2\n        /* \"#utility.yul\":14081:14085   */\n      dup2\n        /* \"#utility.yul\":14077:14097   */\n      sub\n        /* \"#utility.yul\":14072:14074   */\n      0x20\n        /* \"#utility.yul\":14061:14070   */\n      dup4\n        /* \"#utility.yul\":14057:14075   */\n      add\n        /* \"#utility.yul\":14050:14098   */\n      mstore\n        /* \"#utility.yul\":14115:14193   */\n      tag_414\n        /* \"#utility.yul\":14188:14192   */\n      dup2\n        /* \"#utility.yul\":14179:14185   */\n      dup15\n        /* \"#utility.yul\":14115:14193   */\n      tag_226\n      jump\t// in\n    tag_414:\n        /* \"#utility.yul\":14107:14193   */\n      swap1\n      pop\n        /* \"#utility.yul\":14203:14275   */\n      tag_415\n        /* \"#utility.yul\":14271:14273   */\n      0x40\n        /* \"#utility.yul\":14260:14269   */\n      dup4\n        /* \"#utility.yul\":14256:14274   */\n      add\n        /* \"#utility.yul\":14247:14253   */\n      dup14\n        /* \"#utility.yul\":14203:14275   */\n      tag_227\n      jump\t// in\n    tag_415:\n        /* \"#utility.yul\":14285:14357   */\n      tag_416\n        /* \"#utility.yul\":14353:14355   */\n      0x60\n        /* \"#utility.yul\":14342:14351   */\n      dup4\n        /* \"#utility.yul\":14338:14356   */\n      add\n        /* \"#utility.yul\":14329:14335   */\n      dup13\n        /* \"#utility.yul\":14285:14357   */\n      tag_227\n      jump\t// in\n    tag_416:\n        /* \"#utility.yul\":14367:14445   */\n      tag_417\n        /* \"#utility.yul\":14440:14443   */\n      0x80\n        /* \"#utility.yul\":14429:14438   */\n      dup4\n        /* \"#utility.yul\":14425:14444   */\n      add\n        /* \"#utility.yul\":14416:14422   */\n      dup12\n        /* \"#utility.yul\":14367:14445   */\n      tag_231\n      jump\t// in\n    tag_417:\n        /* \"#utility.yul\":14493:14502   */\n      dup2\n        /* \"#utility.yul\":14487:14491   */\n      dup2\n        /* \"#utility.yul\":14483:14503   */\n      sub\n        /* \"#utility.yul\":14477:14480   */\n      0xa0\n        /* \"#utility.yul\":14466:14475   */\n      dup4\n        /* \"#utility.yul\":14462:14481   */\n      add\n        /* \"#utility.yul\":14455:14504   */\n      mstore\n        /* \"#utility.yul\":14521:14599   */\n      tag_418\n        /* \"#utility.yul\":14594:14598   */\n      dup2\n        /* \"#utility.yul\":14585:14591   */\n      dup11\n        /* \"#utility.yul\":14521:14599   */\n      tag_226\n      jump\t// in\n    tag_418:\n        /* \"#utility.yul\":14513:14599   */\n      swap1\n      pop\n        /* \"#utility.yul\":14609:14676   */\n      tag_419\n        /* \"#utility.yul\":14671:14674   */\n      0xc0\n        /* \"#utility.yul\":14660:14669   */\n      dup4\n        /* \"#utility.yul\":14656:14675   */\n      add\n        /* \"#utility.yul\":14647:14653   */\n      dup10\n        /* \"#utility.yul\":14609:14676   */\n      tag_232\n      jump\t// in\n    tag_419:\n        /* \"#utility.yul\":14686:14769   */\n      tag_420\n        /* \"#utility.yul\":14764:14767   */\n      0xe0\n        /* \"#utility.yul\":14753:14762   */\n      dup4\n        /* \"#utility.yul\":14749:14768   */\n      add\n        /* \"#utility.yul\":14740:14746   */\n      dup9\n        /* \"#utility.yul\":14686:14769   */\n      tag_236\n      jump\t// in\n    tag_420:\n        /* \"#utility.yul\":14779:14852   */\n      tag_421\n        /* \"#utility.yul\":14847:14850   */\n      0x0100\n        /* \"#utility.yul\":14836:14845   */\n      dup4\n        /* \"#utility.yul\":14832:14851   */\n      add\n        /* \"#utility.yul\":14823:14829   */\n      dup8\n        /* \"#utility.yul\":14779:14852   */\n      tag_227\n      jump\t// in\n    tag_421:\n        /* \"#utility.yul\":14862:14935   */\n      tag_422\n        /* \"#utility.yul\":14930:14933   */\n      0x0120\n        /* \"#utility.yul\":14919:14928   */\n      dup4\n        /* \"#utility.yul\":14915:14934   */\n      add\n        /* \"#utility.yul\":14906:14912   */\n      dup7\n        /* \"#utility.yul\":14862:14935   */\n      tag_227\n      jump\t// in\n    tag_422:\n        /* \"#utility.yul\":14983:14992   */\n      dup2\n        /* \"#utility.yul\":14977:14981   */\n      dup2\n        /* \"#utility.yul\":14973:14993   */\n      sub\n        /* \"#utility.yul\":14967:14970   */\n      0x0140\n        /* \"#utility.yul\":14956:14965   */\n      dup4\n        /* \"#utility.yul\":14952:14971   */\n      add\n        /* \"#utility.yul\":14945:14994   */\n      mstore\n        /* \"#utility.yul\":15011:15090   */\n      tag_423\n        /* \"#utility.yul\":15085:15089   */\n      dup2\n        /* \"#utility.yul\":15075:15082   */\n      dup6\n        /* \"#utility.yul\":15011:15090   */\n      tag_226\n      jump\t// in\n    tag_423:\n        /* \"#utility.yul\":15003:15090   */\n      swap1\n      pop\n        /* \"#utility.yul\":15138:15147   */\n      dup2\n        /* \"#utility.yul\":15132:15136   */\n      dup2\n        /* \"#utility.yul\":15128:15148   */\n      sub\n        /* \"#utility.yul\":15122:15125   */\n      0x0160\n        /* \"#utility.yul\":15111:15120   */\n      dup4\n        /* \"#utility.yul\":15107:15126   */\n      add\n        /* \"#utility.yul\":15100:15149   */\n      mstore\n        /* \"#utility.yul\":15166:15245   */\n      tag_424\n        /* \"#utility.yul\":15240:15244   */\n      dup2\n        /* \"#utility.yul\":15230:15237   */\n      dup5\n        /* \"#utility.yul\":15166:15245   */\n      tag_226\n      jump\t// in\n    tag_424:\n        /* \"#utility.yul\":15158:15245   */\n      swap1\n      pop\n        /* \"#utility.yul\":13425:15252   */\n      swap14\n      swap13\n      pop\n      pop\n      pop\n      pop\n      pop\n      pop\n      pop\n      pop\n      pop\n      pop\n      pop\n      pop\n      pop\n      jump\t// out\n        /* \"#utility.yul\":15258:15438   */\n    tag_237:\n        /* \"#utility.yul\":15306:15383   */\n      0x4e487b7100000000000000000000000000000000000000000000000000000000\n        /* \"#utility.yul\":15303:15304   */\n      0x00\n        /* \"#utility.yul\":15296:15384   */\n      mstore\n        /* \"#utility.yul\":15403:15407   */\n      0x22\n        /* \"#utility.yul\":15400:15401   */\n      0x04\n        /* \"#utility.yul\":15393:15408   */\n      mstore\n        /* \"#utility.yul\":15427:15431   */\n      0x24\n        /* \"#utility.yul\":15424:15425   */\n      0x00\n        /* \"#utility.yul\":15417:15432   */\n      revert\n        /* \"#utility.yul\":15444:15764   */\n    tag_79:\n        /* \"#utility.yul\":15488:15494   */\n      0x00\n        /* \"#utility.yul\":15525:15526   */\n      0x02\n        /* \"#utility.yul\":15519:15523   */\n      dup3\n        /* \"#utility.yul\":15515:15527   */\n      div\n        /* \"#utility.yul\":15505:15527   */\n      swap1\n      pop\n        /* \"#utility.yul\":15572:15573   */\n      0x01\n        /* \"#utility.yul\":15566:15570   */\n      dup3\n        /* \"#utility.yul\":15562:15574   */\n      and\n        /* \"#utility.yul\":15593:15611   */\n      dup1\n        /* \"#utility.yul\":15583:15664   */\n      tag_427\n      jumpi\n        /* \"#utility.yul\":15649:15653   */\n      0x7f\n        /* \"#utility.yul\":15641:15647   */\n      dup3\n        /* \"#utility.yul\":15637:15654   */\n      and\n        /* \"#utility.yul\":15627:15654   */\n      swap2\n      pop\n        /* \"#utility.yul\":15583:15664   */\n    tag_427:\n        /* \"#utility.yul\":15711:15713   */\n      0x20\n        /* \"#utility.yul\":15703:15709   */\n      dup3\n        /* \"#utility.yul\":15700:15714   */\n      lt\n        /* \"#utility.yul\":15680:15698   */\n      dup2\n        /* \"#utility.yul\":15677:15715   */\n      sub\n        /* \"#utility.yul\":15674:15758   */\n      tag_428\n      jumpi\n        /* \"#utility.yul\":15730:15748   */\n      tag_429\n      tag_237\n      jump\t// in\n    tag_429:\n        /* \"#utility.yul\":15674:15758   */\n    tag_428:\n        /* \"#utility.yul\":15495:15764   */\n      pop\n        /* \"#utility.yul\":15444:15764   */\n      swap2\n      swap1\n      pop\n      jump\t// out\n        /* \"#utility.yul\":15770:15911   */\n    tag_238:\n        /* \"#utility.yul\":15819:15823   */\n      0x00\n        /* \"#utility.yul\":15842:15845   */\n      dup2\n        /* \"#utility.yul\":15834:15845   */\n      swap1\n      pop\n        /* \"#utility.yul\":15865:15868   */\n      dup2\n        /* \"#utility.yul\":15862:15863   */\n      0x00\n        /* \"#utility.yul\":15855:15869   */\n      mstore\n        /* \"#utility.yul\":15899:15903   */\n      0x20\n        /* \"#utility.yul\":15896:15897   */\n      0x00\n        /* \"#utility.yul\":15886:15904   */\n      keccak256\n        /* \"#utility.yul\":15878:15904   */\n      swap1\n      pop\n        /* \"#utility.yul\":15770:15911   */\n      swap2\n      swap1\n      pop\n      jump\t// out\n        /* \"#utility.yul\":15917:16010   */\n    tag_239:\n        /* \"#utility.yul\":15954:15960   */\n      0x00\n        /* \"#utility.yul\":16001:16003   */\n      0x20\n        /* \"#utility.yul\":15996:15998   */\n      0x1f\n        /* \"#utility.yul\":15989:15994   */\n      dup4\n        /* \"#utility.yul\":15985:15999   */\n      add\n        /* \"#utility.yul\":15981:16004   */\n      div\n        /* \"#utility.yul\":15971:16004   */\n      swap1\n      pop\n        /* \"#utility.yul\":15917:16010   */\n      swap2\n      swap1\n      pop\n      jump\t// out\n        /* \"#utility.yul\":16016:16123   */\n    tag_240:\n        /* \"#utility.yul\":16060:16068   */\n      0x00\n        /* \"#utility.yul\":16110:16115   */\n      dup3\n        /* \"#utility.yul\":16104:16108   */\n      dup3\n        /* \"#utility.yul\":16100:16116   */\n      shl\n        /* \"#utility.yul\":16079:16116   */\n      swap1\n      pop\n        /* \"#utility.yul\":16016:16123   */\n      swap3\n      swap2\n      pop\n      pop\n      jump\t// out\n        /* \"#utility.yul\":16129:16522   */\n    tag_241:\n        /* \"#utility.yul\":16198:16204   */\n      0x00\n        /* \"#utility.yul\":16248:16249   */\n      0x08\n        /* \"#utility.yul\":16236:16246   */\n      dup4\n        /* \"#utility.yul\":16232:16250   */\n      mul\n        /* \"#utility.yul\":16271:16368   */\n      tag_434\n        /* \"#utility.yul\":16301:16367   */\n      0xffffffffffffffffffffffffffffffffffffffffffffffffffffffffffffffff\n        /* \"#utility.yul\":16290:16299   */\n      dup3\n        /* \"#utility.yul\":16271:16368   */\n      tag_240\n      jump\t// in\n    tag_434:\n        /* \"#utility.yul\":16389:16428   */\n      tag_435\n        /* \"#utility.yul\":16419:16427   */\n      dup7\n        /* \"#utility.yul\":16408:16417   */\n      dup4\n        /* \"#utility.yul\":16389:16428   */\n      tag_240\n      jump\t// in\n    tag_435:\n        /* \"#utility.yul\":16377:16428   */\n      swap6\n      pop\n        /* \"#utility.yul\":16461:16465   */\n      dup1\n        /* \"#utility.yul\":16457:16466   */\n      not\n        /* \"#utility.yul\":16450:16455   */\n      dup5\n        /* \"#utility.yul\":16446:16467   */\n      and\n        /* \"#utility.yul\":16437:16467   */\n      swap4\n      pop\n        /* \"#utility.yul\":16510:16514   */\n      dup1\n        /* \"#utility.yul\":16500:16508   */\n      dup7\n        /* \"#utility.yul\":16496:16515   */\n      and\n        /* \"#utility.yul\":16489:16494   */\n      dup5\n        /* \"#utility.yul\":16486:16516   */\n      or\n        /* \"#utility.yul\":16476:16516   */\n      swap3\n      pop\n        /* \"#utility.yul\":16205:16522   */\n      pop\n      pop\n        /* \"#utility.yul\":16129:16522   */\n      swap4\n      swap3\n      pop\n      pop\n      pop\n      jump\t// out\n        /* \"#utility.yul\":16528:16588   */\n    tag_242:\n        /* \"#utility.yul\":16556:16559   */\n      0x00\n        /* \"#utility.yul\":16577:16582   */\n      dup2\n        /* \"#utility.yul\":16570:16582   */\n      swap1\n      pop\n        /* \"#utility.yul\":16528:16588   */\n      swap2\n      swap1\n      pop\n      jump\t// out\n        /* \"#utility.yul\":16594:16736   */\n    tag_243:\n        /* \"#utility.yul\":16644:16653   */\n      0x00\n        /* \"#utility.yul\":16677:16730   */\n      tag_438\n        /* \"#utility.yul\":16695:16729   */\n      tag_439\n        /* \"#utility.yul\":16704:16728   */\n      tag_440\n        /* \"#utility.yul\":16722:16727   */\n      dup5\n        /* \"#utility.yul\":16704:16728   */\n      tag_215\n      jump\t// in\n    tag_440:\n        /* \"#utility.yul\":16695:16729   */\n      tag_242\n      jump\t// in\n    tag_439:\n        /* \"#utility.yul\":16677:16730   */\n      tag_215\n      jump\t// in\n    tag_438:\n        /* \"#utility.yul\":16664:16730   */\n      swap1\n      pop\n        /* \"#utility.yul\":16594:16736   */\n      swap2\n      swap1\n      pop\n      jump\t// out\n        /* \"#utility.yul\":16742:16817   */\n    tag_244:\n        /* \"#utility.yul\":16785:16788   */\n      0x00\n        /* \"#utility.yul\":16806:16811   */\n      dup2\n        /* \"#utility.yul\":16799:16811   */\n      swap1\n      pop\n        /* \"#utility.yul\":16742:16817   */\n      swap2\n      swap1\n      pop\n      jump\t// out\n        /* \"#utility.yul\":16823:17092   */\n    tag_245:\n        /* \"#utility.yul\":16933:16972   */\n      tag_443\n        /* \"#utility.yul\":16964:16971   */\n      dup4\n        /* \"#utility.yul\":16933:16972   */\n      tag_243\n      jump\t// in\n    tag_443:\n        /* \"#utility.yul\":16994:17085   */\n      tag_444\n        /* \"#utility.yul\":17043:17084   */\n      tag_445\n        /* \"#utility.yul\":17067:17083   */\n      dup3\n        /* \"#utility.yul\":17043:17084   */\n      tag_244\n      jump\t// in\n    tag_445:\n        /* \"#utility.yul\":17035:17041   */\n      dup5\n        /* \"#utility.yul\":17028:17032   */\n      dup5\n        /* \"#utility.yul\":17022:17033   */\n      sload\n        /* \"#utility.yul\":16994:17085   */\n      tag_241\n      jump\t// in\n    tag_444:\n        /* \"#utility.yul\":16988:16992   */\n      dup3\n        /* \"#utility.yul\":16981:17086   */\n      sstore\n        /* \"#utility.yul\":16899:17092   */\n      pop\n        /* \"#utility.yul\":16823:17092   */\n      pop\n      pop\n      pop\n      jump\t// out\n        /* \"#utility.yul\":17098:17171   */\n    tag_246:\n        /* \"#utility.yul\":17143:17146   */\n      0x00\n        /* \"#utility.yul\":17164:17165   */\n      0x00\n        /* \"#utility.yul\":17157:17165   */\n      swap1\n      pop\n        /* \"#utility.yul\":17098:17171   */\n      swap1\n      jump\t// out\n        /* \"#utility.yul\":17177:17366   */\n    tag_247:\n        /* \"#utility.yul\":17254:17286   */\n      tag_448\n      tag_246\n      jump\t// in\n    tag_448:\n        /* \"#utility.yul\":17295:17360   */\n      tag_449\n        /* \"#utility.yul\":17353:17359   */\n      dup2\n        /* \"#utility.yul\":17345:17351   */\n      dup5\n        /* \"#utility.yul\":17339:17343   */\n      dup5\n        /* \"#utility.yul\":17295:17360   */\n      tag_245\n      jump\t// in\n    tag_449:\n        /* \"#utility.yul\":17230:17366   */\n      pop\n        /* \"#utility.yul\":17177:17366   */\n      pop\n      pop\n      jump\t// out\n        /* \"#utility.yul\":17372:17558   */\n    tag_248:\n        /* \"#utility.yul\":17432:17552   */\n    tag_451:\n        /* \"#utility.yul\":17449:17452   */\n      dup2\n        /* \"#utility.yul\":17442:17447   */\n      dup2\n        /* \"#utility.yul\":17439:17453   */\n      lt\n        /* \"#utility.yul\":17432:17552   */\n      iszero\n      tag_453\n      jumpi\n        /* \"#utility.yul\":17503:17542   */\n      tag_454\n        /* \"#utility.yul\":17540:17541   */\n      0x00\n        /* \"#utility.yul\":17533:17538   */\n      dup3\n        /* \"#utility.yul\":17503:17542   */\n      tag_247\n      jump\t// in\n    tag_454:\n        /* \"#utility.yul\":17476:17477   */\n      0x01\n        /* \"#utility.yul\":17469:17474   */\n      dup2\n        /* \"#utility.yul\":17465:17478   */\n      add\n        /* \"#utility.yul\":17456:17478   */\n      swap1\n      pop\n        /* \"#utility.yul\":17432:17552   */\n      jump(tag_451)\n    tag_453:\n        /* \"#utility.yul\":17372:17558   */\n      pop\n      pop\n      jump\t// out\n        /* \"#utility.yul\":17564:18107   */\n    tag_249:\n        /* \"#utility.yul\":17665:17667   */\n      0x1f\n        /* \"#utility.yul\":17660:17663   */\n      dup3\n        /* \"#utility.yul\":17657:17668   */\n      gt\n        /* \"#utility.yul\":17654:18100   */\n      iszero\n      tag_456\n      jumpi\n        /* \"#utility.yul\":17699:17737   */\n      tag_457\n        /* \"#utility.yul\":17731:17736   */\n      dup2\n        /* \"#utility.yul\":17699:17737   */\n      tag_238\n      jump\t// in\n    tag_457:\n        /* \"#utility.yul\":17783:17812   */\n      tag_458\n        /* \"#utility.yul\":17801:17811   */\n      dup5\n        /* \"#utility.yul\":17783:17812   */\n      tag_239\n      jump\t// in\n    tag_458:\n        /* \"#utility.yul\":17773:17781   */\n      dup2\n        /* \"#utility.yul\":17769:17813   */\n      add\n        /* \"#utility.yul\":17966:17968   */\n      0x20\n        /* \"#utility.yul\":17954:17964   */\n      dup6\n        /* \"#utility.yul\":17951:17969   */\n      lt\n        /* \"#utility.yul\":17948:17997   */\n      iszero\n      tag_459\n      jumpi\n        /* \"#utility.yul\":17987:17995   */\n      dup2\n        /* \"#utility.yul\":17972:17995   */\n      swap1\n      pop\n        /* \"#utility.yul\":17948:17997   */\n    tag_459:\n        /* \"#utility.yul\":18010:18090   */\n      tag_460\n        /* \"#utility.yul\":18066:18088   */\n      tag_461\n        /* \"#utility.yul\":18084:18087   */\n      dup6\n        /* \"#utility.yul\":18066:18088   */\n      tag_239\n      jump\t// in\n    tag_461:\n        /* \"#utility.yul\":18056:18064   */\n      dup4\n        /* \"#utility.yul\":18052:18089   */\n      add\n        /* \"#utility.yul\":18039:18050   */\n      dup3\n        /* \"#utility.yul\":18010:18090   */\n      tag_248\n      jump\t// in\n    tag_460:\n        /* \"#utility.yul\":17669:18100   */\n      pop\n      pop\n        /* \"#utility.yul\":17654:18100   */\n    tag_456:\n        /* \"#utility.yul\":17564:18107   */\n      pop\n      pop\n      pop\n      jump\t// out\n        /* \"#utility.yul\":18113:18230   */\n    tag_250:\n        /* \"#utility.yul\":18167:18175   */\n      0x00\n        /* \"#utility.yul\":18217:18222   */\n      dup3\n        /* \"#utility.yul\":18211:18215   */\n      dup3\n        /* \"#utility.yul\":18207:18223   */\n      shr\n        /* \"#utility.yul\":18186:18223   */\n      swap1\n      pop\n        /* \"#utility.yul\":18113:18230   */\n      swap3\n      swap2\n      pop\n      pop\n      jump\t// out\n        /* \"#utility.yul\":18236:18405   */\n    tag_251:\n        /* \"#utility.yul\":18280:18286   */\n      0x00\n        /* \"#utility.yul\":18313:18364   */\n      tag_464\n        /* \"#utility.yul\":18361:18362   */\n      0x00\n        /* \"#utility.yul\":18357:18363   */\n      not\n        /* \"#utility.yul\":18349:18354   */\n      dup5\n        /* \"#utility.yul\":18346:18347   */\n      0x08\n        /* \"#utility.yul\":18342:18355   */\n      mul\n        /* \"#utility.yul\":18313:18364   */\n      tag_250\n      jump\t// in\n    tag_464:\n        /* \"#utility.yul\":18309:18365   */\n      not\n        /* \"#utility.yul\":18394:18398   */\n      dup1\n        /* \"#utility.yul\":18388:18392   */\n      dup4\n        /* \"#utility.yul\":18384:18399   */\n      and\n        /* \"#utility.yul\":18374:18399   */\n      swap2\n      pop\n        /* \"#utility.yul\":18287:18405   */\n      pop\n        /* \"#utility.yul\":18236:18405   */\n      swap3\n      swap2\n      pop\n      pop\n      jump\t// out\n        /* \"#utility.yul\":18410:18705   */\n    tag_252:\n        /* \"#utility.yul\":18486:18490   */\n      0x00\n        /* \"#utility.yul\":18632:18661   */\n      tag_466\n        /* \"#utility.yul\":18657:18660   */\n      dup4\n        /* \"#utility.yul\":18651:18655   */\n      dup4\n        /* \"#utility.yul\":18632:18661   */\n      tag_251\n      jump\t// in\n    tag_466:\n        /* \"#utility.yul\":18624:18661   */\n      swap2\n      pop\n        /* \"#utility.yul\":18694:18697   */\n      dup3\n        /* \"#utility.yul\":18691:18692   */\n      0x02\n        /* \"#utility.yul\":18687:18698   */\n      mul\n        /* \"#utility.yul\":18681:18685   */\n      dup3\n        /* \"#utility.yul\":18678:18699   */\n      or\n        /* \"#utility.yul\":18670:18699   */\n      swap1\n      pop\n        /* \"#utility.yul\":18410:18705   */\n      swap3\n      swap2\n      pop\n      pop\n      jump\t// out\n        /* \"#utility.yul\":18710:20105   */\n    tag_62:\n        /* \"#utility.yul\":18827:18864   */\n      tag_468\n        /* \"#utility.yul\":18860:18863   */\n      dup3\n        /* \"#utility.yul\":18827:18864   */\n      tag_223\n      jump\t// in\n    tag_468:\n        /* \"#utility.yul\":18929:18947   */\n      0xffffffffffffffff\n        /* \"#utility.yul\":18921:18927   */\n      dup2\n        /* \"#utility.yul\":18918:18948   */\n      gt\n        /* \"#utility.yul\":18915:18971   */\n      iszero\n      tag_469\n      jumpi\n        /* \"#utility.yul\":18951:18969   */\n      tag_470\n      tag_208\n      jump\t// in\n    tag_470:\n        /* \"#utility.yul\":18915:18971   */\n    tag_469:\n        /* \"#utility.yul\":18995:19033   */\n      tag_471\n        /* \"#utility.yul\":19027:19031   */\n      dup3\n        /* \"#utility.yul\":19021:19032   */\n      sload\n        /* \"#utility.yul\":18995:19033   */\n      tag_79\n      jump\t// in\n    tag_471:\n        /* \"#utility.yul\":19080:19147   */\n      tag_472\n        /* \"#utility.yul\":19140:19146   */\n      dup3\n        /* \"#utility.yul\":19132:19138   */\n      dup3\n        /* \"#utility.yul\":19126:19130   */\n      dup6\n        /* \"#utility.yul\":19080:19147   */\n      tag_249\n      jump\t// in\n    tag_472:\n        /* \"#utility.yul\":19174:19175   */\n      0x00\n        /* \"#utility.yul\":19198:19202   */\n      0x20\n        /* \"#utility.yul\":19185:19202   */\n      swap1\n      pop\n        /* \"#utility.yul\":19230:19232   */\n      0x1f\n        /* \"#utility.yul\":19222:19228   */\n      dup4\n        /* \"#utility.yul\":19219:19233   */\n      gt\n        /* \"#utility.yul\":19247:19248   */\n      0x01\n        /* \"#utility.yul\":19242:19860   */\n      dup2\n      eq\n      tag_474\n      jumpi\n        /* \"#utility.yul\":19904:19905   */\n      0x00\n        /* \"#utility.yul\":19921:19927   */\n      dup5\n        /* \"#utility.yul\":19918:19995   */\n      iszero\n      tag_475\n      jumpi\n        /* \"#utility.yul\":19970:19979   */\n      dup3\n        /* \"#utility.yul\":19965:19968   */\n      dup8\n        /* \"#utility.yul\":19961:19980   */\n      add\n        /* \"#utility.yul\":19955:19981   */\n      mload\n        /* \"#utility.yul\":19946:19981   */\n      swap1\n      pop\n        /* \"#utility.yul\":19918:19995   */\n    tag_475:\n        /* \"#utility.yul\":20021:20088   */\n      tag_476\n        /* \"#utility.yul\":20081:20087   */\n      dup6\n        /* \"#utility.yul\":20074:20079   */\n      dup3\n        /* \"#utility.yul\":20021:20088   */\n      tag_252\n      jump\t// in\n    tag_476:\n        /* \"#utility.yul\":20015:20019   */\n      dup7\n        /* \"#utility.yul\":20008:20089   */\n      sstore\n        /* \"#utility.yul\":19877:20099   */\n      pop\n        /* \"#utility.yul\":19212:20099   */\n      jump(tag_473)\n        /* \"#utility.yul\":19242:19860   */\n    tag_474:\n        /* \"#utility.yul\":19294:19298   */\n      0x1f\n        /* \"#utility.yul\":19290:19299   */\n      not\n        /* \"#utility.yul\":19282:19288   */\n      dup5\n        /* \"#utility.yul\":19278:19300   */\n      and\n        /* \"#utility.yul\":19328:19365   */\n      tag_477\n        /* \"#utility.yul\":19360:19364   */\n      dup7\n        /* \"#utility.yul\":19328:19365   */\n      tag_238\n      jump\t// in\n    tag_477:\n        /* \"#utility.yul\":19387:19388   */\n      0x00\n        /* \"#utility.yul\":19401:19609   */\n    tag_478:\n        /* \"#utility.yul\":19415:19422   */\n      dup3\n        /* \"#utility.yul\":19412:19413   */\n      dup2\n        /* \"#utility.yul\":19409:19423   */\n      lt\n        /* \"#utility.yul\":19401:19609   */\n      iszero\n      tag_480\n      jumpi\n        /* \"#utility.yul\":19494:19503   */\n      dup5\n        /* \"#utility.yul\":19489:19492   */\n      dup10\n        /* \"#utility.yul\":19485:19504   */\n      add\n        /* \"#utility.yul\":19479:19505   */\n      mload\n        /* \"#utility.yul\":19471:19477   */\n      dup3\n        /* \"#utility.yul\":19464:19506   */\n      sstore\n        /* \"#utility.yul\":19545:19546   */\n      0x01\n        /* \"#utility.yul\":19537:19543   */\n      dup3\n        /* \"#utility.yul\":19533:19547   */\n      add\n        /* \"#utility.yul\":19523:19547   */\n      swap2\n      pop\n        /* \"#utility.yul\":19592:19594   */\n      0x20\n        /* \"#utility.yul\":19581:19590   */\n      dup6\n        /* \"#utility.yul\":19577:19595   */\n      add\n        /* \"#utility.yul\":19564:19595   */\n      swap5\n      pop\n        /* \"#utility.yul\":19438:19442   */\n      0x20\n        /* \"#utility.yul\":19435:19436   */\n      dup2\n        /* \"#utility.yul\":19431:19443   */\n      add\n        /* \"#utility.yul\":19426:19443   */\n      swap1\n      pop\n        /* \"#utility.yul\":19401:19609   */\n      jump(tag_478)\n    tag_480:\n        /* \"#utility.yul\":19637:19643   */\n      dup7\n        /* \"#utility.yul\":19628:19635   */\n      dup4\n        /* \"#utility.yul\":19625:19644   */\n      lt\n        /* \"#utility.yul\":19622:19801   */\n      iszero\n      tag_481\n      jumpi\n        /* \"#utility.yul\":19695:19704   */\n      dup5\n        /* \"#utility.yul\":19690:19693   */\n      dup10\n        /* \"#utility.yul\":19686:19705   */\n      add\n        /* \"#utility.yul\":19680:19706   */\n      mload\n        /* \"#utility.yul\":19738:19786   */\n      tag_482\n        /* \"#utility.yul\":19780:19784   */\n      0x1f\n        /* \"#utility.yul\":19772:19778   */\n      dup10\n        /* \"#utility.yul\":19768:19785   */\n      and\n        /* \"#utility.yul\":19757:19766   */\n      dup3\n        /* \"#utility.yul\":19738:19786   */\n      tag_251\n      jump\t// in\n    tag_482:\n        /* \"#utility.yul\":19730:19736   */\n      dup4\n        /* \"#utility.yul\":19723:19787   */\n      sstore\n        /* \"#utility.yul\":19645:19801   */\n      pop\n        /* \"#utility.yul\":19622:19801   */\n    tag_481:\n        /* \"#utility.yul\":19847:19848   */\n      0x01\n        /* \"#utility.yul\":19843:19844   */\n      0x02\n        /* \"#utility.yul\":19835:19841   */\n      dup9\n        /* \"#utility.yul\":19831:19845   */\n      mul\n        /* \"#utility.yul\":19827:19849   */\n      add\n        /* \"#utility.yul\":19821:19825   */\n      dup9\n        /* \"#utility.yul\":19814:19850   */\n      sstore\n        /* \"#utility.yul\":19249:19860   */\n      pop\n      pop\n      pop\n        /* \"#utility.yul\":19212:20099   */\n    tag_473:\n      pop\n        /* \"#utility.yul\":18802:20105   */\n      pop\n      pop\n      pop\n        /* \"#utility.yul\":18710:20105   */\n      pop\n      pop\n      jump\t// out\n        /* \"#utility.yul\":20111:20291   */\n    tag_253:\n        /* \"#utility.yul\":20159:20236   */\n      0x4e487b7100000000000000000000000000000000000000000000000000000000\n        /* \"#utility.yul\":20156:20157   */\n      0x00\n        /* \"#utility.yul\":20149:20237   */\n      mstore\n        /* \"#utility.yul\":20256:20260   */\n      0x11\n        /* \"#utility.yul\":20253:20254   */\n      0x04\n        /* \"#utility.yul\":20246:20261   */\n      mstore\n        /* \"#utility.yul\":20280:20284   */\n      0x24\n        /* \"#utility.yul\":20277:20278   */\n      0x00\n        /* \"#utility.yul\":20270:20285   */\n      revert\n        /* \"#utility.yul\":20297:20530   */\n    tag_71:\n        /* \"#utility.yul\":20336:20339   */\n      0x00\n        /* \"#utility.yul\":20359:20383   */\n      tag_485\n        /* \"#utility.yul\":20377:20382   */\n      dup3\n        /* \"#utility.yul\":20359:20383   */\n      tag_215\n      jump\t// in\n    tag_485:\n        /* \"#utility.yul\":20350:20383   */\n      swap2\n      pop\n        /* \"#utility.yul\":20405:20471   */\n      0xffffffffffffffffffffffffffffffffffffffffffffffffffffffffffffffff\n        /* \"#utility.yul\":20398:20403   */\n      dup3\n        /* \"#utility.yul\":20395:20472   */\n      sub\n        /* \"#utility.yul\":20392:20495   */\n      tag_486\n      jumpi\n        /* \"#utility.yul\":20475:20493   */\n      tag_487\n      tag_253\n      jump\t// in\n    tag_487:\n        /* \"#utility.yul\":20392:20495   */\n    tag_486:\n        /* \"#utility.yul\":20522:20523   */\n      0x01\n        /* \"#utility.yul\":20515:20520   */\n      dup3\n        /* \"#utility.yul\":20511:20524   */\n      add\n        /* \"#utility.yul\":20504:20524   */\n      swap1\n      pop\n        /* \"#utility.yul\":20297:20530   */\n      swap2\n      swap1\n      pop\n      jump\t// out\n        /* \"#utility.yul\":20536:20730   */\n    tag_73:\n        /* \"#utility.yul\":20576:20580   */\n      0x00\n        /* \"#utility.yul\":20596:20616   */\n      tag_489\n        /* \"#utility.yul\":20614:20615   */\n      dup3\n        /* \"#utility.yul\":20596:20616   */\n      tag_215\n      jump\t// in\n    tag_489:\n        /* \"#utility.yul\":20591:20616   */\n      swap2\n      pop\n        /* \"#utility.yul\":20630:20650   */\n      tag_490\n        /* \"#utility.yul\":20648:20649   */\n      dup4\n        /* \"#utility.yul\":20630:20650   */\n      tag_215\n      jump\t// in\n    tag_490:\n        /* \"#utility.yul\":20625:20650   */\n      swap3\n      pop\n        /* \"#utility.yul\":20674:20675   */\n      dup3\n        /* \"#utility.yul\":20671:20672   */\n      dup3\n        /* \"#utility.yul\":20667:20676   */\n      sub\n        /* \"#utility.yul\":20659:20676   */\n      swap1\n      pop\n        /* \"#utility.yul\":20698:20699   */\n      dup2\n        /* \"#utility.yul\":20692:20696   */\n      dup2\n        /* \"#utility.yul\":20689:20700   */\n      gt\n        /* \"#utility.yul\":20686:20723   */\n      iszero\n      tag_491\n      jumpi\n        /* \"#utility.yul\":20703:20721   */\n      tag_492\n      tag_253\n      jump\t// in\n    tag_492:\n        /* \"#utility.yul\":20686:20723   */\n    tag_491:\n        /* \"#utility.yul\":20536:20730   */\n      swap3\n      swap2\n      pop\n      pop\n      jump\t// out\n        /* \"#utility.yul\":20736:20813   */\n    tag_254:\n        /* \"#utility.yul\":20773:20780   */\n      0x00\n        /* \"#utility.yul\":20802:20807   */\n      dup2\n        /* \"#utility.yul\":20791:20807   */\n      swap1\n      pop\n        /* \"#utility.yul\":20736:20813   */\n      swap2\n      swap1\n      pop\n      jump\t// out\n        /* \"#utility.yul\":20819:20937   */\n    tag_255:\n        /* \"#utility.yul\":20906:20930   */\n      tag_495\n        /* \"#utility.yul\":20924:20929   */\n      dup2\n        /* \"#utility.yul\":20906:20930   */\n      tag_254\n      jump\t// in\n    tag_495:\n        /* \"#utility.yul\":20901:20904   */\n      dup3\n        /* \"#utility.yul\":20894:20931   */\n      mstore\n        /* \"#utility.yul\":20819:20937   */\n      pop\n      pop\n      jump\t// out\n        /* \"#utility.yul\":20943:21385   */\n    tag_75:\n        /* \"#utility.yul\":21092:21096   */\n      0x00\n        /* \"#utility.yul\":21130:21132   */\n      0x60\n        /* \"#utility.yul\":21119:21128   */\n      dup3\n        /* \"#utility.yul\":21115:21133   */\n      add\n        /* \"#utility.yul\":21107:21133   */\n      swap1\n      pop\n        /* \"#utility.yul\":21143:21214   */\n      tag_497\n        /* \"#utility.yul\":21211:21212   */\n      0x00\n        /* \"#utility.yul\":21200:21209   */\n      dup4\n        /* \"#utility.yul\":21196:21213   */\n      add\n        /* \"#utility.yul\":21187:21193   */\n      dup7\n        /* \"#utility.yul\":21143:21214   */\n      tag_227\n      jump\t// in\n    tag_497:\n        /* \"#utility.yul\":21224:21296   */\n      tag_498\n        /* \"#utility.yul\":21292:21294   */\n      0x20\n        /* \"#utility.yul\":21281:21290   */\n      dup4\n        /* \"#utility.yul\":21277:21295   */\n      add\n        /* \"#utility.yul\":21268:21274   */\n      dup6\n        /* \"#utility.yul\":21224:21296   */\n      tag_255\n      jump\t// in\n    tag_498:\n        /* \"#utility.yul\":21306:21378   */\n      tag_499\n        /* \"#utility.yul\":21374:21376   */\n      0x40\n        /* \"#utility.yul\":21363:21372   */\n      dup4\n        /* \"#utility.yul\":21359:21377   */\n      add\n        /* \"#utility.yul\":21350:21356   */\n      dup5\n        /* \"#utility.yul\":21306:21378   */\n      tag_227\n      jump\t// in\n    tag_499:\n        /* \"#utility.yul\":20943:21385   */\n      swap5\n      swap4\n      pop\n      pop\n      pop\n      pop\n      jump\t// out\n        /* \"#utility.yul\":21391:21560   */\n    tag_256:\n        /* \"#utility.yul\":21531:21552   */\n      0x476f617420646f6573206e6f7420657869737400000000000000000000000000\n        /* \"#utility.yul\":21527:21528   */\n      0x00\n        /* \"#utility.yul\":21519:21525   */\n      dup3\n        /* \"#utility.yul\":21515:21529   */\n      add\n        /* \"#utility.yul\":21508:21553   */\n      mstore\n        /* \"#utility.yul\":21391:21560   */\n      pop\n      jump\t// out\n        /* \"#utility.yul\":21566:21932   */\n    tag_257:\n        /* \"#utility.yul\":21708:21711   */\n      0x00\n        /* \"#utility.yul\":21729:21796   */\n      tag_502\n        /* \"#utility.yul\":21793:21795   */\n      0x13\n        /* \"#utility.yul\":21788:21791   */\n      dup4\n        /* \"#utility.yul\":21729:21796   */\n      tag_224\n      jump\t// in\n    tag_502:\n        /* \"#utility.yul\":21722:21796   */\n      swap2\n      pop\n        /* \"#utility.yul\":21805:21898   */\n      tag_503\n        /* \"#utility.yul\":21894:21897   */\n      dup3\n        /* \"#utility.yul\":21805:21898   */\n      tag_256\n      jump\t// in\n    tag_503:\n        /* \"#utility.yul\":21923:21925   */\n      0x20\n        /* \"#utility.yul\":21918:21921   */\n      dup3\n        /* \"#utility.yul\":21914:21926   */\n      add\n        /* \"#utility.yul\":21907:21926   */\n      swap1\n      pop\n        /* \"#utility.yul\":21566:21932   */\n      swap2\n      swap1\n      pop\n      jump\t// out\n        /* \"#utility.yul\":21938:22357   */\n    tag_109:\n        /* \"#utility.yul\":22104:22108   */\n      0x00\n        /* \"#utility.yul\":22142:22144   */\n      0x20\n        /* \"#utility.yul\":22131:22140   */\n      dup3\n        /* \"#utility.yul\":22127:22145   */\n      add\n        /* \"#utility.yul\":22119:22145   */\n      swap1\n      pop\n        /* \"#utility.yul\":22191:22200   */\n      dup2\n        /* \"#utility.yul\":22185:22189   */\n      dup2\n        /* \"#utility.yul\":22181:22201   */\n      sub\n        /* \"#utility.yul\":22177:22178   */\n      0x00\n        /* \"#utility.yul\":22166:22175   */\n      dup4\n        /* \"#utility.yul\":22162:22179   */\n      add\n        /* \"#utility.yul\":22155:22202   */\n      mstore\n        /* \"#utility.yul\":22219:22350   */\n      tag_505\n        /* \"#utility.yul\":22345:22349   */\n      dup2\n        /* \"#utility.yul\":22219:22350   */\n      tag_257\n      jump\t// in\n    tag_505:\n        /* \"#utility.yul\":22211:22350   */\n      swap1\n      pop\n        /* \"#utility.yul\":21938:22357   */\n      swap2\n      swap1\n      pop\n      jump\t// out\n        /* \"#utility.yul\":22363:22773   */\n    tag_155:\n        /* \"#utility.yul\":22403:22410   */\n      0x00\n        /* \"#utility.yul\":22426:22446   */\n      tag_507\n        /* \"#utility.yul\":22444:22445   */\n      dup3\n        /* \"#utility.yul\":22426:22446   */\n      tag_215\n      jump\t// in\n    tag_507:\n        /* \"#utility.yul\":22421:22446   */\n      swap2\n      pop\n        /* \"#utility.yul\":22460:22480   */\n      tag_508\n        /* \"#utility.yul\":22478:22479   */\n      dup4\n        /* \"#utility.yul\":22460:22480   */\n      tag_215\n      jump\t// in\n    tag_508:\n        /* \"#utility.yul\":22455:22480   */\n      swap3\n      pop\n        /* \"#utility.yul\":22515:22516   */\n      dup3\n        /* \"#utility.yul\":22512:22513   */\n      dup3\n        /* \"#utility.yul\":22508:22517   */\n      mul\n        /* \"#utility.yul\":22537:22567   */\n      tag_509\n        /* \"#utility.yul\":22555:22566   */\n      dup2\n        /* \"#utility.yul\":22537:22567   */\n      tag_215\n      jump\t// in\n    tag_509:\n        /* \"#utility.yul\":22526:22567   */\n      swap2\n      pop\n        /* \"#utility.yul\":22716:22717   */\n      dup3\n        /* \"#utility.yul\":22707:22714   */\n      dup3\n        /* \"#utility.yul\":22703:22718   */\n      div\n        /* \"#utility.yul\":22700:22701   */\n      dup5\n        /* \"#utility.yul\":22697:22719   */\n      eq\n        /* \"#utility.yul\":22677:22678   */\n      dup4\n        /* \"#utility.yul\":22670:22679   */\n      iszero\n        /* \"#utility.yul\":22650:22733   */\n      or\n        /* \"#utility.yul\":22627:22766   */\n      tag_510\n      jumpi\n        /* \"#utility.yul\":22746:22764   */\n      tag_511\n      tag_253\n      jump\t// in\n    tag_511:\n        /* \"#utility.yul\":22627:22766   */\n    tag_510:\n        /* \"#utility.yul\":22411:22773   */\n      pop\n        /* \"#utility.yul\":22363:22773   */\n      swap3\n      swap2\n      pop\n      pop\n      jump\t// out\n        /* \"#utility.yul\":22779:22970   */\n    tag_162:\n        /* \"#utility.yul\":22819:22822   */\n      0x00\n        /* \"#utility.yul\":22838:22858   */\n      tag_513\n        /* \"#utility.yul\":22856:22857   */\n      dup3\n        /* \"#utility.yul\":22838:22858   */\n      tag_215\n      jump\t// in\n    tag_513:\n        /* \"#utility.yul\":22833:22858   */\n      swap2\n      pop\n        /* \"#utility.yul\":22872:22892   */\n      tag_514\n        /* \"#utility.yul\":22890:22891   */\n      dup4\n        /* \"#utility.yul\":22872:22892   */\n      tag_215\n      jump\t// in\n    tag_514:\n        /* \"#utility.yul\":22867:22892   */\n      swap3\n      pop\n        /* \"#utility.yul\":22915:22916   */\n      dup3\n        /* \"#utility.yul\":22912:22913   */\n      dup3\n        /* \"#utility.yul\":22908:22917   */\n      add\n        /* \"#utility.yul\":22901:22917   */\n      swap1\n      pop\n        /* \"#utility.yul\":22936:22939   */\n      dup1\n        /* \"#utility.yul\":22933:22934   */\n      dup3\n        /* \"#utility.yul\":22930:22940   */\n      gt\n        /* \"#utility.yul\":22927:22963   */\n      iszero\n      tag_515\n      jumpi\n        /* \"#utility.yul\":22943:22961   */\n      tag_516\n      tag_253\n      jump\t// in\n    tag_516:\n        /* \"#utility.yul\":22927:22963   */\n    tag_515:\n        /* \"#utility.yul\":22779:22970   */\n      swap3\n      swap2\n      pop\n      pop\n      jump\t// out\n        /* \"#utility.yul\":22976:23124   */\n    tag_258:\n        /* \"#utility.yul\":23078:23089   */\n      0x00\n        /* \"#utility.yul\":23115:23118   */\n      dup2\n        /* \"#utility.yul\":23100:23118   */\n      swap1\n      pop\n        /* \"#utility.yul\":22976:23124   */\n      swap3\n      swap2\n      pop\n      pop\n      jump\t// out\n        /* \"#utility.yul\":23130:23285   */\n    tag_259:\n        /* \"#utility.yul\":23270:23277   */\n      0x4c6f63616c000000000000000000000000000000000000000000000000000000\n        /* \"#utility.yul\":23266:23267   */\n      0x00\n        /* \"#utility.yul\":23258:23264   */\n      dup3\n        /* \"#utility.yul\":23254:23268   */\n      add\n        /* \"#utility.yul\":23247:23278   */\n      mstore\n        /* \"#utility.yul\":23130:23285   */\n      pop\n      jump\t// out\n        /* \"#utility.yul\":23291:23691   */\n    tag_260:\n        /* \"#utility.yul\":23451:23454   */\n      0x00\n        /* \"#utility.yul\":23472:23556   */\n      tag_520\n        /* \"#utility.yul\":23554:23555   */\n      0x05\n        /* \"#utility.yul\":23549:23552   */\n      dup4\n        /* \"#utility.yul\":23472:23556   */\n      tag_258\n      jump\t// in\n    tag_520:\n        /* \"#utility.yul\":23465:23556   */\n      swap2\n      pop\n        /* \"#utility.yul\":23565:23658   */\n      tag_521\n        /* \"#utility.yul\":23654:23657   */\n      dup3\n        /* \"#utility.yul\":23565:23658   */\n      tag_259\n      jump\t// in\n    tag_521:\n        /* \"#utility.yul\":23683:23684   */\n      0x05\n        /* \"#utility.yul\":23678:23681   */\n      dup3\n        /* \"#utility.yul\":23674:23685   */\n      add\n        /* \"#utility.yul\":23667:23685   */\n      swap1\n      pop\n        /* \"#utility.yul\":23291:23691   */\n      swap2\n      swap1\n      pop\n      jump\t// out\n        /* \"#utility.yul\":23697:24078   */\n    tag_185:\n        /* \"#utility.yul\":23882:23885   */\n      0x00\n        /* \"#utility.yul\":23904:24052   */\n      tag_523\n        /* \"#utility.yul\":24048:24051   */\n      dup3\n        /* \"#utility.yul\":23904:24052   */\n      tag_260\n      jump\t// in\n    tag_523:\n        /* \"#utility.yul\":23897:24052   */\n      swap2\n      pop\n        /* \"#utility.yul\":24069:24072   */\n      dup2\n        /* \"#utility.yul\":24062:24072   */\n      swap1\n      pop\n        /* \"#utility.yul\":23697:24078   */\n      swap2\n      swap1\n      pop\n      jump\t// out\n        /* \"#utility.yul\":24084:24474   */\n    tag_261:\n        /* \"#utility.yul\":24190:24193   */\n      0x00\n        /* \"#utility.yul\":24218:24257   */\n      tag_525\n        /* \"#utility.yul\":24251:24256   */\n      dup3\n        /* \"#utility.yul\":24218:24257   */\n      tag_223\n      jump\t// in\n    tag_525:\n        /* \"#utility.yul\":24273:24362   */\n      tag_526\n        /* \"#utility.yul\":24355:24361   */\n      dup2\n        /* \"#utility.yul\":24350:24353   */\n      dup6\n        /* \"#utility.yul\":24273:24362   */\n      tag_258\n      jump\t// in\n    tag_526:\n        /* \"#utility.yul\":24266:24362   */\n      swap4\n      pop\n        /* \"#utility.yul\":24371:24436   */\n      tag_527\n        /* \"#utility.yul\":24429:24435   */\n      dup2\n        /* \"#utility.yul\":24424:24427   */\n      dup6\n        /* \"#utility.yul\":24417:24421   */\n      0x20\n        /* \"#utility.yul\":24410:24415   */\n      dup7\n        /* \"#utility.yul\":24406:24422   */\n      add\n        /* \"#utility.yul\":24371:24436   */\n      tag_225\n      jump\t// in\n    tag_527:\n        /* \"#utility.yul\":24461:24467   */\n      dup1\n        /* \"#utility.yul\":24456:24459   */\n      dup5\n        /* \"#utility.yul\":24452:24468   */\n      add\n        /* \"#utility.yul\":24445:24468   */\n      swap2\n      pop\n        /* \"#utility.yul\":24194:24474   */\n      pop\n        /* \"#utility.yul\":24084:24474   */\n      swap3\n      swap2\n      pop\n      pop\n      jump\t// out\n        /* \"#utility.yul\":24480:24755   */\n    tag_187:\n        /* \"#utility.yul\":24612:24615   */\n      0x00\n        /* \"#utility.yul\":24634:24729   */\n      tag_529\n        /* \"#utility.yul\":24725:24728   */\n      dup3\n        /* \"#utility.yul\":24716:24722   */\n      dup5\n        /* \"#utility.yul\":24634:24729   */\n      tag_261\n      jump\t// in\n    tag_529:\n        /* \"#utility.yul\":24627:24729   */\n      swap2\n      pop\n        /* \"#utility.yul\":24746:24749   */\n      dup2\n        /* \"#utility.yul\":24739:24749   */\n      swap1\n      pop\n        /* \"#utility.yul\":24480:24755   */\n      swap3\n      swap2\n      pop\n      pop\n      jump\t// out\n        /* \"#utility.yul\":24761:24919   */\n    tag_262:\n        /* \"#utility.yul\":24901:24911   */\n      0x426163685468616f000000000000000000000000000000000000000000000000\n        /* \"#utility.yul\":24897:24898   */\n      0x00\n        /* \"#utility.yul\":24889:24895   */\n      dup3\n        /* \"#utility.yul\":24885:24899   */\n      add\n        /* \"#utility.yul\":24878:24912   */\n      mstore\n        /* \"#utility.yul\":24761:24919   */\n      pop\n      jump\t// out\n        /* \"#utility.yul\":24925:25325   */\n    tag_263:\n        /* \"#utility.yul\":25085:25088   */\n      0x00\n        /* \"#utility.yul\":25106:25190   */\n      tag_532\n        /* \"#utility.yul\":25188:25189   */\n      0x08\n        /* \"#utility.yul\":25183:25186   */\n      dup4\n        /* \"#utility.yul\":25106:25190   */\n      tag_258\n      jump\t// in\n    tag_532:\n        /* \"#utility.yul\":25099:25190   */\n      swap2\n      pop\n        /* \"#utility.yul\":25199:25292   */\n      tag_533\n        /* \"#utility.yul\":25288:25291   */\n      dup3\n        /* \"#utility.yul\":25199:25292   */\n      tag_262\n      jump\t// in\n    tag_533:\n        /* \"#utility.yul\":25317:25318   */\n      0x08\n        /* \"#utility.yul\":25312:25315   */\n      dup3\n        /* \"#utility.yul\":25308:25319   */\n      add\n        /* \"#utility.yul\":25301:25319   */\n      swap1\n      pop\n        /* \"#utility.yul\":24925:25325   */\n      swap2\n      swap1\n      pop\n      jump\t// out\n        /* \"#utility.yul\":25331:25712   */\n    tag_191:\n        /* \"#utility.yul\":25516:25519   */\n      0x00\n        /* \"#utility.yul\":25538:25686   */\n      tag_535\n        /* \"#utility.yul\":25682:25685   */\n      dup3\n        /* \"#utility.yul\":25538:25686   */\n      tag_263\n      jump\t// in\n    tag_535:\n        /* \"#utility.yul\":25531:25686   */\n      swap2\n      pop\n        /* \"#utility.yul\":25703:25706   */\n      dup2\n        /* \"#utility.yul\":25696:25706   */\n      swap1\n      pop\n        /* \"#utility.yul\":25331:25712   */\n      swap2\n      swap1\n      pop\n      jump\t// out\n        /* \"#utility.yul\":25718:25872   */\n    tag_264:\n        /* \"#utility.yul\":25858:25864   */\n      0x426f657200000000000000000000000000000000000000000000000000000000\n        /* \"#utility.yul\":25854:25855   */\n      0x00\n        /* \"#utility.yul\":25846:25852   */\n      dup3\n        /* \"#utility.yul\":25842:25856   */\n      add\n        /* \"#utility.yul\":25835:25865   */\n      mstore\n        /* \"#utility.yul\":25718:25872   */\n      pop\n      jump\t// out\n        /* \"#utility.yul\":25878:26278   */\n    tag_265:\n        /* \"#utility.yul\":26038:26041   */\n      0x00\n        /* \"#utility.yul\":26059:26143   */\n      tag_538\n        /* \"#utility.yul\":26141:26142   */\n      0x04\n        /* \"#utility.yul\":26136:26139   */\n      dup4\n        /* \"#utility.yul\":26059:26143   */\n      tag_258\n      jump\t// in\n    tag_538:\n        /* \"#utility.yul\":26052:26143   */\n      swap2\n      pop\n        /* \"#utility.yul\":26152:26245   */\n      tag_539\n        /* \"#utility.yul\":26241:26244   */\n      dup3\n        /* \"#utility.yul\":26152:26245   */\n      tag_264\n      jump\t// in\n    tag_539:\n        /* \"#utility.yul\":26270:26271   */\n      0x04\n        /* \"#utility.yul\":26265:26268   */\n      dup3\n        /* \"#utility.yul\":26261:26272   */\n      add\n        /* \"#utility.yul\":26254:26272   */\n      swap1\n      pop\n        /* \"#utility.yul\":25878:26278   */\n      swap2\n      swap1\n      pop\n      jump\t// out\n        /* \"#utility.yul\":26284:26665   */\n    tag_196:\n        /* \"#utility.yul\":26469:26472   */\n      0x00\n        /* \"#utility.yul\":26491:26639   */\n      tag_541\n        /* \"#utility.yul\":26635:26638   */\n      dup3\n        /* \"#utility.yul\":26491:26639   */\n      tag_265\n      jump\t// in\n    tag_541:\n        /* \"#utility.yul\":26484:26639   */\n      swap2\n      pop\n        /* \"#utility.yul\":26656:26659   */\n      dup2\n        /* \"#utility.yul\":26649:26659   */\n      swap1\n      pop\n        /* \"#utility.yul\":26284:26665   */\n      swap2\n      swap1\n      pop\n      jump\t// out\n        /* \"#utility.yul\":26671:26839   */\n    tag_266:\n        /* \"#utility.yul\":26811:26831   */\n      0x496e76616c696420627265656420747970650000000000000000000000000000\n        /* \"#utility.yul\":26807:26808   */\n      0x00\n        /* \"#utility.yul\":26799:26805   */\n      dup3\n        /* \"#utility.yul\":26795:26809   */\n      add\n        /* \"#utility.yul\":26788:26832   */\n      mstore\n        /* \"#utility.yul\":26671:26839   */\n      pop\n      jump\t// out\n        /* \"#utility.yul\":26845:27211   */\n    tag_267:\n        /* \"#utility.yul\":26987:26990   */\n      0x00\n        /* \"#utility.yul\":27008:27075   */\n      tag_544\n        /* \"#utility.yul\":27072:27074   */\n      0x12\n        /* \"#utility.yul\":27067:27070   */\n      dup4\n        /* \"#utility.yul\":27008:27075   */\n      tag_224\n      jump\t// in\n    tag_544:\n        /* \"#utility.yul\":27001:27075   */\n      swap2\n      pop\n        /* \"#utility.yul\":27084:27177   */\n      tag_545\n        /* \"#utility.yul\":27173:27176   */\n      dup3\n        /* \"#utility.yul\":27084:27177   */\n      tag_266\n      jump\t// in\n    tag_545:\n        /* \"#utility.yul\":27202:27204   */\n      0x20\n        /* \"#utility.yul\":27197:27200   */\n      dup3\n        /* \"#utility.yul\":27193:27205   */\n      add\n        /* \"#utility.yul\":27186:27205   */\n      swap1\n      pop\n        /* \"#utility.yul\":26845:27211   */\n      swap2\n      swap1\n      pop\n      jump\t// out\n        /* \"#utility.yul\":27217:27636   */\n    tag_201:\n        /* \"#utility.yul\":27383:27387   */\n      0x00\n        /* \"#utility.yul\":27421:27423   */\n      0x20\n        /* \"#utility.yul\":27410:27419   */\n      dup3\n        /* \"#utility.yul\":27406:27424   */\n      add\n        /* \"#utility.yul\":27398:27424   */\n      swap1\n      pop\n        /* \"#utility.yul\":27470:27479   */\n      dup2\n        /* \"#utility.yul\":27464:27468   */\n      dup2\n        /* \"#utility.yul\":27460:27480   */\n      sub\n        /* \"#utility.yul\":27456:27457   */\n      0x00\n        /* \"#utility.yul\":27445:27454   */\n      dup4\n        /* \"#utility.yul\":27441:27458   */\n      add\n        /* \"#utility.yul\":27434:27481   */\n      mstore\n        /* \"#utility.yul\":27498:27629   */\n      tag_547\n        /* \"#utility.yul\":27624:27628   */\n      dup2\n        /* \"#utility.yul\":27498:27629   */\n      tag_267\n      jump\t// in\n    tag_547:\n        /* \"#utility.yul\":27490:27629   */\n      swap1\n      pop\n        /* \"#utility.yul\":27217:27636   */\n      swap2\n      swap1\n      pop\n      jump\t// out\n\n    auxdata: 0xa2646970667358221220a80099ba2419b42ffa52e4eb0de1475770cf506d332f5f23616f17a4beeea1de64736f6c634300081c0033\n}\n",
				"bytecode": {
					"linkReferences": {},
					"object": "6080604052348015600e575f5ffd5b50611f778061001c5f395ff3fe608060405234801561000f575f5ffd5b5060043610610091575f3560e01c8063609e1e6011610064578063609e1e60146101315780636d25a3d11461014f5780637454a9f61461016b57806379c66a041461019b5780639af76a90146101b957610091565b80630e366cbe146100955780630f53f667146100b157806328b968ba146100e3578063338ad5c214610115575b5f5ffd5b6100af60048036038101906100aa91906112ec565b6101f4565b005b6100cb60048036038101906100c69190611465565b610404565b6040516100da93929190611512565b60405180910390f35b6100fd60048036038101906100f89190611465565b610550565b60405161010c93929190611555565b60405180910390f35b61012f600480360381019061012a919061159f565b610722565b005b61013961087b565b6040516101469190611657565b60405180910390f35b61016960048036038101906101649190611670565b610880565b005b6101856004803603810190610180919061170c565b6109ab565b6040516101929190611657565b60405180910390f35b6101a3610cef565b6040516101b09190611657565b60405180910390f35b6101d360048036038101906101ce919061170c565b610d2d565b6040516101eb9c9b9a999897969594939291906117ff565b60405180910390f35b5f6101fe89610fc6565b90506040518061018001604052805f5481526020018d81526020018c81526020018b815260200182600281111561023857610237611737565b5b8152602001898152602001881515815260200187600281111561025e5761025d611737565b5b81526020018681526020018581526020018481526020018381525060015f5f5481526020019081526020015f205f820151815f015560208201518160010190816102a89190611ad0565b5060408201518160020155606082015181600301556080820151816004015f6101000a81548160ff021916908360028111156102e7576102e6611737565b5b021790555060a08201518160050190816103019190611ad0565b5060c0820151816006015f6101000a81548160ff02191690831515021790555060e08201518160060160016101000a81548160ff0219169083600281111561034c5761034b611737565b5b02179055506101008201518160070155610120820151816008015561014082015181600901908161037d9190611ad0565b5061016082015181600a0190816103949190611ad0565b509050505f5f8154809291906103a990611bcc565b91905055507f7efab20ab4c4d8c33ecd03458d6147bf7ccc1faa40dfeedd6f2d7a7cf28a12d73a6001436103dd9190611c13565b40436040516103ee93929190611c5e565b60405180910390a1505050505050505050505050565b6003602052815f5260405f20818154811061041d575f80fd5b905f5260205f2090600302015f9150915050805f01805461043d90611900565b80601f016020809104026020016040519081016040528092919081815260200182805461046990611900565b80156104b45780601f1061048b576101008083540402835291602001916104b4565b820191905f5260205f20905b81548152906001019060200180831161049757829003601f168201915b5050505050908060010154908060020180546104cf90611900565b80601f01602080910402602001604051908101604052809291908181526020018280546104fb90611900565b80156105465780601f1061051d57610100808354040283529160200191610546565b820191905f5260205f20905b81548152906001019060200180831161052957829003601f168201915b5050505050905083565b6002602052815f5260405f208181548110610569575f80fd5b905f5260205f2090600302015f9150915050805f01805461058990611900565b80601f01602080910402602001604051908101604052809291908181526020018280546105b590611900565b80156106005780601f106105d757610100808354040283529160200191610600565b820191905f5260205f20905b8154815290600101906020018083116105e357829003601f168201915b50505050509080600101805461061590611900565b80601f016020809104026020016040519081016040528092919081815260200182805461064190611900565b801561068c5780601f106106635761010080835404028352916020019161068c565b820191905f5260205f20905b81548152906001019060200180831161066f57829003601f168201915b5050505050908060020180546106a190611900565b80601f01602080910402602001604051908101604052809291908181526020018280546106cd90611900565b80156107185780601f106106ef57610100808354040283529160200191610718565b820191905f5260205f20905b8154815290600101906020018083116106fb57829003601f168201915b5050505050905083565b8360015f8681526020019081526020015f205f015414610777576040517f08c379a000000000000000000000000000000000000000000000000000000000815260040161076e90611cdd565b60405180910390fd5b60025f8581526020019081526020015f20604051806060016040528085815260200184815260200183815250908060018154018082558091505060019003905f5260205f2090600302015f909190919091505f820151815f0190816107dc9190611ad0565b5060208201518160010190816107f29190611ad0565b5060408201518160020190816108089190611ad0565b5050508160015f8681526020019081526020015f20600501908161082c9190611ad0565b507f7efab20ab4c4d8c33ecd03458d6147bf7ccc1faa40dfeedd6f2d7a7cf28a12d73a60014361085c9190611c13565b404360405161086d93929190611c5e565b60405180910390a150505050565b5f5481565b8360015f8681526020019081526020015f205f0154146108d5576040517f08c379a00000000000000000000000000000000000000000000000000000000081526004016108cc90611cdd565b60405180910390fd5b60035f8581526020019081526020015f20604051806060016040528085815260200184815260200183815250908060018154018082558091505060019003905f5260205f2090600302015f909190919091505f820151815f01908161093a9190611ad0565b5060208201518160010155604082015181600201908161095a9190611ad0565b5050507f7efab20ab4c4d8c33ecd03458d6147bf7ccc1faa40dfeedd6f2d7a7cf28a12d73a60014361098c9190611c13565b404360405161099d93929190611c5e565b60405180910390a150505050565b5f5f60015f8481526020019081526020015f20604051806101800160405290815f82015481526020016001820180546109e390611900565b80601f0160208091040260200160405190810160405280929190818152602001828054610a0f90611900565b8015610a5a5780601f10610a3157610100808354040283529160200191610a5a565b820191905f5260205f20905b815481529060010190602001808311610a3d57829003601f168201915b505050505081526020016002820154815260200160038201548152602001600482015f9054906101000a900460ff166002811115610a9b57610a9a611737565b5b6002811115610aad57610aac611737565b5b8152602001600582018054610ac190611900565b80601f0160208091040260200160405190810160405280929190818152602001828054610aed90611900565b8015610b385780601f10610b0f57610100808354040283529160200191610b38565b820191905f5260205f20905b815481529060010190602001808311610b1b57829003601f168201915b50505050508152602001600682015f9054906101000a900460ff161515151581526020016006820160019054906101000a900460ff166002811115610b8057610b7f611737565b5b6002811115610b9257610b91611737565b5b81526020016007820154815260200160088201548152602001600982018054610bba90611900565b80601f0160208091040260200160405190810160405280929190818152602001828054610be690611900565b8015610c315780601f10610c0857610100808354040283529160200191610c31565b820191905f5260205f20905b815481529060010190602001808311610c1457829003601f168201915b50505050508152602001600a82018054610c4a90611900565b80601f0160208091040260200160405190810160405280929190818152602001828054610c7690611900565b8015610cc15780601f10610c9857610100808354040283529160200191610cc1565b820191905f5260205f20905b815481529060010190602001808311610ca457829003601f168201915b50505050508152505090505f600590505f818360600151610ce29190611cfb565b9050809350505050919050565b5f5f5f90505f5f90505b5f54811015610d2557610d0b816109ab565b82610d169190611d3c565b91508080600101915050610cf9565b508091505090565b6001602052805f5260405f205f91509050805f015490806001018054610d5290611900565b80601f0160208091040260200160405190810160405280929190818152602001828054610d7e90611900565b8015610dc95780601f10610da057610100808354040283529160200191610dc9565b820191905f5260205f20905b815481529060010190602001808311610dac57829003601f168201915b505050505090806002015490806003015490806004015f9054906101000a900460ff1690806005018054610dfc90611900565b80601f0160208091040260200160405190810160405280929190818152602001828054610e2890611900565b8015610e735780601f10610e4a57610100808354040283529160200191610e73565b820191905f5260205f20905b815481529060010190602001808311610e5657829003601f168201915b505050505090806006015f9054906101000a900460ff16908060060160019054906101000a900460ff1690806007015490806008015490806009018054610eb990611900565b80601f0160208091040260200160405190810160405280929190818152602001828054610ee590611900565b8015610f305780601f10610f0757610100808354040283529160200191610f30565b820191905f5260205f20905b815481529060010190602001808311610f1357829003601f168201915b50505050509080600a018054610f4590611900565b80601f0160208091040260200160405190810160405280929190818152602001828054610f7190611900565b8015610fbc5780601f10610f9357610100808354040283529160200191610fbc565b820191905f5260205f20905b815481529060010190602001808311610f9f57829003601f168201915b505050505090508c565b5f604051602001610fd690611dc3565b6040516020818303038152906040528051906020012082604051602001610ffd9190611e07565b6040516020818303038152906040528051906020012003611020575f905061110f565b60405160200161102f90611e67565b60405160208183030381529060405280519060200120826040516020016110569190611e07565b604051602081830303815290604052805190602001200361107a576001905061110f565b60405160200161108990611ec5565b60405160208183030381529060405280519060200120826040516020016110b09190611e07565b60405160208183030381529060405280519060200120036110d4576002905061110f565b6040517f08c379a000000000000000000000000000000000000000000000000000000000815260040161110690611f23565b60405180910390fd5b919050565b5f604051905090565b5f5ffd5b5f5ffd5b5f5ffd5b5f5ffd5b5f601f19601f8301169050919050565b7f4e487b71000000000000000000000000000000000000000000000000000000005f52604160045260245ffd5b6111738261112d565b810181811067ffffffffffffffff821117156111925761119161113d565b5b80604052505050565b5f6111a4611114565b90506111b0828261116a565b919050565b5f67ffffffffffffffff8211156111cf576111ce61113d565b5b6111d88261112d565b9050602081019050919050565b828183375f83830152505050565b5f611205611200846111b5565b61119b565b90508281526020810184848401111561122157611220611129565b5b61122c8482856111e5565b509392505050565b5f82601f83011261124857611247611125565b5b81356112588482602086016111f3565b91505092915050565b5f819050919050565b61127381611261565b811461127d575f5ffd5b50565b5f8135905061128e8161126a565b92915050565b5f8115159050919050565b6112a881611294565b81146112b2575f5ffd5b50565b5f813590506112c38161129f565b92915050565b600381106112d5575f5ffd5b50565b5f813590506112e6816112c9565b92915050565b5f5f5f5f5f5f5f5f5f5f5f6101608c8e03121561130c5761130b61111d565b5b5f8c013567ffffffffffffffff81111561132957611328611121565b5b6113358e828f01611234565b9b505060206113468e828f01611280565b9a505060406113578e828f01611280565b99505060608c013567ffffffffffffffff81111561137857611377611121565b5b6113848e828f01611234565b98505060808c013567ffffffffffffffff8111156113a5576113a4611121565b5b6113b18e828f01611234565b97505060a06113c28e828f016112b5565b96505060c06113d38e828f016112d8565b95505060e06113e48e828f01611280565b9450506101006113f68e828f01611280565b9350506101208c013567ffffffffffffffff81111561141857611417611121565b5b6114248e828f01611234565b9250506101408c013567ffffffffffffffff81111561144657611445611121565b5b6114528e828f01611234565b9150509295989b509295989b9093969950565b5f5f6040838503121561147b5761147a61111d565b5b5f61148885828601611280565b925050602061149985828601611280565b9150509250929050565b5f81519050919050565b5f82825260208201905092915050565b8281835e5f83830152505050565b5f6114d5826114a3565b6114df81856114ad565b93506114ef8185602086016114bd565b6114f88161112d565b840191505092915050565b61150c81611261565b82525050565b5f6060820190508181035f83015261152a81866114cb565b90506115396020830185611503565b818103604083015261154b81846114cb565b9050949350505050565b5f6060820190508181035f83015261156d81866114cb565b9050818103602083015261158181856114cb565b9050818103604083015261159581846114cb565b9050949350505050565b5f5f5f5f608085870312156115b7576115b661111d565b5b5f6115c487828801611280565b945050602085013567ffffffffffffffff8111156115e5576115e4611121565b5b6115f187828801611234565b935050604085013567ffffffffffffffff81111561161257611611611121565b5b61161e87828801611234565b925050606085013567ffffffffffffffff81111561163f5761163e611121565b5b61164b87828801611234565b91505092959194509250565b5f60208201905061166a5f830184611503565b92915050565b5f5f5f5f608085870312156116885761168761111d565b5b5f61169587828801611280565b945050602085013567ffffffffffffffff8111156116b6576116b5611121565b5b6116c287828801611234565b93505060406116d387828801611280565b925050606085013567ffffffffffffffff8111156116f4576116f3611121565b5b61170087828801611234565b91505092959194509250565b5f602082840312156117215761172061111d565b5b5f61172e84828501611280565b91505092915050565b7f4e487b71000000000000000000000000000000000000000000000000000000005f52602160045260245ffd5b6003811061177557611774611737565b5b50565b5f81905061178582611764565b919050565b5f61179482611778565b9050919050565b6117a48161178a565b82525050565b6117b381611294565b82525050565b600381106117ca576117c9611737565b5b50565b5f8190506117da826117b9565b919050565b5f6117e9826117cd565b9050919050565b6117f9816117df565b82525050565b5f610180820190506118135f83018f611503565b8181036020830152611825818e6114cb565b9050611834604083018d611503565b611841606083018c611503565b61184e608083018b61179b565b81810360a0830152611860818a6114cb565b905061186f60c08301896117aa565b61187c60e08301886117f0565b61188a610100830187611503565b611898610120830186611503565b8181036101408301526118ab81856114cb565b90508181036101608301526118c081846114cb565b90509d9c50505050505050505050505050565b7f4e487b71000000000000000000000000000000000000000000000000000000005f52602260045260245ffd5b5f600282049050600182168061191757607f821691505b60208210810361192a576119296118d3565b5b50919050565b5f819050815f5260205f209050919050565b5f6020601f8301049050919050565b5f82821b905092915050565b5f6008830261198c7fffffffffffffffffffffffffffffffffffffffffffffffffffffffffffffffff82611951565b6119968683611951565b95508019841693508086168417925050509392505050565b5f819050919050565b5f6119d16119cc6119c784611261565b6119ae565b611261565b9050919050565b5f819050919050565b6119ea836119b7565b6119fe6119f6826119d8565b84845461195d565b825550505050565b5f5f905090565b611a15611a06565b611a208184846119e1565b505050565b5b81811015611a4357611a385f82611a0d565b600181019050611a26565b5050565b601f821115611a8857611a5981611930565b611a6284611942565b81016020851015611a71578190505b611a85611a7d85611942565b830182611a25565b50505b505050565b5f82821c905092915050565b5f611aa85f1984600802611a8d565b1980831691505092915050565b5f611ac08383611a99565b9150826002028217905092915050565b611ad9826114a3565b67ffffffffffffffff811115611af257611af161113d565b5b611afc8254611900565b611b07828285611a47565b5f60209050601f831160018114611b38575f8415611b26578287015190505b611b308582611ab5565b865550611b97565b601f198416611b4686611930565b5f5b82811015611b6d57848901518255600182019150602085019450602081019050611b48565b86831015611b8a5784890151611b86601f891682611a99565b8355505b6001600288020188555050505b505050505050565b7f4e487b71000000000000000000000000000000000000000000000000000000005f52601160045260245ffd5b5f611bd682611261565b91507fffffffffffffffffffffffffffffffffffffffffffffffffffffffffffffffff8203611c0857611c07611b9f565b5b600182019050919050565b5f611c1d82611261565b9150611c2883611261565b9250828203905081811115611c4057611c3f611b9f565b5b92915050565b5f819050919050565b611c5881611c46565b82525050565b5f606082019050611c715f830186611503565b611c7e6020830185611c4f565b611c8b6040830184611503565b949350505050565b7f476f617420646f6573206e6f74206578697374000000000000000000000000005f82015250565b5f611cc76013836114ad565b9150611cd282611c93565b602082019050919050565b5f6020820190508181035f830152611cf481611cbb565b9050919050565b5f611d0582611261565b9150611d1083611261565b9250828202611d1e81611261565b91508282048414831517611d3557611d34611b9f565b5b5092915050565b5f611d4682611261565b9150611d5183611261565b9250828201905080821115611d6957611d68611b9f565b5b92915050565b5f81905092915050565b7f4c6f63616c0000000000000000000000000000000000000000000000000000005f82015250565b5f611dad600583611d6f565b9150611db882611d79565b600582019050919050565b5f611dcd82611da1565b9150819050919050565b5f611de1826114a3565b611deb8185611d6f565b9350611dfb8185602086016114bd565b80840191505092915050565b5f611e128284611dd7565b915081905092915050565b7f426163685468616f0000000000000000000000000000000000000000000000005f82015250565b5f611e51600883611d6f565b9150611e5c82611e1d565b600882019050919050565b5f611e7182611e45565b9150819050919050565b7f426f6572000000000000000000000000000000000000000000000000000000005f82015250565b5f611eaf600483611d6f565b9150611eba82611e7b565b600482019050919050565b5f611ecf82611ea3565b9150819050919050565b7f496e76616c6964206272656564207479706500000000000000000000000000005f82015250565b5f611f0d6012836114ad565b9150611f1882611ed9565b602082019050919050565b5f6020820190508181035f830152611f3a81611f01565b905091905056fea2646970667358221220a80099ba2419b42ffa52e4eb0de1475770cf506d332f5f23616f17a4beeea1de64736f6c634300081c0033",
					"opcodes": "PUSH1 0x80 PUSH1 0x40 MSTORE CALLVALUE DUP1 ISZERO PUSH1 0xE JUMPI PUSH0 PUSH0 REVERT JUMPDEST POP PUSH2 0x1F77 DUP1 PUSH2 0x1C PUSH0 CODECOPY PUSH0 RETURN INVALID PUSH1 0x80 PUSH1 0x40 MSTORE CALLVALUE DUP1 ISZERO PUSH2 0xF JUMPI PUSH0 PUSH0 REVERT JUMPDEST POP PUSH1 0x4 CALLDATASIZE LT PUSH2 0x91 JUMPI PUSH0 CALLDATALOAD PUSH1 0xE0 SHR DUP1 PUSH4 0x609E1E60 GT PUSH2 0x64 JUMPI DUP1 PUSH4 0x609E1E60 EQ PUSH2 0x131 JUMPI DUP1 PUSH4 0x6D25A3D1 EQ PUSH2 0x14F JUMPI DUP1 PUSH4 0x7454A9F6 EQ PUSH2 0x16B JUMPI DUP1 PUSH4 0x79C66A04 EQ PUSH2 0x19B JUMPI DUP1 PUSH4 0x9AF76A90 EQ PUSH2 0x1B9 JUMPI PUSH2 0x91 JUMP JUMPDEST DUP1 PUSH4 0xE366CBE EQ PUSH2 0x95 JUMPI DUP1 PUSH4 0xF53F667 EQ PUSH2 0xB1 JUMPI DUP1 PUSH4 0x28B968BA EQ PUSH2 0xE3 JUMPI DUP1 PUSH4 0x338AD5C2 EQ PUSH2 0x115 JUMPI JUMPDEST PUSH0 PUSH0 REVERT JUMPDEST PUSH2 0xAF PUSH1 0x4 DUP1 CALLDATASIZE SUB DUP2 ADD SWAP1 PUSH2 0xAA SWAP2 SWAP1 PUSH2 0x12EC JUMP JUMPDEST PUSH2 0x1F4 JUMP JUMPDEST STOP JUMPDEST PUSH2 0xCB PUSH1 0x4 DUP1 CALLDATASIZE SUB DUP2 ADD SWAP1 PUSH2 0xC6 SWAP2 SWAP1 PUSH2 0x1465 JUMP JUMPDEST PUSH2 0x404 JUMP JUMPDEST PUSH1 0x40 MLOAD PUSH2 0xDA SWAP4 SWAP3 SWAP2 SWAP1 PUSH2 0x1512 JUMP JUMPDEST PUSH1 0x40 MLOAD DUP1 SWAP2 SUB SWAP1 RETURN JUMPDEST PUSH2 0xFD PUSH1 0x4 DUP1 CALLDATASIZE SUB DUP2 ADD SWAP1 PUSH2 0xF8 SWAP2 SWAP1 PUSH2 0x1465 JUMP JUMPDEST PUSH2 0x550 JUMP JUMPDEST PUSH1 0x40 MLOAD PUSH2 0x10C SWAP4 SWAP3 SWAP2 SWAP1 PUSH2 0x1555 JUMP JUMPDEST PUSH1 0x40 MLOAD DUP1 SWAP2 SUB SWAP1 RETURN JUMPDEST PUSH2 0x12F PUSH1 0x4 DUP1 CALLDATASIZE SUB DUP2 ADD SWAP1 PUSH2 0x12A SWAP2 SWAP1 PUSH2 0x159F JUMP JUMPDEST PUSH2 0x722 JUMP JUMPDEST STOP JUMPDEST PUSH2 0x139 PUSH2 0x87B JUMP JUMPDEST PUSH1 0x40 MLOAD PUSH2 0x146 SWAP2 SWAP1 PUSH2 0x1657 JUMP JUMPDEST PUSH1 0x40 MLOAD DUP1 SWAP2 SUB SWAP1 RETURN JUMPDEST PUSH2 0x169 PUSH1 0x4 DUP1 CALLDATASIZE SUB DUP2 ADD SWAP1 PUSH2 0x164 SWAP2 SWAP1 PUSH2 0x1670 JUMP JUMPDEST PUSH2 0x880 JUMP JUMPDEST STOP JUMPDEST PUSH2 0x185 PUSH1 0x4 DUP1 CALLDATASIZE SUB DUP2 ADD SWAP1 PUSH2 0x180 SWAP2 SWAP1 PUSH2 0x170C JUMP JUMPDEST PUSH2 0x9AB JUMP JUMPDEST PUSH1 0x40 MLOAD PUSH2 0x192 SWAP2 SWAP1 PUSH2 0x1657 JUMP JUMPDEST PUSH1 0x40 MLOAD DUP1 SWAP2 SUB SWAP1 RETURN JUMPDEST PUSH2 0x1A3 PUSH2 0xCEF JUMP JUMPDEST PUSH1 0x40 MLOAD PUSH2 0x1B0 SWAP2 SWAP1 PUSH2 0x1657 JUMP JUMPDEST PUSH1 0x40 MLOAD DUP1 SWAP2 SUB SWAP1 RETURN JUMPDEST PUSH2 0x1D3 PUSH1 0x4 DUP1 CALLDATASIZE SUB DUP2 ADD SWAP1 PUSH2 0x1CE SWAP2 SWAP1 PUSH2 0x170C JUMP JUMPDEST PUSH2 0xD2D JUMP JUMPDEST PUSH1 0x40 MLOAD PUSH2 0x1EB SWAP13 SWAP12 SWAP11 SWAP10 SWAP9 SWAP8 SWAP7 SWAP6 SWAP5 SWAP4 SWAP3 SWAP2 SWAP1 PUSH2 0x17FF JUMP JUMPDEST PUSH1 0x40 MLOAD DUP1 SWAP2 SUB SWAP1 RETURN JUMPDEST PUSH0 PUSH2 0x1FE DUP10 PUSH2 0xFC6 JUMP JUMPDEST SWAP1 POP PUSH1 0x40 MLOAD DUP1 PUSH2 0x180 ADD PUSH1 0x40 MSTORE DUP1 PUSH0 SLOAD DUP2 MSTORE PUSH1 0x20 ADD DUP14 DUP2 MSTORE PUSH1 0x20 ADD DUP13 DUP2 MSTORE PUSH1 0x20 ADD DUP12 DUP2 MSTORE PUSH1 0x20 ADD DUP3 PUSH1 0x2 DUP2 GT ISZERO PUSH2 0x238 JUMPI PUSH2 0x237 PUSH2 0x1737 JUMP JUMPDEST JUMPDEST DUP2 MSTORE PUSH1 0x20 ADD DUP10 DUP2 MSTORE PUSH1 0x20 ADD DUP9 ISZERO ISZERO DUP2 MSTORE PUSH1 0x20 ADD DUP8 PUSH1 0x2 DUP2 GT ISZERO PUSH2 0x25E JUMPI PUSH2 0x25D PUSH2 0x1737 JUMP JUMPDEST JUMPDEST DUP2 MSTORE PUSH1 0x20 ADD DUP7 DUP2 MSTORE PUSH1 0x20 ADD DUP6 DUP2 MSTORE PUSH1 0x20 ADD DUP5 DUP2 MSTORE PUSH1 0x20 ADD DUP4 DUP2 MSTORE POP PUSH1 0x1 PUSH0 PUSH0 SLOAD DUP2 MSTORE PUSH1 0x20 ADD SWAP1 DUP2 MSTORE PUSH1 0x20 ADD PUSH0 KECCAK256 PUSH0 DUP3 ADD MLOAD DUP2 PUSH0 ADD SSTORE PUSH1 0x20 DUP3 ADD MLOAD DUP2 PUSH1 0x1 ADD SWAP1 DUP2 PUSH2 0x2A8 SWAP2 SWAP1 PUSH2 0x1AD0 JUMP JUMPDEST POP PUSH1 0x40 DUP3 ADD MLOAD DUP2 PUSH1 0x2 ADD SSTORE PUSH1 0x60 DUP3 ADD MLOAD DUP2 PUSH1 0x3 ADD SSTORE PUSH1 0x80 DUP3 ADD MLOAD DUP2 PUSH1 0x4 ADD PUSH0 PUSH2 0x100 EXP DUP2 SLOAD DUP2 PUSH1 0xFF MUL NOT AND SWAP1 DUP4 PUSH1 0x2 DUP2 GT ISZERO PUSH2 0x2E7 JUMPI PUSH2 0x2E6 PUSH2 0x1737 JUMP JUMPDEST JUMPDEST MUL OR SWAP1 SSTORE POP PUSH1 0xA0 DUP3 ADD MLOAD DUP2 PUSH1 0x5 ADD SWAP1 DUP2 PUSH2 0x301 SWAP2 SWAP1 PUSH2 0x1AD0 JUMP JUMPDEST POP PUSH1 0xC0 DUP3 ADD MLOAD DUP2 PUSH1 0x6 ADD PUSH0 PUSH2 0x100 EXP DUP2 SLOAD DUP2 PUSH1 0xFF MUL NOT AND SWAP1 DUP4 ISZERO ISZERO MUL OR SWAP1 SSTORE POP PUSH1 0xE0 DUP3 ADD MLOAD DUP2 PUSH1 0x6 ADD PUSH1 0x1 PUSH2 0x100 EXP DUP2 SLOAD DUP2 PUSH1 0xFF MUL NOT AND SWAP1 DUP4 PUSH1 0x2 DUP2 GT ISZERO PUSH2 0x34C JUMPI PUSH2 0x34B PUSH2 0x1737 JUMP JUMPDEST JUMPDEST MUL OR SWAP1 SSTORE POP PUSH2 0x100 DUP3 ADD MLOAD DUP2 PUSH1 0x7 ADD SSTORE PUSH2 0x120 DUP3 ADD MLOAD DUP2 PUSH1 0x8 ADD SSTORE PUSH2 0x140 DUP3 ADD MLOAD DUP2 PUSH1 0x9 ADD SWAP1 DUP2 PUSH2 0x37D SWAP2 SWAP1 PUSH2 0x1AD0 JUMP JUMPDEST POP PUSH2 0x160 DUP3 ADD MLOAD DUP2 PUSH1 0xA ADD SWAP1 DUP2 PUSH2 0x394 SWAP2 SWAP1 PUSH2 0x1AD0 JUMP JUMPDEST POP SWAP1 POP POP PUSH0 PUSH0 DUP2 SLOAD DUP1 SWAP3 SWAP2 SWAP1 PUSH2 0x3A9 SWAP1 PUSH2 0x1BCC JUMP JUMPDEST SWAP2 SWAP1 POP SSTORE POP PUSH32 0x7EFAB20AB4C4D8C33ECD03458D6147BF7CCC1FAA40DFEEDD6F2D7A7CF28A12D7 GASPRICE PUSH1 0x1 NUMBER PUSH2 0x3DD SWAP2 SWAP1 PUSH2 0x1C13 JUMP JUMPDEST BLOCKHASH NUMBER PUSH1 0x40 MLOAD PUSH2 0x3EE SWAP4 SWAP3 SWAP2 SWAP1 PUSH2 0x1C5E JUMP JUMPDEST PUSH1 0x40 MLOAD DUP1 SWAP2 SUB SWAP1 LOG1 POP POP POP POP POP POP POP POP POP POP POP POP JUMP JUMPDEST PUSH1 0x3 PUSH1 0x20 MSTORE DUP2 PUSH0 MSTORE PUSH1 0x40 PUSH0 KECCAK256 DUP2 DUP2 SLOAD DUP2 LT PUSH2 0x41D JUMPI PUSH0 DUP1 REVERT JUMPDEST SWAP1 PUSH0 MSTORE PUSH1 0x20 PUSH0 KECCAK256 SWAP1 PUSH1 0x3 MUL ADD PUSH0 SWAP2 POP SWAP2 POP POP DUP1 PUSH0 ADD DUP1 SLOAD PUSH2 0x43D SWAP1 PUSH2 0x1900 JUMP JUMPDEST DUP1 PUSH1 0x1F ADD PUSH1 0x20 DUP1 SWAP2 DIV MUL PUSH1 0x20 ADD PUSH1 0x40 MLOAD SWAP1 DUP2 ADD PUSH1 0x40 MSTORE DUP1 SWAP3 SWAP2 SWAP1 DUP2 DUP2 MSTORE PUSH1 0x20 ADD DUP3 DUP1 SLOAD PUSH2 0x469 SWAP1 PUSH2 0x1900 JUMP JUMPDEST DUP1 ISZERO PUSH2 0x4B4 JUMPI DUP1 PUSH1 0x1F LT PUSH2 0x48B JUMPI PUSH2 0x100 DUP1 DUP4 SLOAD DIV MUL DUP4 MSTORE SWAP2 PUSH1 0x20 ADD SWAP2 PUSH2 0x4B4 JUMP JUMPDEST DUP3 ADD SWAP2 SWAP1 PUSH0 MSTORE PUSH1 0x20 PUSH0 KECCAK256 SWAP1 JUMPDEST DUP2 SLOAD DUP2 MSTORE SWAP1 PUSH1 0x1 ADD SWAP1 PUSH1 0x20 ADD DUP1 DUP4 GT PUSH2 0x497 JUMPI DUP3 SWAP1 SUB PUSH1 0x1F AND DUP3 ADD SWAP2 JUMPDEST POP POP POP POP POP SWAP1 DUP1 PUSH1 0x1 ADD SLOAD SWAP1 DUP1 PUSH1 0x2 ADD DUP1 SLOAD PUSH2 0x4CF SWAP1 PUSH2 0x1900 JUMP JUMPDEST DUP1 PUSH1 0x1F ADD PUSH1 0x20 DUP1 SWAP2 DIV MUL PUSH1 0x20 ADD PUSH1 0x40 MLOAD SWAP1 DUP2 ADD PUSH1 0x40 MSTORE DUP1 SWAP3 SWAP2 SWAP1 DUP2 DUP2 MSTORE PUSH1 0x20 ADD DUP3 DUP1 SLOAD PUSH2 0x4FB SWAP1 PUSH2 0x1900 JUMP JUMPDEST DUP1 ISZERO PUSH2 0x546 JUMPI DUP1 PUSH1 0x1F LT PUSH2 0x51D JUMPI PUSH2 0x100 DUP1 DUP4 SLOAD DIV MUL DUP4 MSTORE SWAP2 PUSH1 0x20 ADD SWAP2 PUSH2 0x546 JUMP JUMPDEST DUP3 ADD SWAP2 SWAP1 PUSH0 MSTORE PUSH1 0x20 PUSH0 KECCAK256 SWAP1 JUMPDEST DUP2 SLOAD DUP2 MSTORE SWAP1 PUSH1 0x1 ADD SWAP1 PUSH1 0x20 ADD DUP1 DUP4 GT PUSH2 0x529 JUMPI DUP3 SWAP1 SUB PUSH1 0x1F AND DUP3 ADD SWAP2 JUMPDEST POP POP POP POP POP SWAP1 POP DUP4 JUMP JUMPDEST PUSH1 0x2 PUSH1 0x20 MSTORE DUP2 PUSH0 MSTORE PUSH1 0x40 PUSH0 KECCAK256 DUP2 DUP2 SLOAD DUP2 LT PUSH2 0x569 JUMPI PUSH0 DUP1 REVERT JUMPDEST SWAP1 PUSH0 MSTORE PUSH1 0x20 PUSH0 KECCAK256 SWAP1 PUSH1 0x3 MUL ADD PUSH0 SWAP2 POP SWAP2 POP POP DUP1 PUSH0 ADD DUP1 SLOAD PUSH2 0x589 SWAP1 PUSH2 0x1900 JUMP JUMPDEST DUP1 PUSH1 0x1F ADD PUSH1 0x20 DUP1 SWAP2 DIV MUL PUSH1 0x20 ADD PUSH1 0x40 MLOAD SWAP1 DUP2 ADD PUSH1 0x40 MSTORE DUP1 SWAP3 SWAP2 SWAP1 DUP2 DUP2 MSTORE PUSH1 0x20 ADD DUP3 DUP1 SLOAD PUSH2 0x5B5 SWAP1 PUSH2 0x1900 JUMP JUMPDEST DUP1 ISZERO PUSH2 0x600 JUMPI DUP1 PUSH1 0x1F LT PUSH2 0x5D7 JUMPI PUSH2 0x100 DUP1 DUP4 SLOAD DIV MUL DUP4 MSTORE SWAP2 PUSH1 0x20 ADD SWAP2 PUSH2 0x600 JUMP JUMPDEST DUP3 ADD SWAP2 SWAP1 PUSH0 MSTORE PUSH1 0x20 PUSH0 KECCAK256 SWAP1 JUMPDEST DUP2 SLOAD DUP2 MSTORE SWAP1 PUSH1 0x1 ADD SWAP1 PUSH1 0x20 ADD DUP1 DUP4 GT PUSH2 0x5E3 JUMPI DUP3 SWAP1 SUB PUSH1 0x1F AND DUP3 ADD SWAP2 JUMPDEST POP POP POP POP POP SWAP1 DUP1 PUSH1 0x1 ADD DUP1 SLOAD PUSH2 0x615 SWAP1 PUSH2 0x1900 JUMP JUMPDEST DUP1 PUSH1 0x1F ADD PUSH1 0x20 DUP1 SWAP2 DIV MUL PUSH1 0x20 ADD PUSH1 0x40 MLOAD SWAP1 DUP2 ADD PUSH1 0x40 MSTORE DUP1 SWAP3 SWAP2 SWAP1 DUP2 DUP2 MSTORE PUSH1 0x20 ADD DUP3 DUP1 SLOAD PUSH2 0x641 SWAP1 PUSH2 0x1900 JUMP JUMPDEST DUP1 ISZERO PUSH2 0x68C JUMPI DUP1 PUSH1 0x1F LT PUSH2 0x663 JUMPI PUSH2 0x100 DUP1 DUP4 SLOAD DIV MUL DUP4 MSTORE SWAP2 PUSH1 0x20 ADD SWAP2 PUSH2 0x68C JUMP JUMPDEST DUP3 ADD SWAP2 SWAP1 PUSH0 MSTORE PUSH1 0x20 PUSH0 KECCAK256 SWAP1 JUMPDEST DUP2 SLOAD DUP2 MSTORE SWAP1 PUSH1 0x1 ADD SWAP1 PUSH1 0x20 ADD DUP1 DUP4 GT PUSH2 0x66F JUMPI DUP3 SWAP1 SUB PUSH1 0x1F AND DUP3 ADD SWAP2 JUMPDEST POP POP POP POP POP SWAP1 DUP1 PUSH1 0x2 ADD DUP1 SLOAD PUSH2 0x6A1 SWAP1 PUSH2 0x1900 JUMP JUMPDEST DUP1 PUSH1 0x1F ADD PUSH1 0x20 DUP1 SWAP2 DIV MUL PUSH1 0x20 ADD PUSH1 0x40 MLOAD SWAP1 DUP2 ADD PUSH1 0x40 MSTORE DUP1 SWAP3 SWAP2 SWAP1 DUP2 DUP2 MSTORE PUSH1 0x20 ADD DUP3 DUP1 SLOAD PUSH2 0x6CD SWAP1 PUSH2 0x1900 JUMP JUMPDEST DUP1 ISZERO PUSH2 0x718 JUMPI DUP1 PUSH1 0x1F LT PUSH2 0x6EF JUMPI PUSH2 0x100 DUP1 DUP4 SLOAD DIV MUL DUP4 MSTORE SWAP2 PUSH1 0x20 ADD SWAP2 PUSH2 0x718 JUMP JUMPDEST DUP3 ADD SWAP2 SWAP1 PUSH0 MSTORE PUSH1 0x20 PUSH0 KECCAK256 SWAP1 JUMPDEST DUP2 SLOAD DUP2 MSTORE SWAP1 PUSH1 0x1 ADD SWAP1 PUSH1 0x20 ADD DUP1 DUP4 GT PUSH2 0x6FB JUMPI DUP3 SWAP1 SUB PUSH1 0x1F AND DUP3 ADD SWAP2 JUMPDEST POP POP POP POP POP SWAP1 POP DUP4 JUMP JUMPDEST DUP4 PUSH1 0x1 PUSH0 DUP7 DUP2 MSTORE PUSH1 0x20 ADD SWAP1 DUP2 MSTORE PUSH1 0x20 ADD PUSH0 KECCAK256 PUSH0 ADD SLOAD EQ PUSH2 0x777 JUMPI PUSH1 0x40 MLOAD PUSH32 0x8C379A000000000000000000000000000000000000000000000000000000000 DUP2 MSTORE PUSH1 0x4 ADD PUSH2 0x76E SWAP1 PUSH2 0x1CDD JUMP JUMPDEST PUSH1 0x40 MLOAD DUP1 SWAP2 SUB SWAP1 REVERT JUMPDEST PUSH1 0x2 PUSH0 DUP6 DUP2 MSTORE PUSH1 0x20 ADD SWAP1 DUP2 MSTORE PUSH1 0x20 ADD PUSH0 KECCAK256 PUSH1 0x40 MLOAD DUP1 PUSH1 0x60 ADD PUSH1 0x40 MSTORE DUP1 DUP6 DUP2 MSTORE PUSH1 0x20 ADD DUP5 DUP2 MSTORE PUSH1 0x20 ADD DUP4 DUP2 MSTORE POP SWAP1 DUP1 PUSH1 0x1 DUP2 SLOAD ADD DUP1 DUP3 SSTORE DUP1 SWAP2 POP POP PUSH1 0x1 SWAP1 SUB SWAP1 PUSH0 MSTORE PUSH1 0x20 PUSH0 KECCAK256 SWAP1 PUSH1 0x3 MUL ADD PUSH0 SWAP1 SWAP2 SWAP1 SWAP2 SWAP1 SWAP2 POP PUSH0 DUP3 ADD MLOAD DUP2 PUSH0 ADD SWAP1 DUP2 PUSH2 0x7DC SWAP2 SWAP1 PUSH2 0x1AD0 JUMP JUMPDEST POP PUSH1 0x20 DUP3 ADD MLOAD DUP2 PUSH1 0x1 ADD SWAP1 DUP2 PUSH2 0x7F2 SWAP2 SWAP1 PUSH2 0x1AD0 JUMP JUMPDEST POP PUSH1 0x40 DUP3 ADD MLOAD DUP2 PUSH1 0x2 ADD SWAP1 DUP2 PUSH2 0x808 SWAP2 SWAP1 PUSH2 0x1AD0 JUMP JUMPDEST POP POP POP DUP2 PUSH1 0x1 PUSH0 DUP7 DUP2 MSTORE PUSH1 0x20 ADD SWAP1 DUP2 MSTORE PUSH1 0x20 ADD PUSH0 KECCAK256 PUSH1 0x5 ADD SWAP1 DUP2 PUSH2 0x82C SWAP2 SWAP1 PUSH2 0x1AD0 JUMP JUMPDEST POP PUSH32 0x7EFAB20AB4C4D8C33ECD03458D6147BF7CCC1FAA40DFEEDD6F2D7A7CF28A12D7 GASPRICE PUSH1 0x1 NUMBER PUSH2 0x85C SWAP2 SWAP1 PUSH2 0x1C13 JUMP JUMPDEST BLOCKHASH NUMBER PUSH1 0x40 MLOAD PUSH2 0x86D SWAP4 SWAP3 SWAP2 SWAP1 PUSH2 0x1C5E JUMP JUMPDEST PUSH1 0x40 MLOAD DUP1 SWAP2 SUB SWAP1 LOG1 POP POP POP POP JUMP JUMPDEST PUSH0 SLOAD DUP2 JUMP JUMPDEST DUP4 PUSH1 0x1 PUSH0 DUP7 DUP2 MSTORE PUSH1 0x20 ADD SWAP1 DUP2 MSTORE PUSH1 0x20 ADD PUSH0 KECCAK256 PUSH0 ADD SLOAD EQ PUSH2 0x8D5 JUMPI PUSH1 0x40 MLOAD PUSH32 0x8C379A000000000000000000000000000000000000000000000000000000000 DUP2 MSTORE PUSH1 0x4 ADD PUSH2 0x8CC SWAP1 PUSH2 0x1CDD JUMP JUMPDEST PUSH1 0x40 MLOAD DUP1 SWAP2 SUB SWAP1 REVERT JUMPDEST PUSH1 0x3 PUSH0 DUP6 DUP2 MSTORE PUSH1 0x20 ADD SWAP1 DUP2 MSTORE PUSH1 0x20 ADD PUSH0 KECCAK256 PUSH1 0x40 MLOAD DUP1 PUSH1 0x60 ADD PUSH1 0x40 MSTORE DUP1 DUP6 DUP2 MSTORE PUSH1 0x20 ADD DUP5 DUP2 MSTORE PUSH1 0x20 ADD DUP4 DUP2 MSTORE POP SWAP1 DUP1 PUSH1 0x1 DUP2 SLOAD ADD DUP1 DUP3 SSTORE DUP1 SWAP2 POP POP PUSH1 0x1 SWAP1 SUB SWAP1 PUSH0 MSTORE PUSH1 0x20 PUSH0 KECCAK256 SWAP1 PUSH1 0x3 MUL ADD PUSH0 SWAP1 SWAP2 SWAP1 SWAP2 SWAP1 SWAP2 POP PUSH0 DUP3 ADD MLOAD DUP2 PUSH0 ADD SWAP1 DUP2 PUSH2 0x93A SWAP2 SWAP1 PUSH2 0x1AD0 JUMP JUMPDEST POP PUSH1 0x20 DUP3 ADD MLOAD DUP2 PUSH1 0x1 ADD SSTORE PUSH1 0x40 DUP3 ADD MLOAD DUP2 PUSH1 0x2 ADD SWAP1 DUP2 PUSH2 0x95A SWAP2 SWAP1 PUSH2 0x1AD0 JUMP JUMPDEST POP POP POP PUSH32 0x7EFAB20AB4C4D8C33ECD03458D6147BF7CCC1FAA40DFEEDD6F2D7A7CF28A12D7 GASPRICE PUSH1 0x1 NUMBER PUSH2 0x98C SWAP2 SWAP1 PUSH2 0x1C13 JUMP JUMPDEST BLOCKHASH NUMBER PUSH1 0x40 MLOAD PUSH2 0x99D SWAP4 SWAP3 SWAP2 SWAP1 PUSH2 0x1C5E JUMP JUMPDEST PUSH1 0x40 MLOAD DUP1 SWAP2 SUB SWAP1 LOG1 POP POP POP POP JUMP JUMPDEST PUSH0 PUSH0 PUSH1 0x1 PUSH0 DUP5 DUP2 MSTORE PUSH1 0x20 ADD SWAP1 DUP2 MSTORE PUSH1 0x20 ADD PUSH0 KECCAK256 PUSH1 0x40 MLOAD DUP1 PUSH2 0x180 ADD PUSH1 0x40 MSTORE SWAP1 DUP2 PUSH0 DUP3 ADD SLOAD DUP2 MSTORE PUSH1 0x20 ADD PUSH1 0x1 DUP3 ADD DUP1 SLOAD PUSH2 0x9E3 SWAP1 PUSH2 0x1900 JUMP JUMPDEST DUP1 PUSH1 0x1F ADD PUSH1 0x20 DUP1 SWAP2 DIV MUL PUSH1 0x20 ADD PUSH1 0x40 MLOAD SWAP1 DUP2 ADD PUSH1 0x40 MSTORE DUP1 SWAP3 SWAP2 SWAP1 DUP2 DUP2 MSTORE PUSH1 0x20 ADD DUP3 DUP1 SLOAD PUSH2 0xA0F SWAP1 PUSH2 0x1900 JUMP JUMPDEST DUP1 ISZERO PUSH2 0xA5A JUMPI DUP1 PUSH1 0x1F LT PUSH2 0xA31 JUMPI PUSH2 0x100 DUP1 DUP4 SLOAD DIV MUL DUP4 MSTORE SWAP2 PUSH1 0x20 ADD SWAP2 PUSH2 0xA5A JUMP JUMPDEST DUP3 ADD SWAP2 SWAP1 PUSH0 MSTORE PUSH1 0x20 PUSH0 KECCAK256 SWAP1 JUMPDEST DUP2 SLOAD DUP2 MSTORE SWAP1 PUSH1 0x1 ADD SWAP1 PUSH1 0x20 ADD DUP1 DUP4 GT PUSH2 0xA3D JUMPI DUP3 SWAP1 SUB PUSH1 0x1F AND DUP3 ADD SWAP2 JUMPDEST POP POP POP POP POP DUP2 MSTORE PUSH1 0x20 ADD PUSH1 0x2 DUP3 ADD SLOAD DUP2 MSTORE PUSH1 0x20 ADD PUSH1 0x3 DUP3 ADD SLOAD DUP2 MSTORE PUSH1 0x20 ADD PUSH1 0x4 DUP3 ADD PUSH0 SWAP1 SLOAD SWAP1 PUSH2 0x100 EXP SWAP1 DIV PUSH1 0xFF AND PUSH1 0x2 DUP2 GT ISZERO PUSH2 0xA9B JUMPI PUSH2 0xA9A PUSH2 0x1737 JUMP JUMPDEST JUMPDEST PUSH1 0x2 DUP2 GT ISZERO PUSH2 0xAAD JUMPI PUSH2 0xAAC PUSH2 0x1737 JUMP JUMPDEST JUMPDEST DUP2 MSTORE PUSH1 0x20 ADD PUSH1 0x5 DUP3 ADD DUP1 SLOAD PUSH2 0xAC1 SWAP1 PUSH2 0x1900 JUMP JUMPDEST DUP1 PUSH1 0x1F ADD PUSH1 0x20 DUP1 SWAP2 DIV MUL PUSH1 0x20 ADD PUSH1 0x40 MLOAD SWAP1 DUP2 ADD PUSH1 0x40 MSTORE DUP1 SWAP3 SWAP2 SWAP1 DUP2 DUP2 MSTORE PUSH1 0x20 ADD DUP3 DUP1 SLOAD PUSH2 0xAED SWAP1 PUSH2 0x1900 JUMP JUMPDEST DUP1 ISZERO PUSH2 0xB38 JUMPI DUP1 PUSH1 0x1F LT PUSH2 0xB0F JUMPI PUSH2 0x100 DUP1 DUP4 SLOAD DIV MUL DUP4 MSTORE SWAP2 PUSH1 0x20 ADD SWAP2 PUSH2 0xB38 JUMP JUMPDEST DUP3 ADD SWAP2 SWAP1 PUSH0 MSTORE PUSH1 0x20 PUSH0 KECCAK256 SWAP1 JUMPDEST DUP2 SLOAD DUP2 MSTORE SWAP1 PUSH1 0x1 ADD SWAP1 PUSH1 0x20 ADD DUP1 DUP4 GT PUSH2 0xB1B JUMPI DUP3 SWAP1 SUB PUSH1 0x1F AND DUP3 ADD SWAP2 JUMPDEST POP POP POP POP POP DUP2 MSTORE PUSH1 0x20 ADD PUSH1 0x6 DUP3 ADD PUSH0 SWAP1 SLOAD SWAP1 PUSH2 0x100 EXP SWAP1 DIV PUSH1 0xFF AND ISZERO ISZERO ISZERO ISZERO DUP2 MSTORE PUSH1 0x20 ADD PUSH1 0x6 DUP3 ADD PUSH1 0x1 SWAP1 SLOAD SWAP1 PUSH2 0x100 EXP SWAP1 DIV PUSH1 0xFF AND PUSH1 0x2 DUP2 GT ISZERO PUSH2 0xB80 JUMPI PUSH2 0xB7F PUSH2 0x1737 JUMP JUMPDEST JUMPDEST PUSH1 0x2 DUP2 GT ISZERO PUSH2 0xB92 JUMPI PUSH2 0xB91 PUSH2 0x1737 JUMP JUMPDEST JUMPDEST DUP2 MSTORE PUSH1 0x20 ADD PUSH1 0x7 DUP3 ADD SLOAD DUP2 MSTORE PUSH1 0x20 ADD PUSH1 0x8 DUP3 ADD SLOAD DUP2 MSTORE PUSH1 0x20 ADD PUSH1 0x9 DUP3 ADD DUP1 SLOAD PUSH2 0xBBA SWAP1 PUSH2 0x1900 JUMP JUMPDEST DUP1 PUSH1 0x1F ADD PUSH1 0x20 DUP1 SWAP2 DIV MUL PUSH1 0x20 ADD PUSH1 0x40 MLOAD SWAP1 DUP2 ADD PUSH1 0x40 MSTORE DUP1 SWAP3 SWAP2 SWAP1 DUP2 DUP2 MSTORE PUSH1 0x20 ADD DUP3 DUP1 SLOAD PUSH2 0xBE6 SWAP1 PUSH2 0x1900 JUMP JUMPDEST DUP1 ISZERO PUSH2 0xC31 JUMPI DUP1 PUSH1 0x1F LT PUSH2 0xC08 JUMPI PUSH2 0x100 DUP1 DUP4 SLOAD DIV MUL DUP4 MSTORE SWAP2 PUSH1 0x20 ADD SWAP2 PUSH2 0xC31 JUMP JUMPDEST DUP3 ADD SWAP2 SWAP1 PUSH0 MSTORE PUSH1 0x20 PUSH0 KECCAK256 SWAP1 JUMPDEST DUP2 SLOAD DUP2 MSTORE SWAP1 PUSH1 0x1 ADD SWAP1 PUSH1 0x20 ADD DUP1 DUP4 GT PUSH2 0xC14 JUMPI DUP3 SWAP1 SUB PUSH1 0x1F AND DUP3 ADD SWAP2 JUMPDEST POP POP POP POP POP DUP2 MSTORE PUSH1 0x20 ADD PUSH1 0xA DUP3 ADD DUP1 SLOAD PUSH2 0xC4A SWAP1 PUSH2 0x1900 JUMP JUMPDEST DUP1 PUSH1 0x1F ADD PUSH1 0x20 DUP1 SWAP2 DIV MUL PUSH1 0x20 ADD PUSH1 0x40 MLOAD SWAP1 DUP2 ADD PUSH1 0x40 MSTORE DUP1 SWAP3 SWAP2 SWAP1 DUP2 DUP2 MSTORE PUSH1 0x20 ADD DUP3 DUP1 SLOAD PUSH2 0xC76 SWAP1 PUSH2 0x1900 JUMP JUMPDEST DUP1 ISZERO PUSH2 0xCC1 JUMPI DUP1 PUSH1 0x1F LT PUSH2 0xC98 JUMPI PUSH2 0x100 DUP1 DUP4 SLOAD DIV MUL DUP4 MSTORE SWAP2 PUSH1 0x20 ADD SWAP2 PUSH2 0xCC1 JUMP JUMPDEST DUP3 ADD SWAP2 SWAP1 PUSH0 MSTORE PUSH1 0x20 PUSH0 KECCAK256 SWAP1 JUMPDEST DUP2 SLOAD DUP2 MSTORE SWAP1 PUSH1 0x1 ADD SWAP1 PUSH1 0x20 ADD DUP1 DUP4 GT PUSH2 0xCA4 JUMPI DUP3 SWAP1 SUB PUSH1 0x1F AND DUP3 ADD SWAP2 JUMPDEST POP POP POP POP POP DUP2 MSTORE POP POP SWAP1 POP PUSH0 PUSH1 0x5 SWAP1 POP PUSH0 DUP2 DUP4 PUSH1 0x60 ADD MLOAD PUSH2 0xCE2 SWAP2 SWAP1 PUSH2 0x1CFB JUMP JUMPDEST SWAP1 POP DUP1 SWAP4 POP POP POP POP SWAP2 SWAP1 POP JUMP JUMPDEST PUSH0 PUSH0 PUSH0 SWAP1 POP PUSH0 PUSH0 SWAP1 POP JUMPDEST PUSH0 SLOAD DUP2 LT ISZERO PUSH2 0xD25 JUMPI PUSH2 0xD0B DUP2 PUSH2 0x9AB JUMP JUMPDEST DUP3 PUSH2 0xD16 SWAP2 SWAP1 PUSH2 0x1D3C JUMP JUMPDEST SWAP2 POP DUP1 DUP1 PUSH1 0x1 ADD SWAP2 POP POP PUSH2 0xCF9 JUMP JUMPDEST POP DUP1 SWAP2 POP POP SWAP1 JUMP JUMPDEST PUSH1 0x1 PUSH1 0x20 MSTORE DUP1 PUSH0 MSTORE PUSH1 0x40 PUSH0 KECCAK256 PUSH0 SWAP2 POP SWAP1 POP DUP1 PUSH0 ADD SLOAD SWAP1 DUP1 PUSH1 0x1 ADD DUP1 SLOAD PUSH2 0xD52 SWAP1 PUSH2 0x1900 JUMP JUMPDEST DUP1 PUSH1 0x1F ADD PUSH1 0x20 DUP1 SWAP2 DIV MUL PUSH1 0x20 ADD PUSH1 0x40 MLOAD SWAP1 DUP2 ADD PUSH1 0x40 MSTORE DUP1 SWAP3 SWAP2 SWAP1 DUP2 DUP2 MSTORE PUSH1 0x20 ADD DUP3 DUP1 SLOAD PUSH2 0xD7E SWAP1 PUSH2 0x1900 JUMP JUMPDEST DUP1 ISZERO PUSH2 0xDC9 JUMPI DUP1 PUSH1 0x1F LT PUSH2 0xDA0 JUMPI PUSH2 0x100 DUP1 DUP4 SLOAD DIV MUL DUP4 MSTORE SWAP2 PUSH1 0x20 ADD SWAP2 PUSH2 0xDC9 JUMP JUMPDEST DUP3 ADD SWAP2 SWAP1 PUSH0 MSTORE PUSH1 0x20 PUSH0 KECCAK256 SWAP1 JUMPDEST DUP2 SLOAD DUP2 MSTORE SWAP1 PUSH1 0x1 ADD SWAP1 PUSH1 0x20 ADD DUP1 DUP4 GT PUSH2 0xDAC JUMPI DUP3 SWAP1 SUB PUSH1 0x1F AND DUP3 ADD SWAP2 JUMPDEST POP POP POP POP POP SWAP1 DUP1 PUSH1 0x2 ADD SLOAD SWAP1 DUP1 PUSH1 0x3 ADD SLOAD SWAP1 DUP1 PUSH1 0x4 ADD PUSH0 SWAP1 SLOAD SWAP1 PUSH2 0x100 EXP SWAP1 DIV PUSH1 0xFF AND SWAP1 DUP1 PUSH1 0x5 ADD DUP1 SLOAD PUSH2 0xDFC SWAP1 PUSH2 0x1900 JUMP JUMPDEST DUP1 PUSH1 0x1F ADD PUSH1 0x20 DUP1 SWAP2 DIV MUL PUSH1 0x20 ADD PUSH1 0x40 MLOAD SWAP1 DUP2 ADD PUSH1 0x40 MSTORE DUP1 SWAP3 SWAP2 SWAP1 DUP2 DUP2 MSTORE PUSH1 0x20 ADD DUP3 DUP1 SLOAD PUSH2 0xE28 SWAP1 PUSH2 0x1900 JUMP JUMPDEST DUP1 ISZERO PUSH2 0xE73 JUMPI DUP1 PUSH1 0x1F LT PUSH2 0xE4A JUMPI PUSH2 0x100 DUP1 DUP4 SLOAD DIV MUL DUP4 MSTORE SWAP2 PUSH1 0x20 ADD SWAP2 PUSH2 0xE73 JUMP JUMPDEST DUP3 ADD SWAP2 SWAP1 PUSH0 MSTORE PUSH1 0x20 PUSH0 KECCAK256 SWAP1 JUMPDEST DUP2 SLOAD DUP2 MSTORE SWAP1 PUSH1 0x1 ADD SWAP1 PUSH1 0x20 ADD DUP1 DUP4 GT PUSH2 0xE56 JUMPI DUP3 SWAP1 SUB PUSH1 0x1F AND DUP3 ADD SWAP2 JUMPDEST POP POP POP POP POP SWAP1 DUP1 PUSH1 0x6 ADD PUSH0 SWAP1 SLOAD SWAP1 PUSH2 0x100 EXP SWAP1 DIV PUSH1 0xFF AND SWAP1 DUP1 PUSH1 0x6 ADD PUSH1 0x1 SWAP1 SLOAD SWAP1 PUSH2 0x100 EXP SWAP1 DIV PUSH1 0xFF AND SWAP1 DUP1 PUSH1 0x7 ADD SLOAD SWAP1 DUP1 PUSH1 0x8 ADD SLOAD SWAP1 DUP1 PUSH1 0x9 ADD DUP1 SLOAD PUSH2 0xEB9 SWAP1 PUSH2 0x1900 JUMP JUMPDEST DUP1 PUSH1 0x1F ADD PUSH1 0x20 DUP1 SWAP2 DIV MUL PUSH1 0x20 ADD PUSH1 0x40 MLOAD SWAP1 DUP2 ADD PUSH1 0x40 MSTORE DUP1 SWAP3 SWAP2 SWAP1 DUP2 DUP2 MSTORE PUSH1 0x20 ADD DUP3 DUP1 SLOAD PUSH2 0xEE5 SWAP1 PUSH2 0x1900 JUMP JUMPDEST DUP1 ISZERO PUSH2 0xF30 JUMPI DUP1 PUSH1 0x1F LT PUSH2 0xF07 JUMPI PUSH2 0x100 DUP1 DUP4 SLOAD DIV MUL DUP4 MSTORE SWAP2 PUSH1 0x20 ADD SWAP2 PUSH2 0xF30 JUMP JUMPDEST DUP3 ADD SWAP2 SWAP1 PUSH0 MSTORE PUSH1 0x20 PUSH0 KECCAK256 SWAP1 JUMPDEST DUP2 SLOAD DUP2 MSTORE SWAP1 PUSH1 0x1 ADD SWAP1 PUSH1 0x20 ADD DUP1 DUP4 GT PUSH2 0xF13 JUMPI DUP3 SWAP1 SUB PUSH1 0x1F AND DUP3 ADD SWAP2 JUMPDEST POP POP POP POP POP SWAP1 DUP1 PUSH1 0xA ADD DUP1 SLOAD PUSH2 0xF45 SWAP1 PUSH2 0x1900 JUMP JUMPDEST DUP1 PUSH1 0x1F ADD PUSH1 0x20 DUP1 SWAP2 DIV MUL PUSH1 0x20 ADD PUSH1 0x40 MLOAD SWAP1 DUP2 ADD PUSH1 0x40 MSTORE DUP1 SWAP3 SWAP2 SWAP1 DUP2 DUP2 MSTORE PUSH1 0x20 ADD DUP3 DUP1 SLOAD PUSH2 0xF71 SWAP1 PUSH2 0x1900 JUMP JUMPDEST DUP1 ISZERO PUSH2 0xFBC JUMPI DUP1 PUSH1 0x1F LT PUSH2 0xF93 JUMPI PUSH2 0x100 DUP1 DUP4 SLOAD DIV MUL DUP4 MSTORE SWAP2 PUSH1 0x20 ADD SWAP2 PUSH2 0xFBC JUMP JUMPDEST DUP3 ADD SWAP2 SWAP1 PUSH0 MSTORE PUSH1 0x20 PUSH0 KECCAK256 SWAP1 JUMPDEST DUP2 SLOAD DUP2 MSTORE SWAP1 PUSH1 0x1 ADD SWAP1 PUSH1 0x20 ADD DUP1 DUP4 GT PUSH2 0xF9F JUMPI DUP3 SWAP1 SUB PUSH1 0x1F AND DUP3 ADD SWAP2 JUMPDEST POP POP POP POP POP SWAP1 POP DUP13 JUMP JUMPDEST PUSH0 PUSH1 0x40 MLOAD PUSH1 0x20 ADD PUSH2 0xFD6 SWAP1 PUSH2 0x1DC3 JUMP JUMPDEST PUSH1 0x40 MLOAD PUSH1 0x20 DUP2 DUP4 SUB SUB DUP2 MSTORE SWAP1 PUSH1 0x40 MSTORE DUP1 MLOAD SWAP1 PUSH1 0x20 ADD KECCAK256 DUP3 PUSH1 0x40 MLOAD PUSH1 0x20 ADD PUSH2 0xFFD SWAP2 SWAP1 PUSH2 0x1E07 JUMP JUMPDEST PUSH1 0x40 MLOAD PUSH1 0x20 DUP2 DUP4 SUB SUB DUP2 MSTORE SWAP1 PUSH1 0x40 MSTORE DUP1 MLOAD SWAP1 PUSH1 0x20 ADD KECCAK256 SUB PUSH2 0x1020 JUMPI PUSH0 SWAP1 POP PUSH2 0x110F JUMP JUMPDEST PUSH1 0x40 MLOAD PUSH1 0x20 ADD PUSH2 0x102F SWAP1 PUSH2 0x1E67 JUMP JUMPDEST PUSH1 0x40 MLOAD PUSH1 0x20 DUP2 DUP4 SUB SUB DUP2 MSTORE SWAP1 PUSH1 0x40 MSTORE DUP1 MLOAD SWAP1 PUSH1 0x20 ADD KECCAK256 DUP3 PUSH1 0x40 MLOAD PUSH1 0x20 ADD PUSH2 0x1056 SWAP2 SWAP1 PUSH2 0x1E07 JUMP JUMPDEST PUSH1 0x40 MLOAD PUSH1 0x20 DUP2 DUP4 SUB SUB DUP2 MSTORE SWAP1 PUSH1 0x40 MSTORE DUP1 MLOAD SWAP1 PUSH1 0x20 ADD KECCAK256 SUB PUSH2 0x107A JUMPI PUSH1 0x1 SWAP1 POP PUSH2 0x110F JUMP JUMPDEST PUSH1 0x40 MLOAD PUSH1 0x20 ADD PUSH2 0x1089 SWAP1 PUSH2 0x1EC5 JUMP JUMPDEST PUSH1 0x40 MLOAD PUSH1 0x20 DUP2 DUP4 SUB SUB DUP2 MSTORE SWAP1 PUSH1 0x40 MSTORE DUP1 MLOAD SWAP1 PUSH1 0x20 ADD KECCAK256 DUP3 PUSH1 0x40 MLOAD PUSH1 0x20 ADD PUSH2 0x10B0 SWAP2 SWAP1 PUSH2 0x1E07 JUMP JUMPDEST PUSH1 0x40 MLOAD PUSH1 0x20 DUP2 DUP4 SUB SUB DUP2 MSTORE SWAP1 PUSH1 0x40 MSTORE DUP1 MLOAD SWAP1 PUSH1 0x20 ADD KECCAK256 SUB PUSH2 0x10D4 JUMPI PUSH1 0x2 SWAP1 POP PUSH2 0x110F JUMP JUMPDEST PUSH1 0x40 MLOAD PUSH32 0x8C379A000000000000000000000000000000000000000000000000000000000 DUP2 MSTORE PUSH1 0x4 ADD PUSH2 0x1106 SWAP1 PUSH2 0x1F23 JUMP JUMPDEST PUSH1 0x40 MLOAD DUP1 SWAP2 SUB SWAP1 REVERT JUMPDEST SWAP2 SWAP1 POP JUMP JUMPDEST PUSH0 PUSH1 0x40 MLOAD SWAP1 POP SWAP1 JUMP JUMPDEST PUSH0 PUSH0 REVERT JUMPDEST PUSH0 PUSH0 REVERT JUMPDEST PUSH0 PUSH0 REVERT JUMPDEST PUSH0 PUSH0 REVERT JUMPDEST PUSH0 PUSH1 0x1F NOT PUSH1 0x1F DUP4 ADD AND SWAP1 POP SWAP2 SWAP1 POP JUMP JUMPDEST PUSH32 0x4E487B7100000000000000000000000000000000000000000000000000000000 PUSH0 MSTORE PUSH1 0x41 PUSH1 0x4 MSTORE PUSH1 0x24 PUSH0 REVERT JUMPDEST PUSH2 0x1173 DUP3 PUSH2 0x112D JUMP JUMPDEST DUP2 ADD DUP2 DUP2 LT PUSH8 0xFFFFFFFFFFFFFFFF DUP3 GT OR ISZERO PUSH2 0x1192 JUMPI PUSH2 0x1191 PUSH2 0x113D JUMP JUMPDEST JUMPDEST DUP1 PUSH1 0x40 MSTORE POP POP POP JUMP JUMPDEST PUSH0 PUSH2 0x11A4 PUSH2 0x1114 JUMP JUMPDEST SWAP1 POP PUSH2 0x11B0 DUP3 DUP3 PUSH2 0x116A JUMP JUMPDEST SWAP2 SWAP1 POP JUMP JUMPDEST PUSH0 PUSH8 0xFFFFFFFFFFFFFFFF DUP3 GT ISZERO PUSH2 0x11CF JUMPI PUSH2 0x11CE PUSH2 0x113D JUMP JUMPDEST JUMPDEST PUSH2 0x11D8 DUP3 PUSH2 0x112D JUMP JUMPDEST SWAP1 POP PUSH1 0x20 DUP2 ADD SWAP1 POP SWAP2 SWAP1 POP JUMP JUMPDEST DUP3 DUP2 DUP4 CALLDATACOPY PUSH0 DUP4 DUP4 ADD MSTORE POP POP POP JUMP JUMPDEST PUSH0 PUSH2 0x1205 PUSH2 0x1200 DUP5 PUSH2 0x11B5 JUMP JUMPDEST PUSH2 0x119B JUMP JUMPDEST SWAP1 POP DUP3 DUP2 MSTORE PUSH1 0x20 DUP2 ADD DUP5 DUP5 DUP5 ADD GT ISZERO PUSH2 0x1221 JUMPI PUSH2 0x1220 PUSH2 0x1129 JUMP JUMPDEST JUMPDEST PUSH2 0x122C DUP5 DUP3 DUP6 PUSH2 0x11E5 JUMP JUMPDEST POP SWAP4 SWAP3 POP POP POP JUMP JUMPDEST PUSH0 DUP3 PUSH1 0x1F DUP4 ADD SLT PUSH2 0x1248 JUMPI PUSH2 0x1247 PUSH2 0x1125 JUMP JUMPDEST JUMPDEST DUP2 CALLDATALOAD PUSH2 0x1258 DUP5 DUP3 PUSH1 0x20 DUP7 ADD PUSH2 0x11F3 JUMP JUMPDEST SWAP2 POP POP SWAP3 SWAP2 POP POP JUMP JUMPDEST PUSH0 DUP2 SWAP1 POP SWAP2 SWAP1 POP JUMP JUMPDEST PUSH2 0x1273 DUP2 PUSH2 0x1261 JUMP JUMPDEST DUP2 EQ PUSH2 0x127D JUMPI PUSH0 PUSH0 REVERT JUMPDEST POP JUMP JUMPDEST PUSH0 DUP2 CALLDATALOAD SWAP1 POP PUSH2 0x128E DUP2 PUSH2 0x126A JUMP JUMPDEST SWAP3 SWAP2 POP POP JUMP JUMPDEST PUSH0 DUP2 ISZERO ISZERO SWAP1 POP SWAP2 SWAP1 POP JUMP JUMPDEST PUSH2 0x12A8 DUP2 PUSH2 0x1294 JUMP JUMPDEST DUP2 EQ PUSH2 0x12B2 JUMPI PUSH0 PUSH0 REVERT JUMPDEST POP JUMP JUMPDEST PUSH0 DUP2 CALLDATALOAD SWAP1 POP PUSH2 0x12C3 DUP2 PUSH2 0x129F JUMP JUMPDEST SWAP3 SWAP2 POP POP JUMP JUMPDEST PUSH1 0x3 DUP2 LT PUSH2 0x12D5 JUMPI PUSH0 PUSH0 REVERT JUMPDEST POP JUMP JUMPDEST PUSH0 DUP2 CALLDATALOAD SWAP1 POP PUSH2 0x12E6 DUP2 PUSH2 0x12C9 JUMP JUMPDEST SWAP3 SWAP2 POP POP JUMP JUMPDEST PUSH0 PUSH0 PUSH0 PUSH0 PUSH0 PUSH0 PUSH0 PUSH0 PUSH0 PUSH0 PUSH0 PUSH2 0x160 DUP13 DUP15 SUB SLT ISZERO PUSH2 0x130C JUMPI PUSH2 0x130B PUSH2 0x111D JUMP JUMPDEST JUMPDEST PUSH0 DUP13 ADD CALLDATALOAD PUSH8 0xFFFFFFFFFFFFFFFF DUP2 GT ISZERO PUSH2 0x1329 JUMPI PUSH2 0x1328 PUSH2 0x1121 JUMP JUMPDEST JUMPDEST PUSH2 0x1335 DUP15 DUP3 DUP16 ADD PUSH2 0x1234 JUMP JUMPDEST SWAP12 POP POP PUSH1 0x20 PUSH2 0x1346 DUP15 DUP3 DUP16 ADD PUSH2 0x1280 JUMP JUMPDEST SWAP11 POP POP PUSH1 0x40 PUSH2 0x1357 DUP15 DUP3 DUP16 ADD PUSH2 0x1280 JUMP JUMPDEST SWAP10 POP POP PUSH1 0x60 DUP13 ADD CALLDATALOAD PUSH8 0xFFFFFFFFFFFFFFFF DUP2 GT ISZERO PUSH2 0x1378 JUMPI PUSH2 0x1377 PUSH2 0x1121 JUMP JUMPDEST JUMPDEST PUSH2 0x1384 DUP15 DUP3 DUP16 ADD PUSH2 0x1234 JUMP JUMPDEST SWAP9 POP POP PUSH1 0x80 DUP13 ADD CALLDATALOAD PUSH8 0xFFFFFFFFFFFFFFFF DUP2 GT ISZERO PUSH2 0x13A5 JUMPI PUSH2 0x13A4 PUSH2 0x1121 JUMP JUMPDEST JUMPDEST PUSH2 0x13B1 DUP15 DUP3 DUP16 ADD PUSH2 0x1234 JUMP JUMPDEST SWAP8 POP POP PUSH1 0xA0 PUSH2 0x13C2 DUP15 DUP3 DUP16 ADD PUSH2 0x12B5 JUMP JUMPDEST SWAP7 POP POP PUSH1 0xC0 PUSH2 0x13D3 DUP15 DUP3 DUP16 ADD PUSH2 0x12D8 JUMP JUMPDEST SWAP6 POP POP PUSH1 0xE0 PUSH2 0x13E4 DUP15 DUP3 DUP16 ADD PUSH2 0x1280 JUMP JUMPDEST SWAP5 POP POP PUSH2 0x100 PUSH2 0x13F6 DUP15 DUP3 DUP16 ADD PUSH2 0x1280 JUMP JUMPDEST SWAP4 POP POP PUSH2 0x120 DUP13 ADD CALLDATALOAD PUSH8 0xFFFFFFFFFFFFFFFF DUP2 GT ISZERO PUSH2 0x1418 JUMPI PUSH2 0x1417 PUSH2 0x1121 JUMP JUMPDEST JUMPDEST PUSH2 0x1424 DUP15 DUP3 DUP16 ADD PUSH2 0x1234 JUMP JUMPDEST SWAP3 POP POP PUSH2 0x140 DUP13 ADD CALLDATALOAD PUSH8 0xFFFFFFFFFFFFFFFF DUP2 GT ISZERO PUSH2 0x1446 JUMPI PUSH2 0x1445 PUSH2 0x1121 JUMP JUMPDEST JUMPDEST PUSH2 0x1452 DUP15 DUP3 DUP16 ADD PUSH2 0x1234 JUMP JUMPDEST SWAP2 POP POP SWAP3 SWAP6 SWAP9 SWAP12 POP SWAP3 SWAP6 SWAP9 SWAP12 SWAP1 SWAP4 SWAP7 SWAP10 POP JUMP JUMPDEST PUSH0 PUSH0 PUSH1 0x40 DUP4 DUP6 SUB SLT ISZERO PUSH2 0x147B JUMPI PUSH2 0x147A PUSH2 0x111D JUMP JUMPDEST JUMPDEST PUSH0 PUSH2 0x1488 DUP6 DUP3 DUP7 ADD PUSH2 0x1280 JUMP JUMPDEST SWAP3 POP POP PUSH1 0x20 PUSH2 0x1499 DUP6 DUP3 DUP7 ADD PUSH2 0x1280 JUMP JUMPDEST SWAP2 POP POP SWAP3 POP SWAP3 SWAP1 POP JUMP JUMPDEST PUSH0 DUP2 MLOAD SWAP1 POP SWAP2 SWAP1 POP JUMP JUMPDEST PUSH0 DUP3 DUP3 MSTORE PUSH1 0x20 DUP3 ADD SWAP1 POP SWAP3 SWAP2 POP POP JUMP JUMPDEST DUP3 DUP2 DUP4 MCOPY PUSH0 DUP4 DUP4 ADD MSTORE POP POP POP JUMP JUMPDEST PUSH0 PUSH2 0x14D5 DUP3 PUSH2 0x14A3 JUMP JUMPDEST PUSH2 0x14DF DUP2 DUP6 PUSH2 0x14AD JUMP JUMPDEST SWAP4 POP PUSH2 0x14EF DUP2 DUP6 PUSH1 0x20 DUP7 ADD PUSH2 0x14BD JUMP JUMPDEST PUSH2 0x14F8 DUP2 PUSH2 0x112D JUMP JUMPDEST DUP5 ADD SWAP2 POP POP SWAP3 SWAP2 POP POP JUMP JUMPDEST PUSH2 0x150C DUP2 PUSH2 0x1261 JUMP JUMPDEST DUP3 MSTORE POP POP JUMP JUMPDEST PUSH0 PUSH1 0x60 DUP3 ADD SWAP1 POP DUP2 DUP2 SUB PUSH0 DUP4 ADD MSTORE PUSH2 0x152A DUP2 DUP7 PUSH2 0x14CB JUMP JUMPDEST SWAP1 POP PUSH2 0x1539 PUSH1 0x20 DUP4 ADD DUP6 PUSH2 0x1503 JUMP JUMPDEST DUP2 DUP2 SUB PUSH1 0x40 DUP4 ADD MSTORE PUSH2 0x154B DUP2 DUP5 PUSH2 0x14CB JUMP JUMPDEST SWAP1 POP SWAP5 SWAP4 POP POP POP POP JUMP JUMPDEST PUSH0 PUSH1 0x60 DUP3 ADD SWAP1 POP DUP2 DUP2 SUB PUSH0 DUP4 ADD MSTORE PUSH2 0x156D DUP2 DUP7 PUSH2 0x14CB JUMP JUMPDEST SWAP1 POP DUP2 DUP2 SUB PUSH1 0x20 DUP4 ADD MSTORE PUSH2 0x1581 DUP2 DUP6 PUSH2 0x14CB JUMP JUMPDEST SWAP1 POP DUP2 DUP2 SUB PUSH1 0x40 DUP4 ADD MSTORE PUSH2 0x1595 DUP2 DUP5 PUSH2 0x14CB JUMP JUMPDEST SWAP1 POP SWAP5 SWAP4 POP POP POP POP JUMP JUMPDEST PUSH0 PUSH0 PUSH0 PUSH0 PUSH1 0x80 DUP6 DUP8 SUB SLT ISZERO PUSH2 0x15B7 JUMPI PUSH2 0x15B6 PUSH2 0x111D JUMP JUMPDEST JUMPDEST PUSH0 PUSH2 0x15C4 DUP8 DUP3 DUP9 ADD PUSH2 0x1280 JUMP JUMPDEST SWAP5 POP POP PUSH1 0x20 DUP6 ADD CALLDATALOAD PUSH8 0xFFFFFFFFFFFFFFFF DUP2 GT ISZERO PUSH2 0x15E5 JUMPI PUSH2 0x15E4 PUSH2 0x1121 JUMP JUMPDEST JUMPDEST PUSH2 0x15F1 DUP8 DUP3 DUP9 ADD PUSH2 0x1234 JUMP JUMPDEST SWAP4 POP POP PUSH1 0x40 DUP6 ADD CALLDATALOAD PUSH8 0xFFFFFFFFFFFFFFFF DUP2 GT ISZERO PUSH2 0x1612 JUMPI PUSH2 0x1611 PUSH2 0x1121 JUMP JUMPDEST JUMPDEST PUSH2 0x161E DUP8 DUP3 DUP9 ADD PUSH2 0x1234 JUMP JUMPDEST SWAP3 POP POP PUSH1 0x60 DUP6 ADD CALLDATALOAD PUSH8 0xFFFFFFFFFFFFFFFF DUP2 GT ISZERO PUSH2 0x163F JUMPI PUSH2 0x163E PUSH2 0x1121 JUMP JUMPDEST JUMPDEST PUSH2 0x164B DUP8 DUP3 DUP9 ADD PUSH2 0x1234 JUMP JUMPDEST SWAP2 POP POP SWAP3 SWAP6 SWAP2 SWAP5 POP SWAP3 POP JUMP JUMPDEST PUSH0 PUSH1 0x20 DUP3 ADD SWAP1 POP PUSH2 0x166A PUSH0 DUP4 ADD DUP5 PUSH2 0x1503 JUMP JUMPDEST SWAP3 SWAP2 POP POP JUMP JUMPDEST PUSH0 PUSH0 PUSH0 PUSH0 PUSH1 0x80 DUP6 DUP8 SUB SLT ISZERO PUSH2 0x1688 JUMPI PUSH2 0x1687 PUSH2 0x111D JUMP JUMPDEST JUMPDEST PUSH0 PUSH2 0x1695 DUP8 DUP3 DUP9 ADD PUSH2 0x1280 JUMP JUMPDEST SWAP5 POP POP PUSH1 0x20 DUP6 ADD CALLDATALOAD PUSH8 0xFFFFFFFFFFFFFFFF DUP2 GT ISZERO PUSH2 0x16B6 JUMPI PUSH2 0x16B5 PUSH2 0x1121 JUMP JUMPDEST JUMPDEST PUSH2 0x16C2 DUP8 DUP3 DUP9 ADD PUSH2 0x1234 JUMP JUMPDEST SWAP4 POP POP PUSH1 0x40 PUSH2 0x16D3 DUP8 DUP3 DUP9 ADD PUSH2 0x1280 JUMP JUMPDEST SWAP3 POP POP PUSH1 0x60 DUP6 ADD CALLDATALOAD PUSH8 0xFFFFFFFFFFFFFFFF DUP2 GT ISZERO PUSH2 0x16F4 JUMPI PUSH2 0x16F3 PUSH2 0x1121 JUMP JUMPDEST JUMPDEST PUSH2 0x1700 DUP8 DUP3 DUP9 ADD PUSH2 0x1234 JUMP JUMPDEST SWAP2 POP POP SWAP3 SWAP6 SWAP2 SWAP5 POP SWAP3 POP JUMP JUMPDEST PUSH0 PUSH1 0x20 DUP3 DUP5 SUB SLT ISZERO PUSH2 0x1721 JUMPI PUSH2 0x1720 PUSH2 0x111D JUMP JUMPDEST JUMPDEST PUSH0 PUSH2 0x172E DUP5 DUP3 DUP6 ADD PUSH2 0x1280 JUMP JUMPDEST SWAP2 POP POP SWAP3 SWAP2 POP POP JUMP JUMPDEST PUSH32 0x4E487B7100000000000000000000000000000000000000000000000000000000 PUSH0 MSTORE PUSH1 0x21 PUSH1 0x4 MSTORE PUSH1 0x24 PUSH0 REVERT JUMPDEST PUSH1 0x3 DUP2 LT PUSH2 0x1775 JUMPI PUSH2 0x1774 PUSH2 0x1737 JUMP JUMPDEST JUMPDEST POP JUMP JUMPDEST PUSH0 DUP2 SWAP1 POP PUSH2 0x1785 DUP3 PUSH2 0x1764 JUMP JUMPDEST SWAP2 SWAP1 POP JUMP JUMPDEST PUSH0 PUSH2 0x1794 DUP3 PUSH2 0x1778 JUMP JUMPDEST SWAP1 POP SWAP2 SWAP1 POP JUMP JUMPDEST PUSH2 0x17A4 DUP2 PUSH2 0x178A JUMP JUMPDEST DUP3 MSTORE POP POP JUMP JUMPDEST PUSH2 0x17B3 DUP2 PUSH2 0x1294 JUMP JUMPDEST DUP3 MSTORE POP POP JUMP JUMPDEST PUSH1 0x3 DUP2 LT PUSH2 0x17CA JUMPI PUSH2 0x17C9 PUSH2 0x1737 JUMP JUMPDEST JUMPDEST POP JUMP JUMPDEST PUSH0 DUP2 SWAP1 POP PUSH2 0x17DA DUP3 PUSH2 0x17B9 JUMP JUMPDEST SWAP2 SWAP1 POP JUMP JUMPDEST PUSH0 PUSH2 0x17E9 DUP3 PUSH2 0x17CD JUMP JUMPDEST SWAP1 POP SWAP2 SWAP1 POP JUMP JUMPDEST PUSH2 0x17F9 DUP2 PUSH2 0x17DF JUMP JUMPDEST DUP3 MSTORE POP POP JUMP JUMPDEST PUSH0 PUSH2 0x180 DUP3 ADD SWAP1 POP PUSH2 0x1813 PUSH0 DUP4 ADD DUP16 PUSH2 0x1503 JUMP JUMPDEST DUP2 DUP2 SUB PUSH1 0x20 DUP4 ADD MSTORE PUSH2 0x1825 DUP2 DUP15 PUSH2 0x14CB JUMP JUMPDEST SWAP1 POP PUSH2 0x1834 PUSH1 0x40 DUP4 ADD DUP14 PUSH2 0x1503 JUMP JUMPDEST PUSH2 0x1841 PUSH1 0x60 DUP4 ADD DUP13 PUSH2 0x1503 JUMP JUMPDEST PUSH2 0x184E PUSH1 0x80 DUP4 ADD DUP12 PUSH2 0x179B JUMP JUMPDEST DUP2 DUP2 SUB PUSH1 0xA0 DUP4 ADD MSTORE PUSH2 0x1860 DUP2 DUP11 PUSH2 0x14CB JUMP JUMPDEST SWAP1 POP PUSH2 0x186F PUSH1 0xC0 DUP4 ADD DUP10 PUSH2 0x17AA JUMP JUMPDEST PUSH2 0x187C PUSH1 0xE0 DUP4 ADD DUP9 PUSH2 0x17F0 JUMP JUMPDEST PUSH2 0x188A PUSH2 0x100 DUP4 ADD DUP8 PUSH2 0x1503 JUMP JUMPDEST PUSH2 0x1898 PUSH2 0x120 DUP4 ADD DUP7 PUSH2 0x1503 JUMP JUMPDEST DUP2 DUP2 SUB PUSH2 0x140 DUP4 ADD MSTORE PUSH2 0x18AB DUP2 DUP6 PUSH2 0x14CB JUMP JUMPDEST SWAP1 POP DUP2 DUP2 SUB PUSH2 0x160 DUP4 ADD MSTORE PUSH2 0x18C0 DUP2 DUP5 PUSH2 0x14CB JUMP JUMPDEST SWAP1 POP SWAP14 SWAP13 POP POP POP POP POP POP POP POP POP POP POP POP POP JUMP JUMPDEST PUSH32 0x4E487B7100000000000000000000000000000000000000000000000000000000 PUSH0 MSTORE PUSH1 0x22 PUSH1 0x4 MSTORE PUSH1 0x24 PUSH0 REVERT JUMPDEST PUSH0 PUSH1 0x2 DUP3 DIV SWAP1 POP PUSH1 0x1 DUP3 AND DUP1 PUSH2 0x1917 JUMPI PUSH1 0x7F DUP3 AND SWAP2 POP JUMPDEST PUSH1 0x20 DUP3 LT DUP2 SUB PUSH2 0x192A JUMPI PUSH2 0x1929 PUSH2 0x18D3 JUMP JUMPDEST JUMPDEST POP SWAP2 SWAP1 POP JUMP JUMPDEST PUSH0 DUP2 SWAP1 POP DUP2 PUSH0 MSTORE PUSH1 0x20 PUSH0 KECCAK256 SWAP1 POP SWAP2 SWAP1 POP JUMP JUMPDEST PUSH0 PUSH1 0x20 PUSH1 0x1F DUP4 ADD DIV SWAP1 POP SWAP2 SWAP1 POP JUMP JUMPDEST PUSH0 DUP3 DUP3 SHL SWAP1 POP SWAP3 SWAP2 POP POP JUMP JUMPDEST PUSH0 PUSH1 0x8 DUP4 MUL PUSH2 0x198C PUSH32 0xFFFFFFFFFFFFFFFFFFFFFFFFFFFFFFFFFFFFFFFFFFFFFFFFFFFFFFFFFFFFFFFF DUP3 PUSH2 0x1951 JUMP JUMPDEST PUSH2 0x1996 DUP7 DUP4 PUSH2 0x1951 JUMP JUMPDEST SWAP6 POP DUP1 NOT DUP5 AND SWAP4 POP DUP1 DUP7 AND DUP5 OR SWAP3 POP POP POP SWAP4 SWAP3 POP POP POP JUMP JUMPDEST PUSH0 DUP2 SWAP1 POP SWAP2 SWAP1 POP JUMP JUMPDEST PUSH0 PUSH2 0x19D1 PUSH2 0x19CC PUSH2 0x19C7 DUP5 PUSH2 0x1261 JUMP JUMPDEST PUSH2 0x19AE JUMP JUMPDEST PUSH2 0x1261 JUMP JUMPDEST SWAP1 POP SWAP2 SWAP1 POP JUMP JUMPDEST PUSH0 DUP2 SWAP1 POP SWAP2 SWAP1 POP JUMP JUMPDEST PUSH2 0x19EA DUP4 PUSH2 0x19B7 JUMP JUMPDEST PUSH2 0x19FE PUSH2 0x19F6 DUP3 PUSH2 0x19D8 JUMP JUMPDEST DUP5 DUP5 SLOAD PUSH2 0x195D JUMP JUMPDEST DUP3 SSTORE POP POP POP POP JUMP JUMPDEST PUSH0 PUSH0 SWAP1 POP SWAP1 JUMP JUMPDEST PUSH2 0x1A15 PUSH2 0x1A06 JUMP JUMPDEST PUSH2 0x1A20 DUP2 DUP5 DUP5 PUSH2 0x19E1 JUMP JUMPDEST POP POP POP JUMP JUMPDEST JUMPDEST DUP2 DUP2 LT ISZERO PUSH2 0x1A43 JUMPI PUSH2 0x1A38 PUSH0 DUP3 PUSH2 0x1A0D JUMP JUMPDEST PUSH1 0x1 DUP2 ADD SWAP1 POP PUSH2 0x1A26 JUMP JUMPDEST POP POP JUMP JUMPDEST PUSH1 0x1F DUP3 GT ISZERO PUSH2 0x1A88 JUMPI PUSH2 0x1A59 DUP2 PUSH2 0x1930 JUMP JUMPDEST PUSH2 0x1A62 DUP5 PUSH2 0x1942 JUMP JUMPDEST DUP2 ADD PUSH1 0x20 DUP6 LT ISZERO PUSH2 0x1A71 JUMPI DUP2 SWAP1 POP JUMPDEST PUSH2 0x1A85 PUSH2 0x1A7D DUP6 PUSH2 0x1942 JUMP JUMPDEST DUP4 ADD DUP3 PUSH2 0x1A25 JUMP JUMPDEST POP POP JUMPDEST POP POP POP JUMP JUMPDEST PUSH0 DUP3 DUP3 SHR SWAP1 POP SWAP3 SWAP2 POP POP JUMP JUMPDEST PUSH0 PUSH2 0x1AA8 PUSH0 NOT DUP5 PUSH1 0x8 MUL PUSH2 0x1A8D JUMP JUMPDEST NOT DUP1 DUP4 AND SWAP2 POP POP SWAP3 SWAP2 POP POP JUMP JUMPDEST PUSH0 PUSH2 0x1AC0 DUP4 DUP4 PUSH2 0x1A99 JUMP JUMPDEST SWAP2 POP DUP3 PUSH1 0x2 MUL DUP3 OR SWAP1 POP SWAP3 SWAP2 POP POP JUMP JUMPDEST PUSH2 0x1AD9 DUP3 PUSH2 0x14A3 JUMP JUMPDEST PUSH8 0xFFFFFFFFFFFFFFFF DUP2 GT ISZERO PUSH2 0x1AF2 JUMPI PUSH2 0x1AF1 PUSH2 0x113D JUMP JUMPDEST JUMPDEST PUSH2 0x1AFC DUP3 SLOAD PUSH2 0x1900 JUMP JUMPDEST PUSH2 0x1B07 DUP3 DUP3 DUP6 PUSH2 0x1A47 JUMP JUMPDEST PUSH0 PUSH1 0x20 SWAP1 POP PUSH1 0x1F DUP4 GT PUSH1 0x1 DUP2 EQ PUSH2 0x1B38 JUMPI PUSH0 DUP5 ISZERO PUSH2 0x1B26 JUMPI DUP3 DUP8 ADD MLOAD SWAP1 POP JUMPDEST PUSH2 0x1B30 DUP6 DUP3 PUSH2 0x1AB5 JUMP JUMPDEST DUP7 SSTORE POP PUSH2 0x1B97 JUMP JUMPDEST PUSH1 0x1F NOT DUP5 AND PUSH2 0x1B46 DUP7 PUSH2 0x1930 JUMP JUMPDEST PUSH0 JUMPDEST DUP3 DUP2 LT ISZERO PUSH2 0x1B6D JUMPI DUP5 DUP10 ADD MLOAD DUP3 SSTORE PUSH1 0x1 DUP3 ADD SWAP2 POP PUSH1 0x20 DUP6 ADD SWAP5 POP PUSH1 0x20 DUP2 ADD SWAP1 POP PUSH2 0x1B48 JUMP JUMPDEST DUP7 DUP4 LT ISZERO PUSH2 0x1B8A JUMPI DUP5 DUP10 ADD MLOAD PUSH2 0x1B86 PUSH1 0x1F DUP10 AND DUP3 PUSH2 0x1A99 JUMP JUMPDEST DUP4 SSTORE POP JUMPDEST PUSH1 0x1 PUSH1 0x2 DUP9 MUL ADD DUP9 SSTORE POP POP POP JUMPDEST POP POP POP POP POP POP JUMP JUMPDEST PUSH32 0x4E487B7100000000000000000000000000000000000000000000000000000000 PUSH0 MSTORE PUSH1 0x11 PUSH1 0x4 MSTORE PUSH1 0x24 PUSH0 REVERT JUMPDEST PUSH0 PUSH2 0x1BD6 DUP3 PUSH2 0x1261 JUMP JUMPDEST SWAP2 POP PUSH32 0xFFFFFFFFFFFFFFFFFFFFFFFFFFFFFFFFFFFFFFFFFFFFFFFFFFFFFFFFFFFFFFFF DUP3 SUB PUSH2 0x1C08 JUMPI PUSH2 0x1C07 PUSH2 0x1B9F JUMP JUMPDEST JUMPDEST PUSH1 0x1 DUP3 ADD SWAP1 POP SWAP2 SWAP1 POP JUMP JUMPDEST PUSH0 PUSH2 0x1C1D DUP3 PUSH2 0x1261 JUMP JUMPDEST SWAP2 POP PUSH2 0x1C28 DUP4 PUSH2 0x1261 JUMP JUMPDEST SWAP3 POP DUP3 DUP3 SUB SWAP1 POP DUP2 DUP2 GT ISZERO PUSH2 0x1C40 JUMPI PUSH2 0x1C3F PUSH2 0x1B9F JUMP JUMPDEST JUMPDEST SWAP3 SWAP2 POP POP JUMP JUMPDEST PUSH0 DUP2 SWAP1 POP SWAP2 SWAP1 POP JUMP JUMPDEST PUSH2 0x1C58 DUP2 PUSH2 0x1C46 JUMP JUMPDEST DUP3 MSTORE POP POP JUMP JUMPDEST PUSH0 PUSH1 0x60 DUP3 ADD SWAP1 POP PUSH2 0x1C71 PUSH0 DUP4 ADD DUP7 PUSH2 0x1503 JUMP JUMPDEST PUSH2 0x1C7E PUSH1 0x20 DUP4 ADD DUP6 PUSH2 0x1C4F JUMP JUMPDEST PUSH2 0x1C8B PUSH1 0x40 DUP4 ADD DUP5 PUSH2 0x1503 JUMP JUMPDEST SWAP5 SWAP4 POP POP POP POP JUMP JUMPDEST PUSH32 0x476F617420646F6573206E6F7420657869737400000000000000000000000000 PUSH0 DUP3 ADD MSTORE POP JUMP JUMPDEST PUSH0 PUSH2 0x1CC7 PUSH1 0x13 DUP4 PUSH2 0x14AD JUMP JUMPDEST SWAP2 POP PUSH2 0x1CD2 DUP3 PUSH2 0x1C93 JUMP JUMPDEST PUSH1 0x20 DUP3 ADD SWAP1 POP SWAP2 SWAP1 POP JUMP JUMPDEST PUSH0 PUSH1 0x20 DUP3 ADD SWAP1 POP DUP2 DUP2 SUB PUSH0 DUP4 ADD MSTORE PUSH2 0x1CF4 DUP2 PUSH2 0x1CBB JUMP JUMPDEST SWAP1 POP SWAP2 SWAP1 POP JUMP JUMPDEST PUSH0 PUSH2 0x1D05 DUP3 PUSH2 0x1261 JUMP JUMPDEST SWAP2 POP PUSH2 0x1D10 DUP4 PUSH2 0x1261 JUMP JUMPDEST SWAP3 POP DUP3 DUP3 MUL PUSH2 0x1D1E DUP2 PUSH2 0x1261 JUMP JUMPDEST SWAP2 POP DUP3 DUP3 DIV DUP5 EQ DUP4 ISZERO OR PUSH2 0x1D35 JUMPI PUSH2 0x1D34 PUSH2 0x1B9F JUMP JUMPDEST JUMPDEST POP SWAP3 SWAP2 POP POP JUMP JUMPDEST PUSH0 PUSH2 0x1D46 DUP3 PUSH2 0x1261 JUMP JUMPDEST SWAP2 POP PUSH2 0x1D51 DUP4 PUSH2 0x1261 JUMP JUMPDEST SWAP3 POP DUP3 DUP3 ADD SWAP1 POP DUP1 DUP3 GT ISZERO PUSH2 0x1D69 JUMPI PUSH2 0x1D68 PUSH2 0x1B9F JUMP JUMPDEST JUMPDEST SWAP3 SWAP2 POP POP JUMP JUMPDEST PUSH0 DUP2 SWAP1 POP SWAP3 SWAP2 POP POP JUMP JUMPDEST PUSH32 0x4C6F63616C000000000000000000000000000000000000000000000000000000 PUSH0 DUP3 ADD MSTORE POP JUMP JUMPDEST PUSH0 PUSH2 0x1DAD PUSH1 0x5 DUP4 PUSH2 0x1D6F JUMP JUMPDEST SWAP2 POP PUSH2 0x1DB8 DUP3 PUSH2 0x1D79 JUMP JUMPDEST PUSH1 0x5 DUP3 ADD SWAP1 POP SWAP2 SWAP1 POP JUMP JUMPDEST PUSH0 PUSH2 0x1DCD DUP3 PUSH2 0x1DA1 JUMP JUMPDEST SWAP2 POP DUP2 SWAP1 POP SWAP2 SWAP1 POP JUMP JUMPDEST PUSH0 PUSH2 0x1DE1 DUP3 PUSH2 0x14A3 JUMP JUMPDEST PUSH2 0x1DEB DUP2 DUP6 PUSH2 0x1D6F JUMP JUMPDEST SWAP4 POP PUSH2 0x1DFB DUP2 DUP6 PUSH1 0x20 DUP7 ADD PUSH2 0x14BD JUMP JUMPDEST DUP1 DUP5 ADD SWAP2 POP POP SWAP3 SWAP2 POP POP JUMP JUMPDEST PUSH0 PUSH2 0x1E12 DUP3 DUP5 PUSH2 0x1DD7 JUMP JUMPDEST SWAP2 POP DUP2 SWAP1 POP SWAP3 SWAP2 POP POP JUMP JUMPDEST PUSH32 0x426163685468616F000000000000000000000000000000000000000000000000 PUSH0 DUP3 ADD MSTORE POP JUMP JUMPDEST PUSH0 PUSH2 0x1E51 PUSH1 0x8 DUP4 PUSH2 0x1D6F JUMP JUMPDEST SWAP2 POP PUSH2 0x1E5C DUP3 PUSH2 0x1E1D JUMP JUMPDEST PUSH1 0x8 DUP3 ADD SWAP1 POP SWAP2 SWAP1 POP JUMP JUMPDEST PUSH0 PUSH2 0x1E71 DUP3 PUSH2 0x1E45 JUMP JUMPDEST SWAP2 POP DUP2 SWAP1 POP SWAP2 SWAP1 POP JUMP JUMPDEST PUSH32 0x426F657200000000000000000000000000000000000000000000000000000000 PUSH0 DUP3 ADD MSTORE POP JUMP JUMPDEST PUSH0 PUSH2 0x1EAF PUSH1 0x4 DUP4 PUSH2 0x1D6F JUMP JUMPDEST SWAP2 POP PUSH2 0x1EBA DUP3 PUSH2 0x1E7B JUMP JUMPDEST PUSH1 0x4 DUP3 ADD SWAP1 POP SWAP2 SWAP1 POP JUMP JUMPDEST PUSH0 PUSH2 0x1ECF DUP3 PUSH2 0x1EA3 JUMP JUMPDEST SWAP2 POP DUP2 SWAP1 POP SWAP2 SWAP1 POP JUMP JUMPDEST PUSH32 0x496E76616C696420627265656420747970650000000000000000000000000000 PUSH0 DUP3 ADD MSTORE POP JUMP JUMPDEST PUSH0 PUSH2 0x1F0D PUSH1 0x12 DUP4 PUSH2 0x14AD JUMP JUMPDEST SWAP2 POP PUSH2 0x1F18 DUP3 PUSH2 0x1ED9 JUMP JUMPDEST PUSH1 0x20 DUP3 ADD SWAP1 POP SWAP2 SWAP1 POP JUMP JUMPDEST PUSH0 PUSH1 0x20 DUP3 ADD SWAP1 POP DUP2 DUP2 SUB PUSH0 DUP4 ADD MSTORE PUSH2 0x1F3A DUP2 PUSH2 0x1F01 JUMP JUMPDEST SWAP1 POP SWAP2 SWAP1 POP JUMP INVALID LOG2 PUSH5 0x6970667358 0x22 SLT KECCAK256 0xA8 STOP SWAP10 0xBA 0x24 NOT 0xB4 0x2F STATICCALL MSTORE 0xE4 0xEB 0xD 0xE1 SELFBALANCE JUMPI PUSH17 0xCF506D332F5F23616F17A4BEEEA1DE6473 PUSH16 0x6C634300081C00330000000000000000 "
				},
				"gasEstimates": {
					"creation": {
						"codeDepositCost": "1611000",
						"executionCost": "1685",
						"totalCost": "1612685"
					},
					"external": {
						"addGoat(string,uint256,uint256,string,string,bool,uint8,uint256,uint256,string,string)": "infinite",
						"addProduct(uint256,string,uint256,string)": "infinite",
						"calculateFeedCost(uint256)": "infinite",
						"goatProducts(uint256,uint256)": "infinite",
						"goats(uint256)": "infinite",
						"healthHistory(uint256,uint256)": "infinite",
						"nextGoatId()": "2424",
						"totalMonthlyFeedCost()": "infinite",
						"updateHealth(uint256,string,string,string)": "infinite"
					},
					"internal": {
						"getEnumValue(string memory)": "infinite"
					}
				},
				"methodIdentifiers": {
					"addGoat(string,uint256,uint256,string,string,bool,uint8,uint256,uint256,string,string)": "0e366cbe",
					"addProduct(uint256,string,uint256,string)": "6d25a3d1",
					"calculateFeedCost(uint256)": "7454a9f6",
					"goatProducts(uint256,uint256)": "0f53f667",
					"goats(uint256)": "9af76a90",
					"healthHistory(uint256,uint256)": "28b968ba",
					"nextGoatId()": "609e1e60",
					"totalMonthlyFeedCost()": "79c66a04",
					"updateHealth(uint256,string,string,string)": "338ad5c2"
				}
			},
			"storageLayout": {
				"storage": [
					{
						"astId": 52,
						"contract": "week9/bailamthem/HealthManagement.sol:GoatManagement",
						"label": "nextGoatId",
						"offset": 0,
						"slot": "0",
						"type": "t_uint256"
					},
					{
						"astId": 57,
						"contract": "week9/bailamthem/HealthManagement.sol:GoatManagement",
						"label": "goats",
						"offset": 0,
						"slot": "1",
						"type": "t_mapping(t_uint256,t_struct(Goat)36_storage)"
					},
					{
						"astId": 63,
						"contract": "week9/bailamthem/HealthManagement.sol:GoatManagement",
						"label": "healthHistory",
						"offset": 0,
						"slot": "2",
						"type": "t_mapping(t_uint256,t_array(t_struct(HealthRecord)43_storage)dyn_storage)"
					},
					{
						"astId": 69,
						"contract": "week9/bailamthem/HealthManagement.sol:GoatManagement",
						"label": "goatProducts",
						"offset": 0,
						"slot": "3",
						"type": "t_mapping(t_uint256,t_array(t_struct(Product)50_storage)dyn_storage)"
					}
				],
				"types": {
					"t_array(t_struct(HealthRecord)43_storage)dyn_storage": {
						"base": "t_struct(HealthRecord)43_storage",
						"encoding": "dynamic_array",
						"label": "struct GoatManagement.HealthRecord[]",
						"numberOfBytes": "32"
					},
					"t_array(t_struct(Product)50_storage)dyn_storage": {
						"base": "t_struct(Product)50_storage",
						"encoding": "dynamic_array",
						"label": "struct GoatManagement.Product[]",
						"numberOfBytes": "32"
					},
					"t_bool": {
						"encoding": "inplace",
						"label": "bool",
						"numberOfBytes": "1"
					},
					"t_enum(Breed)5": {
						"encoding": "inplace",
						"label": "enum GoatManagement.Breed",
						"numberOfBytes": "1"
					},
					"t_enum(MatingType)9": {
						"encoding": "inplace",
						"label": "enum GoatManagement.MatingType",
						"numberOfBytes": "1"
					},
					"t_mapping(t_uint256,t_array(t_struct(HealthRecord)43_storage)dyn_storage)": {
						"encoding": "mapping",
						"key": "t_uint256",
						"label": "mapping(uint256 => struct GoatManagement.HealthRecord[])",
						"numberOfBytes": "32",
						"value": "t_array(t_struct(HealthRecord)43_storage)dyn_storage"
					},
					"t_mapping(t_uint256,t_array(t_struct(Product)50_storage)dyn_storage)": {
						"encoding": "mapping",
						"key": "t_uint256",
						"label": "mapping(uint256 => struct GoatManagement.Product[])",
						"numberOfBytes": "32",
						"value": "t_array(t_struct(Product)50_storage)dyn_storage"
					},
					"t_mapping(t_uint256,t_struct(Goat)36_storage)": {
						"encoding": "mapping",
						"key": "t_uint256",
						"label": "mapping(uint256 => struct GoatManagement.Goat)",
						"numberOfBytes": "32",
						"value": "t_struct(Goat)36_storage"
					},
					"t_string_storage": {
						"encoding": "bytes",
						"label": "string",
						"numberOfBytes": "32"
					},
					"t_struct(Goat)36_storage": {
						"encoding": "inplace",
						"label": "struct GoatManagement.Goat",
						"members": [
							{
								"astId": 11,
								"contract": "week9/bailamthem/HealthManagement.sol:GoatManagement",
								"label": "id",
								"offset": 0,
								"slot": "0",
								"type": "t_uint256"
							},
							{
								"astId": 13,
								"contract": "week9/bailamthem/HealthManagement.sol:GoatManagement",
								"label": "code",
								"offset": 0,
								"slot": "1",
								"type": "t_string_storage"
							},
							{
								"astId": 15,
								"contract": "week9/bailamthem/HealthManagement.sol:GoatManagement",
								"label": "age",
								"offset": 0,
								"slot": "2",
								"type": "t_uint256"
							},
							{
								"astId": 17,
								"contract": "week9/bailamthem/HealthManagement.sol:GoatManagement",
								"label": "weight",
								"offset": 0,
								"slot": "3",
								"type": "t_uint256"
							},
							{
								"astId": 20,
								"contract": "week9/bailamthem/HealthManagement.sol:GoatManagement",
								"label": "breed",
								"offset": 0,
								"slot": "4",
								"type": "t_enum(Breed)5"
							},
							{
								"astId": 22,
								"contract": "week9/bailamthem/HealthManagement.sol:GoatManagement",
								"label": "healthStatus",
								"offset": 0,
								"slot": "5",
								"type": "t_string_storage"
							},
							{
								"astId": 24,
								"contract": "week9/bailamthem/HealthManagement.sol:GoatManagement",
								"label": "isBornInFarm",
								"offset": 0,
								"slot": "6",
								"type": "t_bool"
							},
							{
								"astId": 27,
								"contract": "week9/bailamthem/HealthManagement.sol:GoatManagement",
								"label": "mattingType",
								"offset": 1,
								"slot": "6",
								"type": "t_enum(MatingType)9"
							},
							{
								"astId": 29,
								"contract": "week9/bailamthem/HealthManagement.sol:GoatManagement",
								"label": "parent1Id",
								"offset": 0,
								"slot": "7",
								"type": "t_uint256"
							},
							{
								"astId": 31,
								"contract": "week9/bailamthem/HealthManagement.sol:GoatManagement",
								"label": "parent2Id",
								"offset": 0,
								"slot": "8",
								"type": "t_uint256"
							},
							{
								"astId": 33,
								"contract": "week9/bailamthem/HealthManagement.sol:GoatManagement",
								"label": "note",
								"offset": 0,
								"slot": "9",
								"type": "t_string_storage"
							},
							{
								"astId": 35,
								"contract": "week9/bailamthem/HealthManagement.sol:GoatManagement",
								"label": "artificialBreed",
								"offset": 0,
								"slot": "10",
								"type": "t_string_storage"
							}
						],
						"numberOfBytes": "352"
					},
					"t_struct(HealthRecord)43_storage": {
						"encoding": "inplace",
						"label": "struct GoatManagement.HealthRecord",
						"members": [
							{
								"astId": 38,
								"contract": "week9/bailamthem/HealthManagement.sol:GoatManagement",
								"label": "date",
								"offset": 0,
								"slot": "0",
								"type": "t_string_storage"
							},
							{
								"astId": 40,
								"contract": "week9/bailamthem/HealthManagement.sol:GoatManagement",
								"label": "healthStatus",
								"offset": 0,
								"slot": "1",
								"type": "t_string_storage"
							},
							{
								"astId": 42,
								"contract": "week9/bailamthem/HealthManagement.sol:GoatManagement",
								"label": "treatment",
								"offset": 0,
								"slot": "2",
								"type": "t_string_storage"
							}
						],
						"numberOfBytes": "96"
					},
					"t_struct(Product)50_storage": {
						"encoding": "inplace",
						"label": "struct GoatManagement.Product",
						"members": [
							{
								"astId": 45,
								"contract": "week9/bailamthem/HealthManagement.sol:GoatManagement",
								"label": "productType",
								"offset": 0,
								"slot": "0",
								"type": "t_string_storage"
							},
							{
								"astId": 47,
								"contract": "week9/bailamthem/HealthManagement.sol:GoatManagement",
								"label": "quantity",
								"offset": 0,
								"slot": "1",
								"type": "t_uint256"
							},
							{
								"astId": 49,
								"contract": "week9/bailamthem/HealthManagement.sol:GoatManagement",
								"label": "harvestDate",
								"offset": 0,
								"slot": "2",
								"type": "t_string_storage"
							}
						],
						"numberOfBytes": "96"
					},
					"t_uint256": {
						"encoding": "inplace",
						"label": "uint256",
						"numberOfBytes": "32"
					}
				}
			},
			"userdoc": {
				"kind": "user",
				"methods": {},
				"version": 1
			}
		}
	}
}