{
	"data": {
		"bytecode": {
			"linkReferences": {},
			"object": "6080604052348015600e575f5ffd5b50610e7a8061001c5f395ff3fe608060405234801561000f575f5ffd5b5060043610610060575f3560e01c80632d561787146100645780637acc0b2014610080578063b9db15b4146100b3578063c27ed2a2146100e6578063e0f6ef8714610102578063ed90c7b714610120575b5f5ffd5b61007e60048036038101906100799190610810565b61013c565b005b61009a60048036038101906100959190610890565b61022f565b6040516100aa949392919061092a565b60405180910390f35b6100cd60048036038101906100c89190610890565b6102e0565b6040516100dd949392919061092a565b60405180910390f35b61010060048036038101906100fb9190610810565b610427565b005b61010a610546565b6040516101179190610974565b60405180910390f35b61013a60048036038101906101359190610890565b61054c565b005b5f5f5f8681526020019081526020015f205f015403610190576040517f08c379a0000000000000000000000000000000000000000000000000000000008152600401610187906109d7565b60405180910390fd5b825f5f8681526020019081526020015f2060010190816101b09190610bf2565b50815f5f8681526020019081526020015f2060020181905550805f5f8681526020019081526020015f20600301819055507f7efab20ab4c4d8c33ecd03458d6147bf7ccc1faa40dfeedd6f2d7a7cf28a12d73a6001436102109190610cee565b404360405161022193929190610d39565b60405180910390a150505050565b5f602052805f5260405f205f91509050805f01549080600101805461025390610a22565b80601f016020809104026020016040519081016040528092919081815260200182805461027f90610a22565b80156102ca5780601f106102a1576101008083540402835291602001916102ca565b820191905f5260205f20905b8154815290600101906020018083116102ad57829003601f168201915b5050505050908060020154908060030154905084565b5f60605f5f5f5f5f8781526020019081526020015f205f015403610339576040517f08c379a0000000000000000000000000000000000000000000000000000000008152600401610330906109d7565b60405180910390fd5b5f5f5f8781526020019081526020015f206040518060800160405290815f820154815260200160018201805461036e90610a22565b80601f016020809104026020016040519081016040528092919081815260200182805461039a90610a22565b80156103e55780601f106103bc576101008083540402835291602001916103e5565b820191905f5260205f20905b8154815290600101906020018083116103c857829003601f168201915b50505050508152602001600282015481526020016003820154815250509050805f01518160200151826040015183606001519450945094509450509193509193565b5f5f5f8681526020019081526020015f205f01541461047b576040517f08c379a000000000000000000000000000000000000000000000000000000000815260040161047290610db8565b60405180910390fd5b6040518060800160405280858152602001848152602001838152602001828152505f5f8681526020019081526020015f205f820151815f015560208201518160010190816104c99190610bf2565b50604082015181600201556060820151816003015590505060015f8154809291906104f390610dd6565b91905055507f7efab20ab4c4d8c33ecd03458d6147bf7ccc1faa40dfeedd6f2d7a7cf28a12d73a6001436105279190610cee565b404360405161053893929190610d39565b60405180910390a150505050565b60015481565b5f5f5f8381526020019081526020015f205f0154036105a0576040517f08c379a0000000000000000000000000000000000000000000000000000000008152600401610597906109d7565b60405180910390fd5b5f5f8281526020019081526020015f205f5f82015f9055600182015f6105c69190610638565b600282015f9055600382015f9055505060015f8154809291906105e890610e1d565b91905055507f7efab20ab4c4d8c33ecd03458d6147bf7ccc1faa40dfeedd6f2d7a7cf28a12d73a60014361061c9190610cee565b404360405161062d93929190610d39565b60405180910390a150565b50805461064490610a22565b5f825580601f106106555750610672565b601f0160209004905f5260205f20908101906106719190610675565b5b50565b5b8082111561068c575f815f905550600101610676565b5090565b5f604051905090565b5f5ffd5b5f5ffd5b5f819050919050565b6106b3816106a1565b81146106bd575f5ffd5b50565b5f813590506106ce816106aa565b92915050565b5f5ffd5b5f5ffd5b5f601f19601f8301169050919050565b7f4e487b71000000000000000000000000000000000000000000000000000000005f52604160045260245ffd5b610722826106dc565b810181811067ffffffffffffffff82111715610741576107406106ec565b5b80604052505050565b5f610753610690565b905061075f8282610719565b919050565b5f67ffffffffffffffff82111561077e5761077d6106ec565b5b610787826106dc565b9050602081019050919050565b828183375f83830152505050565b5f6107b46107af84610764565b61074a565b9050828152602081018484840111156107d0576107cf6106d8565b5b6107db848285610794565b509392505050565b5f82601f8301126107f7576107f66106d4565b5b81356108078482602086016107a2565b91505092915050565b5f5f5f5f6080858703121561082857610827610699565b5b5f610835878288016106c0565b945050602085013567ffffffffffffffff8111156108565761085561069d565b5b610862878288016107e3565b9350506040610873878288016106c0565b9250506060610884878288016106c0565b91505092959194509250565b5f602082840312156108a5576108a4610699565b5b5f6108b2848285016106c0565b91505092915050565b6108c4816106a1565b82525050565b5f81519050919050565b5f82825260208201905092915050565b8281835e5f83830152505050565b5f6108fc826108ca565b61090681856108d4565b93506109168185602086016108e4565b61091f816106dc565b840191505092915050565b5f60808201905061093d5f8301876108bb565b818103602083015261094f81866108f2565b905061095e60408301856108bb565b61096b60608301846108bb565b95945050505050565b5f6020820190506109875f8301846108bb565b92915050565b7f50726f6475637420494420646f6573206e6f74206578697374000000000000005f82015250565b5f6109c16019836108d4565b91506109cc8261098d565b602082019050919050565b5f6020820190508181035f8301526109ee816109b5565b9050919050565b7f4e487b71000000000000000000000000000000000000000000000000000000005f52602260045260245ffd5b5f6002820490506001821680610a3957607f821691505b602082108103610a4c57610a4b6109f5565b5b50919050565b5f819050815f5260205f209050919050565b5f6020601f8301049050919050565b5f82821b905092915050565b5f60088302610aae7fffffffffffffffffffffffffffffffffffffffffffffffffffffffffffffffff82610a73565b610ab88683610a73565b95508019841693508086168417925050509392505050565b5f819050919050565b5f610af3610aee610ae9846106a1565b610ad0565b6106a1565b9050919050565b5f819050919050565b610b0c83610ad9565b610b20610b1882610afa565b848454610a7f565b825550505050565b5f5f905090565b610b37610b28565b610b42818484610b03565b505050565b5b81811015610b6557610b5a5f82610b2f565b600181019050610b48565b5050565b601f821115610baa57610b7b81610a52565b610b8484610a64565b81016020851015610b93578190505b610ba7610b9f85610a64565b830182610b47565b50505b505050565b5f82821c905092915050565b5f610bca5f1984600802610baf565b1980831691505092915050565b5f610be28383610bbb565b9150826002028217905092915050565b610bfb826108ca565b67ffffffffffffffff811115610c1457610c136106ec565b5b610c1e8254610a22565b610c29828285610b69565b5f60209050601f831160018114610c5a575f8415610c48578287015190505b610c528582610bd7565b865550610cb9565b601f198416610c6886610a52565b5f5b82811015610c8f57848901518255600182019150602085019450602081019050610c6a565b86831015610cac5784890151610ca8601f891682610bbb565b8355505b6001600288020188555050505b505050505050565b7f4e487b71000000000000000000000000000000000000000000000000000000005f52601160045260245ffd5b5f610cf8826106a1565b9150610d03836106a1565b9250828203905081811115610d1b57610d1a610cc1565b5b92915050565b5f819050919050565b610d3381610d21565b82525050565b5f606082019050610d4c5f8301866108bb565b610d596020830185610d2a565b610d6660408301846108bb565b949350505050565b7f50726f6475637420494420616c726561647920657869737473000000000000005f82015250565b5f610da26019836108d4565b9150610dad82610d6e565b602082019050919050565b5f6020820190508181035f830152610dcf81610d96565b9050919050565b5f610de0826106a1565b91507fffffffffffffffffffffffffffffffffffffffffffffffffffffffffffffffff8203610e1257610e11610cc1565b5b600182019050919050565b5f610e27826106a1565b91505f8203610e3957610e38610cc1565b5b60018203905091905056fea26469706673582212202c6f2ea79bde32ea1e8b36fb23143293dbc8d706d82a69aa08130b5a7a3d958f64736f6c634300081c0033",
			"opcodes": "PUSH1 0x80 PUSH1 0x40 MSTORE CALLVALUE DUP1 ISZERO PUSH1 0xE JUMPI PUSH0 PUSH0 REVERT JUMPDEST POP PUSH2 0xE7A DUP1 PUSH2 0x1C PUSH0 CODECOPY PUSH0 RETURN INVALID PUSH1 0x80 PUSH1 0x40 MSTORE CALLVALUE DUP1 ISZERO PUSH2 0xF JUMPI PUSH0 PUSH0 REVERT JUMPDEST POP PUSH1 0x4 CALLDATASIZE LT PUSH2 0x60 JUMPI PUSH0 CALLDATALOAD PUSH1 0xE0 SHR DUP1 PUSH4 0x2D561787 EQ PUSH2 0x64 JUMPI DUP1 PUSH4 0x7ACC0B20 EQ PUSH2 0x80 JUMPI DUP1 PUSH4 0xB9DB15B4 EQ PUSH2 0xB3 JUMPI DUP1 PUSH4 0xC27ED2A2 EQ PUSH2 0xE6 JUMPI DUP1 PUSH4 0xE0F6EF87 EQ PUSH2 0x102 JUMPI DUP1 PUSH4 0xED90C7B7 EQ PUSH2 0x120 JUMPI JUMPDEST PUSH0 PUSH0 REVERT JUMPDEST PUSH2 0x7E PUSH1 0x4 DUP1 CALLDATASIZE SUB DUP2 ADD SWAP1 PUSH2 0x79 SWAP2 SWAP1 PUSH2 0x810 JUMP JUMPDEST PUSH2 0x13C JUMP JUMPDEST STOP JUMPDEST PUSH2 0x9A PUSH1 0x4 DUP1 CALLDATASIZE SUB DUP2 ADD SWAP1 PUSH2 0x95 SWAP2 SWAP1 PUSH2 0x890 JUMP JUMPDEST PUSH2 0x22F JUMP JUMPDEST PUSH1 0x40 MLOAD PUSH2 0xAA SWAP5 SWAP4 SWAP3 SWAP2 SWAP1 PUSH2 0x92A JUMP JUMPDEST PUSH1 0x40 MLOAD DUP1 SWAP2 SUB SWAP1 RETURN JUMPDEST PUSH2 0xCD PUSH1 0x4 DUP1 CALLDATASIZE SUB DUP2 ADD SWAP1 PUSH2 0xC8 SWAP2 SWAP1 PUSH2 0x890 JUMP JUMPDEST PUSH2 0x2E0 JUMP JUMPDEST PUSH1 0x40 MLOAD PUSH2 0xDD SWAP5 SWAP4 SWAP3 SWAP2 SWAP1 PUSH2 0x92A JUMP JUMPDEST PUSH1 0x40 MLOAD DUP1 SWAP2 SUB SWAP1 RETURN JUMPDEST PUSH2 0x100 PUSH1 0x4 DUP1 CALLDATASIZE SUB DUP2 ADD SWAP1 PUSH2 0xFB SWAP2 SWAP1 PUSH2 0x810 JUMP JUMPDEST PUSH2 0x427 JUMP JUMPDEST STOP JUMPDEST PUSH2 0x10A PUSH2 0x546 JUMP JUMPDEST PUSH1 0x40 MLOAD PUSH2 0x117 SWAP2 SWAP1 PUSH2 0x974 JUMP JUMPDEST PUSH1 0x40 MLOAD DUP1 SWAP2 SUB SWAP1 RETURN JUMPDEST PUSH2 0x13A PUSH1 0x4 DUP1 CALLDATASIZE SUB DUP2 ADD SWAP1 PUSH2 0x135 SWAP2 SWAP1 PUSH2 0x890 JUMP JUMPDEST PUSH2 0x54C JUMP JUMPDEST STOP JUMPDEST PUSH0 PUSH0 PUSH0 DUP7 DUP2 MSTORE PUSH1 0x20 ADD SWAP1 DUP2 MSTORE PUSH1 0x20 ADD PUSH0 KECCAK256 PUSH0 ADD SLOAD SUB PUSH2 0x190 JUMPI PUSH1 0x40 MLOAD PUSH32 0x8C379A000000000000000000000000000000000000000000000000000000000 DUP2 MSTORE PUSH1 0x4 ADD PUSH2 0x187 SWAP1 PUSH2 0x9D7 JUMP JUMPDEST PUSH1 0x40 MLOAD DUP1 SWAP2 SUB SWAP1 REVERT JUMPDEST DUP3 PUSH0 PUSH0 DUP7 DUP2 MSTORE PUSH1 0x20 ADD SWAP1 DUP2 MSTORE PUSH1 0x20 ADD PUSH0 KECCAK256 PUSH1 0x1 ADD SWAP1 DUP2 PUSH2 0x1B0 SWAP2 SWAP1 PUSH2 0xBF2 JUMP JUMPDEST POP DUP2 PUSH0 PUSH0 DUP7 DUP2 MSTORE PUSH1 0x20 ADD SWAP1 DUP2 MSTORE PUSH1 0x20 ADD PUSH0 KECCAK256 PUSH1 0x2 ADD DUP2 SWAP1 SSTORE POP DUP1 PUSH0 PUSH0 DUP7 DUP2 MSTORE PUSH1 0x20 ADD SWAP1 DUP2 MSTORE PUSH1 0x20 ADD PUSH0 KECCAK256 PUSH1 0x3 ADD DUP2 SWAP1 SSTORE POP PUSH32 0x7EFAB20AB4C4D8C33ECD03458D6147BF7CCC1FAA40DFEEDD6F2D7A7CF28A12D7 GASPRICE PUSH1 0x1 NUMBER PUSH2 0x210 SWAP2 SWAP1 PUSH2 0xCEE JUMP JUMPDEST BLOCKHASH NUMBER PUSH1 0x40 MLOAD PUSH2 0x221 SWAP4 SWAP3 SWAP2 SWAP1 PUSH2 0xD39 JUMP JUMPDEST PUSH1 0x40 MLOAD DUP1 SWAP2 SUB SWAP1 LOG1 POP POP POP POP JUMP JUMPDEST PUSH0 PUSH1 0x20 MSTORE DUP1 PUSH0 MSTORE PUSH1 0x40 PUSH0 KECCAK256 PUSH0 SWAP2 POP SWAP1 POP DUP1 PUSH0 ADD SLOAD SWAP1 DUP1 PUSH1 0x1 ADD DUP1 SLOAD PUSH2 0x253 SWAP1 PUSH2 0xA22 JUMP JUMPDEST DUP1 PUSH1 0x1F ADD PUSH1 0x20 DUP1 SWAP2 DIV MUL PUSH1 0x20 ADD PUSH1 0x40 MLOAD SWAP1 DUP2 ADD PUSH1 0x40 MSTORE DUP1 SWAP3 SWAP2 SWAP1 DUP2 DUP2 MSTORE PUSH1 0x20 ADD DUP3 DUP1 SLOAD PUSH2 0x27F SWAP1 PUSH2 0xA22 JUMP JUMPDEST DUP1 ISZERO PUSH2 0x2CA JUMPI DUP1 PUSH1 0x1F LT PUSH2 0x2A1 JUMPI PUSH2 0x100 DUP1 DUP4 SLOAD DIV MUL DUP4 MSTORE SWAP2 PUSH1 0x20 ADD SWAP2 PUSH2 0x2CA JUMP JUMPDEST DUP3 ADD SWAP2 SWAP1 PUSH0 MSTORE PUSH1 0x20 PUSH0 KECCAK256 SWAP1 JUMPDEST DUP2 SLOAD DUP2 MSTORE SWAP1 PUSH1 0x1 ADD SWAP1 PUSH1 0x20 ADD DUP1 DUP4 GT PUSH2 0x2AD JUMPI DUP3 SWAP1 SUB PUSH1 0x1F AND DUP3 ADD SWAP2 JUMPDEST POP POP POP POP POP SWAP1 DUP1 PUSH1 0x2 ADD SLOAD SWAP1 DUP1 PUSH1 0x3 ADD SLOAD SWAP1 POP DUP5 JUMP JUMPDEST PUSH0 PUSH1 0x60 PUSH0 PUSH0 PUSH0 PUSH0 PUSH0 DUP8 DUP2 MSTORE PUSH1 0x20 ADD SWAP1 DUP2 MSTORE PUSH1 0x20 ADD PUSH0 KECCAK256 PUSH0 ADD SLOAD SUB PUSH2 0x339 JUMPI PUSH1 0x40 MLOAD PUSH32 0x8C379A000000000000000000000000000000000000000000000000000000000 DUP2 MSTORE PUSH1 0x4 ADD PUSH2 0x330 SWAP1 PUSH2 0x9D7 JUMP JUMPDEST PUSH1 0x40 MLOAD DUP1 SWAP2 SUB SWAP1 REVERT JUMPDEST PUSH0 PUSH0 PUSH0 DUP8 DUP2 MSTORE PUSH1 0x20 ADD SWAP1 DUP2 MSTORE PUSH1 0x20 ADD PUSH0 KECCAK256 PUSH1 0x40 MLOAD DUP1 PUSH1 0x80 ADD PUSH1 0x40 MSTORE SWAP1 DUP2 PUSH0 DUP3 ADD SLOAD DUP2 MSTORE PUSH1 0x20 ADD PUSH1 0x1 DUP3 ADD DUP1 SLOAD PUSH2 0x36E SWAP1 PUSH2 0xA22 JUMP JUMPDEST DUP1 PUSH1 0x1F ADD PUSH1 0x20 DUP1 SWAP2 DIV MUL PUSH1 0x20 ADD PUSH1 0x40 MLOAD SWAP1 DUP2 ADD PUSH1 0x40 MSTORE DUP1 SWAP3 SWAP2 SWAP1 DUP2 DUP2 MSTORE PUSH1 0x20 ADD DUP3 DUP1 SLOAD PUSH2 0x39A SWAP1 PUSH2 0xA22 JUMP JUMPDEST DUP1 ISZERO PUSH2 0x3E5 JUMPI DUP1 PUSH1 0x1F LT PUSH2 0x3BC JUMPI PUSH2 0x100 DUP1 DUP4 SLOAD DIV MUL DUP4 MSTORE SWAP2 PUSH1 0x20 ADD SWAP2 PUSH2 0x3E5 JUMP JUMPDEST DUP3 ADD SWAP2 SWAP1 PUSH0 MSTORE PUSH1 0x20 PUSH0 KECCAK256 SWAP1 JUMPDEST DUP2 SLOAD DUP2 MSTORE SWAP1 PUSH1 0x1 ADD SWAP1 PUSH1 0x20 ADD DUP1 DUP4 GT PUSH2 0x3C8 JUMPI DUP3 SWAP1 SUB PUSH1 0x1F AND DUP3 ADD SWAP2 JUMPDEST POP POP POP POP POP DUP2 MSTORE PUSH1 0x20 ADD PUSH1 0x2 DUP3 ADD SLOAD DUP2 MSTORE PUSH1 0x20 ADD PUSH1 0x3 DUP3 ADD SLOAD DUP2 MSTORE POP POP SWAP1 POP DUP1 PUSH0 ADD MLOAD DUP2 PUSH1 0x20 ADD MLOAD DUP3 PUSH1 0x40 ADD MLOAD DUP4 PUSH1 0x60 ADD MLOAD SWAP5 POP SWAP5 POP SWAP5 POP SWAP5 POP POP SWAP2 SWAP4 POP SWAP2 SWAP4 JUMP JUMPDEST PUSH0 PUSH0 PUSH0 DUP7 DUP2 MSTORE PUSH1 0x20 ADD SWAP1 DUP2 MSTORE PUSH1 0x20 ADD PUSH0 KECCAK256 PUSH0 ADD SLOAD EQ PUSH2 0x47B JUMPI PUSH1 0x40 MLOAD PUSH32 0x8C379A000000000000000000000000000000000000000000000000000000000 DUP2 MSTORE PUSH1 0x4 ADD PUSH2 0x472 SWAP1 PUSH2 0xDB8 JUMP JUMPDEST PUSH1 0x40 MLOAD DUP1 SWAP2 SUB SWAP1 REVERT JUMPDEST PUSH1 0x40 MLOAD DUP1 PUSH1 0x80 ADD PUSH1 0x40 MSTORE DUP1 DUP6 DUP2 MSTORE PUSH1 0x20 ADD DUP5 DUP2 MSTORE PUSH1 0x20 ADD DUP4 DUP2 MSTORE PUSH1 0x20 ADD DUP3 DUP2 MSTORE POP PUSH0 PUSH0 DUP7 DUP2 MSTORE PUSH1 0x20 ADD SWAP1 DUP2 MSTORE PUSH1 0x20 ADD PUSH0 KECCAK256 PUSH0 DUP3 ADD MLOAD DUP2 PUSH0 ADD SSTORE PUSH1 0x20 DUP3 ADD MLOAD DUP2 PUSH1 0x1 ADD SWAP1 DUP2 PUSH2 0x4C9 SWAP2 SWAP1 PUSH2 0xBF2 JUMP JUMPDEST POP PUSH1 0x40 DUP3 ADD MLOAD DUP2 PUSH1 0x2 ADD SSTORE PUSH1 0x60 DUP3 ADD MLOAD DUP2 PUSH1 0x3 ADD SSTORE SWAP1 POP POP PUSH1 0x1 PUSH0 DUP2 SLOAD DUP1 SWAP3 SWAP2 SWAP1 PUSH2 0x4F3 SWAP1 PUSH2 0xDD6 JUMP JUMPDEST SWAP2 SWAP1 POP SSTORE POP PUSH32 0x7EFAB20AB4C4D8C33ECD03458D6147BF7CCC1FAA40DFEEDD6F2D7A7CF28A12D7 GASPRICE PUSH1 0x1 NUMBER PUSH2 0x527 SWAP2 SWAP1 PUSH2 0xCEE JUMP JUMPDEST BLOCKHASH NUMBER PUSH1 0x40 MLOAD PUSH2 0x538 SWAP4 SWAP3 SWAP2 SWAP1 PUSH2 0xD39 JUMP JUMPDEST PUSH1 0x40 MLOAD DUP1 SWAP2 SUB SWAP1 LOG1 POP POP POP POP JUMP JUMPDEST PUSH1 0x1 SLOAD DUP2 JUMP JUMPDEST PUSH0 PUSH0 PUSH0 DUP4 DUP2 MSTORE PUSH1 0x20 ADD SWAP1 DUP2 MSTORE PUSH1 0x20 ADD PUSH0 KECCAK256 PUSH0 ADD SLOAD SUB PUSH2 0x5A0 JUMPI PUSH1 0x40 MLOAD PUSH32 0x8C379A000000000000000000000000000000000000000000000000000000000 DUP2 MSTORE PUSH1 0x4 ADD PUSH2 0x597 SWAP1 PUSH2 0x9D7 JUMP JUMPDEST PUSH1 0x40 MLOAD DUP1 SWAP2 SUB SWAP1 REVERT JUMPDEST PUSH0 PUSH0 DUP3 DUP2 MSTORE PUSH1 0x20 ADD SWAP1 DUP2 MSTORE PUSH1 0x20 ADD PUSH0 KECCAK256 PUSH0 PUSH0 DUP3 ADD PUSH0 SWAP1 SSTORE PUSH1 0x1 DUP3 ADD PUSH0 PUSH2 0x5C6 SWAP2 SWAP1 PUSH2 0x638 JUMP JUMPDEST PUSH1 0x2 DUP3 ADD PUSH0 SWAP1 SSTORE PUSH1 0x3 DUP3 ADD PUSH0 SWAP1 SSTORE POP POP PUSH1 0x1 PUSH0 DUP2 SLOAD DUP1 SWAP3 SWAP2 SWAP1 PUSH2 0x5E8 SWAP1 PUSH2 0xE1D JUMP JUMPDEST SWAP2 SWAP1 POP SSTORE POP PUSH32 0x7EFAB20AB4C4D8C33ECD03458D6147BF7CCC1FAA40DFEEDD6F2D7A7CF28A12D7 GASPRICE PUSH1 0x1 NUMBER PUSH2 0x61C SWAP2 SWAP1 PUSH2 0xCEE JUMP JUMPDEST BLOCKHASH NUMBER PUSH1 0x40 MLOAD PUSH2 0x62D SWAP4 SWAP3 SWAP2 SWAP1 PUSH2 0xD39 JUMP JUMPDEST PUSH1 0x40 MLOAD DUP1 SWAP2 SUB SWAP1 LOG1 POP JUMP JUMPDEST POP DUP1 SLOAD PUSH2 0x644 SWAP1 PUSH2 0xA22 JUMP JUMPDEST PUSH0 DUP3 SSTORE DUP1 PUSH1 0x1F LT PUSH2 0x655 JUMPI POP PUSH2 0x672 JUMP JUMPDEST PUSH1 0x1F ADD PUSH1 0x20 SWAP1 DIV SWAP1 PUSH0 MSTORE PUSH1 0x20 PUSH0 KECCAK256 SWAP1 DUP2 ADD SWAP1 PUSH2 0x671 SWAP2 SWAP1 PUSH2 0x675 JUMP JUMPDEST JUMPDEST POP JUMP JUMPDEST JUMPDEST DUP1 DUP3 GT ISZERO PUSH2 0x68C JUMPI PUSH0 DUP2 PUSH0 SWAP1 SSTORE POP PUSH1 0x1 ADD PUSH2 0x676 JUMP JUMPDEST POP SWAP1 JUMP JUMPDEST PUSH0 PUSH1 0x40 MLOAD SWAP1 POP SWAP1 JUMP JUMPDEST PUSH0 PUSH0 REVERT JUMPDEST PUSH0 PUSH0 REVERT JUMPDEST PUSH0 DUP2 SWAP1 POP SWAP2 SWAP1 POP JUMP JUMPDEST PUSH2 0x6B3 DUP2 PUSH2 0x6A1 JUMP JUMPDEST DUP2 EQ PUSH2 0x6BD JUMPI PUSH0 PUSH0 REVERT JUMPDEST POP JUMP JUMPDEST PUSH0 DUP2 CALLDATALOAD SWAP1 POP PUSH2 0x6CE DUP2 PUSH2 0x6AA JUMP JUMPDEST SWAP3 SWAP2 POP POP JUMP JUMPDEST PUSH0 PUSH0 REVERT JUMPDEST PUSH0 PUSH0 REVERT JUMPDEST PUSH0 PUSH1 0x1F NOT PUSH1 0x1F DUP4 ADD AND SWAP1 POP SWAP2 SWAP1 POP JUMP JUMPDEST PUSH32 0x4E487B7100000000000000000000000000000000000000000000000000000000 PUSH0 MSTORE PUSH1 0x41 PUSH1 0x4 MSTORE PUSH1 0x24 PUSH0 REVERT JUMPDEST PUSH2 0x722 DUP3 PUSH2 0x6DC JUMP JUMPDEST DUP2 ADD DUP2 DUP2 LT PUSH8 0xFFFFFFFFFFFFFFFF DUP3 GT OR ISZERO PUSH2 0x741 JUMPI PUSH2 0x740 PUSH2 0x6EC JUMP JUMPDEST JUMPDEST DUP1 PUSH1 0x40 MSTORE POP POP POP JUMP JUMPDEST PUSH0 PUSH2 0x753 PUSH2 0x690 JUMP JUMPDEST SWAP1 POP PUSH2 0x75F DUP3 DUP3 PUSH2 0x719 JUMP JUMPDEST SWAP2 SWAP1 POP JUMP JUMPDEST PUSH0 PUSH8 0xFFFFFFFFFFFFFFFF DUP3 GT ISZERO PUSH2 0x77E JUMPI PUSH2 0x77D PUSH2 0x6EC JUMP JUMPDEST JUMPDEST PUSH2 0x787 DUP3 PUSH2 0x6DC JUMP JUMPDEST SWAP1 POP PUSH1 0x20 DUP2 ADD SWAP1 POP SWAP2 SWAP1 POP JUMP JUMPDEST DUP3 DUP2 DUP4 CALLDATACOPY PUSH0 DUP4 DUP4 ADD MSTORE POP POP POP JUMP JUMPDEST PUSH0 PUSH2 0x7B4 PUSH2 0x7AF DUP5 PUSH2 0x764 JUMP JUMPDEST PUSH2 0x74A JUMP JUMPDEST SWAP1 POP DUP3 DUP2 MSTORE PUSH1 0x20 DUP2 ADD DUP5 DUP5 DUP5 ADD GT ISZERO PUSH2 0x7D0 JUMPI PUSH2 0x7CF PUSH2 0x6D8 JUMP JUMPDEST JUMPDEST PUSH2 0x7DB DUP5 DUP3 DUP6 PUSH2 0x794 JUMP JUMPDEST POP SWAP4 SWAP3 POP POP POP JUMP JUMPDEST PUSH0 DUP3 PUSH1 0x1F DUP4 ADD SLT PUSH2 0x7F7 JUMPI PUSH2 0x7F6 PUSH2 0x6D4 JUMP JUMPDEST JUMPDEST DUP2 CALLDATALOAD PUSH2 0x807 DUP5 DUP3 PUSH1 0x20 DUP7 ADD PUSH2 0x7A2 JUMP JUMPDEST SWAP2 POP POP SWAP3 SWAP2 POP POP JUMP JUMPDEST PUSH0 PUSH0 PUSH0 PUSH0 PUSH1 0x80 DUP6 DUP8 SUB SLT ISZERO PUSH2 0x828 JUMPI PUSH2 0x827 PUSH2 0x699 JUMP JUMPDEST JUMPDEST PUSH0 PUSH2 0x835 DUP8 DUP3 DUP9 ADD PUSH2 0x6C0 JUMP JUMPDEST SWAP5 POP POP PUSH1 0x20 DUP6 ADD CALLDATALOAD PUSH8 0xFFFFFFFFFFFFFFFF DUP2 GT ISZERO PUSH2 0x856 JUMPI PUSH2 0x855 PUSH2 0x69D JUMP JUMPDEST JUMPDEST PUSH2 0x862 DUP8 DUP3 DUP9 ADD PUSH2 0x7E3 JUMP JUMPDEST SWAP4 POP POP PUSH1 0x40 PUSH2 0x873 DUP8 DUP3 DUP9 ADD PUSH2 0x6C0 JUMP JUMPDEST SWAP3 POP POP PUSH1 0x60 PUSH2 0x884 DUP8 DUP3 DUP9 ADD PUSH2 0x6C0 JUMP JUMPDEST SWAP2 POP POP SWAP3 SWAP6 SWAP2 SWAP5 POP SWAP3 POP JUMP JUMPDEST PUSH0 PUSH1 0x20 DUP3 DUP5 SUB SLT ISZERO PUSH2 0x8A5 JUMPI PUSH2 0x8A4 PUSH2 0x699 JUMP JUMPDEST JUMPDEST PUSH0 PUSH2 0x8B2 DUP5 DUP3 DUP6 ADD PUSH2 0x6C0 JUMP JUMPDEST SWAP2 POP POP SWAP3 SWAP2 POP POP JUMP JUMPDEST PUSH2 0x8C4 DUP2 PUSH2 0x6A1 JUMP JUMPDEST DUP3 MSTORE POP POP JUMP JUMPDEST PUSH0 DUP2 MLOAD SWAP1 POP SWAP2 SWAP1 POP JUMP JUMPDEST PUSH0 DUP3 DUP3 MSTORE PUSH1 0x20 DUP3 ADD SWAP1 POP SWAP3 SWAP2 POP POP JUMP JUMPDEST DUP3 DUP2 DUP4 MCOPY PUSH0 DUP4 DUP4 ADD MSTORE POP POP POP JUMP JUMPDEST PUSH0 PUSH2 0x8FC DUP3 PUSH2 0x8CA JUMP JUMPDEST PUSH2 0x906 DUP2 DUP6 PUSH2 0x8D4 JUMP JUMPDEST SWAP4 POP PUSH2 0x916 DUP2 DUP6 PUSH1 0x20 DUP7 ADD PUSH2 0x8E4 JUMP JUMPDEST PUSH2 0x91F DUP2 PUSH2 0x6DC JUMP JUMPDEST DUP5 ADD SWAP2 POP POP SWAP3 SWAP2 POP POP JUMP JUMPDEST PUSH0 PUSH1 0x80 DUP3 ADD SWAP1 POP PUSH2 0x93D PUSH0 DUP4 ADD DUP8 PUSH2 0x8BB JUMP JUMPDEST DUP2 DUP2 SUB PUSH1 0x20 DUP4 ADD MSTORE PUSH2 0x94F DUP2 DUP7 PUSH2 0x8F2 JUMP JUMPDEST SWAP1 POP PUSH2 0x95E PUSH1 0x40 DUP4 ADD DUP6 PUSH2 0x8BB JUMP JUMPDEST PUSH2 0x96B PUSH1 0x60 DUP4 ADD DUP5 PUSH2 0x8BB JUMP JUMPDEST SWAP6 SWAP5 POP POP POP POP POP JUMP JUMPDEST PUSH0 PUSH1 0x20 DUP3 ADD SWAP1 POP PUSH2 0x987 PUSH0 DUP4 ADD DUP5 PUSH2 0x8BB JUMP JUMPDEST SWAP3 SWAP2 POP POP JUMP JUMPDEST PUSH32 0x50726F6475637420494420646F6573206E6F7420657869737400000000000000 PUSH0 DUP3 ADD MSTORE POP JUMP JUMPDEST PUSH0 PUSH2 0x9C1 PUSH1 0x19 DUP4 PUSH2 0x8D4 JUMP JUMPDEST SWAP2 POP PUSH2 0x9CC DUP3 PUSH2 0x98D JUMP JUMPDEST PUSH1 0x20 DUP3 ADD SWAP1 POP SWAP2 SWAP1 POP JUMP JUMPDEST PUSH0 PUSH1 0x20 DUP3 ADD SWAP1 POP DUP2 DUP2 SUB PUSH0 DUP4 ADD MSTORE PUSH2 0x9EE DUP2 PUSH2 0x9B5 JUMP JUMPDEST SWAP1 POP SWAP2 SWAP1 POP JUMP JUMPDEST PUSH32 0x4E487B7100000000000000000000000000000000000000000000000000000000 PUSH0 MSTORE PUSH1 0x22 PUSH1 0x4 MSTORE PUSH1 0x24 PUSH0 REVERT JUMPDEST PUSH0 PUSH1 0x2 DUP3 DIV SWAP1 POP PUSH1 0x1 DUP3 AND DUP1 PUSH2 0xA39 JUMPI PUSH1 0x7F DUP3 AND SWAP2 POP JUMPDEST PUSH1 0x20 DUP3 LT DUP2 SUB PUSH2 0xA4C JUMPI PUSH2 0xA4B PUSH2 0x9F5 JUMP JUMPDEST JUMPDEST POP SWAP2 SWAP1 POP JUMP JUMPDEST PUSH0 DUP2 SWAP1 POP DUP2 PUSH0 MSTORE PUSH1 0x20 PUSH0 KECCAK256 SWAP1 POP SWAP2 SWAP1 POP JUMP JUMPDEST PUSH0 PUSH1 0x20 PUSH1 0x1F DUP4 ADD DIV SWAP1 POP SWAP2 SWAP1 POP JUMP JUMPDEST PUSH0 DUP3 DUP3 SHL SWAP1 POP SWAP3 SWAP2 POP POP JUMP JUMPDEST PUSH0 PUSH1 0x8 DUP4 MUL PUSH2 0xAAE PUSH32 0xFFFFFFFFFFFFFFFFFFFFFFFFFFFFFFFFFFFFFFFFFFFFFFFFFFFFFFFFFFFFFFFF DUP3 PUSH2 0xA73 JUMP JUMPDEST PUSH2 0xAB8 DUP7 DUP4 PUSH2 0xA73 JUMP JUMPDEST SWAP6 POP DUP1 NOT DUP5 AND SWAP4 POP DUP1 DUP7 AND DUP5 OR SWAP3 POP POP POP SWAP4 SWAP3 POP POP POP JUMP JUMPDEST PUSH0 DUP2 SWAP1 POP SWAP2 SWAP1 POP JUMP JUMPDEST PUSH0 PUSH2 0xAF3 PUSH2 0xAEE PUSH2 0xAE9 DUP5 PUSH2 0x6A1 JUMP JUMPDEST PUSH2 0xAD0 JUMP JUMPDEST PUSH2 0x6A1 JUMP JUMPDEST SWAP1 POP SWAP2 SWAP1 POP JUMP JUMPDEST PUSH0 DUP2 SWAP1 POP SWAP2 SWAP1 POP JUMP JUMPDEST PUSH2 0xB0C DUP4 PUSH2 0xAD9 JUMP JUMPDEST PUSH2 0xB20 PUSH2 0xB18 DUP3 PUSH2 0xAFA JUMP JUMPDEST DUP5 DUP5 SLOAD PUSH2 0xA7F JUMP JUMPDEST DUP3 SSTORE POP POP POP POP JUMP JUMPDEST PUSH0 PUSH0 SWAP1 POP SWAP1 JUMP JUMPDEST PUSH2 0xB37 PUSH2 0xB28 JUMP JUMPDEST PUSH2 0xB42 DUP2 DUP5 DUP5 PUSH2 0xB03 JUMP JUMPDEST POP POP POP JUMP JUMPDEST JUMPDEST DUP2 DUP2 LT ISZERO PUSH2 0xB65 JUMPI PUSH2 0xB5A PUSH0 DUP3 PUSH2 0xB2F JUMP JUMPDEST PUSH1 0x1 DUP2 ADD SWAP1 POP PUSH2 0xB48 JUMP JUMPDEST POP POP JUMP JUMPDEST PUSH1 0x1F DUP3 GT ISZERO PUSH2 0xBAA JUMPI PUSH2 0xB7B DUP2 PUSH2 0xA52 JUMP JUMPDEST PUSH2 0xB84 DUP5 PUSH2 0xA64 JUMP JUMPDEST DUP2 ADD PUSH1 0x20 DUP6 LT ISZERO PUSH2 0xB93 JUMPI DUP2 SWAP1 POP JUMPDEST PUSH2 0xBA7 PUSH2 0xB9F DUP6 PUSH2 0xA64 JUMP JUMPDEST DUP4 ADD DUP3 PUSH2 0xB47 JUMP JUMPDEST POP POP JUMPDEST POP POP POP JUMP JUMPDEST PUSH0 DUP3 DUP3 SHR SWAP1 POP SWAP3 SWAP2 POP POP JUMP JUMPDEST PUSH0 PUSH2 0xBCA PUSH0 NOT DUP5 PUSH1 0x8 MUL PUSH2 0xBAF JUMP JUMPDEST NOT DUP1 DUP4 AND SWAP2 POP POP SWAP3 SWAP2 POP POP JUMP JUMPDEST PUSH0 PUSH2 0xBE2 DUP4 DUP4 PUSH2 0xBBB JUMP JUMPDEST SWAP2 POP DUP3 PUSH1 0x2 MUL DUP3 OR SWAP1 POP SWAP3 SWAP2 POP POP JUMP JUMPDEST PUSH2 0xBFB DUP3 PUSH2 0x8CA JUMP JUMPDEST PUSH8 0xFFFFFFFFFFFFFFFF DUP2 GT ISZERO PUSH2 0xC14 JUMPI PUSH2 0xC13 PUSH2 0x6EC JUMP JUMPDEST JUMPDEST PUSH2 0xC1E DUP3 SLOAD PUSH2 0xA22 JUMP JUMPDEST PUSH2 0xC29 DUP3 DUP3 DUP6 PUSH2 0xB69 JUMP JUMPDEST PUSH0 PUSH1 0x20 SWAP1 POP PUSH1 0x1F DUP4 GT PUSH1 0x1 DUP2 EQ PUSH2 0xC5A JUMPI PUSH0 DUP5 ISZERO PUSH2 0xC48 JUMPI DUP3 DUP8 ADD MLOAD SWAP1 POP JUMPDEST PUSH2 0xC52 DUP6 DUP3 PUSH2 0xBD7 JUMP JUMPDEST DUP7 SSTORE POP PUSH2 0xCB9 JUMP JUMPDEST PUSH1 0x1F NOT DUP5 AND PUSH2 0xC68 DUP7 PUSH2 0xA52 JUMP JUMPDEST PUSH0 JUMPDEST DUP3 DUP2 LT ISZERO PUSH2 0xC8F JUMPI DUP5 DUP10 ADD MLOAD DUP3 SSTORE PUSH1 0x1 DUP3 ADD SWAP2 POP PUSH1 0x20 DUP6 ADD SWAP5 POP PUSH1 0x20 DUP2 ADD SWAP1 POP PUSH2 0xC6A JUMP JUMPDEST DUP7 DUP4 LT ISZERO PUSH2 0xCAC JUMPI DUP5 DUP10 ADD MLOAD PUSH2 0xCA8 PUSH1 0x1F DUP10 AND DUP3 PUSH2 0xBBB JUMP JUMPDEST DUP4 SSTORE POP JUMPDEST PUSH1 0x1 PUSH1 0x2 DUP9 MUL ADD DUP9 SSTORE POP POP POP JUMPDEST POP POP POP POP POP POP JUMP JUMPDEST PUSH32 0x4E487B7100000000000000000000000000000000000000000000000000000000 PUSH0 MSTORE PUSH1 0x11 PUSH1 0x4 MSTORE PUSH1 0x24 PUSH0 REVERT JUMPDEST PUSH0 PUSH2 0xCF8 DUP3 PUSH2 0x6A1 JUMP JUMPDEST SWAP2 POP PUSH2 0xD03 DUP4 PUSH2 0x6A1 JUMP JUMPDEST SWAP3 POP DUP3 DUP3 SUB SWAP1 POP DUP2 DUP2 GT ISZERO PUSH2 0xD1B JUMPI PUSH2 0xD1A PUSH2 0xCC1 JUMP JUMPDEST JUMPDEST SWAP3 SWAP2 POP POP JUMP JUMPDEST PUSH0 DUP2 SWAP1 POP SWAP2 SWAP1 POP JUMP JUMPDEST PUSH2 0xD33 DUP2 PUSH2 0xD21 JUMP JUMPDEST DUP3 MSTORE POP POP JUMP JUMPDEST PUSH0 PUSH1 0x60 DUP3 ADD SWAP1 POP PUSH2 0xD4C PUSH0 DUP4 ADD DUP7 PUSH2 0x8BB JUMP JUMPDEST PUSH2 0xD59 PUSH1 0x20 DUP4 ADD DUP6 PUSH2 0xD2A JUMP JUMPDEST PUSH2 0xD66 PUSH1 0x40 DUP4 ADD DUP5 PUSH2 0x8BB JUMP JUMPDEST SWAP5 SWAP4 POP POP POP POP JUMP JUMPDEST PUSH32 0x50726F6475637420494420616C72656164792065786973747300000000000000 PUSH0 DUP3 ADD MSTORE POP JUMP JUMPDEST PUSH0 PUSH2 0xDA2 PUSH1 0x19 DUP4 PUSH2 0x8D4 JUMP JUMPDEST SWAP2 POP PUSH2 0xDAD DUP3 PUSH2 0xD6E JUMP JUMPDEST PUSH1 0x20 DUP3 ADD SWAP1 POP SWAP2 SWAP1 POP JUMP JUMPDEST PUSH0 PUSH1 0x20 DUP3 ADD SWAP1 POP DUP2 DUP2 SUB PUSH0 DUP4 ADD MSTORE PUSH2 0xDCF DUP2 PUSH2 0xD96 JUMP JUMPDEST SWAP1 POP SWAP2 SWAP1 POP JUMP JUMPDEST PUSH0 PUSH2 0xDE0 DUP3 PUSH2 0x6A1 JUMP JUMPDEST SWAP2 POP PUSH32 0xFFFFFFFFFFFFFFFFFFFFFFFFFFFFFFFFFFFFFFFFFFFFFFFFFFFFFFFFFFFFFFFF DUP3 SUB PUSH2 0xE12 JUMPI PUSH2 0xE11 PUSH2 0xCC1 JUMP JUMPDEST JUMPDEST PUSH1 0x1 DUP3 ADD SWAP1 POP SWAP2 SWAP1 POP JUMP JUMPDEST PUSH0 PUSH2 0xE27 DUP3 PUSH2 0x6A1 JUMP JUMPDEST SWAP2 POP PUSH0 DUP3 SUB PUSH2 0xE39 JUMPI PUSH2 0xE38 PUSH2 0xCC1 JUMP JUMPDEST JUMPDEST PUSH1 0x1 DUP3 SUB SWAP1 POP SWAP2 SWAP1 POP JUMP INVALID LOG2 PUSH5 0x6970667358 0x22 SLT KECCAK256 0x2C PUSH16 0x2EA79BDE32EA1E8B36FB23143293DBC8 0xD7 MOD 0xD8 0x2A PUSH10 0xAA08130B5A7A3D958F64 PUSH20 0x6F6C634300081C00330000000000000000000000 "
		},
		"gasEstimates": {
			"creation": {
				"codeDepositCost": "741200",
				"executionCost": "771",
				"totalCost": "741971"
			},
			"external": {
				"addProduct(uint256,string,uint256,uint256)": "infinite",
				"deleteProduct(uint256)": "infinite",
				"getProduct(uint256)": "infinite",
				"productCount()": "2491",
				"products(uint256)": "infinite",
				"updateProduct(uint256,string,uint256,uint256)": "infinite"
			}
		},
		"methodIdentifiers": {
			"addProduct(uint256,string,uint256,uint256)": "c27ed2a2",
			"deleteProduct(uint256)": "ed90c7b7",
			"getProduct(uint256)": "b9db15b4",
			"productCount()": "e0f6ef87",
			"products(uint256)": "7acc0b20",
			"updateProduct(uint256,string,uint256,uint256)": "2d561787"
		}
	},
	"abi": [
		{
			"anonymous": false,
			"inputs": [
				{
					"indexed": false,
					"internalType": "uint256",
					"name": "gasUsed",
					"type": "uint256"
				},
				{
					"indexed": false,
					"internalType": "bytes32",
					"name": "txHash",
					"type": "bytes32"
				},
				{
					"indexed": false,
					"internalType": "uint256",
					"name": "blockNumber",
					"type": "uint256"
				}
			],
			"name": "TransactionDetails",
			"type": "event"
		},
		{
			"inputs": [
				{
					"internalType": "uint256",
					"name": "_id",
					"type": "uint256"
				},
				{
					"internalType": "string",
					"name": "_name",
					"type": "string"
				},
				{
					"internalType": "uint256",
					"name": "_quantity",
					"type": "uint256"
				},
				{
					"internalType": "uint256",
					"name": "_price",
					"type": "uint256"
				}
			],
			"name": "addProduct",
			"outputs": [],
			"stateMutability": "nonpayable",
			"type": "function"
		},
		{
			"inputs": [
				{
					"internalType": "uint256",
					"name": "_id",
					"type": "uint256"
				}
			],
			"name": "deleteProduct",
			"outputs": [],
			"stateMutability": "nonpayable",
			"type": "function"
		},
		{
			"inputs": [
				{
					"internalType": "uint256",
					"name": "_id",
					"type": "uint256"
				}
			],
			"name": "getProduct",
			"outputs": [
				{
					"internalType": "uint256",
					"name": "",
					"type": "uint256"
				},
				{
					"internalType": "string",
					"name": "",
					"type": "string"
				},
				{
					"internalType": "uint256",
					"name": "",
					"type": "uint256"
				},
				{
					"internalType": "uint256",
					"name": "",
					"type": "uint256"
				}
			],
			"stateMutability": "view",
			"type": "function"
		},
		{
			"inputs": [],
			"name": "productCount",
			"outputs": [
				{
					"internalType": "uint256",
					"name": "",
					"type": "uint256"
				}
			],
			"stateMutability": "view",
			"type": "function"
		},
		{
			"inputs": [
				{
					"internalType": "uint256",
					"name": "",
					"type": "uint256"
				}
			],
			"name": "products",
			"outputs": [
				{
					"internalType": "uint256",
					"name": "id",
					"type": "uint256"
				},
				{
					"internalType": "string",
					"name": "name",
					"type": "string"
				},
				{
					"internalType": "uint256",
					"name": "quantity",
					"type": "uint256"
				},
				{
					"internalType": "uint256",
					"name": "price",
					"type": "uint256"
				}
			],
			"stateMutability": "view",
			"type": "function"
		},
		{
			"inputs": [
				{
					"internalType": "uint256",
					"name": "_id",
					"type": "uint256"
				},
				{
					"internalType": "string",
					"name": "_name",
					"type": "string"
				},
				{
					"internalType": "uint256",
					"name": "_quantity",
					"type": "uint256"
				},
				{
					"internalType": "uint256",
					"name": "_price",
					"type": "uint256"
				}
			],
			"name": "updateProduct",
			"outputs": [],
			"stateMutability": "nonpayable",
			"type": "function"
		}
	]
}